{
  "contractName": "IsinIssuance",
  "abi": [
    {
      "constant": true,
      "inputs": [],
      "name": "postTradeContractAddress",
      "outputs": [
        {
          "name": "",
          "type": "address"
        }
      ],
      "payable": false,
      "stateMutability": "view",
      "type": "function"
    },
    {
      "inputs": [
        {
          "name": "_postTradeContract",
          "type": "address"
        }
      ],
      "payable": false,
      "stateMutability": "nonpayable",
      "type": "constructor"
    }
  ],
  "bytecode": "0x608060405234801561001057600080fd5b506040516020806101ad8339810180604052810190808051906020019092919050505080600160006101000a81548173ffffffffffffffffffffffffffffffffffffffff021916908373ffffffffffffffffffffffffffffffffffffffff160217905550806000806101000a81548173ffffffffffffffffffffffffffffffffffffffff021916908373ffffffffffffffffffffffffffffffffffffffff1602179055505060ea806100c36000396000f300608060405260043610603f576000357c0100000000000000000000000000000000000000000000000000000000900463ffffffff168063b562a646146044575b600080fd5b348015604f57600080fd5b5060566098565b604051808273ffffffffffffffffffffffffffffffffffffffff1673ffffffffffffffffffffffffffffffffffffffff16815260200191505060405180910390f35b600160009054906101000a900473ffffffffffffffffffffffffffffffffffffffff16815600a165627a7a72305820563cbfa8ca87e96a16173342468f25ddcd76b4492f1c1f4e1fd338d23d9ebf090029",
  "source": "pragma solidity ^0.4.23;\n\n/** @title Post Trade Contract. */\n/** @author Johan Pretorius */\n/** startDate 2018-06-06 */\n\ncontract PostTrade {\n    function issueSecurity (string , uint , string , string ) public {}\n}\n\ncontract IsinIssuance {\n\n    constructor (address _postTradeContract) public {\n        postTradeContractAddress = _postTradeContract;\n        postTradeContract = PostTrade(_postTradeContract);\n        \n    }\n\n    PostTrade postTradeContract;\n    address public postTradeContractAddress;\n\n    //IsinIssuance.deployed().then(function(instance){return instance.postTradeContractAddress()});\n\n}",
  "sourcePath": "/Users/johanp/dev/eth/it_roadmap_2025/contracts/IsinIssuance.sol",
  "compiler": {
    "name": "solc",
    "version": "0.4.24+commit.e67f0147.Emscripten.clang"
  },
  "schemaVersion": "2.0.1",
  "updatedAt": "2018-07-18T09:20:21.631Z"
}