{
  "contractName": "IsinIssuance",
  "abi": [
    {
      "constant": true,
      "inputs": [
        {
          "name": "",
          "type": "address"
        },
        {
          "name": "",
          "type": "uint256"
        }
      ],
      "name": "securitiesToBeVerifiedByParty",
      "outputs": [
        {
          "name": "ISIN",
          "type": "string"
        },
        {
          "name": "totalIssuedShareCap",
          "type": "uint256"
        },
        {
          "name": "longName",
          "type": "string"
        },
        {
          "name": "ticker",
          "type": "string"
        },
        {
          "name": "active",
          "type": "bool"
        },
        {
          "name": "issuer",
          "type": "address"
        },
        {
          "name": "verifier",
          "type": "address"
        }
      ],
      "payable": false,
      "stateMutability": "view",
      "type": "function"
    },
    {
      "constant": true,
      "inputs": [],
      "name": "postTradeContractAddress",
      "outputs": [
        {
          "name": "",
          "type": "address"
        }
      ],
      "payable": false,
      "stateMutability": "view",
      "type": "function"
    },
    {
      "inputs": [
        {
          "name": "_postTradeContract",
          "type": "address"
        }
      ],
      "payable": false,
      "stateMutability": "nonpayable",
      "type": "constructor"
    },
    {
      "constant": false,
      "inputs": [
        {
          "name": "_ISIN",
          "type": "string"
        },
        {
          "name": "_totalIssuedShareCap",
          "type": "uint256"
        },
        {
          "name": "_longName",
          "type": "string"
        },
        {
          "name": "_ticker",
          "type": "string"
        },
        {
          "name": "_counterParty",
          "type": "address"
        }
      ],
      "name": "captureSecurity",
      "outputs": [],
      "payable": false,
      "stateMutability": "nonpayable",
      "type": "function"
    },
    {
      "constant": true,
      "inputs": [
        {
          "name": "_index",
          "type": "uint256"
        }
      ],
      "name": "getSecurityToBeVerified",
      "outputs": [
        {
          "name": "_ISIN",
          "type": "string"
        },
        {
          "name": "_totalIssuedShareCap",
          "type": "uint256"
        },
        {
          "name": "_longName",
          "type": "string"
        },
        {
          "name": "_ticker",
          "type": "string"
        },
        {
          "name": "_active",
          "type": "bool"
        },
        {
          "name": "_issuer",
          "type": "address"
        },
        {
          "name": "_verifier",
          "type": "address"
        }
      ],
      "payable": false,
      "stateMutability": "view",
      "type": "function"
    },
    {
      "constant": false,
      "inputs": [
        {
          "name": "_index",
          "type": "uint256"
        }
      ],
      "name": "verifySecurity",
      "outputs": [],
      "payable": false,
      "stateMutability": "nonpayable",
      "type": "function"
    }
  ],
  "bytecode": "0x608060405234801561001057600080fd5b506040516020806118058339810180604052810190808051906020019092919050505080600160006101000a81548173ffffffffffffffffffffffffffffffffffffffff021916908373ffffffffffffffffffffffffffffffffffffffff160217905550806000806101000a81548173ffffffffffffffffffffffffffffffffffffffff021916908373ffffffffffffffffffffffffffffffffffffffff16021790555033600260006101000a81548173ffffffffffffffffffffffffffffffffffffffff021916908373ffffffffffffffffffffffffffffffffffffffff16021790555050611700806101056000396000f30060806040526004361061006d576000357c0100000000000000000000000000000000000000000000000000000000900463ffffffff1680632175c85d14610072578063647d058914610288578063adbde4bb146102b5578063b0cb4b69146104ab578063b562a646146105ca575b600080fd5b34801561007e57600080fd5b506100bd600480360381019080803573ffffffffffffffffffffffffffffffffffffffff16906020019092919080359060200190929190505050610621565b60405180806020018881526020018060200180602001871515151581526020018673ffffffffffffffffffffffffffffffffffffffff1673ffffffffffffffffffffffffffffffffffffffff1681526020018573ffffffffffffffffffffffffffffffffffffffff1673ffffffffffffffffffffffffffffffffffffffff16815260200184810384528b818151815260200191508051906020019080838360005b8381101561017957808201518184015260208101905061015e565b50505050905090810190601f1680156101a65780820380516001836020036101000a031916815260200191505b50848103835289818151815260200191508051906020019080838360005b838110156101df5780820151818401526020810190506101c4565b50505050905090810190601f16801561020c5780820380516001836020036101000a031916815260200191505b50848103825288818151815260200191508051906020019080838360005b8381101561024557808201518184015260208101905061022a565b50505050905090810190601f1680156102725780820380516001836020036101000a031916815260200191505b509a505050505050505050505060405180910390f35b34801561029457600080fd5b506102b360048036038101908080359060200190929190505050610894565b005b3480156102c157600080fd5b506102e060048036038101908080359060200190929190505050610daa565b60405180806020018881526020018060200180602001871515151581526020018673ffffffffffffffffffffffffffffffffffffffff1673ffffffffffffffffffffffffffffffffffffffff1681526020018573ffffffffffffffffffffffffffffffffffffffff1673ffffffffffffffffffffffffffffffffffffffff16815260200184810384528b818151815260200191508051906020019080838360005b8381101561039c578082015181840152602081019050610381565b50505050905090810190601f1680156103c95780820380516001836020036101000a031916815260200191505b50848103835289818151815260200191508051906020019080838360005b838110156104025780820151818401526020810190506103e7565b50505050905090810190601f16801561042f5780820380516001836020036101000a031916815260200191505b50848103825288818151815260200191508051906020019080838360005b8381101561046857808201518184015260208101905061044d565b50505050905090810190601f1680156104955780820380516001836020036101000a031916815260200191505b509a505050505050505050505060405180910390f35b3480156104b757600080fd5b506105c8600480360381019080803590602001908201803590602001908080601f016020809104026020016040519081016040528093929190818152602001838380828437820191505050505050919291929080359060200190929190803590602001908201803590602001908080601f0160208091040260200160405190810160405280939291908181526020018383808284378201915050505050509192919290803590602001908201803590602001908080601f0160208091040260200160405190810160405280939291908181526020018383808284378201915050505050509192919290803573ffffffffffffffffffffffffffffffffffffffff169060200190929190505050611338565b005b3480156105d657600080fd5b506105df611609565b604051808273ffffffffffffffffffffffffffffffffffffffff1673ffffffffffffffffffffffffffffffffffffffff16815260200191505060405180910390f35b60036020528160005260406000208181548110151561063c57fe5b906000526020600020906006020160009150915050806000018054600181600116156101000203166002900480601f0160208091040260200160405190810160405280929190818152602001828054600181600116156101000203166002900480156106e95780601f106106be576101008083540402835291602001916106e9565b820191906000526020600020905b8154815290600101906020018083116106cc57829003601f168201915b505050505090806001015490806002018054600181600116156101000203166002900480601f01602080910402602001604051908101604052809291908181526020018280546001816001161561010002031660029004801561078d5780601f106107625761010080835404028352916020019161078d565b820191906000526020600020905b81548152906001019060200180831161077057829003601f168201915b505050505090806003018054600181600116156101000203166002900480601f01602080910402602001604051908101604052809291908181526020018280546001816001161561010002031660029004801561082b5780601f106108005761010080835404028352916020019161082b565b820191906000526020600020905b81548152906001019060200180831161080e57829003601f168201915b5050505050908060040160009054906101000a900460ff16908060040160019054906101000a900473ffffffffffffffffffffffffffffffffffffffff16908060050160009054906101000a900473ffffffffffffffffffffffffffffffffffffffff16905087565b60001515600360003373ffffffffffffffffffffffffffffffffffffffff1673ffffffffffffffffffffffffffffffffffffffff168152602001908152602001600020828154811015156108e457fe5b906000526020600020906006020160040160009054906101000a900460ff16151514151561097a576040517f08c379a00000000000000000000000000000000000000000000000000000000081526004018080602001828103825260198152602001807f5365637572697479206d75737420626520696e6163746976650000000000000081525060200191505060405180910390fd5b6001600360003373ffffffffffffffffffffffffffffffffffffffff1673ffffffffffffffffffffffffffffffffffffffff168152602001908152602001600020828154811015156109c857fe5b906000526020600020906006020160040160006101000a81548160ff0219169083151502179055506000809054906101000a900473ffffffffffffffffffffffffffffffffffffffff1673ffffffffffffffffffffffffffffffffffffffff16633e87e4aa600360003373ffffffffffffffffffffffffffffffffffffffff1673ffffffffffffffffffffffffffffffffffffffff16815260200190815260200160002083815481101515610a7957fe5b9060005260206000209060060201600001600360003373ffffffffffffffffffffffffffffffffffffffff1673ffffffffffffffffffffffffffffffffffffffff16815260200190815260200160002084815481101515610ad657fe5b906000526020600020906006020160010154600360003373ffffffffffffffffffffffffffffffffffffffff1673ffffffffffffffffffffffffffffffffffffffff16815260200190815260200160002085815481101515610b3457fe5b9060005260206000209060060201600201600360003373ffffffffffffffffffffffffffffffffffffffff1673ffffffffffffffffffffffffffffffffffffffff16815260200190815260200160002086815481101515610b9157fe5b90600052602060002090600602016003016040518563ffffffff167c010000000000000000000000000000000000000000000000000000000002815260040180806020018581526020018060200180602001848103845288818154600181600116156101000203166002900481526020019150805460018160011615610100020316600290048015610c645780601f10610c3957610100808354040283529160200191610c64565b820191906000526020600020905b815481529060010190602001808311610c4757829003601f168201915b5050848103835286818154600181600116156101000203166002900481526020019150805460018160011615610100020316600290048015610ce75780601f10610cbc57610100808354040283529160200191610ce7565b820191906000526020600020905b815481529060010190602001808311610cca57829003601f168201915b5050848103825285818154600181600116156101000203166002900481526020019150805460018160011615610100020316600290048015610d6a5780601f10610d3f57610100808354040283529160200191610d6a565b820191906000526020600020905b815481529060010190602001808311610d4d57829003601f168201915b5050975050505050505050600060405180830381600087803b158015610d8f57600080fd5b505af1158015610da3573d6000803e3d6000fd5b5050505050565b60606000606080600080600087600360003373ffffffffffffffffffffffffffffffffffffffff1673ffffffffffffffffffffffffffffffffffffffff16815260200190815260200160002080549050111515610e6f576040517f08c379a00000000000000000000000000000000000000000000000000000000081526004018080602001828103825260138152602001807f696e646578206f7574206f6620626f756e64730000000000000000000000000081525060200191505060405180910390fd5b600360003373ffffffffffffffffffffffffffffffffffffffff1673ffffffffffffffffffffffffffffffffffffffff16815260200190815260200160002088815481101515610ebb57fe5b9060005260206000209060060201600001600360003373ffffffffffffffffffffffffffffffffffffffff1673ffffffffffffffffffffffffffffffffffffffff16815260200190815260200160002089815481101515610f1857fe5b906000526020600020906006020160010154600360003373ffffffffffffffffffffffffffffffffffffffff1673ffffffffffffffffffffffffffffffffffffffff1681526020019081526020016000208a815481101515610f7657fe5b9060005260206000209060060201600201600360003373ffffffffffffffffffffffffffffffffffffffff1673ffffffffffffffffffffffffffffffffffffffff1681526020019081526020016000208b815481101515610fd357fe5b9060005260206000209060060201600301600360003373ffffffffffffffffffffffffffffffffffffffff1673ffffffffffffffffffffffffffffffffffffffff1681526020019081526020016000208c81548110151561103057fe5b906000526020600020906006020160040160009054906101000a900460ff16600360003373ffffffffffffffffffffffffffffffffffffffff1673ffffffffffffffffffffffffffffffffffffffff1681526020019081526020016000208d81548110151561109b57fe5b906000526020600020906006020160040160019054906101000a900473ffffffffffffffffffffffffffffffffffffffff16600360003373ffffffffffffffffffffffffffffffffffffffff1673ffffffffffffffffffffffffffffffffffffffff1681526020019081526020016000208e81548110151561111957fe5b906000526020600020906006020160050160009054906101000a900473ffffffffffffffffffffffffffffffffffffffff16868054600181600116156101000203166002900480601f0160208091040260200160405190810160405280929190818152602001828054600181600116156101000203166002900480156111e05780601f106111b5576101008083540402835291602001916111e0565b820191906000526020600020905b8154815290600101906020018083116111c357829003601f168201915b50505050509650848054600181600116156101000203166002900480601f01602080910402602001604051908101604052809291908181526020018280546001816001161561010002031660029004801561127c5780601f106112515761010080835404028352916020019161127c565b820191906000526020600020905b81548152906001019060200180831161125f57829003601f168201915b50505050509450838054600181600116156101000203166002900480601f0160208091040260200160405190810160405280929190818152602001828054600181600116156101000203166002900480156113185780601f106112ed57610100808354040283529160200191611318565b820191906000526020600020905b8154815290600101906020018083116112fb57829003601f168201915b505050505093509650965096509650965096509650919395979092949650565b600260009054906101000a900473ffffffffffffffffffffffffffffffffffffffff1673ffffffffffffffffffffffffffffffffffffffff163373ffffffffffffffffffffffffffffffffffffffff16141515611423576040517f08c379a00000000000000000000000000000000000000000000000000000000081526004018080602001828103825260258152602001807f4f6e6c7920746865206f776e65722063616e2063616c6c20746869732066756e81526020017f6374696f6e00000000000000000000000000000000000000000000000000000081525060400191505060405180910390fd5b600360008273ffffffffffffffffffffffffffffffffffffffff1673ffffffffffffffffffffffffffffffffffffffff16815260200190815260200160002060e0604051908101604052808781526020018681526020018581526020018481526020016000151581526020013373ffffffffffffffffffffffffffffffffffffffff1681526020018373ffffffffffffffffffffffffffffffffffffffff1681525090806001815401808255809150509060018203906000526020600020906006020160009091929091909150600082015181600001908051906020019061150c92919061162f565b5060208201518160010155604082015181600201908051906020019061153392919061162f565b50606082015181600301908051906020019061155092919061162f565b5060808201518160040160006101000a81548160ff02191690831515021790555060a08201518160040160016101000a81548173ffffffffffffffffffffffffffffffffffffffff021916908373ffffffffffffffffffffffffffffffffffffffff16021790555060c08201518160050160006101000a81548173ffffffffffffffffffffffffffffffffffffffff021916908373ffffffffffffffffffffffffffffffffffffffff1602179055505050505050505050565b600160009054906101000a900473ffffffffffffffffffffffffffffffffffffffff1681565b828054600181600116156101000203166002900490600052602060002090601f016020900481019282601f1061167057805160ff191683800117855561169e565b8280016001018555821561169e579182015b8281111561169d578251825591602001919060010190611682565b5b5090506116ab91906116af565b5090565b6116d191905b808211156116cd5760008160009055506001016116b5565b5090565b905600a165627a7a72305820066403d6bd50d763776783218596e009677a3181467f381ac0cfc0964d878d040029",
  "source": "pragma solidity ^0.4.23;\n\n/** @title Post Trade Contract. */\n/** @author Johan Pretorius */\n/** startDate 2018-06-06 */\n\ncontract PostTrade {\n    function issueSecurity (string , uint , string , string ) public pure {}\n    // function setIsinIssuanceContractAddress (address) public pure {}\n}\n\ncontract IsinIssuance {\n\n    // ==========================================================================\n    // Modifiers\n    // ==========================================================================\n    modifier onlyOwner{\n        require(msg.sender == owner, \"Only the owner can call this function\");\n        _;\n    }\n\n    // ==========================================================================\n    // Constructor\n    // ==========================================================================\n    constructor (address _postTradeContract) public {\n        postTradeContractAddress = _postTradeContract;\n        postTradeContract = PostTrade(_postTradeContract);\n\n        // postTradeContract.setIsinIssuanceContractAddress(this);\n\n        owner = msg.sender;\n    }\n\n    PostTrade postTradeContract;\n    address public postTradeContractAddress;\n    address owner;\n\n    // ==========================================================================\n    // Structs\n    // ==========================================================================\n    struct Security {\n        string ISIN;\n        uint totalIssuedShareCap;\n        string longName;\n        string ticker;\n        bool active;\n        address issuer;\n        address verifier;\n    }\n\n    // ==========================================================================\n    // Variables\n    // ==========================================================================\n    mapping (address => Security[]) public securitiesToBeVerifiedByParty;\n    Security private tempSecurity;\n\n    function captureSecurity (\n        string _ISIN, \n        uint _totalIssuedShareCap, \n        string _longName, \n        string _ticker, \n        address _counterParty) public onlyOwner {\n        securitiesToBeVerifiedByParty[_counterParty].push(\n            Security({\n                ISIN: _ISIN,\n                totalIssuedShareCap: _totalIssuedShareCap,\n                longName: _longName,\n                ticker: _ticker,\n                active: false,\n                issuer: msg.sender,\n                verifier: _counterParty\n            })\n        );\n\n        // tempSecurity = Security({\n        //     ISIN: _ISIN,\n        //     totalIssuedShareCap: _totalIssuedShareCap,\n        //     longName: _longName,\n        //     ticker: _ticker,\n        //     active: false,\n        //     issuer: msg.sender,\n        //     verifier: _counterParty\n        // });\n    }\n\n    function getSecurityToBeVerified (uint _index) public view returns (\n        string _ISIN,\n        uint _totalIssuedShareCap,\n        string _longName,\n        string _ticker,\n        bool _active,\n        address _issuer,\n        address _verifier\n    ){\n        require(securitiesToBeVerifiedByParty[msg.sender].length > _index, \"index out of bounds\");\n        return (\n            securitiesToBeVerifiedByParty[msg.sender][_index].ISIN,\n            securitiesToBeVerifiedByParty[msg.sender][_index].totalIssuedShareCap,\n            securitiesToBeVerifiedByParty[msg.sender][_index].longName,\n            securitiesToBeVerifiedByParty[msg.sender][_index].ticker,\n            securitiesToBeVerifiedByParty[msg.sender][_index].active,\n            securitiesToBeVerifiedByParty[msg.sender][_index].issuer,\n            securitiesToBeVerifiedByParty[msg.sender][_index].verifier\n        );\n    }\n\n    function verifySecurity (uint _index) public {\n        require (securitiesToBeVerifiedByParty[msg.sender][_index].active == false, \"Security must be inactive\");\n        securitiesToBeVerifiedByParty[msg.sender][_index].active = true;\n\n        postTradeContract.issueSecurity(\n            securitiesToBeVerifiedByParty[msg.sender][_index].ISIN,\n            securitiesToBeVerifiedByParty[msg.sender][_index].totalIssuedShareCap,\n            securitiesToBeVerifiedByParty[msg.sender][_index].longName,\n            securitiesToBeVerifiedByParty[msg.sender][_index].ticker\n        );\n    }\n\n/*\n// Always do this right after deploying contract\nPostTrade.deployed().then(function(instance){return instance.setIsinIssuanceContractAddress(IsinIssuance.address)});\n\nIsinIssuance.deployed().then(function(instance){return instance.postTradeContractAddress()});\n\nIsinIssuance.deployed().then(function(instance){return instance.captureSecurity(\"ZAE001\",1000,\"Anglo American PLC\",\"ANG\",\"0xfb91a2395d9e49b89fca3dca0959b6eb4ea08a0b\")});\nIsinIssuance.deployed().then(function(instance){return instance.captureSecurity(\"eZAR\",1000000,\"eZAR\",\"eZAR\",\"0x51e63a2e221c782bfc95f42cd469d3780a479c15\")});\nIsinIssuance.deployed().then(function(instance){return instance.getSecurityToBeVerified(0, {from:\"0xfb91a2395d9e49b89fca3dca0959b6eb4ea08a0b\"})});\nIsinIssuance.deployed().then(function(instance){return instance.getSecurityToBeVerified(0, {from:\"0x51e63a2e221c782bfc95f42cd469d3780a479c15\"})});\nIsinIssuance.deployed().then(function(instance){return instance.verifySecurity(0, {from:\"0xfb91a2395d9e49b89fca3dca0959b6eb4ea08a0b\"})});\nIsinIssuance.deployed().then(function(instance){return instance.verifySecurity(0, {from:\"0x51e63a2e221c782bfc95f42cd469d3780a479c15\"})});\nIsinIssuance.deployed().then(function(instance){return instance.getSecurityToBeVerified(0, {from:\"0xfb91a2395d9e49b89fca3dca0959b6eb4ea08a0b\"})});\nPostTrade.deployed().then(function(instance){return instance.getSecurityDetails(\"ZAE001\")});\nPostTrade.deployed().then(function(instance){return instance.getSecurityDetails(\"eZAR\")});\n    \n*/\n\n    // ==========================================================================\n    // TRUFFLE MNEMONIC: latin bonus invest museum gate buffalo fever demand neglect entire session rail\n    // [ '0x51e63a2e221c782bfc95f42cd469d3780a479c15',\n    //   '0xfb91a2395d9e49b89fca3dca0959b6eb4ea08a0b',\n    //   '0x8ea823e5951243bfa7f1daad4703396260071fb9',\n    //   '0xed646f6b0cf23c2bfc0dc4117da42eb5ccf15ee4',\n    //   '0xa1ff8ee897ed92e62ae9f30061ba5f012e804721',\n    //   '0x1c6b96de685481c2d9915b606d4ab1277949b4bc',\n    //   '0x2d14d5ae5e54a22043b1eccd420494daa9513e06',\n    //   '0x0ef2f9c8845da4c9c34bef02c3213e0da1306da0',\n    //   '0x3e7eaa5bc0ee36b4308b668050535d411a81585d',\n    //   '0x2aab2c02fc5415d23e91ce8dc230d3a31793cff8' ]\n    // ==========================================================================\n    // *** END TRIAL CODE ***\n    // ==========================================================================\n\n}",
  "sourcePath": "/Users/johanpretorius/Dev/it_roadmap_2025/contracts/IsinIssuance.sol",
  "compiler": {
    "name": "solc",
    "version": "0.4.24+commit.e67f0147.Emscripten.clang"
  },
  "schemaVersion": "2.0.1",
  "updatedAt": "2018-09-04T09:07:07.375Z"
}