{
  "contractName": "NNA",
  "abi": [
    {
      "inputs": [],
      "payable": false,
      "stateMutability": "nonpayable",
      "type": "constructor"
    },
    {
      "anonymous": false,
      "inputs": [
        {
          "indexed": false,
          "name": "_prefix",
          "type": "string"
        },
        {
          "indexed": false,
          "name": "_counter",
          "type": "uint256"
        },
        {
          "indexed": true,
          "name": "_transactionReference",
          "type": "uint256"
        }
      ],
      "name": "IsinIssued",
      "type": "event"
    },
    {
      "anonymous": false,
      "inputs": [
        {
          "indexed": false,
          "name": "_prefix",
          "type": "string"
        },
        {
          "indexed": false,
          "name": "_counter",
          "type": "uint256"
        }
      ],
      "name": "IsinDelisted",
      "type": "event"
    },
    {
      "constant": false,
      "inputs": [
        {
          "name": "_prefix",
          "type": "string"
        },
        {
          "name": "_transactionReference",
          "type": "uint256"
        }
      ],
      "name": "issueIsinNumber",
      "outputs": [],
      "payable": false,
      "stateMutability": "nonpayable",
      "type": "function"
    },
    {
      "constant": true,
      "inputs": [
        {
          "name": "_prefix",
          "type": "string"
        }
      ],
      "name": "getIsinNumber",
      "outputs": [
        {
          "name": "",
          "type": "uint256"
        }
      ],
      "payable": false,
      "stateMutability": "view",
      "type": "function"
    },
    {
      "constant": false,
      "inputs": [
        {
          "name": "_prefix",
          "type": "string"
        },
        {
          "name": "_counter",
          "type": "uint256"
        }
      ],
      "name": "delistIsin",
      "outputs": [],
      "payable": false,
      "stateMutability": "nonpayable",
      "type": "function"
    },
    {
      "constant": true,
      "inputs": [
        {
          "name": "_prefix",
          "type": "string"
        },
        {
          "name": "_counter",
          "type": "uint256"
        }
      ],
      "name": "getIsinStatus",
      "outputs": [
        {
          "name": "_status",
          "type": "uint256"
        }
      ],
      "payable": false,
      "stateMutability": "view",
      "type": "function"
    }
  ],
  "bytecode": "0x608060405234801561001057600080fd5b50336000806101000a81548173ffffffffffffffffffffffffffffffffffffffff021916908373ffffffffffffffffffffffffffffffffffffffff160217905550610c30806100606000396000f300608060405260043610610062576000357c0100000000000000000000000000000000000000000000000000000000900463ffffffff16806335d5121814610067578063462acc63146100da578063510b827114610161578063ef3b3960146101d4575b600080fd5b34801561007357600080fd5b506100d8600480360381019080803590602001908201803590602001908080601f016020809104026020016040519081016040528093929190818152602001838380828437820191505050505050919291929080359060200190929190505050610251565b005b3480156100e657600080fd5b5061014b600480360381019080803590602001908201803590602001908080601f016020809104026020016040519081016040528093929190818152602001838380828437820191505050505050919291929080359060200190929190505050610629565b6040518082815260200191505060405180910390f35b34801561016d57600080fd5b506101d2600480360381019080803590602001908201803590602001908080601f016020809104026020016040519081016040528093929190818152602001838380828437820191505050505050919291929080359060200190929190505050610733565b005b3480156101e057600080fd5b5061023b600480360381019080803590602001908201803590602001908080601f0160208091040260200160405190810160405280939291908181526020018383808284378201915050505050509192919290505050610a48565b6040518082815260200191505060405180910390f35b60008060009054906101000a900473ffffffffffffffffffffffffffffffffffffffff1673ffffffffffffffffffffffffffffffffffffffff163373ffffffffffffffffffffffffffffffffffffffff16141515610317576040517f08c379a00000000000000000000000000000000000000000000000000000000081526004018080602001828103825260098152602001807f4e6f74206f776e6572000000000000000000000000000000000000000000000081525060200191505060405180910390fd5b600060046000848152602001908152602001600020541415156103a2576040517f08c379a000000000000000000000000000000000000000000000000000000000815260040180806020018281038252601f8152602001807f5472616e73616374696f6e206e756d62657220616c726561647920757365640081525060200191505060405180910390fd5b826040516020018082805190602001908083835b6020831015156103db57805182526020820191506020810190506020830392506103b6565b6001836020036101000a0380198251168184511680821785525050505050509050019150506040516020818303038152906040526040518082805190602001908083835b602083101515610444578051825260208201915060208101905060208303925061041f565b6001836020036101000a03801982511681845116808217855250505050505090500191505060405180910390209050600a6003600083600019166000191681526020019081526020016000205410156104ba57616449600360008360001916600019168152602001908152602001600020819055505b6001600360008360001916600019168152602001908152602001600020600082825401925050819055506001600260008360001916600019168152602001908152602001600020600060036000856000191660001916815260200190815260200160002054815260200190815260200160002081905550600360008260001916600019168152602001908152602001600020546004600084815260200190815260200160002081905550817fab24e02d890eaf8787c0370ad276f800cc36f82002af30ebe60a87d14677829e84600360008560001916600019168152602001908152602001600020546040518080602001838152602001828103825284818151815260200191508051906020019080838360005b838110156105e95780820151818401526020810190506105ce565b50505050905090810190601f1680156106165780820380516001836020036101000a031916815260200191505b50935050505060405180910390a2505050565b600080836040516020018082805190602001908083835b6020831015156106655780518252602082019150602081019050602083039250610640565b6001836020036101000a0380198251168184511680821785525050505050509050019150506040516020818303038152906040526040518082805190602001908083835b6020831015156106ce57805182526020820191506020810190506020830392506106a9565b6001836020036101000a0380198251168184511680821785525050505050509050019150506040518091039020905060026000826000191660001916815260200190815260200160002060008481526020019081526020016000205491505092915050565b60008060009054906101000a900473ffffffffffffffffffffffffffffffffffffffff1673ffffffffffffffffffffffffffffffffffffffff163373ffffffffffffffffffffffffffffffffffffffff161415156107f9576040517f08c379a00000000000000000000000000000000000000000000000000000000081526004018080602001828103825260098152602001807f4e6f74206f776e6572000000000000000000000000000000000000000000000081525060200191505060405180910390fd5b826040516020018082805190602001908083835b602083101515610832578051825260208201915060208101905060208303925061080d565b6001836020036101000a0380198251168184511680821785525050505050509050019150506040516020818303038152906040526040518082805190602001908083835b60208310151561089b5780518252602082019150602081019050602083039250610876565b6001836020036101000a03801982511681845116808217855250505050505090500191505060405180910390209050600160026000836000191660001916815260200190815260200160002060008481526020019081526020016000205414151561096e576040517f08c379a00000000000000000000000000000000000000000000000000000000081526004018080602001828103825260058152602001807f6572726f7200000000000000000000000000000000000000000000000000000081525060200191505060405180910390fd5b600280600083600019166000191681526020019081526020016000206000848152602001908152602001600020819055507f3d887a470083a535369e8a5b8229af1a08a7d29415e29101c469749a800759f783836040518080602001838152602001828103825284818151815260200191508051906020019080838360005b83811015610a085780820151818401526020810190506109ed565b50505050905090810190601f168015610a355780820380516001836020036101000a031916815260200191505b50935050505060405180910390a1505050565b6000806000809054906101000a900473ffffffffffffffffffffffffffffffffffffffff1673ffffffffffffffffffffffffffffffffffffffff163373ffffffffffffffffffffffffffffffffffffffff16141515610b0f576040517f08c379a00000000000000000000000000000000000000000000000000000000081526004018080602001828103825260098152602001807f4e6f74206f776e6572000000000000000000000000000000000000000000000081525060200191505060405180910390fd5b826040516020018082805190602001908083835b602083101515610b485780518252602082019150602081019050602083039250610b23565b6001836020036101000a0380198251168184511680821785525050505050509050019150506040516020818303038152906040526040518082805190602001908083835b602083101515610bb15780518252602082019150602081019050602083039250610b8c565b6001836020036101000a03801982511681845116808217855250505050505090500191505060405180910390209050600360008260001916600019168152602001908152602001600020549150509190505600a165627a7a723058201695261fa4215850ff4db1dac3c301b331503bc4c4f243717bfae0c23a1373700029",
  "source": "pragma solidity ^0.4.23;\n\n/** @title Post Trade Contract. */\n/** @author Johan Pretorius */\n/** startDate 2018-06-06 */\n/** comment: this NNA logic is massively simplified */\ncontract NNA {\n\n    // ==========================================================================\n    // Modifiers : Modifiers are only added when used, the rest are commented out\n    // ==========================================================================\n    modifier onlyOwner {\n        require(msg.sender == owner, \"Not owner\");\n        _;\n    }\n\n    constructor () public {\n        owner = msg.sender;\n    }\n\n    event IsinIssued (string _prefix, uint _counter, uint indexed _transactionReference);\n    event IsinDelisted (string _prefix, uint _counter);\n\n    address owner;\n    string[] isins;\n\n    // ==========================================================================\n    // Statusses:\n    // 0 = FREE\n    // 1 = ACTIVE\n    // 2 = DELISTED\n    // ==========================================================================\n\n    mapping (bytes32 => mapping (uint => uint)) isinStatusses;\n    mapping (bytes32 => uint ) ISINCounter;\n    mapping (uint => uint) ISINTransactionReferences;\n\n    function issueIsinNumber (string _prefix, uint _transactionReference) public onlyOwner {\n        require (ISINTransactionReferences[_transactionReference] == 0, \"Transaction number already used\");\n        bytes32 _hash = keccak256(abi.encodePacked(_prefix));\n        if (ISINCounter[_hash] < 10) {\n            ISINCounter[_hash] = 25673;\n        }\n        ISINCounter[_hash] += 1;\n        isinStatusses[_hash][ISINCounter[_hash]] = 1;\n\n        ISINTransactionReferences[_transactionReference] = ISINCounter[_hash];\n\n        emit IsinIssued (_prefix, ISINCounter[_hash], _transactionReference);\n    }\n\n    function getIsinNumber (string _prefix) public view onlyOwner returns (uint){\n        bytes32 _hash = keccak256(abi.encodePacked(_prefix));\n        return ISINCounter[_hash];\n    }\n\n    function delistIsin (string _prefix, uint _counter) public onlyOwner {\n        bytes32 _hash = keccak256(abi.encodePacked(_prefix));\n        require (isinStatusses[_hash][_counter] == 1, \"error\");\n        isinStatusses[_hash][_counter] = 2;\n\n        emit IsinDelisted (_prefix, _counter);\n    }\n\n    function getIsinStatus (string _prefix, uint _counter) public view returns (uint _status) {\n        bytes32 _hash = keccak256(abi.encodePacked(_prefix));\n        return isinStatusses[_hash][_counter];\n    }\n\n    // ==========================================================================\n    // Helper Console Scripts:\n    // ==========================================================================\n/* \n\nNNA.deployed().then(function(instance){return instance.issueIsinNumber(\"ZAE\",894735)});\nNNA.deployed().then(function(instance){return instance.getIsinNumber(\"ZAE\")});\nNNA.deployed().then(function(instance){return instance.getIsinStatus(\"ZAE\",1)});\nNNA.deployed().then(function(instance){return instance.delistIsin(\"ZAE\",1)});\n\n// event.watch(function(error, result){ if (!error) console.log(result);});\n\n*/ \n    // ==========================================================================\n    // TRUFFLE MNEMONIC: latin bonus invest museum gate buffalo fever demand neglect entire session rail\n    // [ '0x51e63a2e221c782bfc95f42cd469d3780a479c15',\n    //   '0xfb91a2395d9e49b89fca3dca0959b6eb4ea08a0b',\n    //   '0x8ea823e5951243bfa7f1daad4703396260071fb9',\n    //   '0xed646f6b0cf23c2bfc0dc4117da42eb5ccf15ee4',\n    //   '0xa1ff8ee897ed92e62ae9f30061ba5f012e804721',\n    //   '0x1c6b96de685481c2d9915b606d4ab1277949b4bc',\n    //   '0x2d14d5ae5e54a22043b1eccd420494daa9513e06',\n    //   '0x0ef2f9c8845da4c9c34bef02c3213e0da1306da0',\n    //   '0x3e7eaa5bc0ee36b4308b668050535d411a81585d',\n    //   '0x2aab2c02fc5415d23e91ce8dc230d3a31793cff8' ]\n    // ==========================================================================\n    // *** END TRIAL CODE ***\n    // ==========================================================================\n\n}",
  "sourcePath": "/Users/johanpretorius/Dev/it_roadmap_2025/contracts/NNA.sol",
  "compiler": {
    "name": "solc",
    "version": "0.4.24+commit.e67f0147.Emscripten.clang"
  },
  "schemaVersion": "2.0.1",
  "updatedAt": "2018-09-04T09:07:07.736Z"
}