{
  "contractName": "NNA",
  "abi": [
    {
      "inputs": [],
      "payable": false,
      "stateMutability": "nonpayable",
      "type": "constructor"
    },
    {
      "anonymous": false,
      "inputs": [
        {
          "indexed": true,
          "name": "_prefix",
          "type": "string"
        },
        {
          "indexed": false,
          "name": "_counter",
          "type": "uint256"
        },
        {
          "indexed": true,
          "name": "_transactionReference",
          "type": "uint256"
        }
      ],
      "name": "IsinIssued",
      "type": "event"
    },
    {
      "anonymous": false,
      "inputs": [
        {
          "indexed": true,
          "name": "_prefix",
          "type": "string"
        },
        {
          "indexed": false,
          "name": "_counter",
          "type": "uint256"
        }
      ],
      "name": "IsinDelisted",
      "type": "event"
    },
    {
      "constant": false,
      "inputs": [
        {
          "name": "_prefix",
          "type": "string"
        },
        {
          "name": "_transactionReference",
          "type": "uint256"
        }
      ],
      "name": "issueIsinNumber",
      "outputs": [],
      "payable": false,
      "stateMutability": "nonpayable",
      "type": "function"
    },
    {
      "constant": true,
      "inputs": [
        {
          "name": "_prefix",
          "type": "string"
        }
      ],
      "name": "getIsinNumber",
      "outputs": [
        {
          "name": "",
          "type": "uint256"
        }
      ],
      "payable": false,
      "stateMutability": "view",
      "type": "function"
    },
    {
      "constant": false,
      "inputs": [
        {
          "name": "_prefix",
          "type": "string"
        },
        {
          "name": "_counter",
          "type": "uint256"
        }
      ],
      "name": "delistIsin",
      "outputs": [],
      "payable": false,
      "stateMutability": "nonpayable",
      "type": "function"
    }
  ],
  "bytecode": "0x608060405234801561001057600080fd5b50336000806101000a81548173ffffffffffffffffffffffffffffffffffffffff021916908373ffffffffffffffffffffffffffffffffffffffff1602179055506107d8806100606000396000f300608060405260043610610057576000357c0100000000000000000000000000000000000000000000000000000000900463ffffffff16806335d512181461005c578063510b8271146100cf578063ef3b396014610142575b600080fd5b34801561006857600080fd5b506100cd600480360381019080803590602001908201803590602001908080601f0160208091040260200160405190810160405280939291908181526020018383808284378201915050505050509192919290803590602001909291905050506101bf565b005b3480156100db57600080fd5b50610140600480360381019080803590602001908201803590602001908080601f016020809104026020016040519081016040528093929190818152602001838380828437820191505050505050919291929080359060200190929190505050610420565b005b34801561014e57600080fd5b506101a9600480360381019080803590602001908201803590602001908080601f0160208091040260200160405190810160405280939291908181526020018383808284378201915050505050509192919290505050610659565b6040518082815260200191505060405180910390f35b60008060009054906101000a900473ffffffffffffffffffffffffffffffffffffffff1673ffffffffffffffffffffffffffffffffffffffff163373ffffffffffffffffffffffffffffffffffffffff1614151561021c57600080fd5b826040516020018082805190602001908083835b6020831015156102555780518252602082019150602081019050602083039250610230565b6001836020036101000a0380198251168184511680821785525050505050509050019150506040516020818303038152906040526040518082805190602001908083835b6020831015156102be5780518252602082019150602081019050602083039250610299565b6001836020036101000a0380198251168184511680821785525050505050509050019150506040518091039020905060036000826000191660001916815260200190815260200160002060008154809291906001019190505550600160026000836000191660001916815260200190815260200160002060006003600085600019166000191681526020019081526020016000205481526020019081526020016000208190555081836040518082805190602001908083835b60208310151561039c5780518252602082019150602081019050602083039250610377565b6001836020036101000a03801982511681845116808217855250505050505090500191505060405180910390207fab24e02d890eaf8787c0370ad276f800cc36f82002af30ebe60a87d14677829e600360008560001916600019168152602001908152602001600020546040518082815260200191505060405180910390a3505050565b60008060009054906101000a900473ffffffffffffffffffffffffffffffffffffffff1673ffffffffffffffffffffffffffffffffffffffff163373ffffffffffffffffffffffffffffffffffffffff1614151561047d57600080fd5b60016002600083600019166000191681526020019081526020016000206000848152602001908152602001600020541415156104b857600080fd5b826040516020018082805190602001908083835b6020831015156104f157805182526020820191506020810190506020830392506104cc565b6001836020036101000a0380198251168184511680821785525050505050509050019150506040516020818303038152906040526040518082805190602001908083835b60208310151561055a5780518252602082019150602081019050602083039250610535565b6001836020036101000a0380198251168184511680821785525050505050509050019150506040518091039020905060028060008360001916600019168152602001908152602001600020600084815260200190815260200160002081905550826040518082805190602001908083835b6020831015156105f057805182526020820191506020810190506020830392506105cb565b6001836020036101000a03801982511681845116808217855250505050505090500191505060405180910390207f3d887a470083a535369e8a5b8229af1a08a7d29415e29101c469749a800759f7836040518082815260200191505060405180910390a2505050565b6000806000809054906101000a900473ffffffffffffffffffffffffffffffffffffffff1673ffffffffffffffffffffffffffffffffffffffff163373ffffffffffffffffffffffffffffffffffffffff161415156106b757600080fd5b826040516020018082805190602001908083835b6020831015156106f057805182526020820191506020810190506020830392506106cb565b6001836020036101000a0380198251168184511680821785525050505050509050019150506040516020818303038152906040526040518082805190602001908083835b6020831015156107595780518252602082019150602081019050602083039250610734565b6001836020036101000a03801982511681845116808217855250505050505090500191505060405180910390209050600360008260001916600019168152602001908152602001600020549150509190505600a165627a7a72305820293670722af3b426a040ed7485caa6ff8795f5c195b4e069b44c1d930fb3c22a0029",
  "source": "pragma solidity ^0.4.23;\n\n/** @title Post Trade Contract. */\n/** @author Johan Pretorius */\n/** startDate 2018-06-06 */\n/** comment: this NNA logic is massively simplified */\ncontract NNA {\n\n    // ==========================================================================\n    // Modifiers : Modifiers are only added when used, the rest are commented out\n    // ==========================================================================\n    modifier onlyOwner {\n        require(msg.sender == owner);\n        _;\n    }\n\n    constructor () public {\n        owner = msg.sender;\n    }\n\n    event IsinIssued (string indexed _prefix, uint _counter, uint indexed _transactionReference);\n    event IsinDelisted (string indexed _prefix, uint _counter);\n\n    address owner;\n    string[] isins;\n\n    // ==========================================================================\n    // Statusses:\n    // 0 = FREE\n    // 1 = ACTIVE\n    // 2 = DELISTED\n    // ==========================================================================\n\n    mapping (bytes32 => mapping (uint => uint)) isinStatusses;\n    mapping ( bytes32 => uint ) ISINCounter;\n\n    function issueIsinNumber (string _prefix, uint _transactionReference) public onlyOwner {\n        bytes32 _hash = keccak256(abi.encodePacked(_prefix));\n        ISINCounter[_hash] ++;\n        isinStatusses[_hash][ISINCounter[_hash]] = 1;\n\n        emit IsinIssued (_prefix, ISINCounter[_hash], _transactionReference);\n    }\n\n    function getIsinNumber (string _prefix) public view onlyOwner returns (uint){\n        bytes32 _hash = keccak256(abi.encodePacked(_prefix));\n        return ISINCounter[_hash];\n    }\n\n    function delistIsin (string _prefix, uint _counter) public onlyOwner {\n        require (isinStatusses[_hash][_counter] == 1);\n        bytes32 _hash = keccak256(abi.encodePacked(_prefix));\n        isinStatusses[_hash][_counter] = 2;\n\n        emit IsinDelisted (_prefix, _counter);\n    }\n\n    // ==========================================================================\n    // Helper Console Scripts:\n    // ==========================================================================\n/* \n\nNNA.deployed().then(function(instance){return instance.issueIsinNumber(\"ZAE\")});\n\n*/ \n    // ==========================================================================\n    // TRUFFLE MNEMONIC: latin bonus invest museum gate buffalo fever demand neglect entire session rail\n    // [ '0x51e63a2e221c782bfc95f42cd469d3780a479c15',\n    //   '0xfb91a2395d9e49b89fca3dca0959b6eb4ea08a0b',\n    //   '0x8ea823e5951243bfa7f1daad4703396260071fb9',\n    //   '0xed646f6b0cf23c2bfc0dc4117da42eb5ccf15ee4',\n    //   '0xa1ff8ee897ed92e62ae9f30061ba5f012e804721',\n    //   '0x1c6b96de685481c2d9915b606d4ab1277949b4bc',\n    //   '0x2d14d5ae5e54a22043b1eccd420494daa9513e06',\n    //   '0x0ef2f9c8845da4c9c34bef02c3213e0da1306da0',\n    //   '0x3e7eaa5bc0ee36b4308b668050535d411a81585d',\n    //   '0x2aab2c02fc5415d23e91ce8dc230d3a31793cff8' ]\n    // ==========================================================================\n    // *** END TRIAL CODE ***\n    // ==========================================================================\n\n}",
  "sourcePath": "/Users/johanpretorius/Dev/it_roadmap_2025/contracts/NNA.sol",
  "compiler": {
    "name": "solc",
    "version": "0.4.24+commit.e67f0147.Emscripten.clang"
  },
  "schemaVersion": "2.0.1",
  "updatedAt": "2018-07-30T10:16:08.749Z"
}