{
  "contractName": "NNA",
  "abi": [
    {
      "constant": false,
      "inputs": [
        {
          "name": "_prefix",
          "type": "string"
        }
      ],
      "name": "issueIsinNumber",
      "outputs": [
        {
          "name": "_postfix",
          "type": "uint256"
        }
      ],
      "payable": false,
      "stateMutability": "nonpayable",
      "type": "function"
    }
  ],
  "bytecode": "0x608060405234801561001057600080fd5b506101f4806100206000396000f300608060405260043610610041576000357c0100000000000000000000000000000000000000000000000000000000900463ffffffff1680635563892914610046575b600080fd5b34801561005257600080fd5b506100ad600480360381019080803590602001908201803590602001908080601f01602080910402602001604051908101604052809392919081815260200183838082843782019150505050505091929192905050506100c3565b6040518082815260200191505060405180910390f35b600080600080846040516020018082805190602001908083835b60208310151561010257805182526020820191506020810190506020830392506100dd565b6001836020036101000a0380198251168184511680821785525050505050509050019150506040516020818303038152906040526040518082805190602001908083835b60208310151561016b5780518252602082019150602081019050602083039250610146565b6001836020036101000a0380198251168184511680821785525050505050509050019150506040518091039020600019166000191681526020019081526020016000206000815480929190600101919050559050809150509190505600a165627a7a7230582021e3c6b173cb909d461c4e9829a44fc3c773caba8389a6b32235a95235d8e2180029",
  "source": "pragma solidity ^0.4.23;\n\n/** @title Post Trade Contract. */\n/** @author Johan Pretorius */\n/** startDate 2018-06-06 */\n\ncontract NNA {\n\n    mapping ( bytes32 => uint ) ISINCounter;\n\n    // function -- ISIN Request\n\n    function issueIsinNumber (string _prefix) public returns (uint _postfix) {\n        uint _return = ISINCounter[keccak256(abi.encodePacked(_prefix))] ++;\n        return _return;\n    }\n\n    // function -- Deissue ISIN\n\n// ==========================================================================\n    // Helper Console Scripts:\n    // ==========================================================================\n/* \n\nNNA.deployed().then(function(instance){return instance.issueIsinNumber(\"ZAE\")});\n\n*/ \n    // ==========================================================================\n    // TRUFFLE MNEMONIC: latin bonus invest museum gate buffalo fever demand neglect entire session rail\n    // [ '0x51e63a2e221c782bfc95f42cd469d3780a479c15',\n    //   '0xfb91a2395d9e49b89fca3dca0959b6eb4ea08a0b',\n    //   '0x8ea823e5951243bfa7f1daad4703396260071fb9',\n    //   '0xed646f6b0cf23c2bfc0dc4117da42eb5ccf15ee4',\n    //   '0xa1ff8ee897ed92e62ae9f30061ba5f012e804721',\n    //   '0x1c6b96de685481c2d9915b606d4ab1277949b4bc',\n    //   '0x2d14d5ae5e54a22043b1eccd420494daa9513e06',\n    //   '0x0ef2f9c8845da4c9c34bef02c3213e0da1306da0',\n    //   '0x3e7eaa5bc0ee36b4308b668050535d411a81585d',\n    //   '0x2aab2c02fc5415d23e91ce8dc230d3a31793cff8' ]\n    // ==========================================================================\n    // *** END TRIAL CODE ***\n    // ==========================================================================\n\n}",
  "sourcePath": "/Users/johanp/dev/eth/it_roadmap_2025/contracts/NNA.sol",
  "compiler": {
    "name": "solc",
    "version": "0.4.24+commit.e67f0147.Emscripten.clang"
  },
  "schemaVersion": "2.0.1",
  "updatedAt": "2018-07-26T12:38:06.725Z"
}