{
  "contractName": "NNA",
  "abi": [
    {
      "constant": false,
      "inputs": [
        {
          "name": "_prefix",
          "type": "string"
        }
      ],
      "name": "issueIsinNumber",
      "outputs": [],
      "payable": false,
      "stateMutability": "nonpayable",
      "type": "function"
    },
    {
      "constant": true,
      "inputs": [
        {
          "name": "_prefix",
          "type": "string"
        }
      ],
      "name": "getIsinNumber",
      "outputs": [
        {
          "name": "",
          "type": "uint256"
        }
      ],
      "payable": false,
      "stateMutability": "view",
      "type": "function"
    }
  ],
  "bytecode": "0x608060405234801561001057600080fd5b50610350806100206000396000f30060806040526004361061004c576000357c0100000000000000000000000000000000000000000000000000000000900463ffffffff1680635563892914610051578063ef3b3960146100ba575b600080fd5b34801561005d57600080fd5b506100b8600480360381019080803590602001908201803590602001908080601f0160208091040260200160405190810160405280939291908181526020018383808284378201915050505050509192919290505050610137565b005b3480156100c657600080fd5b50610121600480360381019080803590602001908201803590602001908080601f0160208091040260200160405190810160405280939291908181526020018383808284378201915050505050509192919290505050610232565b6040518082815260200191505060405180910390f35b600080826040516020018082805190602001908083835b602083101515610173578051825260208201915060208101905060208303925061014e565b6001836020036101000a0380198251168184511680821785525050505050509050019150506040516020818303038152906040526040518082805190602001908083835b6020831015156101dc57805182526020820191506020810190506020830392506101b7565b6001836020036101000a0380198251168184511680821785525050505050509050019150506040518091039020600019166000191681526020019081526020016000206000815480929190600101919050555050565b6000806000836040516020018082805190602001908083835b602083101515610270578051825260208201915060208101905060208303925061024b565b6001836020036101000a0380198251168184511680821785525050505050509050019150506040516020818303038152906040526040518082805190602001908083835b6020831015156102d957805182526020820191506020810190506020830392506102b4565b6001836020036101000a0380198251168184511680821785525050505050509050019150506040518091039020600019166000191681526020019081526020016000205490509190505600a165627a7a7230582043e35f44f30dc6989f261bd30d7576ad0c97a5d27909184e3ac06ac8d31e675b0029",
  "source": "pragma solidity ^0.4.23;\n\n/** @title Post Trade Contract. */\n/** @author Johan Pretorius */\n/** startDate 2018-06-06 */\n\ncontract NNA {\n\n    mapping ( bytes32 => uint ) ISINCounter;\n\n    // function -- ISIN Request\n\n    function issueIsinNumber (string _prefix) public {\n        ISINCounter[keccak256(abi.encodePacked(_prefix))] ++;\n    }\n\n    function getIsinNumber (string _prefix) public view returns (uint){\n        return ISINCounter[keccak256(abi.encodePacked(_prefix))];\n    }\n\n    // function -- Deissue ISIN\n\n    // ==========================================================================\n    // Helper Console Scripts:\n    // ==========================================================================\n/* \n\nNNA.deployed().then(function(instance){return instance.issueIsinNumber(\"ZAE\")});\n\n*/ \n    // ==========================================================================\n    // TRUFFLE MNEMONIC: latin bonus invest museum gate buffalo fever demand neglect entire session rail\n    // [ '0x51e63a2e221c782bfc95f42cd469d3780a479c15',\n    //   '0xfb91a2395d9e49b89fca3dca0959b6eb4ea08a0b',\n    //   '0x8ea823e5951243bfa7f1daad4703396260071fb9',\n    //   '0xed646f6b0cf23c2bfc0dc4117da42eb5ccf15ee4',\n    //   '0xa1ff8ee897ed92e62ae9f30061ba5f012e804721',\n    //   '0x1c6b96de685481c2d9915b606d4ab1277949b4bc',\n    //   '0x2d14d5ae5e54a22043b1eccd420494daa9513e06',\n    //   '0x0ef2f9c8845da4c9c34bef02c3213e0da1306da0',\n    //   '0x3e7eaa5bc0ee36b4308b668050535d411a81585d',\n    //   '0x2aab2c02fc5415d23e91ce8dc230d3a31793cff8' ]\n    // ==========================================================================\n    // *** END TRIAL CODE ***\n    // ==========================================================================\n\n}",
  "sourcePath": "/Users/johanp/dev/eth/it_roadmap_2025/contracts/NNA.sol",
  "compiler": {
    "name": "solc",
    "version": "0.4.24+commit.e67f0147.Emscripten.clang"
  },
  "schemaVersion": "2.0.1",
  "updatedAt": "2018-07-26T12:55:03.419Z"
}