{
  "contractName": "PostTrade",
  "abi": [
    {
      "constant": true,
      "inputs": [
        {
          "name": "",
          "type": "bytes32"
        }
      ],
      "name": "securities",
      "outputs": [
        {
          "name": "ISIN",
          "type": "string"
        },
        {
          "name": "totalIssuedShareCap",
          "type": "uint256"
        },
        {
          "name": "longName",
          "type": "string"
        },
        {
          "name": "ticker",
          "type": "string"
        },
        {
          "name": "active",
          "type": "bool"
        }
      ],
      "payable": false,
      "stateMutability": "view",
      "type": "function"
    },
    {
      "constant": true,
      "inputs": [
        {
          "name": "",
          "type": "bytes32"
        },
        {
          "name": "",
          "type": "uint256"
        }
      ],
      "name": "matchedBuysIdListForISIN",
      "outputs": [
        {
          "name": "",
          "type": "uint256"
        }
      ],
      "payable": false,
      "stateMutability": "view",
      "type": "function"
    },
    {
      "constant": true,
      "inputs": [
        {
          "name": "",
          "type": "bytes32"
        },
        {
          "name": "",
          "type": "uint256"
        }
      ],
      "name": "buyLegForISINAndId",
      "outputs": [
        {
          "name": "buyLegId",
          "type": "uint256"
        },
        {
          "name": "tradeId",
          "type": "uint256"
        },
        {
          "name": "tradeReportingPartyAddress",
          "type": "address"
        },
        {
          "name": "custodianId",
          "type": "address"
        },
        {
          "name": "amount",
          "type": "uint256"
        },
        {
          "name": "buyPrice",
          "type": "uint256"
        },
        {
          "name": "status",
          "type": "uint8"
        },
        {
          "name": "timestamp",
          "type": "uint256"
        }
      ],
      "payable": false,
      "stateMutability": "view",
      "type": "function"
    },
    {
      "constant": true,
      "inputs": [
        {
          "name": "",
          "type": "bytes32"
        },
        {
          "name": "",
          "type": "uint256"
        }
      ],
      "name": "matchedSalesIdListForISIN",
      "outputs": [
        {
          "name": "",
          "type": "uint256"
        }
      ],
      "payable": false,
      "stateMutability": "view",
      "type": "function"
    },
    {
      "constant": true,
      "inputs": [
        {
          "name": "",
          "type": "bytes32"
        },
        {
          "name": "",
          "type": "uint256"
        }
      ],
      "name": "matchedTradesIdListForISIN",
      "outputs": [
        {
          "name": "",
          "type": "uint256"
        }
      ],
      "payable": false,
      "stateMutability": "view",
      "type": "function"
    },
    {
      "constant": true,
      "inputs": [
        {
          "name": "",
          "type": "uint256"
        }
      ],
      "name": "securitiesList",
      "outputs": [
        {
          "name": "",
          "type": "string"
        }
      ],
      "payable": false,
      "stateMutability": "view",
      "type": "function"
    },
    {
      "constant": true,
      "inputs": [
        {
          "name": "",
          "type": "bytes32"
        },
        {
          "name": "",
          "type": "uint256"
        }
      ],
      "name": "saleLegForISINAndId",
      "outputs": [
        {
          "name": "saleLegId",
          "type": "uint256"
        },
        {
          "name": "tradeId",
          "type": "uint256"
        },
        {
          "name": "tradeReportingPartyAddress",
          "type": "address"
        },
        {
          "name": "custodianId",
          "type": "address"
        },
        {
          "name": "amount",
          "type": "uint256"
        },
        {
          "name": "salePrice",
          "type": "uint256"
        },
        {
          "name": "status",
          "type": "uint8"
        },
        {
          "name": "timestamp",
          "type": "uint256"
        }
      ],
      "payable": false,
      "stateMutability": "view",
      "type": "function"
    },
    {
      "constant": true,
      "inputs": [],
      "name": "isinIssuanceContractAddress",
      "outputs": [
        {
          "name": "",
          "type": "address"
        }
      ],
      "payable": false,
      "stateMutability": "view",
      "type": "function"
    },
    {
      "constant": true,
      "inputs": [
        {
          "name": "",
          "type": "bytes32"
        },
        {
          "name": "",
          "type": "uint256"
        },
        {
          "name": "",
          "type": "uint256"
        }
      ],
      "name": "confirmedTradesForISINandSettlementDate",
      "outputs": [
        {
          "name": "tradeId",
          "type": "uint256"
        },
        {
          "name": "buyLegId",
          "type": "uint256"
        },
        {
          "name": "sellLegId",
          "type": "uint256"
        },
        {
          "name": "tradeDate",
          "type": "uint256"
        },
        {
          "name": "settlementDeadlineDate",
          "type": "uint256"
        },
        {
          "name": "buyConfirmationDateTime",
          "type": "uint256"
        },
        {
          "name": "saleConfirmationDateTime",
          "type": "uint256"
        }
      ],
      "payable": false,
      "stateMutability": "view",
      "type": "function"
    },
    {
      "constant": true,
      "inputs": [
        {
          "name": "",
          "type": "bytes32"
        },
        {
          "name": "",
          "type": "address"
        }
      ],
      "name": "balances",
      "outputs": [
        {
          "name": "",
          "type": "uint256"
        }
      ],
      "payable": false,
      "stateMutability": "view",
      "type": "function"
    },
    {
      "constant": true,
      "inputs": [
        {
          "name": "",
          "type": "bytes32"
        },
        {
          "name": "",
          "type": "uint256"
        }
      ],
      "name": "matchedTradesForISINandId",
      "outputs": [
        {
          "name": "tradeId",
          "type": "uint256"
        },
        {
          "name": "buyLegId",
          "type": "uint256"
        },
        {
          "name": "sellLegId",
          "type": "uint256"
        },
        {
          "name": "tradeDate",
          "type": "uint256"
        },
        {
          "name": "settlementDeadlineDate",
          "type": "uint256"
        },
        {
          "name": "buyConfirmationDateTime",
          "type": "uint256"
        },
        {
          "name": "saleConfirmationDateTime",
          "type": "uint256"
        }
      ],
      "payable": false,
      "stateMutability": "view",
      "type": "function"
    },
    {
      "inputs": [],
      "payable": false,
      "stateMutability": "nonpayable",
      "type": "constructor"
    },
    {
      "constant": false,
      "inputs": [
        {
          "name": "_ISIN",
          "type": "string"
        },
        {
          "name": "_totalIssuedShareCap",
          "type": "uint256"
        },
        {
          "name": "_longName",
          "type": "string"
        },
        {
          "name": "_ticker",
          "type": "string"
        }
      ],
      "name": "issueSecurity",
      "outputs": [],
      "payable": false,
      "stateMutability": "nonpayable",
      "type": "function"
    },
    {
      "constant": false,
      "inputs": [
        {
          "name": "_totalIssuedShareCap",
          "type": "uint256"
        }
      ],
      "name": "issueCash",
      "outputs": [],
      "payable": false,
      "stateMutability": "nonpayable",
      "type": "function"
    },
    {
      "constant": false,
      "inputs": [
        {
          "name": "_ISIN",
          "type": "string"
        },
        {
          "name": "_amount",
          "type": "uint256"
        }
      ],
      "name": "topUp",
      "outputs": [],
      "payable": false,
      "stateMutability": "nonpayable",
      "type": "function"
    },
    {
      "constant": false,
      "inputs": [
        {
          "name": "_ISIN",
          "type": "string"
        },
        {
          "name": "_amount",
          "type": "uint256"
        }
      ],
      "name": "reduceSecurities",
      "outputs": [],
      "payable": false,
      "stateMutability": "nonpayable",
      "type": "function"
    },
    {
      "constant": false,
      "inputs": [
        {
          "name": "_amount",
          "type": "uint256"
        }
      ],
      "name": "topUpCash",
      "outputs": [],
      "payable": false,
      "stateMutability": "nonpayable",
      "type": "function"
    },
    {
      "constant": true,
      "inputs": [
        {
          "name": "_ISIN",
          "type": "string"
        }
      ],
      "name": "getSecurityDetails",
      "outputs": [
        {
          "name": "",
          "type": "string"
        },
        {
          "name": "",
          "type": "uint256"
        },
        {
          "name": "",
          "type": "string"
        },
        {
          "name": "",
          "type": "string"
        },
        {
          "name": "",
          "type": "bool"
        }
      ],
      "payable": false,
      "stateMutability": "view",
      "type": "function"
    },
    {
      "constant": true,
      "inputs": [
        {
          "name": "_index",
          "type": "uint256"
        }
      ],
      "name": "getSecuritiesListById",
      "outputs": [
        {
          "name": "",
          "type": "string"
        },
        {
          "name": "",
          "type": "uint256"
        }
      ],
      "payable": false,
      "stateMutability": "view",
      "type": "function"
    },
    {
      "constant": true,
      "inputs": [
        {
          "name": "_ISIN",
          "type": "string"
        },
        {
          "name": "_accountHolder",
          "type": "address"
        }
      ],
      "name": "getBalanceOfSecAndAccount",
      "outputs": [
        {
          "name": "",
          "type": "uint256"
        }
      ],
      "payable": false,
      "stateMutability": "view",
      "type": "function"
    },
    {
      "constant": false,
      "inputs": [
        {
          "name": "_ISIN",
          "type": "string"
        },
        {
          "name": "_amount",
          "type": "uint256"
        },
        {
          "name": "_receiverAddress",
          "type": "address"
        }
      ],
      "name": "sendSecurity",
      "outputs": [],
      "payable": false,
      "stateMutability": "nonpayable",
      "type": "function"
    },
    {
      "constant": false,
      "inputs": [
        {
          "name": "_ISIN",
          "type": "string"
        },
        {
          "name": "_buyLegId",
          "type": "uint256"
        },
        {
          "name": "_saleLegId",
          "type": "uint256"
        },
        {
          "name": "_tradeId",
          "type": "uint256"
        },
        {
          "name": "_settlementDate",
          "type": "uint256"
        },
        {
          "name": "_buyerTradeReportingPartyAddress",
          "type": "address"
        },
        {
          "name": "_sellerTradeReportingPartyAddress",
          "type": "address"
        },
        {
          "name": "_buyerCustodianId",
          "type": "address"
        },
        {
          "name": "_sellerCustodianId",
          "type": "address"
        },
        {
          "name": "_amount",
          "type": "uint256"
        },
        {
          "name": "_salePrice",
          "type": "uint256"
        }
      ],
      "name": "addPreMatchedTrade",
      "outputs": [],
      "payable": false,
      "stateMutability": "nonpayable",
      "type": "function"
    },
    {
      "constant": true,
      "inputs": [
        {
          "name": "_ISIN",
          "type": "string"
        },
        {
          "name": "_legId",
          "type": "uint256"
        }
      ],
      "name": "getBuysPartiesForIsin",
      "outputs": [
        {
          "name": "",
          "type": "uint256"
        },
        {
          "name": "",
          "type": "address"
        },
        {
          "name": "",
          "type": "address"
        }
      ],
      "payable": false,
      "stateMutability": "view",
      "type": "function"
    },
    {
      "constant": true,
      "inputs": [
        {
          "name": "_ISIN",
          "type": "string"
        },
        {
          "name": "_legId",
          "type": "uint256"
        }
      ],
      "name": "getBuysForIsin",
      "outputs": [
        {
          "name": "",
          "type": "uint256"
        },
        {
          "name": "",
          "type": "uint256"
        },
        {
          "name": "",
          "type": "uint256"
        },
        {
          "name": "",
          "type": "uint8"
        },
        {
          "name": "",
          "type": "uint256"
        }
      ],
      "payable": false,
      "stateMutability": "view",
      "type": "function"
    },
    {
      "constant": true,
      "inputs": [
        {
          "name": "_ISIN",
          "type": "string"
        },
        {
          "name": "_legId",
          "type": "uint256"
        }
      ],
      "name": "getSalesPartiesForIsin",
      "outputs": [
        {
          "name": "",
          "type": "uint256"
        },
        {
          "name": "",
          "type": "address"
        },
        {
          "name": "",
          "type": "address"
        }
      ],
      "payable": false,
      "stateMutability": "view",
      "type": "function"
    },
    {
      "constant": true,
      "inputs": [
        {
          "name": "_ISIN",
          "type": "string"
        },
        {
          "name": "_index",
          "type": "uint256"
        }
      ],
      "name": "getSalesForIsin",
      "outputs": [
        {
          "name": "",
          "type": "uint256"
        },
        {
          "name": "",
          "type": "uint256"
        },
        {
          "name": "",
          "type": "uint256"
        },
        {
          "name": "",
          "type": "uint8"
        },
        {
          "name": "",
          "type": "uint256"
        }
      ],
      "payable": false,
      "stateMutability": "view",
      "type": "function"
    },
    {
      "constant": false,
      "inputs": [
        {
          "name": "_buyOrSaleIndicator",
          "type": "uint256"
        },
        {
          "name": "_legId",
          "type": "uint256"
        },
        {
          "name": "_ISIN",
          "type": "string"
        }
      ],
      "name": "confirmTradeLeg",
      "outputs": [],
      "payable": false,
      "stateMutability": "nonpayable",
      "type": "function"
    },
    {
      "constant": false,
      "inputs": [
        {
          "name": "_isinIssuanceContractAddress",
          "type": "address"
        }
      ],
      "name": "setIsinIssuanceContractAddress",
      "outputs": [],
      "payable": false,
      "stateMutability": "nonpayable",
      "type": "function"
    },
    {
      "constant": false,
      "inputs": [
        {
          "name": "_adminAddress",
          "type": "address"
        }
      ],
      "name": "addAdmin",
      "outputs": [],
      "payable": false,
      "stateMutability": "nonpayable",
      "type": "function"
    },
    {
      "constant": false,
      "inputs": [
        {
          "name": "_CSDAddress",
          "type": "address"
        }
      ],
      "name": "addCSD",
      "outputs": [],
      "payable": false,
      "stateMutability": "nonpayable",
      "type": "function"
    },
    {
      "constant": false,
      "inputs": [
        {
          "name": "_CustodianAddress",
          "type": "address"
        }
      ],
      "name": "addCustodian",
      "outputs": [],
      "payable": false,
      "stateMutability": "nonpayable",
      "type": "function"
    },
    {
      "constant": false,
      "inputs": [
        {
          "name": "_ETMEAddress",
          "type": "address"
        }
      ],
      "name": "addETME",
      "outputs": [],
      "payable": false,
      "stateMutability": "nonpayable",
      "type": "function"
    },
    {
      "constant": false,
      "inputs": [
        {
          "name": "_ExchangeAddress",
          "type": "address"
        }
      ],
      "name": "addExchange",
      "outputs": [],
      "payable": false,
      "stateMutability": "nonpayable",
      "type": "function"
    },
    {
      "constant": false,
      "inputs": [
        {
          "name": "_SAMOSAddress",
          "type": "address"
        }
      ],
      "name": "addSAMOS",
      "outputs": [],
      "payable": false,
      "stateMutability": "nonpayable",
      "type": "function"
    },
    {
      "constant": false,
      "inputs": [
        {
          "name": "_TradeReportingPartyAddress",
          "type": "address"
        }
      ],
      "name": "addTradeReportingParty",
      "outputs": [],
      "payable": false,
      "stateMutability": "nonpayable",
      "type": "function"
    }
  ],
  "bytecode": "0x608060405234801561001057600080fd5b50336000806101000a81548173ffffffffffffffffffffffffffffffffffffffff021916908373ffffffffffffffffffffffffffffffffffffffff1602179055506001600c60007351e63a2e221c782bfc95f42cd469d3780a479c1573ffffffffffffffffffffffffffffffffffffffff1673ffffffffffffffffffffffffffffffffffffffff16815260200190815260200160002060006101000a81548160ff0219169083151502179055506001600d6000732aab2c02fc5415d23e91ce8dc230d3a31793cff873ffffffffffffffffffffffffffffffffffffffff1673ffffffffffffffffffffffffffffffffffffffff16815260200190815260200160002060006101000a81548160ff0219169083151502179055506001600e6000731c6b96de685481c2d9915b606d4ab1277949b4bc73ffffffffffffffffffffffffffffffffffffffff1673ffffffffffffffffffffffffffffffffffffffff16815260200190815260200160002060006101000a81548160ff0219169083151502179055506001600e6000732d14d5ae5e54a22043b1eccd420494daa9513e0673ffffffffffffffffffffffffffffffffffffffff1673ffffffffffffffffffffffffffffffffffffffff16815260200190815260200160002060006101000a81548160ff0219169083151502179055506001600f6000730ef2f9c8845da4c9c34bef02c3213e0da1306da073ffffffffffffffffffffffffffffffffffffffff1673ffffffffffffffffffffffffffffffffffffffff16815260200190815260200160002060006101000a81548160ff021916908315150217905550600160106000730ef2f9c8845da4c9c34bef02c3213e0da1306da073ffffffffffffffffffffffffffffffffffffffff1673ffffffffffffffffffffffffffffffffffffffff16815260200190815260200160002060006101000a81548160ff021916908315150217905550600160116000733e7eaa5bc0ee36b4308b668050535d411a81585d73ffffffffffffffffffffffffffffffffffffffff1673ffffffffffffffffffffffffffffffffffffffff16815260200190815260200160002060006101000a81548160ff02191690831515021790555060016012600073ed646f6b0cf23c2bfc0dc4117da42eb5ccf15ee473ffffffffffffffffffffffffffffffffffffffff1673ffffffffffffffffffffffffffffffffffffffff16815260200190815260200160002060006101000a81548160ff02191690831515021790555060016012600073a1ff8ee897ed92e62ae9f30061ba5f012e80472173ffffffffffffffffffffffffffffffffffffffff1673ffffffffffffffffffffffffffffffffffffffff16815260200190815260200160002060006101000a81548160ff02191690831515021790555061591a806200042d6000396000f3006080604052600436106101ac576000357c0100000000000000000000000000000000000000000000000000000000900463ffffffff1680630bbb0dc3146101b15780630d56fe571461037d57806320ef0313146104a2578063232db21b1461054f578063278325af1461060057806327fcd7471461069d5780632e38fa7d146106e05780633271fe1d146107235780633dd4b8d0146108105780633e87e4aa146108535780634ac52ccb146109525780634bf03ba6146109c55780634cdf22c314610ab25780634e08b52d14610c465780634e1593e214610c9557806350a50cf114610d285780636643d55a14610e0e5780637048027514610e3b5780637d60079e14610e7e57806383ca719714610ecd57806385d95b8114610f1c5780638b6412b114610f5f57806390573c6d146110055780639fdbbb9c14611048578063a76a5fdf146110bb578063aa10ce22146111a1578063ac46e682146111e4578063c9c9209b14611227578063ce65a2691461127e578063d6571452146112fb578063d69cb40a146113ac578063d93d73611461142f578063f3b879ed14611494578063fc67d1411461150d575b600080fd5b3480156101bd57600080fd5b50610218600480360381019080803590602001908201803590602001908080601f016020809104026020016040519081016040528093929190818152602001838380828437820191505050505050919291929050505061153a565b6040518080602001868152602001806020018060200185151515158152602001848103845289818151815260200191508051906020019080838360005b83811015610270578082015181840152602081019050610255565b50505050905090810190601f16801561029d5780820380516001836020036101000a031916815260200191505b50848103835287818151815260200191508051906020019080838360005b838110156102d65780820151818401526020810190506102bb565b50505050905090810190601f1680156103035780820380516001836020036101000a031916815260200191505b50848103825286818151815260200191508051906020019080838360005b8381101561033c578082015181840152602081019050610321565b50505050905090810190601f1680156103695780820380516001836020036101000a031916815260200191505b509850505050505050505060405180910390f35b34801561038957600080fd5b506104a0600480360381019080803590602001908201803590602001908080601f016020809104026020016040519081016040528093929190818152602001838380828437820191505050505050919291929080359060200190929190803590602001909291908035906020019092919080359060200190929190803573ffffffffffffffffffffffffffffffffffffffff169060200190929190803573ffffffffffffffffffffffffffffffffffffffff169060200190929190803573ffffffffffffffffffffffffffffffffffffffff169060200190929190803573ffffffffffffffffffffffffffffffffffffffff1690602001909291908035906020019092919080359060200190929190505050611bd5565b005b3480156104ae57600080fd5b506104cd600480360381019080803590602001909291905050506121f4565b6040518080602001838152602001828103825284818151815260200191508051906020019080838360005b838110156105135780820151818401526020810190506104f8565b50505050905090810190601f1680156105405780820380516001836020036101000a031916815260200191505b50935050505060405180910390f35b34801561055b57600080fd5b506105c0600480360381019080803590602001908201803590602001908080601f0160208091040260200160405190810160405280939291908181526020018383808284378201915050505050509192919290803590602001909291905050506122bc565b604051808681526020018581526020018481526020018360088111156105e257fe5b60ff1681526020018281526020019550505050505060405180910390f35b34801561060c57600080fd5b50610687600480360381019080803590602001908201803590602001908080601f0160208091040260200160405190810160405280939291908181526020018383808284378201915050505050509192919290803573ffffffffffffffffffffffffffffffffffffffff1690602001909291905050506124a8565b6040518082815260200191505060405180910390f35b3480156106a957600080fd5b506106de600480360381019080803573ffffffffffffffffffffffffffffffffffffffff1690602001909291905050506125d9565b005b3480156106ec57600080fd5b50610721600480360381019080803573ffffffffffffffffffffffffffffffffffffffff1690602001909291905050506126ea565b005b34801561072f57600080fd5b50610794600480360381019080803590602001908201803590602001908080601f0160208091040260200160405190810160405280939291908181526020018383808284378201915050505050509192919290803590602001909291905050506127fb565b604051808481526020018373ffffffffffffffffffffffffffffffffffffffff1673ffffffffffffffffffffffffffffffffffffffff1681526020018273ffffffffffffffffffffffffffffffffffffffff1673ffffffffffffffffffffffffffffffffffffffff168152602001935050505060405180910390f35b34801561081c57600080fd5b50610851600480360381019080803573ffffffffffffffffffffffffffffffffffffffff1690602001909291905050506129b0565b005b34801561085f57600080fd5b50610950600480360381019080803590602001908201803590602001908080601f016020809104026020016040519081016040528093929190818152602001838380828437820191505050505050919291929080359060200190929190803590602001908201803590602001908080601f0160208091040260200160405190810160405280939291908181526020018383808284378201915050505050509192919290803590602001908201803590602001908080601f0160208091040260200160405190810160405280939291908181526020018383808284378201915050505050509192919290505050612ac1565b005b34801561095e57600080fd5b506109c3600480360381019080803590602001908201803590602001908080601f016020809104026020016040519081016040528093929190818152602001838380828437820191505050505050919291929080359060200190929190505050612f8a565b005b3480156109d157600080fd5b50610a36600480360381019080803590602001908201803590602001908080601f016020809104026020016040519081016040528093929190818152602001838380828437820191505050505050919291929080359060200190929190505050613344565b604051808481526020018373ffffffffffffffffffffffffffffffffffffffff1673ffffffffffffffffffffffffffffffffffffffff1681526020018273ffffffffffffffffffffffffffffffffffffffff1673ffffffffffffffffffffffffffffffffffffffff168152602001935050505060405180910390f35b348015610abe57600080fd5b50610ae160048036038101908080356000191690602001909291905050506134f9565b6040518080602001868152602001806020018060200185151515158152602001848103845289818151815260200191508051906020019080838360005b83811015610b39578082015181840152602081019050610b1e565b50505050905090810190601f168015610b665780820380516001836020036101000a031916815260200191505b50848103835287818151815260200191508051906020019080838360005b83811015610b9f578082015181840152602081019050610b84565b50505050905090810190601f168015610bcc5780820380516001836020036101000a031916815260200191505b50848103825286818151815260200191508051906020019080838360005b83811015610c05578082015181840152602081019050610bea565b50505050905090810190601f168015610c325780820380516001836020036101000a031916815260200191505b509850505050505050505060405180910390f35b348015610c5257600080fd5b50610c7f600480360381019080803560001916906020019092919080359060200190929190505050613704565b6040518082815260200191505060405180910390f35b348015610ca157600080fd5b50610d26600480360381019080803590602001908201803590602001908080601f016020809104026020016040519081016040528093929190818152602001838380828437820191505050505050919291929080359060200190929190803573ffffffffffffffffffffffffffffffffffffffff169060200190929190505050613734565b005b348015610d3457600080fd5b50610d61600480360381019080803560001916906020019092919080359060200190929190505050613ad6565b604051808981526020018881526020018773ffffffffffffffffffffffffffffffffffffffff1673ffffffffffffffffffffffffffffffffffffffff1681526020018673ffffffffffffffffffffffffffffffffffffffff1673ffffffffffffffffffffffffffffffffffffffff168152602001858152602001848152602001836008811115610ded57fe5b60ff1681526020018281526020019850505050505050505060405180910390f35b348015610e1a57600080fd5b50610e3960048036038101908080359060200190929190505050613b78565b005b348015610e4757600080fd5b50610e7c600480360381019080803573ffffffffffffffffffffffffffffffffffffffff169060200190929190505050613eae565b005b348015610e8a57600080fd5b50610eb7600480360381019080803560001916906020019092919080359060200190929190505050613fbf565b6040518082815260200191505060405180910390f35b348015610ed957600080fd5b50610f06600480360381019080803560001916906020019092919080359060200190929190505050613fef565b6040518082815260200191505060405180910390f35b348015610f2857600080fd5b50610f5d600480360381019080803573ffffffffffffffffffffffffffffffffffffffff16906020019092919050505061401f565b005b348015610f6b57600080fd5b50610f8a60048036038101908080359060200190929190505050614130565b6040518080602001828103825283818151815260200191508051906020019080838360005b83811015610fca578082015181840152602081019050610faf565b50505050905090810190601f168015610ff75780820380516001836020036101000a031916815260200191505b509250505060405180910390f35b34801561101157600080fd5b50611046600480360381019080803573ffffffffffffffffffffffffffffffffffffffff1690602001909291905050506141eb565b005b34801561105457600080fd5b506110b9600480360381019080803590602001908201803590602001908080601f01602080910402602001604051908101604052809392919081815260200183838082843782019150505050505091929192908035906020019092919050505061428a565b005b3480156110c757600080fd5b506110f460048036038101908080356000191690602001909291908035906020019092919050505061473f565b604051808981526020018881526020018773ffffffffffffffffffffffffffffffffffffffff1673ffffffffffffffffffffffffffffffffffffffff1681526020018673ffffffffffffffffffffffffffffffffffffffff1673ffffffffffffffffffffffffffffffffffffffff16815260200185815260200184815260200183600881111561118057fe5b60ff1681526020018281526020019850505050505050505060405180910390f35b3480156111ad57600080fd5b506111e2600480360381019080803573ffffffffffffffffffffffffffffffffffffffff1690602001909291905050506147e1565b005b3480156111f057600080fd5b50611225600480360381019080803573ffffffffffffffffffffffffffffffffffffffff1690602001909291905050506148f2565b005b34801561123357600080fd5b5061123c614a03565b604051808273ffffffffffffffffffffffffffffffffffffffff1673ffffffffffffffffffffffffffffffffffffffff16815260200191505060405180910390f35b34801561128a57600080fd5b506112f96004803603810190808035906020019092919080359060200190929190803590602001908201803590602001908080601f0160208091040260200160405190810160405280939291908181526020018383808284378201915050505050509192919290505050614a29565b005b34801561130757600080fd5b5061136c600480360381019080803590602001908201803590602001908080601f01602080910402602001604051908101604052809392919081815260200183838082843782019150505050505091929192908035906020019092919050505061506c565b6040518086815260200185815260200184815260200183600881111561138e57fe5b60ff1681526020018281526020019550505050505060405180910390f35b3480156113b857600080fd5b506113ef60048036038101908080356000191690602001909291908035906020019092919080359060200190929190505050615258565b6040518088815260200187815260200186815260200185815260200184815260200183815260200182815260200197505050505050505060405180910390f35b34801561143b57600080fd5b5061147e6004803603810190808035600019169060200190929190803573ffffffffffffffffffffffffffffffffffffffff1690602001909291905050506152c3565b6040518082815260200191505060405180910390f35b3480156114a057600080fd5b506114cd6004803603810190808035600019169060200190929190803590602001909291905050506152e8565b6040518088815260200187815260200186815260200185815260200184815260200183815260200182815260200197505050505050505060405180910390f35b34801561151957600080fd5b5061153860048036038101908080359060200190929190505050615337565b005b60606000606080600060036000876040516020018082805190602001908083835b602083101515611580578051825260208201915060208101905060208303925061155b565b6001836020036101000a0380198251168184511680821785525050505050509050019150506040516020818303038152906040526040518082805190602001908083835b6020831015156115e957805182526020820191506020810190506020830392506115c4565b6001836020036101000a03801982511681845116808217855250505050505090500191505060405180910390206000191660001916815260200190815260200160002060000160036000886040516020018082805190602001908083835b60208310151561166c5780518252602082019150602081019050602083039250611647565b6001836020036101000a0380198251168184511680821785525050505050509050019150506040516020818303038152906040526040518082805190602001908083835b6020831015156116d557805182526020820191506020810190506020830392506116b0565b6001836020036101000a0380198251168184511680821785525050505050509050019150506040518091039020600019166000191681526020019081526020016000206001015460036000896040516020018082805190602001908083835b6020831015156117595780518252602082019150602081019050602083039250611734565b6001836020036101000a0380198251168184511680821785525050505050509050019150506040516020818303038152906040526040518082805190602001908083835b6020831015156117c2578051825260208201915060208101905060208303925061179d565b6001836020036101000a038019825116818451168082178552505050505050905001915050604051809103902060001916600019168152602001908152602001600020600201600360008a6040516020018082805190602001908083835b6020831015156118455780518252602082019150602081019050602083039250611820565b6001836020036101000a0380198251168184511680821785525050505050509050019150506040516020818303038152906040526040518082805190602001908083835b6020831015156118ae5780518252602082019150602081019050602083039250611889565b6001836020036101000a038019825116818451168082178552505050505050905001915050604051809103902060001916600019168152602001908152602001600020600301600360008b6040516020018082805190602001908083835b602083101515611931578051825260208201915060208101905060208303925061190c565b6001836020036101000a0380198251168184511680821785525050505050509050019150506040516020818303038152906040526040518082805190602001908083835b60208310151561199a5780518252602082019150602081019050602083039250611975565b6001836020036101000a03801982511681845116808217855250505050505090500191505060405180910390206000191660001916815260200190815260200160002060040160009054906101000a900460ff16848054600181600116156101000203166002900480601f016020809104026020016040519081016040528092919081815260200182805460018160011615610100020316600290048015611a835780601f10611a5857610100808354040283529160200191611a83565b820191906000526020600020905b815481529060010190602001808311611a6657829003601f168201915b50505050509450828054600181600116156101000203166002900480601f016020809104026020016040519081016040528092919081815260200182805460018160011615610100020316600290048015611b1f5780601f10611af457610100808354040283529160200191611b1f565b820191906000526020600020905b815481529060010190602001808311611b0257829003601f168201915b50505050509250818054600181600116156101000203166002900480601f016020809104026020016040519081016040528092919081815260200182805460018160011615610100020316600290048015611bbb5780601f10611b9057610100808354040283529160200191611bbb565b820191906000526020600020905b815481529060010190602001808311611b9e57829003601f168201915b505050505091509450945094509450945091939590929450565b60008060011515601060003373ffffffffffffffffffffffffffffffffffffffff1673ffffffffffffffffffffffffffffffffffffffff16815260200190815260200160002060009054906101000a900460ff161515141515611c3757600080fd5b8c6040516020018082805190602001908083835b602083101515611c705780518252602082019150602081019050602083039250611c4b565b6001836020036101000a0380198251168184511680821785525050505050509050019150506040516020818303038152906040526040518082805190602001908083835b602083101515611cd95780518252602082019150602081019050602083039250611cb4565b6001836020036101000a0380198251168184511680821785525050505050509050019150506040518091039020915060036000836000191660001916815260200190815260200160002060040160009054906101000a900460ff161515611d3f57600080fd5b4290506201518081811515611d5057fe5b06810390506004600083600019166000191681526020019081526020016000208c90806001815401808255809150509060018203906000526020600020016000909192909190915055506006600083600019166000191681526020019081526020016000208b90806001815401808255809150509060018203906000526020600020016000909192909190915055506008600083600019166000191681526020019081526020016000208a9080600181540180825580915050906001820390600052602060002001600090919290919091505550610100604051908101604052808d81526020018b81526020018973ffffffffffffffffffffffffffffffffffffffff1681526020018773ffffffffffffffffffffffffffffffffffffffff16815260200185815260200184815260200160016008811115611e8e57fe5b81526020014281525060056000846000191660001916815260200190815260200160002060008e8152602001908152602001600020600082015181600001556020820151816001015560408201518160020160006101000a81548173ffffffffffffffffffffffffffffffffffffffff021916908373ffffffffffffffffffffffffffffffffffffffff16021790555060608201518160030160006101000a81548173ffffffffffffffffffffffffffffffffffffffff021916908373ffffffffffffffffffffffffffffffffffffffff1602179055506080820151816004015560a0820151816005015560c08201518160060160006101000a81548160ff02191690836008811115611f9d57fe5b021790555060e08201518160070155905050610100604051908101604052808c81526020018b81526020018873ffffffffffffffffffffffffffffffffffffffff1681526020018673ffffffffffffffffffffffffffffffffffffffff1681526020018581526020018481526020016001600881111561201957fe5b81526020014281525060076000846000191660001916815260200190815260200160002060008d8152602001908152602001600020600082015181600001556020820151816001015560408201518160020160006101000a81548173ffffffffffffffffffffffffffffffffffffffff021916908373ffffffffffffffffffffffffffffffffffffffff16021790555060608201518160030160006101000a81548173ffffffffffffffffffffffffffffffffffffffff021916908373ffffffffffffffffffffffffffffffffffffffff1602179055506080820151816004015560a0820151816005015560c08201518160060160006101000a81548160ff0219169083600881111561212857fe5b021790555060e0820151816007015590505060e0604051908101604052808b81526020018d81526020018c81526020018281526020018a815260200160008152602001600081525060096000846000191660001916815260200190815260200160002060008c8152602001908152602001600020600082015181600001556020820151816001015560408201518160020155606082015181600301556080820151816004015560a0820151816005015560c0820151816006015590505050505050505050505050505050565b60606000600b8381548110151561220757fe5b90600052602060002001600b80549050818054600181600116156101000203166002900480601f0160208091040260200160405190810160405280929190818152602001828054600181600116156101000203166002900480156122ac5780601f10612281576101008083540402835291602001916122ac565b820191906000526020600020905b81548152906001019060200180831161228f57829003601f168201915b5050505050915091509150915091565b600080600080600080876040516020018082805190602001908083835b6020831015156122fe57805182526020820191506020810190506020830392506122d9565b6001836020036101000a0380198251168184511680821785525050505050509050019150506040516020818303038152906040526040518082805190602001908083835b6020831015156123675780518252602082019150602081019050602083039250612342565b6001836020036101000a0380198251168184511680821785525050505050509050019150506040518091039020905060056000826000191660001916815260200190815260200160002060008881526020019081526020016000206004015460056000836000191660001916815260200190815260200160002060008981526020019081526020016000206005015460056000846000191660001916815260200190815260200160002060008a81526020019081526020016000206007015460056000856000191660001916815260200190815260200160002060008b815260200190815260200160002060060160009054906101000a900460ff1660056000866000191660001916815260200190815260200160002060008c81526020019081526020016000206000015495509550955095509550509295509295909350565b600060026000846040516020018082805190602001908083835b6020831015156124e757805182526020820191506020810190506020830392506124c2565b6001836020036101000a0380198251168184511680821785525050505050509050019150506040516020818303038152906040526040518082805190602001908083835b602083101515612550578051825260208201915060208101905060208303925061252b565b6001836020036101000a03801982511681845116808217855250505050505090500191505060405180910390206000191660001916815260200190815260200160002060008373ffffffffffffffffffffffffffffffffffffffff1673ffffffffffffffffffffffffffffffffffffffff16815260200190815260200160002054905092915050565b6000809054906101000a900473ffffffffffffffffffffffffffffffffffffffff1673ffffffffffffffffffffffffffffffffffffffff163373ffffffffffffffffffffffffffffffffffffffff161480612684575060011515600c60003373ffffffffffffffffffffffffffffffffffffffff1673ffffffffffffffffffffffffffffffffffffffff16815260200190815260200160002060009054906101000a900460ff161515145b151561268f57600080fd5b6001601160008373ffffffffffffffffffffffffffffffffffffffff1673ffffffffffffffffffffffffffffffffffffffff16815260200190815260200160002060006101000a81548160ff02191690831515021790555050565b6000809054906101000a900473ffffffffffffffffffffffffffffffffffffffff1673ffffffffffffffffffffffffffffffffffffffff163373ffffffffffffffffffffffffffffffffffffffff161480612795575060011515600c60003373ffffffffffffffffffffffffffffffffffffffff1673ffffffffffffffffffffffffffffffffffffffff16815260200190815260200160002060009054906101000a900460ff161515145b15156127a057600080fd5b6001600f60008373ffffffffffffffffffffffffffffffffffffffff1673ffffffffffffffffffffffffffffffffffffffff16815260200190815260200160002060006101000a81548160ff02191690831515021790555050565b600080600080856040516020018082805190602001908083835b60208310151561283a5780518252602082019150602081019050602083039250612815565b6001836020036101000a0380198251168184511680821785525050505050509050019150506040516020818303038152906040526040518082805190602001908083835b6020831015156128a3578051825260208201915060208101905060208303925061287e565b6001836020036101000a03801982511681845116808217855250505050505090500191505060405180910390209050600560008260001916600019168152602001908152602001600020600086815260200190815260200160002060000154600560008360001916600019168152602001908152602001600020600087815260200190815260200160002060020160009054906101000a900473ffffffffffffffffffffffffffffffffffffffff16600560008460001916600019168152602001908152602001600020600088815260200190815260200160002060030160009054906101000a900473ffffffffffffffffffffffffffffffffffffffff16935093509350509250925092565b6000809054906101000a900473ffffffffffffffffffffffffffffffffffffffff1673ffffffffffffffffffffffffffffffffffffffff163373ffffffffffffffffffffffffffffffffffffffff161480612a5b575060011515600c60003373ffffffffffffffffffffffffffffffffffffffff1673ffffffffffffffffffffffffffffffffffffffff16815260200190815260200160002060009054906101000a900460ff161515145b1515612a6657600080fd5b6001601260008373ffffffffffffffffffffffffffffffffffffffff1673ffffffffffffffffffffffffffffffffffffffff16815260200190815260200160002060006101000a81548160ff02191690831515021790555050565b6000600160009054906101000a900473ffffffffffffffffffffffffffffffffffffffff1673ffffffffffffffffffffffffffffffffffffffff163373ffffffffffffffffffffffffffffffffffffffff16141515612b1f57600080fd5b6000151560036000876040516020018082805190602001908083835b602083101515612b605780518252602082019150602081019050602083039250612b3b565b6001836020036101000a0380198251168184511680821785525050505050509050019150506040516020818303038152906040526040518082805190602001908083835b602083101515612bc95780518252602082019150602081019050602083039250612ba4565b6001836020036101000a03801982511681845116808217855250505050505090500191505060405180910390206000191660001916815260200190815260200160002060040160009054906101000a900460ff161515141515612c2b57600080fd5b846040516020018082805190602001908083835b602083101515612c645780518252602082019150602081019050602083039250612c3f565b6001836020036101000a0380198251168184511680821785525050505050509050019150506040516020818303038152906040526040518082805190602001908083835b602083101515612ccd5780518252602082019150602081019050602083039250612ca8565b6001836020036101000a03801982511681845116808217855250505050505090500191505060405180910390209050846003600083600019166000191681526020019081526020016000206000019080519060200190612d2e929190615849565b508360036000836000191660001916815260200190815260200160002060010181905550826003600083600019166000191681526020019081526020016000206002019080519060200190612d84929190615849565b50816003600083600019166000191681526020019081526020016000206003019080519060200190612db7929190615849565b50600160036000836000191660001916815260200190815260200160002060040160006101000a81548160ff021916908315150217905550600b859080600181540180825580915050906001820390600052602060002001600090919290919091509080519060200190612e2c929190615849565b50508360026000876040516020018082805190602001908083835b602083101515612e6c5780518252602082019150602081019050602083039250612e47565b6001836020036101000a0380198251168184511680821785525050505050509050019150506040516020818303038152906040526040518082805190602001908083835b602083101515612ed55780518252602082019150602081019050602083039250612eb0565b6001836020036101000a03801982511681845116808217855250505050505090500191505060405180910390206000191660001916815260200190815260200160002060008060009054906101000a900473ffffffffffffffffffffffffffffffffffffffff1673ffffffffffffffffffffffffffffffffffffffff1673ffffffffffffffffffffffffffffffffffffffff168152602001908152602001600020600082825401925050819055505050505050565b6000809054906101000a900473ffffffffffffffffffffffffffffffffffffffff1673ffffffffffffffffffffffffffffffffffffffff163373ffffffffffffffffffffffffffffffffffffffff16141515612fe557600080fd5b6001151560036000846040516020018082805190602001908083835b6020831015156130265780518252602082019150602081019050602083039250613001565b6001836020036101000a0380198251168184511680821785525050505050509050019150506040516020818303038152906040526040518082805190602001908083835b60208310151561308f578051825260208201915060208101905060208303925061306a565b6001836020036101000a03801982511681845116808217855250505050505090500191505060405180910390206000191660001916815260200190815260200160002060040160009054906101000a900460ff1615151415156130f157600080fd5b8060036000846040516020018082805190602001908083835b60208310151561312f578051825260208201915060208101905060208303925061310a565b6001836020036101000a0380198251168184511680821785525050505050509050019150506040516020818303038152906040526040518082805190602001908083835b6020831015156131985780518252602082019150602081019050602083039250613173565b6001836020036101000a038019825116818451168082178552505050505050905001915050604051809103902060001916600019168152602001908152602001600020600101600082825401925050819055508060026000846040516020018082805190602001908083835b6020831015156132295780518252602082019150602081019050602083039250613204565b6001836020036101000a0380198251168184511680821785525050505050509050019150506040516020818303038152906040526040518082805190602001908083835b602083101515613292578051825260208201915060208101905060208303925061326d565b6001836020036101000a03801982511681845116808217855250505050505090500191505060405180910390206000191660001916815260200190815260200160002060008060009054906101000a900473ffffffffffffffffffffffffffffffffffffffff1673ffffffffffffffffffffffffffffffffffffffff1673ffffffffffffffffffffffffffffffffffffffff168152602001908152602001600020600082825401925050819055505050565b600080600080856040516020018082805190602001908083835b602083101515613383578051825260208201915060208101905060208303925061335e565b6001836020036101000a0380198251168184511680821785525050505050509050019150506040516020818303038152906040526040518082805190602001908083835b6020831015156133ec57805182526020820191506020810190506020830392506133c7565b6001836020036101000a03801982511681845116808217855250505050505090500191505060405180910390209050600760008260001916600019168152602001908152602001600020600086815260200190815260200160002060000154600760008360001916600019168152602001908152602001600020600087815260200190815260200160002060020160009054906101000a900473ffffffffffffffffffffffffffffffffffffffff16600760008460001916600019168152602001908152602001600020600088815260200190815260200160002060030160009054906101000a900473ffffffffffffffffffffffffffffffffffffffff16935093509350509250925092565b6003602052806000526040600020600091509050806000018054600181600116156101000203166002900480601f0160208091040260200160405190810160405280929190818152602001828054600181600116156101000203166002900480156135a55780601f1061357a576101008083540402835291602001916135a5565b820191906000526020600020905b81548152906001019060200180831161358857829003601f168201915b505050505090806001015490806002018054600181600116156101000203166002900480601f0160208091040260200160405190810160405280929190818152602001828054600181600116156101000203166002900480156136495780601f1061361e57610100808354040283529160200191613649565b820191906000526020600020905b81548152906001019060200180831161362c57829003601f168201915b505050505090806003018054600181600116156101000203166002900480601f0160208091040260200160405190810160405280929190818152602001828054600181600116156101000203166002900480156136e75780601f106136bc576101008083540402835291602001916136e7565b820191906000526020600020905b8154815290600101906020018083116136ca57829003601f168201915b5050505050908060040160009054906101000a900460ff16905085565b60046020528160005260406000208181548110151561371f57fe5b90600052602060002001600091509150505481565b8160026000856040516020018082805190602001908083835b602083101515613772578051825260208201915060208101905060208303925061374d565b6001836020036101000a0380198251168184511680821785525050505050509050019150506040516020818303038152906040526040518082805190602001908083835b6020831015156137db57805182526020820191506020810190506020830392506137b6565b6001836020036101000a03801982511681845116808217855250505050505090500191505060405180910390206000191660001916815260200190815260200160002060003373ffffffffffffffffffffffffffffffffffffffff1673ffffffffffffffffffffffffffffffffffffffff168152602001908152602001600020541015151561386957600080fd5b8160026000856040516020018082805190602001908083835b6020831015156138a75780518252602082019150602081019050602083039250613882565b6001836020036101000a0380198251168184511680821785525050505050509050019150506040516020818303038152906040526040518082805190602001908083835b60208310151561391057805182526020820191506020810190506020830392506138eb565b6001836020036101000a03801982511681845116808217855250505050505090500191505060405180910390206000191660001916815260200190815260200160002060003373ffffffffffffffffffffffffffffffffffffffff1673ffffffffffffffffffffffffffffffffffffffff168152602001908152602001600020600082825403925050819055508160026000856040516020018082805190602001908083835b6020831015156139db57805182526020820191506020810190506020830392506139b6565b6001836020036101000a0380198251168184511680821785525050505050509050019150506040516020818303038152906040526040518082805190602001908083835b602083101515613a445780518252602082019150602081019050602083039250613a1f565b6001836020036101000a03801982511681845116808217855250505050505090500191505060405180910390206000191660001916815260200190815260200160002060008373ffffffffffffffffffffffffffffffffffffffff1673ffffffffffffffffffffffffffffffffffffffff16815260200190815260200160002060008282540192505081905550505050565b6005602052816000526040600020602052806000526040600020600091509150508060000154908060010154908060020160009054906101000a900473ffffffffffffffffffffffffffffffffffffffff16908060030160009054906101000a900473ffffffffffffffffffffffffffffffffffffffff16908060040154908060050154908060060160009054906101000a900460ff16908060070154905088565b60011515601160003373ffffffffffffffffffffffffffffffffffffffff1673ffffffffffffffffffffffffffffffffffffffff16815260200190815260200160002060009054906101000a900460ff161515141515613bd757600080fd5b600115156003600060405160200180807f655a41520000000000000000000000000000000000000000000000000000000081525060040190506040516020818303038152906040526040518082805190602001908083835b602083101515613c545780518252602082019150602081019050602083039250613c2f565b6001836020036101000a03801982511681845116808217855250505050505090500191505060405180910390206000191660001916815260200190815260200160002060040160009054906101000a900460ff161515141515613cb657600080fd5b806003600060405160200180807f655a41520000000000000000000000000000000000000000000000000000000081525060040190506040516020818303038152906040526040518082805190602001908083835b602083101515613d305780518252602082019150602081019050602083039250613d0b565b6001836020036101000a03801982511681845116808217855250505050505090500191505060405180910390206000191660001916815260200190815260200160002060010160008282540192505081905550806002600060405160200180807f655a41520000000000000000000000000000000000000000000000000000000081525060040190506040516020818303038152906040526040518082805190602001908083835b602083101515613dfd5780518252602082019150602081019050602083039250613dd8565b6001836020036101000a03801982511681845116808217855250505050505090500191505060405180910390206000191660001916815260200190815260200160002060008060009054906101000a900473ffffffffffffffffffffffffffffffffffffffff1673ffffffffffffffffffffffffffffffffffffffff1673ffffffffffffffffffffffffffffffffffffffff1681526020019081526020016000206000828254019250508190555050565b6000809054906101000a900473ffffffffffffffffffffffffffffffffffffffff1673ffffffffffffffffffffffffffffffffffffffff163373ffffffffffffffffffffffffffffffffffffffff161480613f59575060011515600c60003373ffffffffffffffffffffffffffffffffffffffff1673ffffffffffffffffffffffffffffffffffffffff16815260200190815260200160002060009054906101000a900460ff161515145b1515613f6457600080fd5b6001600c60008373ffffffffffffffffffffffffffffffffffffffff1673ffffffffffffffffffffffffffffffffffffffff16815260200190815260200160002060006101000a81548160ff02191690831515021790555050565b600660205281600052604060002081815481101515613fda57fe5b90600052602060002001600091509150505481565b60086020528160005260406000208181548110151561400a57fe5b90600052602060002001600091509150505481565b6000809054906101000a900473ffffffffffffffffffffffffffffffffffffffff1673ffffffffffffffffffffffffffffffffffffffff163373ffffffffffffffffffffffffffffffffffffffff1614806140ca575060011515600c60003373ffffffffffffffffffffffffffffffffffffffff1673ffffffffffffffffffffffffffffffffffffffff16815260200190815260200160002060009054906101000a900460ff161515145b15156140d557600080fd5b6001600e60008373ffffffffffffffffffffffffffffffffffffffff1673ffffffffffffffffffffffffffffffffffffffff16815260200190815260200160002060006101000a81548160ff02191690831515021790555050565b600b8181548110151561413f57fe5b906000526020600020016000915090508054600181600116156101000203166002900480601f0160208091040260200160405190810160405280929190818152602001828054600181600116156101000203166002900480156141e35780601f106141b8576101008083540402835291602001916141e3565b820191906000526020600020905b8154815290600101906020018083116141c657829003601f168201915b505050505081565b6000809054906101000a900473ffffffffffffffffffffffffffffffffffffffff1673ffffffffffffffffffffffffffffffffffffffff163373ffffffffffffffffffffffffffffffffffffffff1614151561424657600080fd5b80600160006101000a81548173ffffffffffffffffffffffffffffffffffffffff021916908373ffffffffffffffffffffffffffffffffffffffff16021790555050565b6000809054906101000a900473ffffffffffffffffffffffffffffffffffffffff1673ffffffffffffffffffffffffffffffffffffffff163373ffffffffffffffffffffffffffffffffffffffff161415156142e557600080fd5b6001151560036000846040516020018082805190602001908083835b6020831015156143265780518252602082019150602081019050602083039250614301565b6001836020036101000a0380198251168184511680821785525050505050509050019150506040516020818303038152906040526040518082805190602001908083835b60208310151561438f578051825260208201915060208101905060208303925061436a565b6001836020036101000a03801982511681845116808217855250505050505090500191505060405180910390206000191660001916815260200190815260200160002060040160009054906101000a900460ff1615151415156143f157600080fd5b8060036000846040516020018082805190602001908083835b60208310151561442f578051825260208201915060208101905060208303925061440a565b6001836020036101000a0380198251168184511680821785525050505050509050019150506040516020818303038152906040526040518082805190602001908083835b6020831015156144985780518252602082019150602081019050602083039250614473565b6001836020036101000a03801982511681845116808217855250505050505090500191505060405180910390206000191660001916815260200190815260200160002060010154101515156144ec57600080fd5b8060036000846040516020018082805190602001908083835b60208310151561452a5780518252602082019150602081019050602083039250614505565b6001836020036101000a0380198251168184511680821785525050505050509050019150506040516020818303038152906040526040518082805190602001908083835b602083101515614593578051825260208201915060208101905060208303925061456e565b6001836020036101000a038019825116818451168082178552505050505050905001915050604051809103902060001916600019168152602001908152602001600020600101600082825403925050819055508060026000846040516020018082805190602001908083835b60208310151561462457805182526020820191506020810190506020830392506145ff565b6001836020036101000a0380198251168184511680821785525050505050509050019150506040516020818303038152906040526040518082805190602001908083835b60208310151561468d5780518252602082019150602081019050602083039250614668565b6001836020036101000a03801982511681845116808217855250505050505090500191505060405180910390206000191660001916815260200190815260200160002060008060009054906101000a900473ffffffffffffffffffffffffffffffffffffffff1673ffffffffffffffffffffffffffffffffffffffff1673ffffffffffffffffffffffffffffffffffffffff168152602001908152602001600020600082825403925050819055505050565b6007602052816000526040600020602052806000526040600020600091509150508060000154908060010154908060020160009054906101000a900473ffffffffffffffffffffffffffffffffffffffff16908060030160009054906101000a900473ffffffffffffffffffffffffffffffffffffffff16908060040154908060050154908060060160009054906101000a900460ff16908060070154905088565b6000809054906101000a900473ffffffffffffffffffffffffffffffffffffffff1673ffffffffffffffffffffffffffffffffffffffff163373ffffffffffffffffffffffffffffffffffffffff16148061488c575060011515600c60003373ffffffffffffffffffffffffffffffffffffffff1673ffffffffffffffffffffffffffffffffffffffff16815260200190815260200160002060009054906101000a900460ff161515145b151561489757600080fd5b6001601060008373ffffffffffffffffffffffffffffffffffffffff1673ffffffffffffffffffffffffffffffffffffffff16815260200190815260200160002060006101000a81548160ff02191690831515021790555050565b6000809054906101000a900473ffffffffffffffffffffffffffffffffffffffff1673ffffffffffffffffffffffffffffffffffffffff163373ffffffffffffffffffffffffffffffffffffffff16148061499d575060011515600c60003373ffffffffffffffffffffffffffffffffffffffff1673ffffffffffffffffffffffffffffffffffffffff16815260200190815260200160002060009054906101000a900460ff161515145b15156149a857600080fd5b6001600d60008373ffffffffffffffffffffffffffffffffffffffff1673ffffffffffffffffffffffffffffffffffffffff16815260200190815260200160002060006101000a81548160ff02191690831515021790555050565b600160009054906101000a900473ffffffffffffffffffffffffffffffffffffffff1681565b60008060011515600e60003373ffffffffffffffffffffffffffffffffffffffff1673ffffffffffffffffffffffffffffffffffffffff16815260200190815260200160002060009054906101000a900460ff1615151480614adb575060011515601260003373ffffffffffffffffffffffffffffffffffffffff1673ffffffffffffffffffffffffffffffffffffffff16815260200190815260200160002060009054906101000a900460ff161515145b1515614ae657600080fd5b826040516020018082805190602001908083835b602083101515614b1f5780518252602082019150602081019050602083039250614afa565b6001836020036101000a0380198251168184511680821785525050505050509050019150506040516020818303038152906040526040518082805190602001908083835b602083101515614b885780518252602082019150602081019050602083039250614b63565b6001836020036101000a0380198251168184511680821785525050505050509050019150506040518091039020915060036000836000191660001916815260200190815260200160002060040160009054906101000a900460ff161515614bee57600080fd5b6000851415614d7057600560008360001916600019168152602001908152602001600020600085815260200190815260200160002060030160009054906101000a900473ffffffffffffffffffffffffffffffffffffffff1673ffffffffffffffffffffffffffffffffffffffff163373ffffffffffffffffffffffffffffffffffffffff161480614cfa5750600560008360001916600019168152602001908152602001600020600085815260200190815260200160002060020160009054906101000a900473ffffffffffffffffffffffffffffffffffffffff1673ffffffffffffffffffffffffffffffffffffffff163373ffffffffffffffffffffffffffffffffffffffff16145b1515614d0557600080fd5b600560008360001916600019168152602001908152602001600020600085815260200190815260200160002060010154905042600960008460001916600019168152602001908152602001600020600083815260200190815260200160002060050181905550614ef8565b6001851415614ef257600760008360001916600019168152602001908152602001600020600085815260200190815260200160002060030160009054906101000a900473ffffffffffffffffffffffffffffffffffffffff1673ffffffffffffffffffffffffffffffffffffffff163373ffffffffffffffffffffffffffffffffffffffff161480614e7c5750600760008360001916600019168152602001908152602001600020600085815260200190815260200160002060020160009054906101000a900473ffffffffffffffffffffffffffffffffffffffff1673ffffffffffffffffffffffffffffffffffffffff163373ffffffffffffffffffffffffffffffffffffffff16145b1515614e8757600080fd5b600760008360001916600019168152602001908152602001600020600085815260200190815260200160002060010154905042600960008460001916600019168152602001908152602001600020600083815260200190815260200160002060060181905550614ef7565b600080fd5b5b60006009600084600019166000191681526020019081526020016000206000838152602001908152602001600020600601541115615065576000600960008460001916600019168152602001908152602001600020600083815260200190815260200160002060060154111561506457600a6000836000191660001916815260200190815260200160002060006009600085600019166000191681526020019081526020016000206000848152602001908152602001600020600401548152602001908152602001600020600960008460001916600019168152602001908152602001600020600083815260200190815260200160002090806001815401808255809150509060018203906000526020600020906007020160009091929091909150600082015481600001556001820154816001015560028201548160020155600382015481600301556004820154816004015560058201548160050155600682015481600601555050505b5b5050505050565b600080600080600080876040516020018082805190602001908083835b6020831015156150ae5780518252602082019150602081019050602083039250615089565b6001836020036101000a0380198251168184511680821785525050505050509050019150506040516020818303038152906040526040518082805190602001908083835b60208310151561511757805182526020820191506020810190506020830392506150f2565b6001836020036101000a0380198251168184511680821785525050505050509050019150506040518091039020905060076000826000191660001916815260200190815260200160002060008881526020019081526020016000206004015460076000836000191660001916815260200190815260200160002060008981526020019081526020016000206005015460076000846000191660001916815260200190815260200160002060008a81526020019081526020016000206007015460076000856000191660001916815260200190815260200160002060008b815260200190815260200160002060060160009054906101000a900460ff1660076000866000191660001916815260200190815260200160002060008c81526020019081526020016000206000015495509550955095509550509295509295909350565b600a6020528260005260406000206020528160005260406000208181548110151561527f57fe5b906000526020600020906007020160009250925050508060000154908060010154908060020154908060030154908060040154908060050154908060060154905087565b6002602052816000526040600020602052806000526040600020600091509150505481565b6009602052816000526040600020602052806000526040600020600091509150508060000154908060010154908060020154908060030154908060040154908060050154908060060154905087565b600060011515601160003373ffffffffffffffffffffffffffffffffffffffff1673ffffffffffffffffffffffffffffffffffffffff16815260200190815260200160002060009054906101000a900460ff16151514151561539857600080fd5b600015156003600060405160200180807f655a41520000000000000000000000000000000000000000000000000000000081525060040190506040516020818303038152906040526040518082805190602001908083835b60208310151561541557805182526020820191506020810190506020830392506153f0565b6001836020036101000a03801982511681845116808217855250505050505090500191505060405180910390206000191660001916815260200190815260200160002060040160009054906101000a900460ff16151514151561547757600080fd5b60405160200180807f655a41520000000000000000000000000000000000000000000000000000000081525060040190506040516020818303038152906040526040518082805190602001908083835b6020831015156154ec57805182526020820191506020810190506020830392506154c7565b6001836020036101000a038019825116818451168082178552505050505050905001915050604051809103902090506040805190810160405280600481526020017f655a4152000000000000000000000000000000000000000000000000000000008152506003600083600019166000191681526020019081526020016000206000019080519060200190615582929190615849565b5081600360008360001916600019168152602001908152602001600020600101819055506040805190810160405280601481526020017f536f75727468204166726963616e206552616e64000000000000000000000000815250600360008360001916600019168152602001908152602001600020600201908051906020019061560d929190615849565b506040805190810160405280600381526020017f5a415200000000000000000000000000000000000000000000000000000000008152506003600083600019166000191681526020019081526020016000206003019080519060200190615675929190615849565b50600160036000836000191660001916815260200190815260200160002060040160006101000a81548160ff021916908315150217905550600b8060018154018082558091505090600182039060005260206000200160006040805190810160405280600481526020017f655a4152000000000000000000000000000000000000000000000000000000008152509091909150908051906020019061571b929190615849565b5050816002600060405160200180807f655a41520000000000000000000000000000000000000000000000000000000081525060040190506040516020818303038152906040526040518082805190602001908083835b6020831015156157975780518252602082019150602081019050602083039250615772565b6001836020036101000a03801982511681845116808217855250505050505090500191505060405180910390206000191660001916815260200190815260200160002060008060009054906101000a900473ffffffffffffffffffffffffffffffffffffffff1673ffffffffffffffffffffffffffffffffffffffff1673ffffffffffffffffffffffffffffffffffffffff168152602001908152602001600020600082825401925050819055505050565b828054600181600116156101000203166002900490600052602060002090601f016020900481019282601f1061588a57805160ff19168380011785556158b8565b828001600101855582156158b8579182015b828111156158b757825182559160200191906001019061589c565b5b5090506158c591906158c9565b5090565b6158eb91905b808211156158e75760008160009055506001016158cf565b5090565b905600a165627a7a723058201938108b2f367785e1e192d658ba5572a5140fa37d0e225bde762e09efa73f930029",
  "source": "pragma solidity ^0.4.23;\n\n/** @title Post Trade Contract. */\n/** @author Johan Pretorius */\n/** startDate 2018-06-06 */\n\ncontract PostTrade {\n\n    // ==========================================================================\n    // Modifiers\n    // ==========================================================================\n    modifier onlyOwner{\n        require(msg.sender == owner);\n        _;\n    }\n\n    modifier onlyOwnerOrAdmin{\n        require(msg.sender == owner || Admins[msg.sender] == true);\n        _;\n    }\n\n    modifier onlyCSD{\n        require(CSDs[msg.sender] == true);\n        _;\n    }\n\n    modifier onlyCustodian{\n        require(Custodians[msg.sender] == true);\n        _;\n    }\n\n    modifier onlyCustodianOrTradeReportingParty {\n        require(Custodians[msg.sender] == true || TradeReportingParties[msg.sender] == true);\n        _;\n    }\n\n    modifier onlyETME{\n        require(ETMEs[msg.sender] == true);\n        _;\n    }\n\n    modifier onlyExchanges{\n        require(Exchanges[msg.sender] == true);\n        _;\n    }\n\n    modifier onlyIsinIssuanceContact {\n        require(msg.sender == isinIssuanceContractAddress);\n        _;\n    }\n\n    modifier onlySAMOS{\n        require(SAMOSs[msg.sender] == true);\n        _;\n    }\n\n    modifier onlyTradeReportingParty{\n        require(TradeReportingParties[msg.sender] == true);\n        _;\n    }\n\n    address private owner;\n    address public isinIssuanceContractAddress;\n\n    // ==========================================================================\n    // Constructor: Prepper for development, will need to be revised for Prod\n    // ==========================================================================\n    constructor () public {\n        owner = msg.sender;\n        Admins[0x51e63a2E221C782Bfc95f42Cd469D3780a479C15] = true;\n        CSDs[0x2AaB2c02Fc5415D23e91CE8Dc230D3A31793CFF8] = true;\n        Custodians[0x1c6B96De685481c2d9915b606D4AB1277949b4Bc] = true;\n        Custodians[0x2d14d5Ae5E54a22043B1eccD420494DAA9513e06] = true;\n        ETMEs[0x0ef2F9c8845da4c9c34BEf02C3213e0Da1306Da0] = true;\n        Exchanges[0x0ef2F9c8845da4c9c34BEf02C3213e0Da1306Da0] = true;\n        SAMOSs[0x3E7Eaa5Bc0ee36b4308B668050535d411a81585D] = true;\n        TradeReportingParties[0xED646f6B0cf23C2bfC0dC4117dA42Eb5CCf15ee4] = true;\n        TradeReportingParties[0xA1Ff8eE897ED92E62aE9F30061Ba5f012e804721] = true;\n    }\n\n    // ==========================================================================\n    // Mapping Table: Addresses <=> Roles\n    // ==========================================================================\n    // 0x51e63a2E221C782Bfc95f42Cd469D3780a479C15 --- Admin / Contract Owner\n    // 0xFb91a2395d9E49b89fcA3dca0959b6eB4Ea08a0B --- BUYER\n    // 0x8eA823e5951243bFA7f1Daad4703396260071fB9 --- SELLER\n    // 0xED646f6B0cf23C2bfC0dC4117dA42Eb5CCf15ee4 --- BUYER TRP\n    // 0xA1Ff8eE897ED92E62aE9F30061Ba5f012e804721 --- SELLER TRP\n    // 0x1c6B96De685481c2d9915b606D4AB1277949b4Bc --- BUYER CUSTODIAN\n    // 0x2d14d5Ae5E54a22043B1eccD420494DAA9513e06 --- SELLER CUSTODIAN\n    // 0x0ef2F9c8845da4c9c34BEf02C3213e0Da1306Da0 --- ETME (Or other matching engine)\n    // 0x3E7Eaa5Bc0ee36b4308B668050535d411a81585D --- SAMOS\n    // 0x2AaB2c02Fc5415D23e91CE8Dc230D3A31793CFF8 --- CSD\n    // ==========================================================================\n    // Ganache Mnemonic: latin bonus invest museum gate buffalo fever demand neglect entire session rail\n    // ==========================================================================\n\n    // ==========================================================================\n    // State transitions ( [Pre-State] => [Post-State] --- [Responsible Party] ):\n    // ==========================================================================\n    // 101 (Accepted) => 201 (Matched) --- N.A.\n    // 201 (Matched) => 201 AFFI (Confirmed) --- TRP\n    // 201 AFFI => 401 (Cancelled) --- TRP\n    // 201 AFFI => 251 (Matched Ready For Settlement) --- N.A.\n    // 251 => 301 (Overdue) --- CSD\n    // 301 => 601 (Settled) --- SAMOS\n    // 301 => 801 (Failed) --- CSD\n    // 251 => 512 (Ready for funding) --- N.A.\n    // 512 => 601 (Settled) --- SAMOS\n    // ==========================================================================\n    enum Statuses {\n        Acceped,                    // 0\n        Matched,                    // 1\n        Confirmed,                  // 2\n        Cancelled,                  // 3\n        MatchedReadyForSettlement,  // 4\n        Overdue,                    // 5\n        Settled,                    // 6\n        Failed,                     // 7\n        ReadyForFunding             // 8\n    }\n\n    // ==========================================================================\n    // Structs\n    // ==========================================================================\n    struct SecurityOld {\n        string isin;\n        uint issuedShareCap;\n        uint issuedDate;\n        address issuerAddress;\n        string issuerName;\n    }\n\n    struct Security {\n        string ISIN;\n        uint totalIssuedShareCap;\n        string longName;\n        string ticker;\n        bool active;\n    }\n\n    struct Trade {\n        uint tradeId;\n        uint buyLegId;\n        uint sellLegId;\n        uint tradeDate;\n        uint settlementDeadlineDate;\n        uint buyConfirmationDateTime;\n        uint saleConfirmationDateTime;\n    }\n\n    struct BuyLeg {\n        uint buyLegId;\n        uint tradeId;\n        // address investorAddress;\n        address tradeReportingPartyAddress;\n        address custodianId;\n        uint amount;\n        uint buyPrice;\n        Statuses status;\n        uint timestamp;\n    }\n\n    struct SaleLeg {\n        uint saleLegId;\n        uint tradeId;\n        // address investorAddress;\n        address tradeReportingPartyAddress;\n        address custodianId;\n        uint amount;\n        uint salePrice;\n        Statuses status;\n        uint timestamp;\n    }\n\n    // ==========================================================================\n    // Variables\n    // ==========================================================================\n\n    mapping(bytes32 => mapping (address => uint)) public balances;\n    mapping(bytes32 => Security) public securities;\n    \n    // Mappings for trades and trade legs\n    mapping(bytes32 => uint[]) public matchedBuysIdListForISIN;\n    mapping(bytes32 => mapping(uint => BuyLeg)) public buyLegForISINAndId;\n\n    mapping(bytes32 => uint[]) public matchedSalesIdListForISIN;\n    mapping(bytes32 => mapping(uint => SaleLeg)) public saleLegForISINAndId;\n\n    mapping(bytes32 => uint[]) public matchedTradesIdListForISIN;\n    mapping(bytes32 => mapping(uint => Trade)) public matchedTradesForISINandId;\n    mapping(bytes32 => mapping(uint => Trade[])) public confirmedTradesForISINandSettlementDate;\n\n    string[] public securitiesList;\n\n    // ==========================================================================\n    // Actors: Trade Reporting Party x2, ETME, SAMOS, CSD\n    // ==========================================================================\n    // Role Management for addresses\n    // ==========================================================================\n    mapping(address => bool) internal Admins;\n    mapping(address => bool) internal CSDs;\n    mapping(address => bool) internal Custodians;\n    mapping(address => bool) internal ETMEs;\n    mapping(address => bool) internal Exchanges;\n    mapping(address => bool) internal SAMOSs;\n    mapping(address => bool) internal TradeReportingParties;\n\n    // ==========================================================================\n    // Date stuff: Taken from Piper's library - https://github.com/pipermerriam/ethereum-datetime\n    // ==========================================================================\n    uint constant DAY_IN_SECONDS = 86400;\n    // uint constant YEAR_IN_SECONDS = 31536000;\n    // uint constant LEAP_YEAR_IN_SECONDS = 31622400;\n\n    // uint constant HOUR_IN_SECONDS = 3600;\n    // uint constant MINUTE_IN_SECONDS = 60;\n\n    // uint16 constant ORIGIN_YEAR = 1970;\n\n    // ==========================================================================\n    // Functions\n    // ==========================================================================\n\n    // TODO: Expand on ISIN issuance as per scrum board: https://trello.com/b/45EzfvGG/scrum-board\n    function issueSecurity (string _ISIN, uint _totalIssuedShareCap, string _longName, string _ticker) public onlyIsinIssuanceContact {\n        require (securities[keccak256(abi.encodePacked(_ISIN))].active == false);\n        bytes32 keccakIsin = keccak256(abi.encodePacked(_ISIN));\n        securities[keccakIsin].ISIN = _ISIN;\n        securities[keccakIsin].totalIssuedShareCap = _totalIssuedShareCap;\n        securities[keccakIsin].longName = _longName;\n        securities[keccakIsin].ticker = _ticker;\n        securities[keccakIsin].active = true;\n\n        securitiesList.push(_ISIN);\n\n        balances[keccak256(abi.encodePacked(_ISIN))][owner] += _totalIssuedShareCap;\n    }\n\n    function issueCash (uint _totalIssuedShareCap) public onlySAMOS {\n        require (securities[keccak256(abi.encodePacked(\"eZAR\"))].active == false);\n        bytes32 keccakIsin = keccak256(abi.encodePacked(\"eZAR\"));\n        securities[keccakIsin].ISIN = \"eZAR\";\n        securities[keccakIsin].totalIssuedShareCap = _totalIssuedShareCap;\n        securities[keccakIsin].longName = \"Sourth African eRand\";\n        securities[keccakIsin].ticker = \"ZAR\";\n        securities[keccakIsin].active = true;\n\n        securitiesList.push(\"eZAR\");\n\n        balances[keccak256(abi.encodePacked(\"eZAR\"))][owner] += _totalIssuedShareCap;\n    }\n\n    function topUp (string _ISIN, uint _amount) public onlyOwner {\n        require (securities[keccak256(abi.encodePacked(_ISIN))].active == true);\n        securities[keccak256(abi.encodePacked(_ISIN))].totalIssuedShareCap += _amount;\n        balances[keccak256(abi.encodePacked(_ISIN))][owner] += _amount;\n    }\n\n    function reduceSecurities (string _ISIN, uint _amount) public onlyOwner {\n        require (securities[keccak256(abi.encodePacked(_ISIN))].active == true);\n        require (securities[keccak256(abi.encodePacked(_ISIN))].totalIssuedShareCap >= _amount);\n        securities[keccak256(abi.encodePacked(_ISIN))].totalIssuedShareCap -= _amount;\n        balances[keccak256(abi.encodePacked(_ISIN))][owner] -= _amount;\n    }\n\n    function topUpCash (uint _amount) public onlySAMOS {\n        require (securities[keccak256(abi.encodePacked(\"eZAR\"))].active == true);\n        securities[keccak256(abi.encodePacked(\"eZAR\"))].totalIssuedShareCap += _amount;\n        balances[keccak256(abi.encodePacked(\"eZAR\"))][owner] += _amount;\n    }\n\n    function getSecurityDetails (string _ISIN) public view returns (string, uint, string, string, bool) {\n        return (\n            securities[keccak256(abi.encodePacked(_ISIN))].ISIN,\n            securities[keccak256(abi.encodePacked(_ISIN))].totalIssuedShareCap,\n            securities[keccak256(abi.encodePacked(_ISIN))].longName,\n            securities[keccak256(abi.encodePacked(_ISIN))].ticker,\n            securities[keccak256(abi.encodePacked(_ISIN))].active\n        );\n    }\n\n    function getSecuritiesListById (uint _index) public view returns (string, uint) {\n        return (securitiesList[_index], securitiesList.length);\n    }\n\n    function getBalanceOfSecAndAccount (string _ISIN, address _accountHolder) public view returns (uint) {\n        return balances[keccak256(abi.encodePacked(_ISIN))][_accountHolder];\n    }\n\n    function sendSecurity (string _ISIN, uint _amount, address _receiverAddress) public {\n        require (balances[keccak256(abi.encodePacked(_ISIN))][msg.sender] >= _amount);\n        balances[keccak256(abi.encodePacked(_ISIN))][msg.sender] -= _amount;\n        balances[keccak256(abi.encodePacked(_ISIN))][_receiverAddress] += _amount;\n    }\n\n    // For On Markets the trade will come in already pre matched\n    function addPreMatchedTrade (\n        string _ISIN,\n        uint _buyLegId,\n        uint _saleLegId,\n        uint _tradeId,\n        uint _settlementDate, // Format YYYYMMDD\n        // address _buyerAddress,\n        // address _sellerAddress,\n        address _buyerTradeReportingPartyAddress,\n        address _sellerTradeReportingPartyAddress,\n        address _buyerCustodianId,\n        address _sellerCustodianId,\n        uint _amount,\n        uint _salePrice ) public onlyExchanges {\n\n        bytes32 _hash = keccak256(abi.encodePacked(_ISIN));\n        uint lastMidnightTime;\n\n        // Require that the ISIN is valid on the system\n        require(securities[_hash].active);\n\n        // Find midnigth time from block.timestamp\n        lastMidnightTime = block.timestamp;\n        lastMidnightTime -= (lastMidnightTime % DAY_IN_SECONDS);\n\n        matchedBuysIdListForISIN[_hash].push(_buyLegId);\n        matchedSalesIdListForISIN[_hash].push(_saleLegId);\n        matchedTradesIdListForISIN[_hash].push(_tradeId);\n\n        buyLegForISINAndId[_hash][_buyLegId] = BuyLeg({\n            buyLegId: _buyLegId,\n            tradeId: _tradeId,\n            // investorAddress: _buyerAddress,\n            tradeReportingPartyAddress: _buyerTradeReportingPartyAddress,\n            custodianId: _buyerCustodianId,\n            amount: _amount,\n            buyPrice: _salePrice,\n            status: Statuses.Matched,\n            timestamp: block.timestamp\n        });\n\n        saleLegForISINAndId[_hash][_saleLegId] = SaleLeg({\n            saleLegId: _saleLegId,\n            tradeId: _tradeId,\n            // investorAddress: _sellerAddress,\n            tradeReportingPartyAddress: _sellerTradeReportingPartyAddress,\n            custodianId: _sellerCustodianId,\n            amount: _amount,\n            salePrice: _salePrice,\n            status: Statuses.Matched,\n            timestamp: block.timestamp\n        });\n\n        matchedTradesForISINandId[_hash][_tradeId] = Trade({\n            tradeId: _tradeId,\n            buyLegId: _buyLegId,\n            sellLegId: _saleLegId,\n            tradeDate: lastMidnightTime,\n            settlementDeadlineDate: _settlementDate,\n            buyConfirmationDateTime: 0,\n            saleConfirmationDateTime: 0\n        });\n\n    }\n\n    // Due to stack overflow errors the returns for buys and sales must be split into seperate functions as there are too many fields to return\n    function getBuysPartiesForIsin(string _ISIN, uint _legId) public view returns (uint, address, address) {  \n        bytes32 _hash = keccak256(abi.encodePacked(_ISIN));\n        return (\n            buyLegForISINAndId[_hash][_legId].buyLegId,\n            // buyLegForISINAndId[_hash][_legId].investorAddress,\n            buyLegForISINAndId[_hash][_legId].tradeReportingPartyAddress,\n            buyLegForISINAndId[_hash][_legId].custodianId\n        );\n    }\n\n    function getBuysForIsin(string _ISIN, uint _legId) public view returns (uint, uint, uint, Statuses, uint) {  \n        bytes32 _hash = keccak256(abi.encodePacked(_ISIN));\n        return (\n            buyLegForISINAndId[_hash][_legId].amount,\n            buyLegForISINAndId[_hash][_legId].buyPrice,\n            buyLegForISINAndId[_hash][_legId].timestamp,\n            buyLegForISINAndId[_hash][_legId].status,\n            buyLegForISINAndId[_hash][_legId].buyLegId\n        );\n    }\n\n    function getSalesPartiesForIsin(string _ISIN, uint _legId) public view returns (uint, address, address) {  \n        bytes32 _hash = keccak256(abi.encodePacked(_ISIN));\n        return (\n            saleLegForISINAndId[_hash][_legId].saleLegId,\n            //saleLegForISINAndId[_hash][_legId].investorAddress,\n            saleLegForISINAndId[_hash][_legId].tradeReportingPartyAddress,\n            saleLegForISINAndId[_hash][_legId].custodianId\n        );\n    }\n\n    function getSalesForIsin(string _ISIN, uint _index) public view returns (uint, uint, uint, Statuses, uint) {  \n        bytes32 _hash = keccak256(abi.encodePacked(_ISIN));\n        return (\n            saleLegForISINAndId[_hash][_index].amount,\n            saleLegForISINAndId[_hash][_index].salePrice,\n            saleLegForISINAndId[_hash][_index].timestamp,\n            saleLegForISINAndId[_hash][_index].status,\n            saleLegForISINAndId[_hash][_index].saleLegId\n        );\n    }\n\n    // _buyOrSaleIndicator { 0: BUY Leg, 1: SALE Leg }\n    function confirmTradeLeg (uint _buyOrSaleIndicator, uint _legId, string _ISIN) public onlyCustodianOrTradeReportingParty {\n        \n        bytes32 _hash = keccak256(abi.encodePacked(_ISIN));\n        uint _tradeId;\n        // Require that the ISIN is valid on the system\n        require(securities[_hash].active);\n\n        if (_buyOrSaleIndicator == 0) {\n            // check that sender is authorised       \n            require(\n                msg.sender == buyLegForISINAndId[_hash][_legId].custodianId ||\n                msg.sender == buyLegForISINAndId[_hash][_legId].tradeReportingPartyAddress);\n\n            _tradeId = buyLegForISINAndId[_hash][_legId].tradeId;\n            matchedTradesForISINandId[_hash][_tradeId].buyConfirmationDateTime = block.timestamp;\n        } else if (_buyOrSaleIndicator == 1) {\n            // check that sender is authorised       \n            require(\n                msg.sender == saleLegForISINAndId[_hash][_legId].custodianId ||\n                msg.sender == saleLegForISINAndId[_hash][_legId].tradeReportingPartyAddress);\n\n            _tradeId = saleLegForISINAndId[_hash][_legId].tradeId;\n            matchedTradesForISINandId[_hash][_tradeId].saleConfirmationDateTime = block.timestamp;\n        } else {\n            revert();\n        }\n\n        if (matchedTradesForISINandId[_hash][_tradeId].saleConfirmationDateTime > 0) {\n            if (matchedTradesForISINandId[_hash][_tradeId].saleConfirmationDateTime > 0) {\n                // Once a perfect match has been made, add the fully confirmed trade to a list of trades to be settled on settlement date.\n                confirmedTradesForISINandSettlementDate[_hash][matchedTradesForISINandId[_hash][_tradeId].settlementDeadlineDate].push(matchedTradesForISINandId[_hash][_tradeId]);\n                \n                //TODO: Add securities netting\n                //  Do reservation for securities \n                //    Decuct securities from seller\n                //    Add securities from buyer\n                //  Check if buyer has enough cash to do real-time settlement ??? <<<< Confirm with Ganesh / Rudi\n                //  Do cash calculation from \n                //    Decuct cash from seller CSDP\n                //    Add cash to buyer CSDP\n            }\n        }\n    }\n\n    function setIsinIssuanceContractAddress (address _isinIssuanceContractAddress) public onlyOwner {\n        isinIssuanceContractAddress = _isinIssuanceContractAddress;\n    }\n\n    // ==========================================================================\n    // Add/Remove Authorised Roles:\n    // ==========================================================================    \n    // Administrators will have elevated contract permissions, at present this \n    // will be crude, but in productionising the contract this will become\n    // a vital role.\n    // ==========================================================================\n    function addAdmin(address _adminAddress) public onlyOwnerOrAdmin {\n        Admins[_adminAddress] = true;\n    }\n\n    // function removeAdmin(address _adminAddress) public onlyOwnerOrAdmin {\n    //     Admins[_adminAddress] = false;\n    // }\n\n    function addCSD(address _CSDAddress) public onlyOwnerOrAdmin {\n        CSDs[_CSDAddress] = true;\n    }\n\n    // function removeCSD(address _CSDAddress) public onlyOwnerOrAdmin {\n    //     CSDs[_CSDAddress] = false;\n    // }\n\n    function addCustodian(address _CustodianAddress) public onlyOwnerOrAdmin {\n        Custodians[_CustodianAddress] = true;\n    }\n\n    // function removeCustodian(address _CustodianAddress) public onlyOwnerOrAdmin {\n    //     Custodians[_CustodianAddress] = false;\n    // }\n\n    function addETME(address _ETMEAddress) public onlyOwnerOrAdmin {\n        ETMEs[_ETMEAddress] = true;\n    }\n\n    // function removeETME(address _ETMEAddress) public onlyOwnerOrAdmin {\n    //     ETMEs[_ETMEAddress] = false;\n    // }\n\n    function addExchange(address _ExchangeAddress) public onlyOwnerOrAdmin {\n        Exchanges[_ExchangeAddress] = true;\n    }\n\n    // function removeExchange(address _ExchangeAddress) public onlyOwnerOrAdmin {\n    //     ETMEs[_ExchangeAddress] = false;\n    // }\n\n    function addSAMOS(address _SAMOSAddress) public onlyOwnerOrAdmin {\n        SAMOSs[_SAMOSAddress] = true;\n    }\n\n    // function removeSAMOS(address _SAMOSAddress) public onlyOwnerOrAdmin {\n    //     SAMOSs[_SAMOSAddress] = false;\n    // }\n\n    function addTradeReportingParty(address _TradeReportingPartyAddress) public onlyOwnerOrAdmin {\n        TradeReportingParties[_TradeReportingPartyAddress] = true;\n    }\n\n    // function removeTradeReportingParty(address _TradeReportingPartyAddress) public onlyOwnerOrAdmin {\n    //     TradeReportingParties[_TradeReportingPartyAddress] = false;\n    // }\n\n    // ==========================================================================\n    // Helper Console Scripts:\n    // ==========================================================================\n/* \n\nPostTrade.deployed().then(function(instance){return instance.issueSecurity(\"ZAE001\",1000,\"Anglo American PLC\",\"ANG\")});\nPostTrade.deployed().then(function(instance){return instance.getBalanceOfSecAndAccount(\"ZAE001\",\"0x51e63a2E221C782Bfc95f42Cd469D3780a479C15\")});\nPostTrade.deployed().then(function(instance){return instance.sendSecurity(\"ZAE001\",600,\"0x2AaB2c02Fc5415D23e91CE8Dc230D3A31793CFF8\")});\nPostTrade.deployed().then(function(instance){return instance.sendSecurity(\"ZAE001\",500,\"0x8ea823e5951243bfa7f1daad4703396260071fb9\", {from: \"0x2AaB2c02Fc5415D23e91CE8Dc230D3A31793CFF8\"})});\nPostTrade.deployed().then(function(instance){return instance.getSecurityDetails(\"ZAE001\")});\nPostTrade.deployed().then(function(instance){return instance.getSecuritiesListById(0)});\nPostTrade.deployed().then(function(instance){return instance.addPreMatchedTrade(\"ZAE001\",1234,4321,11223344,20180720,\"0xED646f6B0cf23C2bfC0dC4117dA42Eb5CCf15ee4\",\"0xA1Ff8eE897ED92E62aE9F30061Ba5f012e804721\",\"0x1c6B96De685481c2d9915b606D4AB1277949b4Bc\",\"0x2d14d5Ae5E54a22043B1eccD420494DAA9513e06\",100,4444,{from:\"0x0ef2F9c8845da4c9c34BEf02C3213e0Da1306Da0\"})});\n\n*/ \n    // ==========================================================================\n    // TRUFFLE MNEMONIC: latin bonus invest museum gate buffalo fever demand neglect entire session rail\n    // [ '0x51e63a2e221c782bfc95f42cd469d3780a479c15',\n    //   '0xfb91a2395d9e49b89fca3dca0959b6eb4ea08a0b',\n    //   '0x8ea823e5951243bfa7f1daad4703396260071fb9',\n    //   '0xed646f6b0cf23c2bfc0dc4117da42eb5ccf15ee4',\n    //   '0xa1ff8ee897ed92e62ae9f30061ba5f012e804721',\n    //   '0x1c6b96de685481c2d9915b606d4ab1277949b4bc',\n    //   '0x2d14d5ae5e54a22043b1eccd420494daa9513e06',\n    //   '0x0ef2f9c8845da4c9c34bef02c3213e0da1306da0',\n    //   '0x3e7eaa5bc0ee36b4308b668050535d411a81585d',\n    //   '0x2aab2c02fc5415d23e91ce8dc230d3a31793cff8' ]\n    // ==========================================================================\n    // *** END TRIAL CODE ***\n    // ==========================================================================\n}",
  "sourcePath": "/Users/johanp/dev/eth/it_roadmap_2025/contracts/PostTrade.sol",
  "compiler": {
    "name": "solc",
    "version": "0.4.24+commit.e67f0147.Emscripten.clang"
  },
  "schemaVersion": "2.0.1",
  "updatedAt": "2018-07-26T11:23:58.144Z"
}