{
  "contractName": "PostTrade",
  "abi": [
    {
      "constant": true,
      "inputs": [
        {
          "name": "",
          "type": "bytes32"
        }
      ],
      "name": "securities",
      "outputs": [
        {
          "name": "ISIN",
          "type": "string"
        },
        {
          "name": "totalIssuedShareCap",
          "type": "uint256"
        },
        {
          "name": "longName",
          "type": "string"
        },
        {
          "name": "ticker",
          "type": "string"
        },
        {
          "name": "active",
          "type": "bool"
        }
      ],
      "payable": false,
      "stateMutability": "view",
      "type": "function"
    },
    {
      "constant": true,
      "inputs": [
        {
          "name": "",
          "type": "bytes32"
        },
        {
          "name": "",
          "type": "uint256"
        }
      ],
      "name": "matchedBuysIdListForISIN",
      "outputs": [
        {
          "name": "",
          "type": "uint256"
        }
      ],
      "payable": false,
      "stateMutability": "view",
      "type": "function"
    },
    {
      "constant": true,
      "inputs": [
        {
          "name": "",
          "type": "bytes32"
        },
        {
          "name": "",
          "type": "uint256"
        }
      ],
      "name": "buyLegForISINAndId",
      "outputs": [
        {
          "name": "buyLegId",
          "type": "uint256"
        },
        {
          "name": "tradeId",
          "type": "uint256"
        },
        {
          "name": "tradeReportingPartyAddress",
          "type": "address"
        },
        {
          "name": "custodianId",
          "type": "address"
        },
        {
          "name": "amount",
          "type": "uint256"
        },
        {
          "name": "buyPrice",
          "type": "uint256"
        },
        {
          "name": "status",
          "type": "uint8"
        },
        {
          "name": "timestamp",
          "type": "uint256"
        }
      ],
      "payable": false,
      "stateMutability": "view",
      "type": "function"
    },
    {
      "constant": true,
      "inputs": [
        {
          "name": "",
          "type": "bytes32"
        },
        {
          "name": "",
          "type": "uint256"
        }
      ],
      "name": "matchedSalesIdListForISIN",
      "outputs": [
        {
          "name": "",
          "type": "uint256"
        }
      ],
      "payable": false,
      "stateMutability": "view",
      "type": "function"
    },
    {
      "constant": true,
      "inputs": [
        {
          "name": "",
          "type": "bytes32"
        },
        {
          "name": "",
          "type": "uint256"
        }
      ],
      "name": "matchedTradesIdListForISIN",
      "outputs": [
        {
          "name": "",
          "type": "uint256"
        }
      ],
      "payable": false,
      "stateMutability": "view",
      "type": "function"
    },
    {
      "constant": true,
      "inputs": [
        {
          "name": "",
          "type": "uint256"
        }
      ],
      "name": "securitiesList",
      "outputs": [
        {
          "name": "",
          "type": "string"
        }
      ],
      "payable": false,
      "stateMutability": "view",
      "type": "function"
    },
    {
      "constant": true,
      "inputs": [
        {
          "name": "",
          "type": "bytes32"
        },
        {
          "name": "",
          "type": "uint256"
        }
      ],
      "name": "saleLegForISINAndId",
      "outputs": [
        {
          "name": "saleLegId",
          "type": "uint256"
        },
        {
          "name": "tradeId",
          "type": "uint256"
        },
        {
          "name": "tradeReportingPartyAddress",
          "type": "address"
        },
        {
          "name": "custodianId",
          "type": "address"
        },
        {
          "name": "amount",
          "type": "uint256"
        },
        {
          "name": "salePrice",
          "type": "uint256"
        },
        {
          "name": "status",
          "type": "uint8"
        },
        {
          "name": "timestamp",
          "type": "uint256"
        }
      ],
      "payable": false,
      "stateMutability": "view",
      "type": "function"
    },
    {
      "constant": true,
      "inputs": [],
      "name": "isinIssuanceContractAddress",
      "outputs": [
        {
          "name": "",
          "type": "address"
        }
      ],
      "payable": false,
      "stateMutability": "view",
      "type": "function"
    },
    {
      "constant": true,
      "inputs": [
        {
          "name": "",
          "type": "bytes32"
        },
        {
          "name": "",
          "type": "uint256"
        },
        {
          "name": "",
          "type": "uint256"
        }
      ],
      "name": "confirmedTradesForISINandSettlementDate",
      "outputs": [
        {
          "name": "tradeId",
          "type": "uint256"
        },
        {
          "name": "buyLegId",
          "type": "uint256"
        },
        {
          "name": "sellLegId",
          "type": "uint256"
        },
        {
          "name": "tradeDate",
          "type": "uint256"
        },
        {
          "name": "settlementDeadlineDate",
          "type": "uint256"
        },
        {
          "name": "buyConfirmationDateTime",
          "type": "uint256"
        },
        {
          "name": "saleConfirmationDateTime",
          "type": "uint256"
        }
      ],
      "payable": false,
      "stateMutability": "view",
      "type": "function"
    },
    {
      "constant": true,
      "inputs": [
        {
          "name": "",
          "type": "bytes32"
        },
        {
          "name": "",
          "type": "address"
        }
      ],
      "name": "balances",
      "outputs": [
        {
          "name": "",
          "type": "uint256"
        }
      ],
      "payable": false,
      "stateMutability": "view",
      "type": "function"
    },
    {
      "constant": true,
      "inputs": [
        {
          "name": "",
          "type": "bytes32"
        },
        {
          "name": "",
          "type": "uint256"
        }
      ],
      "name": "matchedTradesForISINandId",
      "outputs": [
        {
          "name": "tradeId",
          "type": "uint256"
        },
        {
          "name": "buyLegId",
          "type": "uint256"
        },
        {
          "name": "sellLegId",
          "type": "uint256"
        },
        {
          "name": "tradeDate",
          "type": "uint256"
        },
        {
          "name": "settlementDeadlineDate",
          "type": "uint256"
        },
        {
          "name": "buyConfirmationDateTime",
          "type": "uint256"
        },
        {
          "name": "saleConfirmationDateTime",
          "type": "uint256"
        }
      ],
      "payable": false,
      "stateMutability": "view",
      "type": "function"
    },
    {
      "inputs": [],
      "payable": false,
      "stateMutability": "nonpayable",
      "type": "constructor"
    },
    {
      "constant": false,
      "inputs": [
        {
          "name": "_ISIN",
          "type": "string"
        },
        {
          "name": "_totalIssuedShareCap",
          "type": "uint256"
        },
        {
          "name": "_longName",
          "type": "string"
        },
        {
          "name": "_ticker",
          "type": "string"
        }
      ],
      "name": "issueSecurity",
      "outputs": [],
      "payable": false,
      "stateMutability": "nonpayable",
      "type": "function"
    },
    {
      "constant": false,
      "inputs": [
        {
          "name": "_totalIssuedShareCap",
          "type": "uint256"
        }
      ],
      "name": "issueCash",
      "outputs": [],
      "payable": false,
      "stateMutability": "nonpayable",
      "type": "function"
    },
    {
      "constant": false,
      "inputs": [
        {
          "name": "_ISIN",
          "type": "string"
        },
        {
          "name": "_amount",
          "type": "uint256"
        }
      ],
      "name": "topUp",
      "outputs": [],
      "payable": false,
      "stateMutability": "nonpayable",
      "type": "function"
    },
    {
      "constant": false,
      "inputs": [
        {
          "name": "_amount",
          "type": "uint256"
        }
      ],
      "name": "topUpCash",
      "outputs": [],
      "payable": false,
      "stateMutability": "nonpayable",
      "type": "function"
    },
    {
      "constant": true,
      "inputs": [
        {
          "name": "_ISIN",
          "type": "string"
        }
      ],
      "name": "getSecurityDetails",
      "outputs": [
        {
          "name": "",
          "type": "string"
        },
        {
          "name": "",
          "type": "uint256"
        },
        {
          "name": "",
          "type": "string"
        },
        {
          "name": "",
          "type": "string"
        },
        {
          "name": "",
          "type": "bool"
        }
      ],
      "payable": false,
      "stateMutability": "view",
      "type": "function"
    },
    {
      "constant": true,
      "inputs": [
        {
          "name": "_index",
          "type": "uint256"
        }
      ],
      "name": "getSecuritiesListById",
      "outputs": [
        {
          "name": "",
          "type": "string"
        },
        {
          "name": "",
          "type": "uint256"
        }
      ],
      "payable": false,
      "stateMutability": "view",
      "type": "function"
    },
    {
      "constant": true,
      "inputs": [
        {
          "name": "_ISIN",
          "type": "string"
        },
        {
          "name": "_accountHolder",
          "type": "address"
        }
      ],
      "name": "getBalanceOfSecAndAccount",
      "outputs": [
        {
          "name": "",
          "type": "uint256"
        }
      ],
      "payable": false,
      "stateMutability": "view",
      "type": "function"
    },
    {
      "constant": false,
      "inputs": [
        {
          "name": "_ISIN",
          "type": "string"
        },
        {
          "name": "_amount",
          "type": "uint256"
        },
        {
          "name": "_receiverAddress",
          "type": "address"
        }
      ],
      "name": "sendSecurity",
      "outputs": [],
      "payable": false,
      "stateMutability": "nonpayable",
      "type": "function"
    },
    {
      "constant": false,
      "inputs": [
        {
          "name": "_ISIN",
          "type": "string"
        },
        {
          "name": "_buyLegId",
          "type": "uint256"
        },
        {
          "name": "_saleLegId",
          "type": "uint256"
        },
        {
          "name": "_tradeId",
          "type": "uint256"
        },
        {
          "name": "_settlementDate",
          "type": "uint256"
        },
        {
          "name": "_buyerTradeReportingPartyAddress",
          "type": "address"
        },
        {
          "name": "_sellerTradeReportingPartyAddress",
          "type": "address"
        },
        {
          "name": "_buyerCustodianId",
          "type": "address"
        },
        {
          "name": "_sellerCustodianId",
          "type": "address"
        },
        {
          "name": "_amount",
          "type": "uint256"
        },
        {
          "name": "_salePrice",
          "type": "uint256"
        }
      ],
      "name": "addPreMatchedTrade",
      "outputs": [],
      "payable": false,
      "stateMutability": "nonpayable",
      "type": "function"
    },
    {
      "constant": true,
      "inputs": [
        {
          "name": "_ISIN",
          "type": "string"
        },
        {
          "name": "_legId",
          "type": "uint256"
        }
      ],
      "name": "getBuysPartiesForIsin",
      "outputs": [
        {
          "name": "",
          "type": "uint256"
        },
        {
          "name": "",
          "type": "address"
        },
        {
          "name": "",
          "type": "address"
        }
      ],
      "payable": false,
      "stateMutability": "view",
      "type": "function"
    },
    {
      "constant": true,
      "inputs": [
        {
          "name": "_ISIN",
          "type": "string"
        },
        {
          "name": "_legId",
          "type": "uint256"
        }
      ],
      "name": "getBuysForIsin",
      "outputs": [
        {
          "name": "",
          "type": "uint256"
        },
        {
          "name": "",
          "type": "uint256"
        },
        {
          "name": "",
          "type": "uint256"
        },
        {
          "name": "",
          "type": "uint8"
        },
        {
          "name": "",
          "type": "uint256"
        }
      ],
      "payable": false,
      "stateMutability": "view",
      "type": "function"
    },
    {
      "constant": true,
      "inputs": [
        {
          "name": "_ISIN",
          "type": "string"
        },
        {
          "name": "_legId",
          "type": "uint256"
        }
      ],
      "name": "getSalesPartiesForIsin",
      "outputs": [
        {
          "name": "",
          "type": "uint256"
        },
        {
          "name": "",
          "type": "address"
        },
        {
          "name": "",
          "type": "address"
        }
      ],
      "payable": false,
      "stateMutability": "view",
      "type": "function"
    },
    {
      "constant": true,
      "inputs": [
        {
          "name": "_ISIN",
          "type": "string"
        },
        {
          "name": "_index",
          "type": "uint256"
        }
      ],
      "name": "getSalesForIsin",
      "outputs": [
        {
          "name": "",
          "type": "uint256"
        },
        {
          "name": "",
          "type": "uint256"
        },
        {
          "name": "",
          "type": "uint256"
        },
        {
          "name": "",
          "type": "uint8"
        },
        {
          "name": "",
          "type": "uint256"
        }
      ],
      "payable": false,
      "stateMutability": "view",
      "type": "function"
    },
    {
      "constant": false,
      "inputs": [
        {
          "name": "_buyOrSaleIndicator",
          "type": "uint256"
        },
        {
          "name": "_legId",
          "type": "uint256"
        },
        {
          "name": "_ISIN",
          "type": "string"
        }
      ],
      "name": "confirmTradeLeg",
      "outputs": [],
      "payable": false,
      "stateMutability": "nonpayable",
      "type": "function"
    },
    {
      "constant": false,
      "inputs": [
        {
          "name": "_isinIssuanceContractAddress",
          "type": "address"
        }
      ],
      "name": "setIsinIssuanceContractAddress",
      "outputs": [],
      "payable": false,
      "stateMutability": "nonpayable",
      "type": "function"
    },
    {
      "constant": false,
      "inputs": [
        {
          "name": "_adminAddress",
          "type": "address"
        }
      ],
      "name": "addAdmin",
      "outputs": [],
      "payable": false,
      "stateMutability": "nonpayable",
      "type": "function"
    },
    {
      "constant": false,
      "inputs": [
        {
          "name": "_adminAddress",
          "type": "address"
        }
      ],
      "name": "removeAdmin",
      "outputs": [],
      "payable": false,
      "stateMutability": "nonpayable",
      "type": "function"
    },
    {
      "constant": false,
      "inputs": [
        {
          "name": "_CSDAddress",
          "type": "address"
        }
      ],
      "name": "addCSD",
      "outputs": [],
      "payable": false,
      "stateMutability": "nonpayable",
      "type": "function"
    },
    {
      "constant": false,
      "inputs": [
        {
          "name": "_CSDAddress",
          "type": "address"
        }
      ],
      "name": "removeCSD",
      "outputs": [],
      "payable": false,
      "stateMutability": "nonpayable",
      "type": "function"
    },
    {
      "constant": false,
      "inputs": [
        {
          "name": "_CustodianAddress",
          "type": "address"
        }
      ],
      "name": "addCustodian",
      "outputs": [],
      "payable": false,
      "stateMutability": "nonpayable",
      "type": "function"
    },
    {
      "constant": false,
      "inputs": [
        {
          "name": "_CustodianAddress",
          "type": "address"
        }
      ],
      "name": "removeCustodian",
      "outputs": [],
      "payable": false,
      "stateMutability": "nonpayable",
      "type": "function"
    },
    {
      "constant": false,
      "inputs": [
        {
          "name": "_ETMEAddress",
          "type": "address"
        }
      ],
      "name": "addETME",
      "outputs": [],
      "payable": false,
      "stateMutability": "nonpayable",
      "type": "function"
    },
    {
      "constant": false,
      "inputs": [
        {
          "name": "_ETMEAddress",
          "type": "address"
        }
      ],
      "name": "removeETME",
      "outputs": [],
      "payable": false,
      "stateMutability": "nonpayable",
      "type": "function"
    },
    {
      "constant": false,
      "inputs": [
        {
          "name": "_ExchangeAddress",
          "type": "address"
        }
      ],
      "name": "addExchange",
      "outputs": [],
      "payable": false,
      "stateMutability": "nonpayable",
      "type": "function"
    },
    {
      "constant": false,
      "inputs": [
        {
          "name": "_ExchangeAddress",
          "type": "address"
        }
      ],
      "name": "removeExchange",
      "outputs": [],
      "payable": false,
      "stateMutability": "nonpayable",
      "type": "function"
    },
    {
      "constant": false,
      "inputs": [
        {
          "name": "_SAMOSAddress",
          "type": "address"
        }
      ],
      "name": "addSAMOS",
      "outputs": [],
      "payable": false,
      "stateMutability": "nonpayable",
      "type": "function"
    },
    {
      "constant": false,
      "inputs": [
        {
          "name": "_SAMOSAddress",
          "type": "address"
        }
      ],
      "name": "removeSAMOS",
      "outputs": [],
      "payable": false,
      "stateMutability": "nonpayable",
      "type": "function"
    },
    {
      "constant": false,
      "inputs": [
        {
          "name": "_TradeReportingPartyAddress",
          "type": "address"
        }
      ],
      "name": "addTradeReportingParty",
      "outputs": [],
      "payable": false,
      "stateMutability": "nonpayable",
      "type": "function"
    },
    {
      "constant": false,
      "inputs": [
        {
          "name": "_TradeReportingPartyAddress",
          "type": "address"
        }
      ],
      "name": "removeTradeReportingParty",
      "outputs": [],
      "payable": false,
      "stateMutability": "nonpayable",
      "type": "function"
    }
  ],
  "bytecode": "0x608060405234801561001057600080fd5b50336000806101000a81548173ffffffffffffffffffffffffffffffffffffffff021916908373ffffffffffffffffffffffffffffffffffffffff1602179055506001600c60007351e63a2e221c782bfc95f42cd469d3780a479c1573ffffffffffffffffffffffffffffffffffffffff1673ffffffffffffffffffffffffffffffffffffffff16815260200190815260200160002060006101000a81548160ff0219169083151502179055506001600d6000732aab2c02fc5415d23e91ce8dc230d3a31793cff873ffffffffffffffffffffffffffffffffffffffff1673ffffffffffffffffffffffffffffffffffffffff16815260200190815260200160002060006101000a81548160ff0219169083151502179055506001600e6000731c6b96de685481c2d9915b606d4ab1277949b4bc73ffffffffffffffffffffffffffffffffffffffff1673ffffffffffffffffffffffffffffffffffffffff16815260200190815260200160002060006101000a81548160ff0219169083151502179055506001600e6000732d14d5ae5e54a22043b1eccd420494daa9513e0673ffffffffffffffffffffffffffffffffffffffff1673ffffffffffffffffffffffffffffffffffffffff16815260200190815260200160002060006101000a81548160ff0219169083151502179055506001600f6000730ef2f9c8845da4c9c34bef02c3213e0da1306da073ffffffffffffffffffffffffffffffffffffffff1673ffffffffffffffffffffffffffffffffffffffff16815260200190815260200160002060006101000a81548160ff021916908315150217905550600160106000730ef2f9c8845da4c9c34bef02c3213e0da1306da073ffffffffffffffffffffffffffffffffffffffff1673ffffffffffffffffffffffffffffffffffffffff16815260200190815260200160002060006101000a81548160ff021916908315150217905550600160116000733e7eaa5bc0ee36b4308b668050535d411a81585d73ffffffffffffffffffffffffffffffffffffffff1673ffffffffffffffffffffffffffffffffffffffff16815260200190815260200160002060006101000a81548160ff02191690831515021790555060016012600073ed646f6b0cf23c2bfc0dc4117da42eb5ccf15ee473ffffffffffffffffffffffffffffffffffffffff1673ffffffffffffffffffffffffffffffffffffffff16815260200190815260200160002060006101000a81548160ff02191690831515021790555060016012600073a1ff8ee897ed92e62ae9f30061ba5f012e80472173ffffffffffffffffffffffffffffffffffffffff1673ffffffffffffffffffffffffffffffffffffffff16815260200190815260200160002060006101000a81548160ff021916908315150217905550615d80806200042d6000396000f3006080604052600436106101ee576000357c0100000000000000000000000000000000000000000000000000000000900463ffffffff1680630bbb0dc3146101f35780630d56fe57146103bf5780630f12a66a146104e45780631785f53c1461052757806320ef03131461056a578063232db21b14610617578063278325af146106c857806327fcd747146107655780632e38fa7d146107a85780633271fe1d146107eb5780633dd4b8d0146108d85780633e87e4aa1461091b5780634ac52ccb14610a1a5780634bf03ba614610a8d5780634cdf22c314610b7a5780634e08b52d14610d0e5780634e1593e214610d5d57806350a50cf114610df05780636643d55a14610ed65780637048027514610f035780637d60079e14610f4657806383ca719714610f9557806385d95b8114610fe45780638b6412b1146110275780638e0be369146110cd57806390573c6d146111105780639764faf914611153578063a76a5fdf14611196578063aa10ce221461127c578063ac46e682146112bf578063c297281a14611302578063c9c9209b14611345578063ce65a2691461139c578063d657145214611419578063d69cb40a146114ca578063d860cf5c1461154d578063d93d736114611590578063f38d4ed1146115f5578063f3b879ed14611638578063fc67d141146116b1575b600080fd5b3480156101ff57600080fd5b5061025a600480360381019080803590602001908201803590602001908080601f01602080910402602001604051908101604052809392919081815260200183838082843782019150505050505091929192905050506116de565b6040518080602001868152602001806020018060200185151515158152602001848103845289818151815260200191508051906020019080838360005b838110156102b2578082015181840152602081019050610297565b50505050905090810190601f1680156102df5780820380516001836020036101000a031916815260200191505b50848103835287818151815260200191508051906020019080838360005b838110156103185780820151818401526020810190506102fd565b50505050905090810190601f1680156103455780820380516001836020036101000a031916815260200191505b50848103825286818151815260200191508051906020019080838360005b8381101561037e578082015181840152602081019050610363565b50505050905090810190601f1680156103ab5780820380516001836020036101000a031916815260200191505b509850505050505050505060405180910390f35b3480156103cb57600080fd5b506104e2600480360381019080803590602001908201803590602001908080601f016020809104026020016040519081016040528093929190818152602001838380828437820191505050505050919291929080359060200190929190803590602001909291908035906020019092919080359060200190929190803573ffffffffffffffffffffffffffffffffffffffff169060200190929190803573ffffffffffffffffffffffffffffffffffffffff169060200190929190803573ffffffffffffffffffffffffffffffffffffffff169060200190929190803573ffffffffffffffffffffffffffffffffffffffff1690602001909291908035906020019092919080359060200190929190505050611d79565b005b3480156104f057600080fd5b50610525600480360381019080803573ffffffffffffffffffffffffffffffffffffffff169060200190929190505050612398565b005b34801561053357600080fd5b50610568600480360381019080803573ffffffffffffffffffffffffffffffffffffffff1690602001909291905050506124a9565b005b34801561057657600080fd5b50610595600480360381019080803590602001909291905050506125ba565b6040518080602001838152602001828103825284818151815260200191508051906020019080838360005b838110156105db5780820151818401526020810190506105c0565b50505050905090810190601f1680156106085780820380516001836020036101000a031916815260200191505b50935050505060405180910390f35b34801561062357600080fd5b50610688600480360381019080803590602001908201803590602001908080601f016020809104026020016040519081016040528093929190818152602001838380828437820191505050505050919291929080359060200190929190505050612682565b604051808681526020018581526020018481526020018360088111156106aa57fe5b60ff1681526020018281526020019550505050505060405180910390f35b3480156106d457600080fd5b5061074f600480360381019080803590602001908201803590602001908080601f0160208091040260200160405190810160405280939291908181526020018383808284378201915050505050509192919290803573ffffffffffffffffffffffffffffffffffffffff16906020019092919050505061286e565b6040518082815260200191505060405180910390f35b34801561077157600080fd5b506107a6600480360381019080803573ffffffffffffffffffffffffffffffffffffffff16906020019092919050505061299f565b005b3480156107b457600080fd5b506107e9600480360381019080803573ffffffffffffffffffffffffffffffffffffffff169060200190929190505050612ab0565b005b3480156107f757600080fd5b5061085c600480360381019080803590602001908201803590602001908080601f016020809104026020016040519081016040528093929190818152602001838380828437820191505050505050919291929080359060200190929190505050612bc1565b604051808481526020018373ffffffffffffffffffffffffffffffffffffffff1673ffffffffffffffffffffffffffffffffffffffff1681526020018273ffffffffffffffffffffffffffffffffffffffff1673ffffffffffffffffffffffffffffffffffffffff168152602001935050505060405180910390f35b3480156108e457600080fd5b50610919600480360381019080803573ffffffffffffffffffffffffffffffffffffffff169060200190929190505050612d76565b005b34801561092757600080fd5b50610a18600480360381019080803590602001908201803590602001908080601f016020809104026020016040519081016040528093929190818152602001838380828437820191505050505050919291929080359060200190929190803590602001908201803590602001908080601f0160208091040260200160405190810160405280939291908181526020018383808284378201915050505050509192919290803590602001908201803590602001908080601f0160208091040260200160405190810160405280939291908181526020018383808284378201915050505050509192919290505050612e87565b005b348015610a2657600080fd5b50610a8b600480360381019080803590602001908201803590602001908080601f016020809104026020016040519081016040528093929190818152602001838380828437820191505050505050919291929080359060200190929190505050613350565b005b348015610a9957600080fd5b50610afe600480360381019080803590602001908201803590602001908080601f01602080910402602001604051908101604052809392919081815260200183838082843782019150505050505091929192908035906020019092919050505061370a565b604051808481526020018373ffffffffffffffffffffffffffffffffffffffff1673ffffffffffffffffffffffffffffffffffffffff1681526020018273ffffffffffffffffffffffffffffffffffffffff1673ffffffffffffffffffffffffffffffffffffffff168152602001935050505060405180910390f35b348015610b8657600080fd5b50610ba960048036038101908080356000191690602001909291905050506138bf565b6040518080602001868152602001806020018060200185151515158152602001848103845289818151815260200191508051906020019080838360005b83811015610c01578082015181840152602081019050610be6565b50505050905090810190601f168015610c2e5780820380516001836020036101000a031916815260200191505b50848103835287818151815260200191508051906020019080838360005b83811015610c67578082015181840152602081019050610c4c565b50505050905090810190601f168015610c945780820380516001836020036101000a031916815260200191505b50848103825286818151815260200191508051906020019080838360005b83811015610ccd578082015181840152602081019050610cb2565b50505050905090810190601f168015610cfa5780820380516001836020036101000a031916815260200191505b509850505050505050505060405180910390f35b348015610d1a57600080fd5b50610d47600480360381019080803560001916906020019092919080359060200190929190505050613aca565b6040518082815260200191505060405180910390f35b348015610d6957600080fd5b50610dee600480360381019080803590602001908201803590602001908080601f016020809104026020016040519081016040528093929190818152602001838380828437820191505050505050919291929080359060200190929190803573ffffffffffffffffffffffffffffffffffffffff169060200190929190505050613afa565b005b348015610dfc57600080fd5b50610e29600480360381019080803560001916906020019092919080359060200190929190505050613e9c565b604051808981526020018881526020018773ffffffffffffffffffffffffffffffffffffffff1673ffffffffffffffffffffffffffffffffffffffff1681526020018673ffffffffffffffffffffffffffffffffffffffff1673ffffffffffffffffffffffffffffffffffffffff168152602001858152602001848152602001836008811115610eb557fe5b60ff1681526020018281526020019850505050505050505060405180910390f35b348015610ee257600080fd5b50610f0160048036038101908080359060200190929190505050613f3e565b005b348015610f0f57600080fd5b50610f44600480360381019080803573ffffffffffffffffffffffffffffffffffffffff169060200190929190505050614274565b005b348015610f5257600080fd5b50610f7f600480360381019080803560001916906020019092919080359060200190929190505050614385565b6040518082815260200191505060405180910390f35b348015610fa157600080fd5b50610fce6004803603810190808035600019169060200190929190803590602001909291905050506143b5565b6040518082815260200191505060405180910390f35b348015610ff057600080fd5b50611025600480360381019080803573ffffffffffffffffffffffffffffffffffffffff1690602001909291905050506143e5565b005b34801561103357600080fd5b50611052600480360381019080803590602001909291905050506144f6565b6040518080602001828103825283818151815260200191508051906020019080838360005b83811015611092578082015181840152602081019050611077565b50505050905090810190601f1680156110bf5780820380516001836020036101000a031916815260200191505b509250505060405180910390f35b3480156110d957600080fd5b5061110e600480360381019080803573ffffffffffffffffffffffffffffffffffffffff1690602001909291905050506145b1565b005b34801561111c57600080fd5b50611151600480360381019080803573ffffffffffffffffffffffffffffffffffffffff1690602001909291905050506146c2565b005b34801561115f57600080fd5b50611194600480360381019080803573ffffffffffffffffffffffffffffffffffffffff169060200190929190505050614761565b005b3480156111a257600080fd5b506111cf600480360381019080803560001916906020019092919080359060200190929190505050614872565b604051808981526020018881526020018773ffffffffffffffffffffffffffffffffffffffff1673ffffffffffffffffffffffffffffffffffffffff1681526020018673ffffffffffffffffffffffffffffffffffffffff1673ffffffffffffffffffffffffffffffffffffffff16815260200185815260200184815260200183600881111561125b57fe5b60ff1681526020018281526020019850505050505050505060405180910390f35b34801561128857600080fd5b506112bd600480360381019080803573ffffffffffffffffffffffffffffffffffffffff169060200190929190505050614914565b005b3480156112cb57600080fd5b50611300600480360381019080803573ffffffffffffffffffffffffffffffffffffffff169060200190929190505050614a25565b005b34801561130e57600080fd5b50611343600480360381019080803573ffffffffffffffffffffffffffffffffffffffff169060200190929190505050614b36565b005b34801561135157600080fd5b5061135a614c47565b604051808273ffffffffffffffffffffffffffffffffffffffff1673ffffffffffffffffffffffffffffffffffffffff16815260200191505060405180910390f35b3480156113a857600080fd5b506114176004803603810190808035906020019092919080359060200190929190803590602001908201803590602001908080601f0160208091040260200160405190810160405280939291908181526020018383808284378201915050505050509192919290505050614c6d565b005b34801561142557600080fd5b5061148a600480360381019080803590602001908201803590602001908080601f0160208091040260200160405190810160405280939291908181526020018383808284378201915050505050509192919290803590602001909291905050506152b0565b604051808681526020018581526020018481526020018360088111156114ac57fe5b60ff1681526020018281526020019550505050505060405180910390f35b3480156114d657600080fd5b5061150d6004803603810190808035600019169060200190929190803590602001909291908035906020019092919050505061549c565b6040518088815260200187815260200186815260200185815260200184815260200183815260200182815260200197505050505050505060405180910390f35b34801561155957600080fd5b5061158e600480360381019080803573ffffffffffffffffffffffffffffffffffffffff169060200190929190505050615507565b005b34801561159c57600080fd5b506115df6004803603810190808035600019169060200190929190803573ffffffffffffffffffffffffffffffffffffffff169060200190929190505050615618565b6040518082815260200191505060405180910390f35b34801561160157600080fd5b50611636600480360381019080803573ffffffffffffffffffffffffffffffffffffffff16906020019092919050505061563d565b005b34801561164457600080fd5b5061167160048036038101908080356000191690602001909291908035906020019092919050505061574e565b6040518088815260200187815260200186815260200185815260200184815260200183815260200182815260200197505050505050505060405180910390f35b3480156116bd57600080fd5b506116dc6004803603810190808035906020019092919050505061579d565b005b60606000606080600060036000876040516020018082805190602001908083835b60208310151561172457805182526020820191506020810190506020830392506116ff565b6001836020036101000a0380198251168184511680821785525050505050509050019150506040516020818303038152906040526040518082805190602001908083835b60208310151561178d5780518252602082019150602081019050602083039250611768565b6001836020036101000a03801982511681845116808217855250505050505090500191505060405180910390206000191660001916815260200190815260200160002060000160036000886040516020018082805190602001908083835b60208310151561181057805182526020820191506020810190506020830392506117eb565b6001836020036101000a0380198251168184511680821785525050505050509050019150506040516020818303038152906040526040518082805190602001908083835b6020831015156118795780518252602082019150602081019050602083039250611854565b6001836020036101000a0380198251168184511680821785525050505050509050019150506040518091039020600019166000191681526020019081526020016000206001015460036000896040516020018082805190602001908083835b6020831015156118fd57805182526020820191506020810190506020830392506118d8565b6001836020036101000a0380198251168184511680821785525050505050509050019150506040516020818303038152906040526040518082805190602001908083835b6020831015156119665780518252602082019150602081019050602083039250611941565b6001836020036101000a038019825116818451168082178552505050505050905001915050604051809103902060001916600019168152602001908152602001600020600201600360008a6040516020018082805190602001908083835b6020831015156119e957805182526020820191506020810190506020830392506119c4565b6001836020036101000a0380198251168184511680821785525050505050509050019150506040516020818303038152906040526040518082805190602001908083835b602083101515611a525780518252602082019150602081019050602083039250611a2d565b6001836020036101000a038019825116818451168082178552505050505050905001915050604051809103902060001916600019168152602001908152602001600020600301600360008b6040516020018082805190602001908083835b602083101515611ad55780518252602082019150602081019050602083039250611ab0565b6001836020036101000a0380198251168184511680821785525050505050509050019150506040516020818303038152906040526040518082805190602001908083835b602083101515611b3e5780518252602082019150602081019050602083039250611b19565b6001836020036101000a03801982511681845116808217855250505050505090500191505060405180910390206000191660001916815260200190815260200160002060040160009054906101000a900460ff16848054600181600116156101000203166002900480601f016020809104026020016040519081016040528092919081815260200182805460018160011615610100020316600290048015611c275780601f10611bfc57610100808354040283529160200191611c27565b820191906000526020600020905b815481529060010190602001808311611c0a57829003601f168201915b50505050509450828054600181600116156101000203166002900480601f016020809104026020016040519081016040528092919081815260200182805460018160011615610100020316600290048015611cc35780601f10611c9857610100808354040283529160200191611cc3565b820191906000526020600020905b815481529060010190602001808311611ca657829003601f168201915b50505050509250818054600181600116156101000203166002900480601f016020809104026020016040519081016040528092919081815260200182805460018160011615610100020316600290048015611d5f5780601f10611d3457610100808354040283529160200191611d5f565b820191906000526020600020905b815481529060010190602001808311611d4257829003601f168201915b505050505091509450945094509450945091939590929450565b60008060011515601060003373ffffffffffffffffffffffffffffffffffffffff1673ffffffffffffffffffffffffffffffffffffffff16815260200190815260200160002060009054906101000a900460ff161515141515611ddb57600080fd5b8c6040516020018082805190602001908083835b602083101515611e145780518252602082019150602081019050602083039250611def565b6001836020036101000a0380198251168184511680821785525050505050509050019150506040516020818303038152906040526040518082805190602001908083835b602083101515611e7d5780518252602082019150602081019050602083039250611e58565b6001836020036101000a0380198251168184511680821785525050505050509050019150506040518091039020915060036000836000191660001916815260200190815260200160002060040160009054906101000a900460ff161515611ee357600080fd5b4290506201518081811515611ef457fe5b06810390506004600083600019166000191681526020019081526020016000208c90806001815401808255809150509060018203906000526020600020016000909192909190915055506006600083600019166000191681526020019081526020016000208b90806001815401808255809150509060018203906000526020600020016000909192909190915055506008600083600019166000191681526020019081526020016000208a9080600181540180825580915050906001820390600052602060002001600090919290919091505550610100604051908101604052808d81526020018b81526020018973ffffffffffffffffffffffffffffffffffffffff1681526020018773ffffffffffffffffffffffffffffffffffffffff1681526020018581526020018481526020016001600881111561203257fe5b81526020014281525060056000846000191660001916815260200190815260200160002060008e8152602001908152602001600020600082015181600001556020820151816001015560408201518160020160006101000a81548173ffffffffffffffffffffffffffffffffffffffff021916908373ffffffffffffffffffffffffffffffffffffffff16021790555060608201518160030160006101000a81548173ffffffffffffffffffffffffffffffffffffffff021916908373ffffffffffffffffffffffffffffffffffffffff1602179055506080820151816004015560a0820151816005015560c08201518160060160006101000a81548160ff0219169083600881111561214157fe5b021790555060e08201518160070155905050610100604051908101604052808c81526020018b81526020018873ffffffffffffffffffffffffffffffffffffffff1681526020018673ffffffffffffffffffffffffffffffffffffffff168152602001858152602001848152602001600160088111156121bd57fe5b81526020014281525060076000846000191660001916815260200190815260200160002060008d8152602001908152602001600020600082015181600001556020820151816001015560408201518160020160006101000a81548173ffffffffffffffffffffffffffffffffffffffff021916908373ffffffffffffffffffffffffffffffffffffffff16021790555060608201518160030160006101000a81548173ffffffffffffffffffffffffffffffffffffffff021916908373ffffffffffffffffffffffffffffffffffffffff1602179055506080820151816004015560a0820151816005015560c08201518160060160006101000a81548160ff021916908360088111156122cc57fe5b021790555060e0820151816007015590505060e0604051908101604052808b81526020018d81526020018c81526020018281526020018a815260200160008152602001600081525060096000846000191660001916815260200190815260200160002060008c8152602001908152602001600020600082015181600001556020820151816001015560408201518160020155606082015181600301556080820151816004015560a0820151816005015560c0820151816006015590505050505050505050505050505050565b6000809054906101000a900473ffffffffffffffffffffffffffffffffffffffff1673ffffffffffffffffffffffffffffffffffffffff163373ffffffffffffffffffffffffffffffffffffffff161480612443575060011515600c60003373ffffffffffffffffffffffffffffffffffffffff1673ffffffffffffffffffffffffffffffffffffffff16815260200190815260200160002060009054906101000a900460ff161515145b151561244e57600080fd5b6000600e60008373ffffffffffffffffffffffffffffffffffffffff1673ffffffffffffffffffffffffffffffffffffffff16815260200190815260200160002060006101000a81548160ff02191690831515021790555050565b6000809054906101000a900473ffffffffffffffffffffffffffffffffffffffff1673ffffffffffffffffffffffffffffffffffffffff163373ffffffffffffffffffffffffffffffffffffffff161480612554575060011515600c60003373ffffffffffffffffffffffffffffffffffffffff1673ffffffffffffffffffffffffffffffffffffffff16815260200190815260200160002060009054906101000a900460ff161515145b151561255f57600080fd5b6000600c60008373ffffffffffffffffffffffffffffffffffffffff1673ffffffffffffffffffffffffffffffffffffffff16815260200190815260200160002060006101000a81548160ff02191690831515021790555050565b60606000600b838154811015156125cd57fe5b90600052602060002001600b80549050818054600181600116156101000203166002900480601f0160208091040260200160405190810160405280929190818152602001828054600181600116156101000203166002900480156126725780601f1061264757610100808354040283529160200191612672565b820191906000526020600020905b81548152906001019060200180831161265557829003601f168201915b5050505050915091509150915091565b600080600080600080876040516020018082805190602001908083835b6020831015156126c4578051825260208201915060208101905060208303925061269f565b6001836020036101000a0380198251168184511680821785525050505050509050019150506040516020818303038152906040526040518082805190602001908083835b60208310151561272d5780518252602082019150602081019050602083039250612708565b6001836020036101000a0380198251168184511680821785525050505050509050019150506040518091039020905060056000826000191660001916815260200190815260200160002060008881526020019081526020016000206004015460056000836000191660001916815260200190815260200160002060008981526020019081526020016000206005015460056000846000191660001916815260200190815260200160002060008a81526020019081526020016000206007015460056000856000191660001916815260200190815260200160002060008b815260200190815260200160002060060160009054906101000a900460ff1660056000866000191660001916815260200190815260200160002060008c81526020019081526020016000206000015495509550955095509550509295509295909350565b600060026000846040516020018082805190602001908083835b6020831015156128ad5780518252602082019150602081019050602083039250612888565b6001836020036101000a0380198251168184511680821785525050505050509050019150506040516020818303038152906040526040518082805190602001908083835b60208310151561291657805182526020820191506020810190506020830392506128f1565b6001836020036101000a03801982511681845116808217855250505050505090500191505060405180910390206000191660001916815260200190815260200160002060008373ffffffffffffffffffffffffffffffffffffffff1673ffffffffffffffffffffffffffffffffffffffff16815260200190815260200160002054905092915050565b6000809054906101000a900473ffffffffffffffffffffffffffffffffffffffff1673ffffffffffffffffffffffffffffffffffffffff163373ffffffffffffffffffffffffffffffffffffffff161480612a4a575060011515600c60003373ffffffffffffffffffffffffffffffffffffffff1673ffffffffffffffffffffffffffffffffffffffff16815260200190815260200160002060009054906101000a900460ff161515145b1515612a5557600080fd5b6001601160008373ffffffffffffffffffffffffffffffffffffffff1673ffffffffffffffffffffffffffffffffffffffff16815260200190815260200160002060006101000a81548160ff02191690831515021790555050565b6000809054906101000a900473ffffffffffffffffffffffffffffffffffffffff1673ffffffffffffffffffffffffffffffffffffffff163373ffffffffffffffffffffffffffffffffffffffff161480612b5b575060011515600c60003373ffffffffffffffffffffffffffffffffffffffff1673ffffffffffffffffffffffffffffffffffffffff16815260200190815260200160002060009054906101000a900460ff161515145b1515612b6657600080fd5b6001600f60008373ffffffffffffffffffffffffffffffffffffffff1673ffffffffffffffffffffffffffffffffffffffff16815260200190815260200160002060006101000a81548160ff02191690831515021790555050565b600080600080856040516020018082805190602001908083835b602083101515612c005780518252602082019150602081019050602083039250612bdb565b6001836020036101000a0380198251168184511680821785525050505050509050019150506040516020818303038152906040526040518082805190602001908083835b602083101515612c695780518252602082019150602081019050602083039250612c44565b6001836020036101000a03801982511681845116808217855250505050505090500191505060405180910390209050600560008260001916600019168152602001908152602001600020600086815260200190815260200160002060000154600560008360001916600019168152602001908152602001600020600087815260200190815260200160002060020160009054906101000a900473ffffffffffffffffffffffffffffffffffffffff16600560008460001916600019168152602001908152602001600020600088815260200190815260200160002060030160009054906101000a900473ffffffffffffffffffffffffffffffffffffffff16935093509350509250925092565b6000809054906101000a900473ffffffffffffffffffffffffffffffffffffffff1673ffffffffffffffffffffffffffffffffffffffff163373ffffffffffffffffffffffffffffffffffffffff161480612e21575060011515600c60003373ffffffffffffffffffffffffffffffffffffffff1673ffffffffffffffffffffffffffffffffffffffff16815260200190815260200160002060009054906101000a900460ff161515145b1515612e2c57600080fd5b6001601260008373ffffffffffffffffffffffffffffffffffffffff1673ffffffffffffffffffffffffffffffffffffffff16815260200190815260200160002060006101000a81548160ff02191690831515021790555050565b6000600160009054906101000a900473ffffffffffffffffffffffffffffffffffffffff1673ffffffffffffffffffffffffffffffffffffffff163373ffffffffffffffffffffffffffffffffffffffff16141515612ee557600080fd5b6000151560036000876040516020018082805190602001908083835b602083101515612f265780518252602082019150602081019050602083039250612f01565b6001836020036101000a0380198251168184511680821785525050505050509050019150506040516020818303038152906040526040518082805190602001908083835b602083101515612f8f5780518252602082019150602081019050602083039250612f6a565b6001836020036101000a03801982511681845116808217855250505050505090500191505060405180910390206000191660001916815260200190815260200160002060040160009054906101000a900460ff161515141515612ff157600080fd5b846040516020018082805190602001908083835b60208310151561302a5780518252602082019150602081019050602083039250613005565b6001836020036101000a0380198251168184511680821785525050505050509050019150506040516020818303038152906040526040518082805190602001908083835b602083101515613093578051825260208201915060208101905060208303925061306e565b6001836020036101000a038019825116818451168082178552505050505050905001915050604051809103902090508460036000836000191660001916815260200190815260200160002060000190805190602001906130f4929190615caf565b50836003600083600019166000191681526020019081526020016000206001018190555082600360008360001916600019168152602001908152602001600020600201908051906020019061314a929190615caf565b5081600360008360001916600019168152602001908152602001600020600301908051906020019061317d929190615caf565b50600160036000836000191660001916815260200190815260200160002060040160006101000a81548160ff021916908315150217905550600b8590806001815401808255809150509060018203906000526020600020016000909192909190915090805190602001906131f2929190615caf565b50508360026000876040516020018082805190602001908083835b602083101515613232578051825260208201915060208101905060208303925061320d565b6001836020036101000a0380198251168184511680821785525050505050509050019150506040516020818303038152906040526040518082805190602001908083835b60208310151561329b5780518252602082019150602081019050602083039250613276565b6001836020036101000a03801982511681845116808217855250505050505090500191505060405180910390206000191660001916815260200190815260200160002060008060009054906101000a900473ffffffffffffffffffffffffffffffffffffffff1673ffffffffffffffffffffffffffffffffffffffff1673ffffffffffffffffffffffffffffffffffffffff168152602001908152602001600020600082825401925050819055505050505050565b6000809054906101000a900473ffffffffffffffffffffffffffffffffffffffff1673ffffffffffffffffffffffffffffffffffffffff163373ffffffffffffffffffffffffffffffffffffffff161415156133ab57600080fd5b6001151560036000846040516020018082805190602001908083835b6020831015156133ec57805182526020820191506020810190506020830392506133c7565b6001836020036101000a0380198251168184511680821785525050505050509050019150506040516020818303038152906040526040518082805190602001908083835b6020831015156134555780518252602082019150602081019050602083039250613430565b6001836020036101000a03801982511681845116808217855250505050505090500191505060405180910390206000191660001916815260200190815260200160002060040160009054906101000a900460ff1615151415156134b757600080fd5b8060036000846040516020018082805190602001908083835b6020831015156134f557805182526020820191506020810190506020830392506134d0565b6001836020036101000a0380198251168184511680821785525050505050509050019150506040516020818303038152906040526040518082805190602001908083835b60208310151561355e5780518252602082019150602081019050602083039250613539565b6001836020036101000a038019825116818451168082178552505050505050905001915050604051809103902060001916600019168152602001908152602001600020600101600082825401925050819055508060026000846040516020018082805190602001908083835b6020831015156135ef57805182526020820191506020810190506020830392506135ca565b6001836020036101000a0380198251168184511680821785525050505050509050019150506040516020818303038152906040526040518082805190602001908083835b6020831015156136585780518252602082019150602081019050602083039250613633565b6001836020036101000a03801982511681845116808217855250505050505090500191505060405180910390206000191660001916815260200190815260200160002060008060009054906101000a900473ffffffffffffffffffffffffffffffffffffffff1673ffffffffffffffffffffffffffffffffffffffff1673ffffffffffffffffffffffffffffffffffffffff168152602001908152602001600020600082825401925050819055505050565b600080600080856040516020018082805190602001908083835b6020831015156137495780518252602082019150602081019050602083039250613724565b6001836020036101000a0380198251168184511680821785525050505050509050019150506040516020818303038152906040526040518082805190602001908083835b6020831015156137b2578051825260208201915060208101905060208303925061378d565b6001836020036101000a03801982511681845116808217855250505050505090500191505060405180910390209050600760008260001916600019168152602001908152602001600020600086815260200190815260200160002060000154600760008360001916600019168152602001908152602001600020600087815260200190815260200160002060020160009054906101000a900473ffffffffffffffffffffffffffffffffffffffff16600760008460001916600019168152602001908152602001600020600088815260200190815260200160002060030160009054906101000a900473ffffffffffffffffffffffffffffffffffffffff16935093509350509250925092565b6003602052806000526040600020600091509050806000018054600181600116156101000203166002900480601f01602080910402602001604051908101604052809291908181526020018280546001816001161561010002031660029004801561396b5780601f106139405761010080835404028352916020019161396b565b820191906000526020600020905b81548152906001019060200180831161394e57829003601f168201915b505050505090806001015490806002018054600181600116156101000203166002900480601f016020809104026020016040519081016040528092919081815260200182805460018160011615610100020316600290048015613a0f5780601f106139e457610100808354040283529160200191613a0f565b820191906000526020600020905b8154815290600101906020018083116139f257829003601f168201915b505050505090806003018054600181600116156101000203166002900480601f016020809104026020016040519081016040528092919081815260200182805460018160011615610100020316600290048015613aad5780601f10613a8257610100808354040283529160200191613aad565b820191906000526020600020905b815481529060010190602001808311613a9057829003601f168201915b5050505050908060040160009054906101000a900460ff16905085565b600460205281600052604060002081815481101515613ae557fe5b90600052602060002001600091509150505481565b8160026000856040516020018082805190602001908083835b602083101515613b385780518252602082019150602081019050602083039250613b13565b6001836020036101000a0380198251168184511680821785525050505050509050019150506040516020818303038152906040526040518082805190602001908083835b602083101515613ba15780518252602082019150602081019050602083039250613b7c565b6001836020036101000a03801982511681845116808217855250505050505090500191505060405180910390206000191660001916815260200190815260200160002060003373ffffffffffffffffffffffffffffffffffffffff1673ffffffffffffffffffffffffffffffffffffffff1681526020019081526020016000205410151515613c2f57600080fd5b8160026000856040516020018082805190602001908083835b602083101515613c6d5780518252602082019150602081019050602083039250613c48565b6001836020036101000a0380198251168184511680821785525050505050509050019150506040516020818303038152906040526040518082805190602001908083835b602083101515613cd65780518252602082019150602081019050602083039250613cb1565b6001836020036101000a03801982511681845116808217855250505050505090500191505060405180910390206000191660001916815260200190815260200160002060003373ffffffffffffffffffffffffffffffffffffffff1673ffffffffffffffffffffffffffffffffffffffff168152602001908152602001600020600082825403925050819055508160026000856040516020018082805190602001908083835b602083101515613da15780518252602082019150602081019050602083039250613d7c565b6001836020036101000a0380198251168184511680821785525050505050509050019150506040516020818303038152906040526040518082805190602001908083835b602083101515613e0a5780518252602082019150602081019050602083039250613de5565b6001836020036101000a03801982511681845116808217855250505050505090500191505060405180910390206000191660001916815260200190815260200160002060008373ffffffffffffffffffffffffffffffffffffffff1673ffffffffffffffffffffffffffffffffffffffff16815260200190815260200160002060008282540192505081905550505050565b6005602052816000526040600020602052806000526040600020600091509150508060000154908060010154908060020160009054906101000a900473ffffffffffffffffffffffffffffffffffffffff16908060030160009054906101000a900473ffffffffffffffffffffffffffffffffffffffff16908060040154908060050154908060060160009054906101000a900460ff16908060070154905088565b60011515601160003373ffffffffffffffffffffffffffffffffffffffff1673ffffffffffffffffffffffffffffffffffffffff16815260200190815260200160002060009054906101000a900460ff161515141515613f9d57600080fd5b600115156003600060405160200180807f655a41520000000000000000000000000000000000000000000000000000000081525060040190506040516020818303038152906040526040518082805190602001908083835b60208310151561401a5780518252602082019150602081019050602083039250613ff5565b6001836020036101000a03801982511681845116808217855250505050505090500191505060405180910390206000191660001916815260200190815260200160002060040160009054906101000a900460ff16151514151561407c57600080fd5b806003600060405160200180807f655a41520000000000000000000000000000000000000000000000000000000081525060040190506040516020818303038152906040526040518082805190602001908083835b6020831015156140f657805182526020820191506020810190506020830392506140d1565b6001836020036101000a03801982511681845116808217855250505050505090500191505060405180910390206000191660001916815260200190815260200160002060010160008282540192505081905550806002600060405160200180807f655a41520000000000000000000000000000000000000000000000000000000081525060040190506040516020818303038152906040526040518082805190602001908083835b6020831015156141c3578051825260208201915060208101905060208303925061419e565b6001836020036101000a03801982511681845116808217855250505050505090500191505060405180910390206000191660001916815260200190815260200160002060008060009054906101000a900473ffffffffffffffffffffffffffffffffffffffff1673ffffffffffffffffffffffffffffffffffffffff1673ffffffffffffffffffffffffffffffffffffffff1681526020019081526020016000206000828254019250508190555050565b6000809054906101000a900473ffffffffffffffffffffffffffffffffffffffff1673ffffffffffffffffffffffffffffffffffffffff163373ffffffffffffffffffffffffffffffffffffffff16148061431f575060011515600c60003373ffffffffffffffffffffffffffffffffffffffff1673ffffffffffffffffffffffffffffffffffffffff16815260200190815260200160002060009054906101000a900460ff161515145b151561432a57600080fd5b6001600c60008373ffffffffffffffffffffffffffffffffffffffff1673ffffffffffffffffffffffffffffffffffffffff16815260200190815260200160002060006101000a81548160ff02191690831515021790555050565b6006602052816000526040600020818154811015156143a057fe5b90600052602060002001600091509150505481565b6008602052816000526040600020818154811015156143d057fe5b90600052602060002001600091509150505481565b6000809054906101000a900473ffffffffffffffffffffffffffffffffffffffff1673ffffffffffffffffffffffffffffffffffffffff163373ffffffffffffffffffffffffffffffffffffffff161480614490575060011515600c60003373ffffffffffffffffffffffffffffffffffffffff1673ffffffffffffffffffffffffffffffffffffffff16815260200190815260200160002060009054906101000a900460ff161515145b151561449b57600080fd5b6001600e60008373ffffffffffffffffffffffffffffffffffffffff1673ffffffffffffffffffffffffffffffffffffffff16815260200190815260200160002060006101000a81548160ff02191690831515021790555050565b600b8181548110151561450557fe5b906000526020600020016000915090508054600181600116156101000203166002900480601f0160208091040260200160405190810160405280929190818152602001828054600181600116156101000203166002900480156145a95780601f1061457e576101008083540402835291602001916145a9565b820191906000526020600020905b81548152906001019060200180831161458c57829003601f168201915b505050505081565b6000809054906101000a900473ffffffffffffffffffffffffffffffffffffffff1673ffffffffffffffffffffffffffffffffffffffff163373ffffffffffffffffffffffffffffffffffffffff16148061465c575060011515600c60003373ffffffffffffffffffffffffffffffffffffffff1673ffffffffffffffffffffffffffffffffffffffff16815260200190815260200160002060009054906101000a900460ff161515145b151561466757600080fd5b6000600f60008373ffffffffffffffffffffffffffffffffffffffff1673ffffffffffffffffffffffffffffffffffffffff16815260200190815260200160002060006101000a81548160ff02191690831515021790555050565b6000809054906101000a900473ffffffffffffffffffffffffffffffffffffffff1673ffffffffffffffffffffffffffffffffffffffff163373ffffffffffffffffffffffffffffffffffffffff1614151561471d57600080fd5b80600160006101000a81548173ffffffffffffffffffffffffffffffffffffffff021916908373ffffffffffffffffffffffffffffffffffffffff16021790555050565b6000809054906101000a900473ffffffffffffffffffffffffffffffffffffffff1673ffffffffffffffffffffffffffffffffffffffff163373ffffffffffffffffffffffffffffffffffffffff16148061480c575060011515600c60003373ffffffffffffffffffffffffffffffffffffffff1673ffffffffffffffffffffffffffffffffffffffff16815260200190815260200160002060009054906101000a900460ff161515145b151561481757600080fd5b6000600f60008373ffffffffffffffffffffffffffffffffffffffff1673ffffffffffffffffffffffffffffffffffffffff16815260200190815260200160002060006101000a81548160ff02191690831515021790555050565b6007602052816000526040600020602052806000526040600020600091509150508060000154908060010154908060020160009054906101000a900473ffffffffffffffffffffffffffffffffffffffff16908060030160009054906101000a900473ffffffffffffffffffffffffffffffffffffffff16908060040154908060050154908060060160009054906101000a900460ff16908060070154905088565b6000809054906101000a900473ffffffffffffffffffffffffffffffffffffffff1673ffffffffffffffffffffffffffffffffffffffff163373ffffffffffffffffffffffffffffffffffffffff1614806149bf575060011515600c60003373ffffffffffffffffffffffffffffffffffffffff1673ffffffffffffffffffffffffffffffffffffffff16815260200190815260200160002060009054906101000a900460ff161515145b15156149ca57600080fd5b6001601060008373ffffffffffffffffffffffffffffffffffffffff1673ffffffffffffffffffffffffffffffffffffffff16815260200190815260200160002060006101000a81548160ff02191690831515021790555050565b6000809054906101000a900473ffffffffffffffffffffffffffffffffffffffff1673ffffffffffffffffffffffffffffffffffffffff163373ffffffffffffffffffffffffffffffffffffffff161480614ad0575060011515600c60003373ffffffffffffffffffffffffffffffffffffffff1673ffffffffffffffffffffffffffffffffffffffff16815260200190815260200160002060009054906101000a900460ff161515145b1515614adb57600080fd5b6001600d60008373ffffffffffffffffffffffffffffffffffffffff1673ffffffffffffffffffffffffffffffffffffffff16815260200190815260200160002060006101000a81548160ff02191690831515021790555050565b6000809054906101000a900473ffffffffffffffffffffffffffffffffffffffff1673ffffffffffffffffffffffffffffffffffffffff163373ffffffffffffffffffffffffffffffffffffffff161480614be1575060011515600c60003373ffffffffffffffffffffffffffffffffffffffff1673ffffffffffffffffffffffffffffffffffffffff16815260200190815260200160002060009054906101000a900460ff161515145b1515614bec57600080fd5b6000600d60008373ffffffffffffffffffffffffffffffffffffffff1673ffffffffffffffffffffffffffffffffffffffff16815260200190815260200160002060006101000a81548160ff02191690831515021790555050565b600160009054906101000a900473ffffffffffffffffffffffffffffffffffffffff1681565b60008060011515600e60003373ffffffffffffffffffffffffffffffffffffffff1673ffffffffffffffffffffffffffffffffffffffff16815260200190815260200160002060009054906101000a900460ff1615151480614d1f575060011515601260003373ffffffffffffffffffffffffffffffffffffffff1673ffffffffffffffffffffffffffffffffffffffff16815260200190815260200160002060009054906101000a900460ff161515145b1515614d2a57600080fd5b826040516020018082805190602001908083835b602083101515614d635780518252602082019150602081019050602083039250614d3e565b6001836020036101000a0380198251168184511680821785525050505050509050019150506040516020818303038152906040526040518082805190602001908083835b602083101515614dcc5780518252602082019150602081019050602083039250614da7565b6001836020036101000a0380198251168184511680821785525050505050509050019150506040518091039020915060036000836000191660001916815260200190815260200160002060040160009054906101000a900460ff161515614e3257600080fd5b6000851415614fb457600560008360001916600019168152602001908152602001600020600085815260200190815260200160002060030160009054906101000a900473ffffffffffffffffffffffffffffffffffffffff1673ffffffffffffffffffffffffffffffffffffffff163373ffffffffffffffffffffffffffffffffffffffff161480614f3e5750600560008360001916600019168152602001908152602001600020600085815260200190815260200160002060020160009054906101000a900473ffffffffffffffffffffffffffffffffffffffff1673ffffffffffffffffffffffffffffffffffffffff163373ffffffffffffffffffffffffffffffffffffffff16145b1515614f4957600080fd5b60056000836000191660001916815260200190815260200160002060008581526020019081526020016000206001015490504260096000846000191660001916815260200190815260200160002060008381526020019081526020016000206005018190555061513c565b600185141561513657600760008360001916600019168152602001908152602001600020600085815260200190815260200160002060030160009054906101000a900473ffffffffffffffffffffffffffffffffffffffff1673ffffffffffffffffffffffffffffffffffffffff163373ffffffffffffffffffffffffffffffffffffffff1614806150c05750600760008360001916600019168152602001908152602001600020600085815260200190815260200160002060020160009054906101000a900473ffffffffffffffffffffffffffffffffffffffff1673ffffffffffffffffffffffffffffffffffffffff163373ffffffffffffffffffffffffffffffffffffffff16145b15156150cb57600080fd5b60076000836000191660001916815260200190815260200160002060008581526020019081526020016000206001015490504260096000846000191660001916815260200190815260200160002060008381526020019081526020016000206006018190555061513b565b600080fd5b5b600060096000846000191660001916815260200190815260200160002060008381526020019081526020016000206006015411156152a957600060096000846000191660001916815260200190815260200160002060008381526020019081526020016000206006015411156152a857600a6000836000191660001916815260200190815260200160002060006009600085600019166000191681526020019081526020016000206000848152602001908152602001600020600401548152602001908152602001600020600960008460001916600019168152602001908152602001600020600083815260200190815260200160002090806001815401808255809150509060018203906000526020600020906007020160009091929091909150600082015481600001556001820154816001015560028201548160020155600382015481600301556004820154816004015560058201548160050155600682015481600601555050505b5b5050505050565b600080600080600080876040516020018082805190602001908083835b6020831015156152f257805182526020820191506020810190506020830392506152cd565b6001836020036101000a0380198251168184511680821785525050505050509050019150506040516020818303038152906040526040518082805190602001908083835b60208310151561535b5780518252602082019150602081019050602083039250615336565b6001836020036101000a0380198251168184511680821785525050505050509050019150506040518091039020905060076000826000191660001916815260200190815260200160002060008881526020019081526020016000206004015460076000836000191660001916815260200190815260200160002060008981526020019081526020016000206005015460076000846000191660001916815260200190815260200160002060008a81526020019081526020016000206007015460076000856000191660001916815260200190815260200160002060008b815260200190815260200160002060060160009054906101000a900460ff1660076000866000191660001916815260200190815260200160002060008c81526020019081526020016000206000015495509550955095509550509295509295909350565b600a602052826000526040600020602052816000526040600020818154811015156154c357fe5b906000526020600020906007020160009250925050508060000154908060010154908060020154908060030154908060040154908060050154908060060154905087565b6000809054906101000a900473ffffffffffffffffffffffffffffffffffffffff1673ffffffffffffffffffffffffffffffffffffffff163373ffffffffffffffffffffffffffffffffffffffff1614806155b2575060011515600c60003373ffffffffffffffffffffffffffffffffffffffff1673ffffffffffffffffffffffffffffffffffffffff16815260200190815260200160002060009054906101000a900460ff161515145b15156155bd57600080fd5b6000601160008373ffffffffffffffffffffffffffffffffffffffff1673ffffffffffffffffffffffffffffffffffffffff16815260200190815260200160002060006101000a81548160ff02191690831515021790555050565b6002602052816000526040600020602052806000526040600020600091509150505481565b6000809054906101000a900473ffffffffffffffffffffffffffffffffffffffff1673ffffffffffffffffffffffffffffffffffffffff163373ffffffffffffffffffffffffffffffffffffffff1614806156e8575060011515600c60003373ffffffffffffffffffffffffffffffffffffffff1673ffffffffffffffffffffffffffffffffffffffff16815260200190815260200160002060009054906101000a900460ff161515145b15156156f357600080fd5b6000601260008373ffffffffffffffffffffffffffffffffffffffff1673ffffffffffffffffffffffffffffffffffffffff16815260200190815260200160002060006101000a81548160ff02191690831515021790555050565b6009602052816000526040600020602052806000526040600020600091509150508060000154908060010154908060020154908060030154908060040154908060050154908060060154905087565b600060011515601160003373ffffffffffffffffffffffffffffffffffffffff1673ffffffffffffffffffffffffffffffffffffffff16815260200190815260200160002060009054906101000a900460ff1615151415156157fe57600080fd5b600015156003600060405160200180807f655a41520000000000000000000000000000000000000000000000000000000081525060040190506040516020818303038152906040526040518082805190602001908083835b60208310151561587b5780518252602082019150602081019050602083039250615856565b6001836020036101000a03801982511681845116808217855250505050505090500191505060405180910390206000191660001916815260200190815260200160002060040160009054906101000a900460ff1615151415156158dd57600080fd5b60405160200180807f655a41520000000000000000000000000000000000000000000000000000000081525060040190506040516020818303038152906040526040518082805190602001908083835b602083101515615952578051825260208201915060208101905060208303925061592d565b6001836020036101000a038019825116818451168082178552505050505050905001915050604051809103902090506040805190810160405280600481526020017f655a41520000000000000000000000000000000000000000000000000000000081525060036000836000191660001916815260200190815260200160002060000190805190602001906159e8929190615caf565b5081600360008360001916600019168152602001908152602001600020600101819055506040805190810160405280601481526020017f536f75727468204166726963616e206552616e640000000000000000000000008152506003600083600019166000191681526020019081526020016000206002019080519060200190615a73929190615caf565b506040805190810160405280600381526020017f5a415200000000000000000000000000000000000000000000000000000000008152506003600083600019166000191681526020019081526020016000206003019080519060200190615adb929190615caf565b50600160036000836000191660001916815260200190815260200160002060040160006101000a81548160ff021916908315150217905550600b8060018154018082558091505090600182039060005260206000200160006040805190810160405280600481526020017f655a41520000000000000000000000000000000000000000000000000000000081525090919091509080519060200190615b81929190615caf565b5050816002600060405160200180807f655a41520000000000000000000000000000000000000000000000000000000081525060040190506040516020818303038152906040526040518082805190602001908083835b602083101515615bfd5780518252602082019150602081019050602083039250615bd8565b6001836020036101000a03801982511681845116808217855250505050505090500191505060405180910390206000191660001916815260200190815260200160002060008060009054906101000a900473ffffffffffffffffffffffffffffffffffffffff1673ffffffffffffffffffffffffffffffffffffffff1673ffffffffffffffffffffffffffffffffffffffff168152602001908152602001600020600082825401925050819055505050565b828054600181600116156101000203166002900490600052602060002090601f016020900481019282601f10615cf057805160ff1916838001178555615d1e565b82800160010185558215615d1e579182015b82811115615d1d578251825591602001919060010190615d02565b5b509050615d2b9190615d2f565b5090565b615d5191905b80821115615d4d576000816000905550600101615d35565b5090565b905600a165627a7a72305820a9683ff9a6a5b33e9a50babe2d03add8fbdb9c318963cce0c0125e1702cc3c530029",
  "source": "pragma solidity ^0.4.23;\n\n/** @title Post Trade Contract. */\n/** @author Johan Pretorius */\n/** startDate 2018-06-06 */\n\ncontract PostTrade {\n\n    // ==========================================================================\n    // Modifiers\n    // ==========================================================================\n    modifier onlyOwner{\n        require(msg.sender == owner);\n        _;\n    }\n\n    modifier onlyOwnerOrAdmin{\n        require(msg.sender == owner || Admins[msg.sender] == true);\n        _;\n    }\n\n    modifier onlyCSD{\n        require(CSDs[msg.sender] == true);\n        _;\n    }\n\n    modifier onlyCustodian{\n        require(Custodians[msg.sender] == true);\n        _;\n    }\n\n    modifier onlyCustodianOrTradeReportingParty {\n        require(Custodians[msg.sender] == true || TradeReportingParties[msg.sender] == true);\n        _;\n    }\n\n    modifier onlyETME{\n        require(ETMEs[msg.sender] == true);\n        _;\n    }\n\n    modifier onlyExchanges{\n        require(Exchanges[msg.sender] == true);\n        _;\n    }\n\n    modifier onlyIsinIssuanceContact {\n        require(msg.sender == isinIssuanceContractAddress);\n        _;\n    }\n\n    modifier onlySAMOS{\n        require(SAMOSs[msg.sender] == true);\n        _;\n    }\n\n    modifier onlyTradeReportingParty{\n        require(TradeReportingParties[msg.sender] == true);\n        _;\n    }\n\n    address private owner;\n    address public isinIssuanceContractAddress;\n\n    // ==========================================================================\n    // Constructor: Prepper for development, will need to be revised for Prod\n    // ==========================================================================\n    constructor () public {\n        owner = msg.sender;\n        Admins[0x51e63a2E221C782Bfc95f42Cd469D3780a479C15] = true;\n        CSDs[0x2AaB2c02Fc5415D23e91CE8Dc230D3A31793CFF8] = true;\n        Custodians[0x1c6B96De685481c2d9915b606D4AB1277949b4Bc] = true;\n        Custodians[0x2d14d5Ae5E54a22043B1eccD420494DAA9513e06] = true;\n        ETMEs[0x0ef2F9c8845da4c9c34BEf02C3213e0Da1306Da0] = true;\n        Exchanges[0x0ef2F9c8845da4c9c34BEf02C3213e0Da1306Da0] = true;\n        SAMOSs[0x3E7Eaa5Bc0ee36b4308B668050535d411a81585D] = true;\n        TradeReportingParties[0xED646f6B0cf23C2bfC0dC4117dA42Eb5CCf15ee4] = true;\n        TradeReportingParties[0xA1Ff8eE897ED92E62aE9F30061Ba5f012e804721] = true;\n    }\n\n    // ==========================================================================\n    // Mapping Table: Addresses <=> Roles\n    // ==========================================================================\n    // 0x51e63a2E221C782Bfc95f42Cd469D3780a479C15 --- Admin / Contract Owner\n    // 0xFb91a2395d9E49b89fcA3dca0959b6eB4Ea08a0B --- BUYER\n    // 0x8eA823e5951243bFA7f1Daad4703396260071fB9 --- SELLER\n    // 0xED646f6B0cf23C2bfC0dC4117dA42Eb5CCf15ee4 --- BUYER TRP\n    // 0xA1Ff8eE897ED92E62aE9F30061Ba5f012e804721 --- SELLER TRP\n    // 0x1c6B96De685481c2d9915b606D4AB1277949b4Bc --- BUYER CUSTODIAN\n    // 0x2d14d5Ae5E54a22043B1eccD420494DAA9513e06 --- SELLER CUSTODIAN\n    // 0x0ef2F9c8845da4c9c34BEf02C3213e0Da1306Da0 --- ETME (Or other matching engine)\n    // 0x3E7Eaa5Bc0ee36b4308B668050535d411a81585D --- SAMOS\n    // 0x2AaB2c02Fc5415D23e91CE8Dc230D3A31793CFF8 --- CSD\n    // ==========================================================================\n    // Ganache Mnemonic: latin bonus invest museum gate buffalo fever demand neglect entire session rail\n    // ==========================================================================\n\n    // ==========================================================================\n    // State transitions ( [Pre-State] => [Post-State] --- [Responsible Party] ):\n    // ==========================================================================\n    // 101 (Accepted) => 201 (Matched) --- N.A.\n    // 201 (Matched) => 201 AFFI (Confirmed) --- TRP\n    // 201 AFFI => 401 (Cancelled) --- TRP\n    // 201 AFFI => 251 (Matched Ready For Settlement) --- N.A.\n    // 251 => 301 (Overdue) --- CSD\n    // 301 => 601 (Settled) --- SAMOS\n    // 301 => 801 (Failed) --- CSD\n    // 251 => 512 (Ready for funding) --- N.A.\n    // 512 => 601 (Settled) --- SAMOS\n    // ==========================================================================\n    enum Statuses {\n        Acceped,                    // 0\n        Matched,                    // 1\n        Confirmed,                  // 2\n        Cancelled,                  // 3\n        MatchedReadyForSettlement,  // 4\n        Overdue,                    // 5\n        Settled,                    // 6\n        Failed,                     // 7\n        ReadyForFunding             // 8\n    }\n\n    // ==========================================================================\n    // Structs\n    // ==========================================================================\n    struct SecurityOld {\n        string isin;\n        uint issuedShareCap;\n        uint issuedDate;\n        address issuerAddress;\n        string issuerName;\n    }\n\n    struct Security {\n        string ISIN;\n        uint totalIssuedShareCap;\n        string longName;\n        string ticker;\n        bool active;\n    }\n\n    struct Trade {\n        uint tradeId;\n        uint buyLegId;\n        uint sellLegId;\n        uint tradeDate;\n        uint settlementDeadlineDate;\n        uint buyConfirmationDateTime;\n        uint saleConfirmationDateTime;\n    }\n\n    struct BuyLeg {\n        uint buyLegId;\n        uint tradeId;\n        // address investorAddress;\n        address tradeReportingPartyAddress;\n        address custodianId;\n        uint amount;\n        uint buyPrice;\n        Statuses status;\n        uint timestamp;\n    }\n\n    struct SaleLeg {\n        uint saleLegId;\n        uint tradeId;\n        // address investorAddress;\n        address tradeReportingPartyAddress;\n        address custodianId;\n        uint amount;\n        uint salePrice;\n        Statuses status;\n        uint timestamp;\n    }\n\n    // ==========================================================================\n    // Variables\n    // ==========================================================================\n\n    mapping(bytes32 => mapping (address => uint)) public balances;\n    mapping(bytes32 => Security) public securities;\n    \n    // Mappings for trades and trade legs\n    mapping(bytes32 => uint[]) public matchedBuysIdListForISIN;\n    mapping(bytes32 => mapping(uint => BuyLeg)) public buyLegForISINAndId;\n\n    mapping(bytes32 => uint[]) public matchedSalesIdListForISIN;\n    mapping(bytes32 => mapping(uint => SaleLeg)) public saleLegForISINAndId;\n\n    mapping(bytes32 => uint[]) public matchedTradesIdListForISIN;\n    mapping(bytes32 => mapping(uint => Trade)) public matchedTradesForISINandId;\n    mapping(bytes32 => mapping(uint => Trade[])) public confirmedTradesForISINandSettlementDate;\n\n    string[] public securitiesList;\n\n    // ==========================================================================\n    // Actors: Trade Reporting Party x2, ETME, SAMOS, CSD\n    // ==========================================================================\n    // Role Management for addresses\n    // ==========================================================================\n    mapping(address => bool) internal Admins;\n    mapping(address => bool) internal CSDs;\n    mapping(address => bool) internal Custodians;\n    mapping(address => bool) internal ETMEs;\n    mapping(address => bool) internal Exchanges;\n    mapping(address => bool) internal SAMOSs;\n    mapping(address => bool) internal TradeReportingParties;\n\n    // ==========================================================================\n    // Date stuff: Taken from Piper's library - https://github.com/pipermerriam/ethereum-datetime\n    // ==========================================================================\n    uint constant DAY_IN_SECONDS = 86400;\n    // uint constant YEAR_IN_SECONDS = 31536000;\n    // uint constant LEAP_YEAR_IN_SECONDS = 31622400;\n\n    // uint constant HOUR_IN_SECONDS = 3600;\n    // uint constant MINUTE_IN_SECONDS = 60;\n\n    // uint16 constant ORIGIN_YEAR = 1970;\n\n    // ==========================================================================\n    // Functions\n    // ==========================================================================\n\n    // TODO: Expand on ISIN issuance as per scrum board: https://trello.com/b/45EzfvGG/scrum-board\n    function issueSecurity (string _ISIN, uint _totalIssuedShareCap, string _longName, string _ticker) public onlyIsinIssuanceContact {\n        require (securities[keccak256(abi.encodePacked(_ISIN))].active == false);\n        bytes32 keccakIsin = keccak256(abi.encodePacked(_ISIN));\n        securities[keccakIsin].ISIN = _ISIN;\n        securities[keccakIsin].totalIssuedShareCap = _totalIssuedShareCap;\n        securities[keccakIsin].longName = _longName;\n        securities[keccakIsin].ticker = _ticker;\n        securities[keccakIsin].active = true;\n\n        securitiesList.push(_ISIN);\n\n        balances[keccak256(abi.encodePacked(_ISIN))][owner] += _totalIssuedShareCap;\n    }\n\n    function issueCash (uint _totalIssuedShareCap) public onlySAMOS {\n        require (securities[keccak256(abi.encodePacked(\"eZAR\"))].active == false);\n        bytes32 keccakIsin = keccak256(abi.encodePacked(\"eZAR\"));\n        securities[keccakIsin].ISIN = \"eZAR\";\n        securities[keccakIsin].totalIssuedShareCap = _totalIssuedShareCap;\n        securities[keccakIsin].longName = \"Sourth African eRand\";\n        securities[keccakIsin].ticker = \"ZAR\";\n        securities[keccakIsin].active = true;\n\n        securitiesList.push(\"eZAR\");\n\n        balances[keccak256(abi.encodePacked(\"eZAR\"))][owner] += _totalIssuedShareCap;\n    }\n\n    function topUp (string _ISIN, uint _amount) public onlyOwner {\n        require (securities[keccak256(abi.encodePacked(_ISIN))].active == true);\n        securities[keccak256(abi.encodePacked(_ISIN))].totalIssuedShareCap += _amount;\n        balances[keccak256(abi.encodePacked(_ISIN))][owner] += _amount;\n    }\n\n    function topUpCash (uint _amount) public onlySAMOS {\n        require (securities[keccak256(abi.encodePacked(\"eZAR\"))].active == true);\n        securities[keccak256(abi.encodePacked(\"eZAR\"))].totalIssuedShareCap += _amount;\n        balances[keccak256(abi.encodePacked(\"eZAR\"))][owner] += _amount;\n    }\n\n    function getSecurityDetails (string _ISIN) public view returns (string, uint, string, string, bool) {\n        return (\n            securities[keccak256(abi.encodePacked(_ISIN))].ISIN,\n            securities[keccak256(abi.encodePacked(_ISIN))].totalIssuedShareCap,\n            securities[keccak256(abi.encodePacked(_ISIN))].longName,\n            securities[keccak256(abi.encodePacked(_ISIN))].ticker,\n            securities[keccak256(abi.encodePacked(_ISIN))].active\n        );\n    }\n\n    function getSecuritiesListById (uint _index) public view returns (string, uint) {\n        return (securitiesList[_index], securitiesList.length);\n    }\n\n    // THIS FUNCTION NEEDS AN EXPERIMENTAL ABI ENCODER\n    // -----------------------------------------------\n    // function getSecuritiesList () public view returns (string[]) {\n    //     return (securitiesList);\n    // }\n\n    function getBalanceOfSecAndAccount (string _ISIN, address _accountHolder) public view returns (uint) {\n        return balances[keccak256(abi.encodePacked(_ISIN))][_accountHolder];\n    }\n\n    function sendSecurity (string _ISIN, uint _amount, address _receiverAddress) public {\n        require (balances[keccak256(abi.encodePacked(_ISIN))][msg.sender] >= _amount);\n        balances[keccak256(abi.encodePacked(_ISIN))][msg.sender] -= _amount;\n        balances[keccak256(abi.encodePacked(_ISIN))][_receiverAddress] += _amount;\n    }\n\n    // For On Markets the trade will come in already pre matched\n    function addPreMatchedTrade (\n        string _ISIN,\n        uint _buyLegId,\n        uint _saleLegId,\n        uint _tradeId,\n        uint _settlementDate, // Format YYYYMMDD\n        // address _buyerAddress,\n        // address _sellerAddress,\n        address _buyerTradeReportingPartyAddress,\n        address _sellerTradeReportingPartyAddress,\n        address _buyerCustodianId,\n        address _sellerCustodianId,\n        uint _amount,\n        uint _salePrice ) public onlyExchanges {\n\n        bytes32 _hash = keccak256(abi.encodePacked(_ISIN));\n        uint lastMidnightTime;\n\n        // Require that the ISIN is valid on the system\n        require(securities[_hash].active);\n\n        // Find midnigth time from block.timestamp\n        lastMidnightTime = block.timestamp;\n        lastMidnightTime -= (lastMidnightTime % DAY_IN_SECONDS);\n\n        matchedBuysIdListForISIN[_hash].push(_buyLegId);\n        matchedSalesIdListForISIN[_hash].push(_saleLegId);\n        matchedTradesIdListForISIN[_hash].push(_tradeId);\n\n        buyLegForISINAndId[_hash][_buyLegId] = BuyLeg({\n            buyLegId: _buyLegId,\n            tradeId: _tradeId,\n            // investorAddress: _buyerAddress,\n            tradeReportingPartyAddress: _buyerTradeReportingPartyAddress,\n            custodianId: _buyerCustodianId,\n            amount: _amount,\n            buyPrice: _salePrice,\n            status: Statuses.Matched,\n            timestamp: block.timestamp\n        });\n\n        saleLegForISINAndId[_hash][_saleLegId] = SaleLeg({\n            saleLegId: _saleLegId,\n            tradeId: _tradeId,\n            // investorAddress: _sellerAddress,\n            tradeReportingPartyAddress: _sellerTradeReportingPartyAddress,\n            custodianId: _sellerCustodianId,\n            amount: _amount,\n            salePrice: _salePrice,\n            status: Statuses.Matched,\n            timestamp: block.timestamp\n        });\n\n        matchedTradesForISINandId[_hash][_tradeId] = Trade({\n            tradeId: _tradeId,\n            buyLegId: _buyLegId,\n            sellLegId: _saleLegId,\n            tradeDate: lastMidnightTime,\n            settlementDeadlineDate: _settlementDate,\n            buyConfirmationDateTime: 0,\n            saleConfirmationDateTime: 0\n        });\n\n    }\n\n    // Due to stack overflow errors the returns for buys and sales must be split into seperate functions as there are too many fields to return\n    function getBuysPartiesForIsin(string _ISIN, uint _legId) public view returns (uint, address, address) {  \n        bytes32 _hash = keccak256(abi.encodePacked(_ISIN));\n        return (\n            buyLegForISINAndId[_hash][_legId].buyLegId,\n            // buyLegForISINAndId[_hash][_legId].investorAddress,\n            buyLegForISINAndId[_hash][_legId].tradeReportingPartyAddress,\n            buyLegForISINAndId[_hash][_legId].custodianId\n        );\n    }\n\n    function getBuysForIsin(string _ISIN, uint _legId) public view returns (uint, uint, uint, Statuses, uint) {  \n        bytes32 _hash = keccak256(abi.encodePacked(_ISIN));\n        return (\n            buyLegForISINAndId[_hash][_legId].amount,\n            buyLegForISINAndId[_hash][_legId].buyPrice,\n            buyLegForISINAndId[_hash][_legId].timestamp,\n            buyLegForISINAndId[_hash][_legId].status,\n            buyLegForISINAndId[_hash][_legId].buyLegId\n        );\n    }\n\n    function getSalesPartiesForIsin(string _ISIN, uint _legId) public view returns (uint, address, address) {  \n        bytes32 _hash = keccak256(abi.encodePacked(_ISIN));\n        return (\n            saleLegForISINAndId[_hash][_legId].saleLegId,\n            //saleLegForISINAndId[_hash][_legId].investorAddress,\n            saleLegForISINAndId[_hash][_legId].tradeReportingPartyAddress,\n            saleLegForISINAndId[_hash][_legId].custodianId\n        );\n    }\n\n    function getSalesForIsin(string _ISIN, uint _index) public view returns (uint, uint, uint, Statuses, uint) {  \n        bytes32 _hash = keccak256(abi.encodePacked(_ISIN));\n        return (\n            saleLegForISINAndId[_hash][_index].amount,\n            saleLegForISINAndId[_hash][_index].salePrice,\n            saleLegForISINAndId[_hash][_index].timestamp,\n            saleLegForISINAndId[_hash][_index].status,\n            saleLegForISINAndId[_hash][_index].saleLegId\n        );\n    }\n\n    // _buyOrSaleIndicator { 0: BUY Leg, 1: SALE Leg }\n    function confirmTradeLeg (uint _buyOrSaleIndicator, uint _legId, string _ISIN) public onlyCustodianOrTradeReportingParty {\n        \n        bytes32 _hash = keccak256(abi.encodePacked(_ISIN));\n        uint _tradeId;\n        // Require that the ISIN is valid on the system\n        require(securities[_hash].active);\n\n        if (_buyOrSaleIndicator == 0) {\n            // check that sender is authorised       \n            require(\n                msg.sender == buyLegForISINAndId[_hash][_legId].custodianId ||\n                msg.sender == buyLegForISINAndId[_hash][_legId].tradeReportingPartyAddress);\n\n            _tradeId = buyLegForISINAndId[_hash][_legId].tradeId;\n            matchedTradesForISINandId[_hash][_tradeId].buyConfirmationDateTime = block.timestamp;\n        } else if (_buyOrSaleIndicator == 1) {\n            // check that sender is authorised       \n            require(\n                msg.sender == saleLegForISINAndId[_hash][_legId].custodianId ||\n                msg.sender == saleLegForISINAndId[_hash][_legId].tradeReportingPartyAddress);\n\n            _tradeId = saleLegForISINAndId[_hash][_legId].tradeId;\n            matchedTradesForISINandId[_hash][_tradeId].saleConfirmationDateTime = block.timestamp;\n        } else {\n            revert();\n        }\n\n        if (matchedTradesForISINandId[_hash][_tradeId].saleConfirmationDateTime > 0) {\n            if (matchedTradesForISINandId[_hash][_tradeId].saleConfirmationDateTime > 0) {\n                // Once a perfect match has been made, add the fully confirmed trade to a list of trades to be settled on settlement date.\n                confirmedTradesForISINandSettlementDate[_hash][matchedTradesForISINandId[_hash][_tradeId].settlementDeadlineDate].push(matchedTradesForISINandId[_hash][_tradeId]);\n                \n                //TODO: Add securities netting\n                //  Do reservation for securities \n                //    Decuct securities from seller\n                //    Add securities from buyer\n                //  Check if buyer has enough cash to do real-time settlement ??? <<<< Confirm with Ganesh / Rudi\n                //  Do cash calculation from \n                //    Decuct cash from seller CSDP\n                //    Add cash to buyer CSDP\n            }\n        }\n    }\n\n    function setIsinIssuanceContractAddress (address _isinIssuanceContractAddress) public onlyOwner {\n        isinIssuanceContractAddress = _isinIssuanceContractAddress;\n    }\n\n    // ==========================================================================\n    // Add/Remove Authorised Roles:\n    // ==========================================================================    \n    // Administrators will have elevated contract permissions, at present this \n    // will be crude, but in productionising the contract this will become\n    // a vital role.\n    // ==========================================================================\n    function addAdmin(address _adminAddress) public onlyOwnerOrAdmin {\n        Admins[_adminAddress] = true;\n    }\n\n    function removeAdmin(address _adminAddress) public onlyOwnerOrAdmin {\n        Admins[_adminAddress] = false;\n    }\n\n    function addCSD(address _CSDAddress) public onlyOwnerOrAdmin {\n        CSDs[_CSDAddress] = true;\n    }\n\n    function removeCSD(address _CSDAddress) public onlyOwnerOrAdmin {\n        CSDs[_CSDAddress] = false;\n    }\n\n    function addCustodian(address _CustodianAddress) public onlyOwnerOrAdmin {\n        Custodians[_CustodianAddress] = true;\n    }\n\n    function removeCustodian(address _CustodianAddress) public onlyOwnerOrAdmin {\n        Custodians[_CustodianAddress] = false;\n    }\n\n    function addETME(address _ETMEAddress) public onlyOwnerOrAdmin {\n        ETMEs[_ETMEAddress] = true;\n    }\n\n    function removeETME(address _ETMEAddress) public onlyOwnerOrAdmin {\n        ETMEs[_ETMEAddress] = false;\n    }\n\n    function addExchange(address _ExchangeAddress) public onlyOwnerOrAdmin {\n        Exchanges[_ExchangeAddress] = true;\n    }\n\n    function removeExchange(address _ExchangeAddress) public onlyOwnerOrAdmin {\n        ETMEs[_ExchangeAddress] = false;\n    }\n\n    function addSAMOS(address _SAMOSAddress) public onlyOwnerOrAdmin {\n        SAMOSs[_SAMOSAddress] = true;\n    }\n\n    function removeSAMOS(address _SAMOSAddress) public onlyOwnerOrAdmin {\n        SAMOSs[_SAMOSAddress] = false;\n    }\n\n    function addTradeReportingParty(address _TradeReportingPartyAddress) public onlyOwnerOrAdmin {\n        TradeReportingParties[_TradeReportingPartyAddress] = true;\n    }\n\n    function removeTradeReportingParty(address _TradeReportingPartyAddress) public onlyOwnerOrAdmin {\n        TradeReportingParties[_TradeReportingPartyAddress] = false;\n    }\n\n    // ==========================================================================\n    // Helper Console Scripts:\n    // ==========================================================================\n    /* \n        PostTrade.deployed().then(function(instance){return instance.issueSecurity(\"ZAE001\",1000,\"Anglo American PLC\",\"ANG\")});\n        PostTrade.deployed().then(function(instance){return instance.getBalanceOfSecAndAccount(\"ZAE001\",\"0x51e63a2E221C782Bfc95f42Cd469D3780a479C15\")});\n        PostTrade.deployed().then(function(instance){return instance.sendSecurity(\"ZAE001\",600,\"0x2AaB2c02Fc5415D23e91CE8Dc230D3A31793CFF8\")});\n        PostTrade.deployed().then(function(instance){return instance.sendSecurity(\"ZAE001\",500,\"0x8ea823e5951243bfa7f1daad4703396260071fb9\", {from: \"0x2AaB2c02Fc5415D23e91CE8Dc230D3A31793CFF8\"})});\n        PostTrade.deployed().then(function(instance){return instance.getSecurityDetails(\"ZAE001\")});\n        PostTrade.deployed().then(function(instance){return instance.getSecuritiesListById(0)});\n        PostTrade.deployed().then(function(instance){return instance.addPreMatchedTrade(\"ZAE001\",1234,4321,11223344,20180720,\"0xED646f6B0cf23C2bfC0dC4117dA42Eb5CCf15ee4\",\"0xA1Ff8eE897ED92E62aE9F30061Ba5f012e804721\",\"0x1c6B96De685481c2d9915b606D4AB1277949b4Bc\",\"0x2d14d5Ae5E54a22043B1eccD420494DAA9513e06\",100,4444,{from:\"0x0ef2F9c8845da4c9c34BEf02C3213e0Da1306Da0\"})});\n    */ \n    // ==========================================================================\n    // TRUFFLE MNEMONIC: latin bonus invest museum gate buffalo fever demand neglect entire session rail\n    // [ '0x51e63a2e221c782bfc95f42cd469d3780a479c15',\n    //   '0xfb91a2395d9e49b89fca3dca0959b6eb4ea08a0b',\n    //   '0x8ea823e5951243bfa7f1daad4703396260071fb9',\n    //   '0xed646f6b0cf23c2bfc0dc4117da42eb5ccf15ee4',\n    //   '0xa1ff8ee897ed92e62ae9f30061ba5f012e804721',\n    //   '0x1c6b96de685481c2d9915b606d4ab1277949b4bc',\n    //   '0x2d14d5ae5e54a22043b1eccd420494daa9513e06',\n    //   '0x0ef2f9c8845da4c9c34bef02c3213e0da1306da0',\n    //   '0x3e7eaa5bc0ee36b4308b668050535d411a81585d',\n    //   '0x2aab2c02fc5415d23e91ce8dc230d3a31793cff8' ]\n    // ==========================================================================\n    // *** END TRIAL CODE ***\n    // ==========================================================================\n}",
  "sourcePath": "/Users/johanp/dev/eth/it_roadmap_2025/contracts/PostTrade.sol",
  "compiler": {
    "name": "solc",
    "version": "0.4.24+commit.e67f0147.Emscripten.clang"
  },
  "schemaVersion": "2.0.1",
  "updatedAt": "2018-07-26T09:35:40.484Z"
}