{
  "contractName": "PostTrade",
  "abi": [
    {
      "constant": true,
      "inputs": [
        {
          "name": "",
          "type": "bytes32"
        }
      ],
      "name": "securities",
      "outputs": [
        {
          "name": "ISIN",
          "type": "string"
        },
        {
          "name": "totalIssuedShareCap",
          "type": "uint256"
        },
        {
          "name": "longName",
          "type": "string"
        },
        {
          "name": "ticker",
          "type": "string"
        },
        {
          "name": "active",
          "type": "bool"
        }
      ],
      "payable": false,
      "stateMutability": "view",
      "type": "function"
    },
    {
      "constant": true,
      "inputs": [
        {
          "name": "",
          "type": "bytes32"
        },
        {
          "name": "",
          "type": "uint256"
        }
      ],
      "name": "matchedBuysIdListForISIN",
      "outputs": [
        {
          "name": "",
          "type": "uint256"
        }
      ],
      "payable": false,
      "stateMutability": "view",
      "type": "function"
    },
    {
      "constant": true,
      "inputs": [
        {
          "name": "",
          "type": "bytes32"
        },
        {
          "name": "",
          "type": "uint256"
        }
      ],
      "name": "buyLegForISINAndId",
      "outputs": [
        {
          "name": "buyLegId",
          "type": "uint256"
        },
        {
          "name": "tradeId",
          "type": "uint256"
        },
        {
          "name": "tradeReportingPartyAddress",
          "type": "address"
        },
        {
          "name": "custodianId",
          "type": "address"
        },
        {
          "name": "amount",
          "type": "uint256"
        },
        {
          "name": "buyPrice",
          "type": "uint256"
        },
        {
          "name": "status",
          "type": "uint8"
        },
        {
          "name": "timestamp",
          "type": "uint256"
        }
      ],
      "payable": false,
      "stateMutability": "view",
      "type": "function"
    },
    {
      "constant": true,
      "inputs": [
        {
          "name": "",
          "type": "bytes32"
        },
        {
          "name": "",
          "type": "uint256"
        }
      ],
      "name": "matchedSalesIdListForISIN",
      "outputs": [
        {
          "name": "",
          "type": "uint256"
        }
      ],
      "payable": false,
      "stateMutability": "view",
      "type": "function"
    },
    {
      "constant": true,
      "inputs": [
        {
          "name": "",
          "type": "bytes32"
        },
        {
          "name": "",
          "type": "uint256"
        }
      ],
      "name": "matchedTradesIdListForISIN",
      "outputs": [
        {
          "name": "",
          "type": "uint256"
        }
      ],
      "payable": false,
      "stateMutability": "view",
      "type": "function"
    },
    {
      "constant": true,
      "inputs": [
        {
          "name": "",
          "type": "uint256"
        }
      ],
      "name": "securitiesList",
      "outputs": [
        {
          "name": "",
          "type": "string"
        }
      ],
      "payable": false,
      "stateMutability": "view",
      "type": "function"
    },
    {
      "constant": true,
      "inputs": [
        {
          "name": "",
          "type": "bytes32"
        },
        {
          "name": "",
          "type": "uint256"
        }
      ],
      "name": "saleLegForISINAndId",
      "outputs": [
        {
          "name": "saleLegId",
          "type": "uint256"
        },
        {
          "name": "tradeId",
          "type": "uint256"
        },
        {
          "name": "tradeReportingPartyAddress",
          "type": "address"
        },
        {
          "name": "custodianId",
          "type": "address"
        },
        {
          "name": "amount",
          "type": "uint256"
        },
        {
          "name": "salePrice",
          "type": "uint256"
        },
        {
          "name": "status",
          "type": "uint8"
        },
        {
          "name": "timestamp",
          "type": "uint256"
        }
      ],
      "payable": false,
      "stateMutability": "view",
      "type": "function"
    },
    {
      "constant": true,
      "inputs": [],
      "name": "isinIssuanceContractAddress",
      "outputs": [
        {
          "name": "",
          "type": "address"
        }
      ],
      "payable": false,
      "stateMutability": "view",
      "type": "function"
    },
    {
      "constant": true,
      "inputs": [
        {
          "name": "",
          "type": "bytes32"
        },
        {
          "name": "",
          "type": "uint256"
        },
        {
          "name": "",
          "type": "uint256"
        }
      ],
      "name": "confirmedTradesForISINandSettlementDate",
      "outputs": [
        {
          "name": "tradeId",
          "type": "uint256"
        },
        {
          "name": "buyLegId",
          "type": "uint256"
        },
        {
          "name": "sellLegId",
          "type": "uint256"
        },
        {
          "name": "tradeDate",
          "type": "uint256"
        },
        {
          "name": "settlementDeadlineDate",
          "type": "uint256"
        },
        {
          "name": "buyConfirmationDateTime",
          "type": "uint256"
        },
        {
          "name": "saleConfirmationDateTime",
          "type": "uint256"
        }
      ],
      "payable": false,
      "stateMutability": "view",
      "type": "function"
    },
    {
      "constant": true,
      "inputs": [
        {
          "name": "",
          "type": "bytes32"
        },
        {
          "name": "",
          "type": "address"
        }
      ],
      "name": "balances",
      "outputs": [
        {
          "name": "",
          "type": "uint256"
        }
      ],
      "payable": false,
      "stateMutability": "view",
      "type": "function"
    },
    {
      "constant": true,
      "inputs": [
        {
          "name": "",
          "type": "bytes32"
        },
        {
          "name": "",
          "type": "uint256"
        }
      ],
      "name": "matchedTradesForISINandId",
      "outputs": [
        {
          "name": "tradeId",
          "type": "uint256"
        },
        {
          "name": "buyLegId",
          "type": "uint256"
        },
        {
          "name": "sellLegId",
          "type": "uint256"
        },
        {
          "name": "tradeDate",
          "type": "uint256"
        },
        {
          "name": "settlementDeadlineDate",
          "type": "uint256"
        },
        {
          "name": "buyConfirmationDateTime",
          "type": "uint256"
        },
        {
          "name": "saleConfirmationDateTime",
          "type": "uint256"
        }
      ],
      "payable": false,
      "stateMutability": "view",
      "type": "function"
    },
    {
      "inputs": [],
      "payable": false,
      "stateMutability": "nonpayable",
      "type": "constructor"
    },
    {
      "constant": false,
      "inputs": [
        {
          "name": "_ISIN",
          "type": "string"
        },
        {
          "name": "_totalIssuedShareCap",
          "type": "uint256"
        },
        {
          "name": "_longName",
          "type": "string"
        },
        {
          "name": "_ticker",
          "type": "string"
        }
      ],
      "name": "issueSecurity",
      "outputs": [],
      "payable": false,
      "stateMutability": "nonpayable",
      "type": "function"
    },
    {
      "constant": false,
      "inputs": [
        {
          "name": "_totalIssuedShareCap",
          "type": "uint256"
        }
      ],
      "name": "issueCash",
      "outputs": [],
      "payable": false,
      "stateMutability": "nonpayable",
      "type": "function"
    },
    {
      "constant": false,
      "inputs": [
        {
          "name": "_ISIN",
          "type": "string"
        },
        {
          "name": "_amount",
          "type": "uint256"
        }
      ],
      "name": "topUp",
      "outputs": [],
      "payable": false,
      "stateMutability": "nonpayable",
      "type": "function"
    },
    {
      "constant": false,
      "inputs": [
        {
          "name": "_ISIN",
          "type": "string"
        },
        {
          "name": "_amount",
          "type": "uint256"
        }
      ],
      "name": "reduceSecurities",
      "outputs": [],
      "payable": false,
      "stateMutability": "nonpayable",
      "type": "function"
    },
    {
      "constant": false,
      "inputs": [
        {
          "name": "_amount",
          "type": "uint256"
        }
      ],
      "name": "topUpCash",
      "outputs": [],
      "payable": false,
      "stateMutability": "nonpayable",
      "type": "function"
    },
    {
      "constant": true,
      "inputs": [
        {
          "name": "_ISIN",
          "type": "string"
        }
      ],
      "name": "getSecurityDetails",
      "outputs": [
        {
          "name": "",
          "type": "string"
        },
        {
          "name": "",
          "type": "uint256"
        },
        {
          "name": "",
          "type": "string"
        },
        {
          "name": "",
          "type": "string"
        },
        {
          "name": "",
          "type": "bool"
        }
      ],
      "payable": false,
      "stateMutability": "view",
      "type": "function"
    },
    {
      "constant": true,
      "inputs": [
        {
          "name": "_index",
          "type": "uint256"
        }
      ],
      "name": "getSecuritiesListById",
      "outputs": [
        {
          "name": "",
          "type": "string"
        },
        {
          "name": "",
          "type": "uint256"
        }
      ],
      "payable": false,
      "stateMutability": "view",
      "type": "function"
    },
    {
      "constant": true,
      "inputs": [
        {
          "name": "_ISIN",
          "type": "string"
        },
        {
          "name": "_accountHolder",
          "type": "address"
        }
      ],
      "name": "getBalanceOfSecAndAccount",
      "outputs": [
        {
          "name": "",
          "type": "uint256"
        }
      ],
      "payable": false,
      "stateMutability": "view",
      "type": "function"
    },
    {
      "constant": false,
      "inputs": [
        {
          "name": "_ISIN",
          "type": "string"
        },
        {
          "name": "_amount",
          "type": "uint256"
        },
        {
          "name": "_receiverAddress",
          "type": "address"
        }
      ],
      "name": "sendSecurity",
      "outputs": [],
      "payable": false,
      "stateMutability": "nonpayable",
      "type": "function"
    },
    {
      "constant": false,
      "inputs": [
        {
          "name": "_ISIN",
          "type": "string"
        },
        {
          "name": "_buyLegId",
          "type": "uint256"
        },
        {
          "name": "_saleLegId",
          "type": "uint256"
        },
        {
          "name": "_tradeId",
          "type": "uint256"
        },
        {
          "name": "_settlementDate",
          "type": "uint256"
        },
        {
          "name": "_buyerTradeReportingPartyAddress",
          "type": "address"
        },
        {
          "name": "_sellerTradeReportingPartyAddress",
          "type": "address"
        },
        {
          "name": "_buyerCustodianId",
          "type": "address"
        },
        {
          "name": "_sellerCustodianId",
          "type": "address"
        },
        {
          "name": "_amount",
          "type": "uint256"
        },
        {
          "name": "_salePrice",
          "type": "uint256"
        }
      ],
      "name": "addPreMatchedTrade",
      "outputs": [],
      "payable": false,
      "stateMutability": "nonpayable",
      "type": "function"
    },
    {
      "constant": true,
      "inputs": [
        {
          "name": "_ISIN",
          "type": "string"
        },
        {
          "name": "_legId",
          "type": "uint256"
        }
      ],
      "name": "getBuysPartiesForIsin",
      "outputs": [
        {
          "name": "",
          "type": "uint256"
        },
        {
          "name": "",
          "type": "address"
        },
        {
          "name": "",
          "type": "address"
        }
      ],
      "payable": false,
      "stateMutability": "view",
      "type": "function"
    },
    {
      "constant": true,
      "inputs": [
        {
          "name": "_ISIN",
          "type": "string"
        },
        {
          "name": "_legId",
          "type": "uint256"
        }
      ],
      "name": "getBuysForIsin",
      "outputs": [
        {
          "name": "",
          "type": "uint256"
        },
        {
          "name": "",
          "type": "uint256"
        },
        {
          "name": "",
          "type": "uint256"
        },
        {
          "name": "",
          "type": "uint8"
        },
        {
          "name": "",
          "type": "uint256"
        }
      ],
      "payable": false,
      "stateMutability": "view",
      "type": "function"
    },
    {
      "constant": true,
      "inputs": [
        {
          "name": "_ISIN",
          "type": "string"
        },
        {
          "name": "_legId",
          "type": "uint256"
        }
      ],
      "name": "getSalesPartiesForIsin",
      "outputs": [
        {
          "name": "",
          "type": "uint256"
        },
        {
          "name": "",
          "type": "address"
        },
        {
          "name": "",
          "type": "address"
        }
      ],
      "payable": false,
      "stateMutability": "view",
      "type": "function"
    },
    {
      "constant": true,
      "inputs": [
        {
          "name": "_ISIN",
          "type": "string"
        },
        {
          "name": "_index",
          "type": "uint256"
        }
      ],
      "name": "getSalesForIsin",
      "outputs": [
        {
          "name": "",
          "type": "uint256"
        },
        {
          "name": "",
          "type": "uint256"
        },
        {
          "name": "",
          "type": "uint256"
        },
        {
          "name": "",
          "type": "uint8"
        },
        {
          "name": "",
          "type": "uint256"
        }
      ],
      "payable": false,
      "stateMutability": "view",
      "type": "function"
    },
    {
      "constant": false,
      "inputs": [
        {
          "name": "_buyOrSaleIndicator",
          "type": "uint256"
        },
        {
          "name": "_legId",
          "type": "uint256"
        },
        {
          "name": "_ISIN",
          "type": "string"
        }
      ],
      "name": "confirmTradeLeg",
      "outputs": [],
      "payable": false,
      "stateMutability": "nonpayable",
      "type": "function"
    },
    {
      "constant": false,
      "inputs": [
        {
          "name": "_isinIssuanceContractAddress",
          "type": "address"
        }
      ],
      "name": "setIsinIssuanceContractAddress",
      "outputs": [],
      "payable": false,
      "stateMutability": "nonpayable",
      "type": "function"
    },
    {
      "constant": false,
      "inputs": [
        {
          "name": "_adminAddress",
          "type": "address"
        },
        {
          "name": "_activeFlag",
          "type": "bool"
        }
      ],
      "name": "addRemoveAdmin",
      "outputs": [],
      "payable": false,
      "stateMutability": "nonpayable",
      "type": "function"
    },
    {
      "constant": false,
      "inputs": [
        {
          "name": "_ExchangeAddress",
          "type": "address"
        },
        {
          "name": "_activeFlag",
          "type": "bool"
        }
      ],
      "name": "addRemoveExchange",
      "outputs": [],
      "payable": false,
      "stateMutability": "nonpayable",
      "type": "function"
    },
    {
      "constant": false,
      "inputs": [
        {
          "name": "_SAMOSAddress",
          "type": "address"
        },
        {
          "name": "_activeFlag",
          "type": "bool"
        }
      ],
      "name": "addRemoveSAMOS",
      "outputs": [],
      "payable": false,
      "stateMutability": "nonpayable",
      "type": "function"
    }
  ],
  "bytecode": "0x608060405234801561001057600080fd5b50336000806101000a81548173ffffffffffffffffffffffffffffffffffffffff021916908373ffffffffffffffffffffffffffffffffffffffff1602179055506001600c60007351e63a2e221c782bfc95f42cd469d3780a479c1573ffffffffffffffffffffffffffffffffffffffff1673ffffffffffffffffffffffffffffffffffffffff16815260200190815260200160002060006101000a81548160ff0219169083151502179055506001600d6000732aab2c02fc5415d23e91ce8dc230d3a31793cff873ffffffffffffffffffffffffffffffffffffffff1673ffffffffffffffffffffffffffffffffffffffff16815260200190815260200160002060006101000a81548160ff0219169083151502179055506001600e6000731c6b96de685481c2d9915b606d4ab1277949b4bc73ffffffffffffffffffffffffffffffffffffffff1673ffffffffffffffffffffffffffffffffffffffff16815260200190815260200160002060006101000a81548160ff0219169083151502179055506001600e6000732d14d5ae5e54a22043b1eccd420494daa9513e0673ffffffffffffffffffffffffffffffffffffffff1673ffffffffffffffffffffffffffffffffffffffff16815260200190815260200160002060006101000a81548160ff0219169083151502179055506001600f6000730ef2f9c8845da4c9c34bef02c3213e0da1306da073ffffffffffffffffffffffffffffffffffffffff1673ffffffffffffffffffffffffffffffffffffffff16815260200190815260200160002060006101000a81548160ff021916908315150217905550600160106000730ef2f9c8845da4c9c34bef02c3213e0da1306da073ffffffffffffffffffffffffffffffffffffffff1673ffffffffffffffffffffffffffffffffffffffff16815260200190815260200160002060006101000a81548160ff021916908315150217905550600160116000733e7eaa5bc0ee36b4308b668050535d411a81585d73ffffffffffffffffffffffffffffffffffffffff1673ffffffffffffffffffffffffffffffffffffffff16815260200190815260200160002060006101000a81548160ff02191690831515021790555060016012600073ed646f6b0cf23c2bfc0dc4117da42eb5ccf15ee473ffffffffffffffffffffffffffffffffffffffff1673ffffffffffffffffffffffffffffffffffffffff16815260200190815260200160002060006101000a81548160ff02191690831515021790555060016012600073a1ff8ee897ed92e62ae9f30061ba5f012e80472173ffffffffffffffffffffffffffffffffffffffff1673ffffffffffffffffffffffffffffffffffffffff16815260200190815260200160002060006101000a81548160ff021916908315150217905550615d57806200042d6000396000f300608060405260043610610180576000357c0100000000000000000000000000000000000000000000000000000000900463ffffffff1680630bbb0dc3146101855780630d56fe571461035157806320ef031314610476578063232db21b14610523578063278325af146105d45780633271fe1d1461067157806336407b7f1461075e5780633e87e4aa146107ad5780634ac52ccb146108ac5780634bf03ba61461091f5780634cdf22c314610a0c5780634e08b52d14610ba05780634e1593e214610bef57806350a50cf114610c825780636643d55a14610d685780637d60079e14610d9557806383ca719714610de45780638b6412b114610e3357806390573c6d14610ed95780639fdbbb9c14610f1c578063a76a5fdf14610f8f578063a90801ce14611075578063c6f68706146110c4578063c9c9209b14611113578063ce65a2691461116a578063d6571452146111e7578063d69cb40a14611298578063d93d73611461131b578063f3b879ed14611380578063fc67d141146113f9575b600080fd5b34801561019157600080fd5b506101ec600480360381019080803590602001908201803590602001908080601f0160208091040260200160405190810160405280939291908181526020018383808284378201915050505050509192919290505050611426565b6040518080602001868152602001806020018060200185151515158152602001848103845289818151815260200191508051906020019080838360005b83811015610244578082015181840152602081019050610229565b50505050905090810190601f1680156102715780820380516001836020036101000a031916815260200191505b50848103835287818151815260200191508051906020019080838360005b838110156102aa57808201518184015260208101905061028f565b50505050905090810190601f1680156102d75780820380516001836020036101000a031916815260200191505b50848103825286818151815260200191508051906020019080838360005b838110156103105780820151818401526020810190506102f5565b50505050905090810190601f16801561033d5780820380516001836020036101000a031916815260200191505b509850505050505050505060405180910390f35b34801561035d57600080fd5b50610474600480360381019080803590602001908201803590602001908080601f016020809104026020016040519081016040528093929190818152602001838380828437820191505050505050919291929080359060200190929190803590602001909291908035906020019092919080359060200190929190803573ffffffffffffffffffffffffffffffffffffffff169060200190929190803573ffffffffffffffffffffffffffffffffffffffff169060200190929190803573ffffffffffffffffffffffffffffffffffffffff169060200190929190803573ffffffffffffffffffffffffffffffffffffffff1690602001909291908035906020019092919080359060200190929190505050611ac1565b005b34801561048257600080fd5b506104a1600480360381019080803590602001909291905050506121b2565b6040518080602001838152602001828103825284818151815260200191508051906020019080838360005b838110156104e75780820151818401526020810190506104cc565b50505050905090810190601f1680156105145780820380516001836020036101000a031916815260200191505b50935050505060405180910390f35b34801561052f57600080fd5b50610594600480360381019080803590602001908201803590602001908080601f01602080910402602001604051908101604052809392919081815260200183838082843782019150505050505091929192908035906020019092919050505061227a565b604051808681526020018581526020018481526020018360088111156105b657fe5b60ff1681526020018281526020019550505050505060405180910390f35b3480156105e057600080fd5b5061065b600480360381019080803590602001908201803590602001908080601f0160208091040260200160405190810160405280939291908181526020018383808284378201915050505050509192919290803573ffffffffffffffffffffffffffffffffffffffff169060200190929190505050612466565b6040518082815260200191505060405180910390f35b34801561067d57600080fd5b506106e2600480360381019080803590602001908201803590602001908080601f016020809104026020016040519081016040528093929190818152602001838380828437820191505050505050919291929080359060200190929190505050612597565b604051808481526020018373ffffffffffffffffffffffffffffffffffffffff1673ffffffffffffffffffffffffffffffffffffffff1681526020018273ffffffffffffffffffffffffffffffffffffffff1673ffffffffffffffffffffffffffffffffffffffff168152602001935050505060405180910390f35b34801561076a57600080fd5b506107ab600480360381019080803573ffffffffffffffffffffffffffffffffffffffff16906020019092919080351515906020019092919050505061274c565b005b3480156107b957600080fd5b506108aa600480360381019080803590602001908201803590602001908080601f016020809104026020016040519081016040528093929190818152602001838380828437820191505050505050919291929080359060200190929190803590602001908201803590602001908080601f0160208091040260200160405190810160405280939291908181526020018383808284378201915050505050509192919290803590602001908201803590602001908080601f01602080910402602001604051908101604052809392919081815260200183838082843782019150505050505091929192905050506128c6565b005b3480156108b857600080fd5b5061091d600480360381019080803590602001908201803590602001908080601f016020809104026020016040519081016040528093929190818152602001838380828437820191505050505050919291929080359060200190929190505050612e61565b005b34801561092b57600080fd5b50610990600480360381019080803590602001908201803590602001908080601f0160208091040260200160405190810160405280939291908181526020018383808284378201915050505050509192919290803590602001909291905050506132ed565b604051808481526020018373ffffffffffffffffffffffffffffffffffffffff1673ffffffffffffffffffffffffffffffffffffffff1681526020018273ffffffffffffffffffffffffffffffffffffffff1673ffffffffffffffffffffffffffffffffffffffff168152602001935050505060405180910390f35b348015610a1857600080fd5b50610a3b60048036038101908080356000191690602001909291905050506134a2565b6040518080602001868152602001806020018060200185151515158152602001848103845289818151815260200191508051906020019080838360005b83811015610a93578082015181840152602081019050610a78565b50505050905090810190601f168015610ac05780820380516001836020036101000a031916815260200191505b50848103835287818151815260200191508051906020019080838360005b83811015610af9578082015181840152602081019050610ade565b50505050905090810190601f168015610b265780820380516001836020036101000a031916815260200191505b50848103825286818151815260200191508051906020019080838360005b83811015610b5f578082015181840152602081019050610b44565b50505050905090810190601f168015610b8c5780820380516001836020036101000a031916815260200191505b509850505050505050505060405180910390f35b348015610bac57600080fd5b50610bd96004803603810190808035600019169060200190929190803590602001909291905050506136ad565b6040518082815260200191505060405180910390f35b348015610bfb57600080fd5b50610c80600480360381019080803590602001908201803590602001908080601f016020809104026020016040519081016040528093929190818152602001838380828437820191505050505050919291929080359060200190929190803573ffffffffffffffffffffffffffffffffffffffff1690602001909291905050506136dd565b005b348015610c8e57600080fd5b50610cbb600480360381019080803560001916906020019092919080359060200190929190505050613ae8565b604051808981526020018881526020018773ffffffffffffffffffffffffffffffffffffffff1673ffffffffffffffffffffffffffffffffffffffff1681526020018673ffffffffffffffffffffffffffffffffffffffff1673ffffffffffffffffffffffffffffffffffffffff168152602001858152602001848152602001836008811115610d4757fe5b60ff1681526020018281526020019850505050505050505060405180910390f35b348015610d7457600080fd5b50610d9360048036038101908080359060200190929190505050613b8a565b005b348015610da157600080fd5b50610dce600480360381019080803560001916906020019092919080359060200190929190505050613f92565b6040518082815260200191505060405180910390f35b348015610df057600080fd5b50610e1d600480360381019080803560001916906020019092919080359060200190929190505050613fc2565b6040518082815260200191505060405180910390f35b348015610e3f57600080fd5b50610e5e60048036038101908080359060200190929190505050613ff2565b6040518080602001828103825283818151815260200191508051906020019080838360005b83811015610e9e578082015181840152602081019050610e83565b50505050905090810190601f168015610ecb5780820380516001836020036101000a031916815260200191505b509250505060405180910390f35b348015610ee557600080fd5b50610f1a600480360381019080803573ffffffffffffffffffffffffffffffffffffffff1690602001909291905050506140ad565b005b348015610f2857600080fd5b50610f8d600480360381019080803590602001908201803590602001908080601f0160208091040260200160405190810160405280939291908181526020018383808284378201915050505050509192919290803590602001909291905050506141b5565b005b348015610f9b57600080fd5b50610fc86004803603810190808035600019169060200190929190803590602001909291905050506147a5565b604051808981526020018881526020018773ffffffffffffffffffffffffffffffffffffffff1673ffffffffffffffffffffffffffffffffffffffff1681526020018673ffffffffffffffffffffffffffffffffffffffff1673ffffffffffffffffffffffffffffffffffffffff16815260200185815260200184815260200183600881111561105457fe5b60ff1681526020018281526020019850505050505050505060405180910390f35b34801561108157600080fd5b506110c2600480360381019080803573ffffffffffffffffffffffffffffffffffffffff169060200190929190803515159060200190929190505050614847565b005b3480156110d057600080fd5b50611111600480360381019080803573ffffffffffffffffffffffffffffffffffffffff1690602001909291908035151590602001909291905050506149c1565b005b34801561111f57600080fd5b50611128614b3b565b604051808273ffffffffffffffffffffffffffffffffffffffff1673ffffffffffffffffffffffffffffffffffffffff16815260200191505060405180910390f35b34801561117657600080fd5b506111e56004803603810190808035906020019092919080359060200190929190803590602001908201803590602001908080601f0160208091040260200160405190810160405280939291908181526020018383808284378201915050505050509192919290505050614b61565b005b3480156111f357600080fd5b50611258600480360381019080803590602001908201803590602001908080601f0160208091040260200160405190810160405280939291908181526020018383808284378201915050505050509192919290803590602001909291905050506153d7565b6040518086815260200185815260200184815260200183600881111561127a57fe5b60ff1681526020018281526020019550505050505060405180910390f35b3480156112a457600080fd5b506112db600480360381019080803560001916906020019092919080359060200190929190803590602001909291905050506155c3565b6040518088815260200187815260200186815260200185815260200184815260200183815260200182815260200197505050505050505060405180910390f35b34801561132757600080fd5b5061136a6004803603810190808035600019169060200190929190803573ffffffffffffffffffffffffffffffffffffffff16906020019092919050505061562e565b6040518082815260200191505060405180910390f35b34801561138c57600080fd5b506113b9600480360381019080803560001916906020019092919080359060200190929190505050615653565b6040518088815260200187815260200186815260200185815260200184815260200183815260200182815260200197505050505050505060405180910390f35b34801561140557600080fd5b50611424600480360381019080803590602001909291905050506156a2565b005b60606000606080600060036000876040516020018082805190602001908083835b60208310151561146c5780518252602082019150602081019050602083039250611447565b6001836020036101000a0380198251168184511680821785525050505050509050019150506040516020818303038152906040526040518082805190602001908083835b6020831015156114d557805182526020820191506020810190506020830392506114b0565b6001836020036101000a03801982511681845116808217855250505050505090500191505060405180910390206000191660001916815260200190815260200160002060000160036000886040516020018082805190602001908083835b6020831015156115585780518252602082019150602081019050602083039250611533565b6001836020036101000a0380198251168184511680821785525050505050509050019150506040516020818303038152906040526040518082805190602001908083835b6020831015156115c1578051825260208201915060208101905060208303925061159c565b6001836020036101000a0380198251168184511680821785525050505050509050019150506040518091039020600019166000191681526020019081526020016000206001015460036000896040516020018082805190602001908083835b6020831015156116455780518252602082019150602081019050602083039250611620565b6001836020036101000a0380198251168184511680821785525050505050509050019150506040516020818303038152906040526040518082805190602001908083835b6020831015156116ae5780518252602082019150602081019050602083039250611689565b6001836020036101000a038019825116818451168082178552505050505050905001915050604051809103902060001916600019168152602001908152602001600020600201600360008a6040516020018082805190602001908083835b602083101515611731578051825260208201915060208101905060208303925061170c565b6001836020036101000a0380198251168184511680821785525050505050509050019150506040516020818303038152906040526040518082805190602001908083835b60208310151561179a5780518252602082019150602081019050602083039250611775565b6001836020036101000a038019825116818451168082178552505050505050905001915050604051809103902060001916600019168152602001908152602001600020600301600360008b6040516020018082805190602001908083835b60208310151561181d57805182526020820191506020810190506020830392506117f8565b6001836020036101000a0380198251168184511680821785525050505050509050019150506040516020818303038152906040526040518082805190602001908083835b6020831015156118865780518252602082019150602081019050602083039250611861565b6001836020036101000a03801982511681845116808217855250505050505090500191505060405180910390206000191660001916815260200190815260200160002060040160009054906101000a900460ff16848054600181600116156101000203166002900480601f01602080910402602001604051908101604052809291908181526020018280546001816001161561010002031660029004801561196f5780601f106119445761010080835404028352916020019161196f565b820191906000526020600020905b81548152906001019060200180831161195257829003601f168201915b50505050509450828054600181600116156101000203166002900480601f016020809104026020016040519081016040528092919081815260200182805460018160011615610100020316600290048015611a0b5780601f106119e057610100808354040283529160200191611a0b565b820191906000526020600020905b8154815290600101906020018083116119ee57829003601f168201915b50505050509250818054600181600116156101000203166002900480601f016020809104026020016040519081016040528092919081815260200182805460018160011615610100020316600290048015611aa75780601f10611a7c57610100808354040283529160200191611aa7565b820191906000526020600020905b815481529060010190602001808311611a8a57829003601f168201915b505050505091509450945094509450945091939590929450565b60008060011515601060003373ffffffffffffffffffffffffffffffffffffffff1673ffffffffffffffffffffffffffffffffffffffff16815260200190815260200160002060009054906101000a900460ff161515141515611b8c576040517f08c379a00000000000000000000000000000000000000000000000000000000081526004018080602001828103825260168152602001807f4f6e6c79204f776e6572206f722045786368616e67650000000000000000000081525060200191505060405180910390fd5b8c6040516020018082805190602001908083835b602083101515611bc55780518252602082019150602081019050602083039250611ba0565b6001836020036101000a0380198251168184511680821785525050505050509050019150506040516020818303038152906040526040518082805190602001908083835b602083101515611c2e5780518252602082019150602081019050602083039250611c09565b6001836020036101000a0380198251168184511680821785525050505050509050019150506040518091039020915060036000836000191660001916815260200190815260200160002060040160009054906101000a900460ff161515611cfd576040517f08c379a00000000000000000000000000000000000000000000000000000000081526004018080602001828103825260178152602001807f5365637572697479206d7573742062652061637469766500000000000000000081525060200191505060405180910390fd5b4290506201518081811515611d0e57fe5b06810390506004600083600019166000191681526020019081526020016000208c90806001815401808255809150509060018203906000526020600020016000909192909190915055506006600083600019166000191681526020019081526020016000208b90806001815401808255809150509060018203906000526020600020016000909192909190915055506008600083600019166000191681526020019081526020016000208a9080600181540180825580915050906001820390600052602060002001600090919290919091505550610100604051908101604052808d81526020018b81526020018973ffffffffffffffffffffffffffffffffffffffff1681526020018773ffffffffffffffffffffffffffffffffffffffff16815260200185815260200184815260200160016008811115611e4c57fe5b81526020014281525060056000846000191660001916815260200190815260200160002060008e8152602001908152602001600020600082015181600001556020820151816001015560408201518160020160006101000a81548173ffffffffffffffffffffffffffffffffffffffff021916908373ffffffffffffffffffffffffffffffffffffffff16021790555060608201518160030160006101000a81548173ffffffffffffffffffffffffffffffffffffffff021916908373ffffffffffffffffffffffffffffffffffffffff1602179055506080820151816004015560a0820151816005015560c08201518160060160006101000a81548160ff02191690836008811115611f5b57fe5b021790555060e08201518160070155905050610100604051908101604052808c81526020018b81526020018873ffffffffffffffffffffffffffffffffffffffff1681526020018673ffffffffffffffffffffffffffffffffffffffff16815260200185815260200184815260200160016008811115611fd757fe5b81526020014281525060076000846000191660001916815260200190815260200160002060008d8152602001908152602001600020600082015181600001556020820151816001015560408201518160020160006101000a81548173ffffffffffffffffffffffffffffffffffffffff021916908373ffffffffffffffffffffffffffffffffffffffff16021790555060608201518160030160006101000a81548173ffffffffffffffffffffffffffffffffffffffff021916908373ffffffffffffffffffffffffffffffffffffffff1602179055506080820151816004015560a0820151816005015560c08201518160060160006101000a81548160ff021916908360088111156120e657fe5b021790555060e0820151816007015590505060e0604051908101604052808b81526020018d81526020018c81526020018281526020018a815260200160008152602001600081525060096000846000191660001916815260200190815260200160002060008c8152602001908152602001600020600082015181600001556020820151816001015560408201518160020155606082015181600301556080820151816004015560a0820151816005015560c0820151816006015590505050505050505050505050505050565b60606000600b838154811015156121c557fe5b90600052602060002001600b80549050818054600181600116156101000203166002900480601f01602080910402602001604051908101604052809291908181526020018280546001816001161561010002031660029004801561226a5780601f1061223f5761010080835404028352916020019161226a565b820191906000526020600020905b81548152906001019060200180831161224d57829003601f168201915b5050505050915091509150915091565b600080600080600080876040516020018082805190602001908083835b6020831015156122bc5780518252602082019150602081019050602083039250612297565b6001836020036101000a0380198251168184511680821785525050505050509050019150506040516020818303038152906040526040518082805190602001908083835b6020831015156123255780518252602082019150602081019050602083039250612300565b6001836020036101000a0380198251168184511680821785525050505050509050019150506040518091039020905060056000826000191660001916815260200190815260200160002060008881526020019081526020016000206004015460056000836000191660001916815260200190815260200160002060008981526020019081526020016000206005015460056000846000191660001916815260200190815260200160002060008a81526020019081526020016000206007015460056000856000191660001916815260200190815260200160002060008b815260200190815260200160002060060160009054906101000a900460ff1660056000866000191660001916815260200190815260200160002060008c81526020019081526020016000206000015495509550955095509550509295509295909350565b600060026000846040516020018082805190602001908083835b6020831015156124a55780518252602082019150602081019050602083039250612480565b6001836020036101000a0380198251168184511680821785525050505050509050019150506040516020818303038152906040526040518082805190602001908083835b60208310151561250e57805182526020820191506020810190506020830392506124e9565b6001836020036101000a03801982511681845116808217855250505050505090500191505060405180910390206000191660001916815260200190815260200160002060008373ffffffffffffffffffffffffffffffffffffffff1673ffffffffffffffffffffffffffffffffffffffff16815260200190815260200160002054905092915050565b600080600080856040516020018082805190602001908083835b6020831015156125d657805182526020820191506020810190506020830392506125b1565b6001836020036101000a0380198251168184511680821785525050505050509050019150506040516020818303038152906040526040518082805190602001908083835b60208310151561263f578051825260208201915060208101905060208303925061261a565b6001836020036101000a03801982511681845116808217855250505050505090500191505060405180910390209050600560008260001916600019168152602001908152602001600020600086815260200190815260200160002060000154600560008360001916600019168152602001908152602001600020600087815260200190815260200160002060020160009054906101000a900473ffffffffffffffffffffffffffffffffffffffff16600560008460001916600019168152602001908152602001600020600088815260200190815260200160002060030160009054906101000a900473ffffffffffffffffffffffffffffffffffffffff16935093509350509250925092565b6000809054906101000a900473ffffffffffffffffffffffffffffffffffffffff1673ffffffffffffffffffffffffffffffffffffffff163373ffffffffffffffffffffffffffffffffffffffff1614806127f7575060011515600c60003373ffffffffffffffffffffffffffffffffffffffff1673ffffffffffffffffffffffffffffffffffffffff16815260200190815260200160002060009054906101000a900460ff161515145b151561286b576040517f08c379a00000000000000000000000000000000000000000000000000000000081526004018080602001828103825260138152602001807f4f6e6c79204f776e6572206f722041646d696e0000000000000000000000000081525060200191505060405180910390fd5b80600c60008473ffffffffffffffffffffffffffffffffffffffff1673ffffffffffffffffffffffffffffffffffffffff16815260200190815260200160002060006101000a81548160ff0219169083151502179055505050565b6000600160009054906101000a900473ffffffffffffffffffffffffffffffffffffffff1673ffffffffffffffffffffffffffffffffffffffff163373ffffffffffffffffffffffffffffffffffffffff1614151561298d576040517f08c379a00000000000000000000000000000000000000000000000000000000081526004018080602001828103825260128152602001807f4f6e6c79204973696e2049737375616e6365000000000000000000000000000081525060200191505060405180910390fd5b6000151560036000876040516020018082805190602001908083835b6020831015156129ce57805182526020820191506020810190506020830392506129a9565b6001836020036101000a0380198251168184511680821785525050505050509050019150506040516020818303038152906040526040518082805190602001908083835b602083101515612a375780518252602082019150602081019050602083039250612a12565b6001836020036101000a03801982511681845116808217855250505050505090500191505060405180910390206000191660001916815260200190815260200160002060040160009054906101000a900460ff161515141515612b02576040517f08c379a00000000000000000000000000000000000000000000000000000000081526004018080602001828103825260178152602001807f5365637572697479206d7573742062652061637469766500000000000000000081525060200191505060405180910390fd5b846040516020018082805190602001908083835b602083101515612b3b5780518252602082019150602081019050602083039250612b16565b6001836020036101000a0380198251168184511680821785525050505050509050019150506040516020818303038152906040526040518082805190602001908083835b602083101515612ba45780518252602082019150602081019050602083039250612b7f565b6001836020036101000a03801982511681845116808217855250505050505090500191505060405180910390209050846003600083600019166000191681526020019081526020016000206000019080519060200190612c05929190615c86565b508360036000836000191660001916815260200190815260200160002060010181905550826003600083600019166000191681526020019081526020016000206002019080519060200190612c5b929190615c86565b50816003600083600019166000191681526020019081526020016000206003019080519060200190612c8e929190615c86565b50600160036000836000191660001916815260200190815260200160002060040160006101000a81548160ff021916908315150217905550600b859080600181540180825580915050906001820390600052602060002001600090919290919091509080519060200190612d03929190615c86565b50508360026000876040516020018082805190602001908083835b602083101515612d435780518252602082019150602081019050602083039250612d1e565b6001836020036101000a0380198251168184511680821785525050505050509050019150506040516020818303038152906040526040518082805190602001908083835b602083101515612dac5780518252602082019150602081019050602083039250612d87565b6001836020036101000a03801982511681845116808217855250505050505090500191505060405180910390206000191660001916815260200190815260200160002060008060009054906101000a900473ffffffffffffffffffffffffffffffffffffffff1673ffffffffffffffffffffffffffffffffffffffff1673ffffffffffffffffffffffffffffffffffffffff168152602001908152602001600020600082825401925050819055505050505050565b6000809054906101000a900473ffffffffffffffffffffffffffffffffffffffff1673ffffffffffffffffffffffffffffffffffffffff163373ffffffffffffffffffffffffffffffffffffffff16141515612f25576040517f08c379a000000000000000000000000000000000000000000000000000000000815260040180806020018281038252600a8152602001807f4f6e6c79204f776e65720000000000000000000000000000000000000000000081525060200191505060405180910390fd5b6001151560036000846040516020018082805190602001908083835b602083101515612f665780518252602082019150602081019050602083039250612f41565b6001836020036101000a0380198251168184511680821785525050505050509050019150506040516020818303038152906040526040518082805190602001908083835b602083101515612fcf5780518252602082019150602081019050602083039250612faa565b6001836020036101000a03801982511681845116808217855250505050505090500191505060405180910390206000191660001916815260200190815260200160002060040160009054906101000a900460ff16151514151561309a576040517f08c379a00000000000000000000000000000000000000000000000000000000081526004018080602001828103825260178152602001807f5365637572697479206d7573742062652061637469766500000000000000000081525060200191505060405180910390fd5b8060036000846040516020018082805190602001908083835b6020831015156130d857805182526020820191506020810190506020830392506130b3565b6001836020036101000a0380198251168184511680821785525050505050509050019150506040516020818303038152906040526040518082805190602001908083835b602083101515613141578051825260208201915060208101905060208303925061311c565b6001836020036101000a038019825116818451168082178552505050505050905001915050604051809103902060001916600019168152602001908152602001600020600101600082825401925050819055508060026000846040516020018082805190602001908083835b6020831015156131d257805182526020820191506020810190506020830392506131ad565b6001836020036101000a0380198251168184511680821785525050505050509050019150506040516020818303038152906040526040518082805190602001908083835b60208310151561323b5780518252602082019150602081019050602083039250613216565b6001836020036101000a03801982511681845116808217855250505050505090500191505060405180910390206000191660001916815260200190815260200160002060008060009054906101000a900473ffffffffffffffffffffffffffffffffffffffff1673ffffffffffffffffffffffffffffffffffffffff1673ffffffffffffffffffffffffffffffffffffffff168152602001908152602001600020600082825401925050819055505050565b600080600080856040516020018082805190602001908083835b60208310151561332c5780518252602082019150602081019050602083039250613307565b6001836020036101000a0380198251168184511680821785525050505050509050019150506040516020818303038152906040526040518082805190602001908083835b6020831015156133955780518252602082019150602081019050602083039250613370565b6001836020036101000a03801982511681845116808217855250505050505090500191505060405180910390209050600760008260001916600019168152602001908152602001600020600086815260200190815260200160002060000154600760008360001916600019168152602001908152602001600020600087815260200190815260200160002060020160009054906101000a900473ffffffffffffffffffffffffffffffffffffffff16600760008460001916600019168152602001908152602001600020600088815260200190815260200160002060030160009054906101000a900473ffffffffffffffffffffffffffffffffffffffff16935093509350509250925092565b6003602052806000526040600020600091509050806000018054600181600116156101000203166002900480601f01602080910402602001604051908101604052809291908181526020018280546001816001161561010002031660029004801561354e5780601f106135235761010080835404028352916020019161354e565b820191906000526020600020905b81548152906001019060200180831161353157829003601f168201915b505050505090806001015490806002018054600181600116156101000203166002900480601f0160208091040260200160405190810160405280929190818152602001828054600181600116156101000203166002900480156135f25780601f106135c7576101008083540402835291602001916135f2565b820191906000526020600020905b8154815290600101906020018083116135d557829003601f168201915b505050505090806003018054600181600116156101000203166002900480601f0160208091040260200160405190810160405280929190818152602001828054600181600116156101000203166002900480156136905780601f1061366557610100808354040283529160200191613690565b820191906000526020600020905b81548152906001019060200180831161367357829003601f168201915b5050505050908060040160009054906101000a900460ff16905085565b6004602052816000526040600020818154811015156136c857fe5b90600052602060002001600091509150505481565b8160026000856040516020018082805190602001908083835b60208310151561371b57805182526020820191506020810190506020830392506136f6565b6001836020036101000a0380198251168184511680821785525050505050509050019150506040516020818303038152906040526040518082805190602001908083835b602083101515613784578051825260208201915060208101905060208303925061375f565b6001836020036101000a03801982511681845116808217855250505050505090500191505060405180910390206000191660001916815260200190815260200160002060003373ffffffffffffffffffffffffffffffffffffffff1673ffffffffffffffffffffffffffffffffffffffff168152602001908152602001600020541015151561387b576040517f08c379a00000000000000000000000000000000000000000000000000000000081526004018080602001828103825260078152602001807f546f6f206269670000000000000000000000000000000000000000000000000081525060200191505060405180910390fd5b8160026000856040516020018082805190602001908083835b6020831015156138b95780518252602082019150602081019050602083039250613894565b6001836020036101000a0380198251168184511680821785525050505050509050019150506040516020818303038152906040526040518082805190602001908083835b60208310151561392257805182526020820191506020810190506020830392506138fd565b6001836020036101000a03801982511681845116808217855250505050505090500191505060405180910390206000191660001916815260200190815260200160002060003373ffffffffffffffffffffffffffffffffffffffff1673ffffffffffffffffffffffffffffffffffffffff168152602001908152602001600020600082825403925050819055508160026000856040516020018082805190602001908083835b6020831015156139ed57805182526020820191506020810190506020830392506139c8565b6001836020036101000a0380198251168184511680821785525050505050509050019150506040516020818303038152906040526040518082805190602001908083835b602083101515613a565780518252602082019150602081019050602083039250613a31565b6001836020036101000a03801982511681845116808217855250505050505090500191505060405180910390206000191660001916815260200190815260200160002060008373ffffffffffffffffffffffffffffffffffffffff1673ffffffffffffffffffffffffffffffffffffffff16815260200190815260200160002060008282540192505081905550505050565b6005602052816000526040600020602052806000526040600020600091509150508060000154908060010154908060020160009054906101000a900473ffffffffffffffffffffffffffffffffffffffff16908060030160009054906101000a900473ffffffffffffffffffffffffffffffffffffffff16908060040154908060050154908060060160009054906101000a900460ff16908060070154905088565b60011515601160003373ffffffffffffffffffffffffffffffffffffffff1673ffffffffffffffffffffffffffffffffffffffff16815260200190815260200160002060009054906101000a900460ff161515141515613c52576040517f08c379a000000000000000000000000000000000000000000000000000000000815260040180806020018281038252600a8152602001807f4f6e6c792053414d4f530000000000000000000000000000000000000000000081525060200191505060405180910390fd5b600115156003600060405160200180807f655a41520000000000000000000000000000000000000000000000000000000081525060040190506040516020818303038152906040526040518082805190602001908083835b602083101515613ccf5780518252602082019150602081019050602083039250613caa565b6001836020036101000a03801982511681845116808217855250505050505090500191505060405180910390206000191660001916815260200190815260200160002060040160009054906101000a900460ff161515141515613d9a576040517f08c379a00000000000000000000000000000000000000000000000000000000081526004018080602001828103825260178152602001807f5365637572697479206d7573742062652061637469766500000000000000000081525060200191505060405180910390fd5b806003600060405160200180807f655a41520000000000000000000000000000000000000000000000000000000081525060040190506040516020818303038152906040526040518082805190602001908083835b602083101515613e145780518252602082019150602081019050602083039250613def565b6001836020036101000a03801982511681845116808217855250505050505090500191505060405180910390206000191660001916815260200190815260200160002060010160008282540192505081905550806002600060405160200180807f655a41520000000000000000000000000000000000000000000000000000000081525060040190506040516020818303038152906040526040518082805190602001908083835b602083101515613ee15780518252602082019150602081019050602083039250613ebc565b6001836020036101000a03801982511681845116808217855250505050505090500191505060405180910390206000191660001916815260200190815260200160002060008060009054906101000a900473ffffffffffffffffffffffffffffffffffffffff1673ffffffffffffffffffffffffffffffffffffffff1673ffffffffffffffffffffffffffffffffffffffff1681526020019081526020016000206000828254019250508190555050565b600660205281600052604060002081815481101515613fad57fe5b90600052602060002001600091509150505481565b600860205281600052604060002081815481101515613fdd57fe5b90600052602060002001600091509150505481565b600b8181548110151561400157fe5b906000526020600020016000915090508054600181600116156101000203166002900480601f0160208091040260200160405190810160405280929190818152602001828054600181600116156101000203166002900480156140a55780601f1061407a576101008083540402835291602001916140a5565b820191906000526020600020905b81548152906001019060200180831161408857829003601f168201915b505050505081565b6000809054906101000a900473ffffffffffffffffffffffffffffffffffffffff1673ffffffffffffffffffffffffffffffffffffffff163373ffffffffffffffffffffffffffffffffffffffff16141515614171576040517f08c379a000000000000000000000000000000000000000000000000000000000815260040180806020018281038252600a8152602001807f4f6e6c79204f776e65720000000000000000000000000000000000000000000081525060200191505060405180910390fd5b80600160006101000a81548173ffffffffffffffffffffffffffffffffffffffff021916908373ffffffffffffffffffffffffffffffffffffffff16021790555050565b6000809054906101000a900473ffffffffffffffffffffffffffffffffffffffff1673ffffffffffffffffffffffffffffffffffffffff163373ffffffffffffffffffffffffffffffffffffffff16141515614279576040517f08c379a000000000000000000000000000000000000000000000000000000000815260040180806020018281038252600a8152602001807f4f6e6c79204f776e65720000000000000000000000000000000000000000000081525060200191505060405180910390fd5b6001151560036000846040516020018082805190602001908083835b6020831015156142ba5780518252602082019150602081019050602083039250614295565b6001836020036101000a0380198251168184511680821785525050505050509050019150506040516020818303038152906040526040518082805190602001908083835b60208310151561432357805182526020820191506020810190506020830392506142fe565b6001836020036101000a03801982511681845116808217855250505050505090500191505060405180910390206000191660001916815260200190815260200160002060040160009054906101000a900460ff1615151415156143ee576040517f08c379a00000000000000000000000000000000000000000000000000000000081526004018080602001828103825260178152602001807f5365637572697479206d7573742062652061637469766500000000000000000081525060200191505060405180910390fd5b8060036000846040516020018082805190602001908083835b60208310151561442c5780518252602082019150602081019050602083039250614407565b6001836020036101000a0380198251168184511680821785525050505050509050019150506040516020818303038152906040526040518082805190602001908083835b6020831015156144955780518252602082019150602081019050602083039250614470565b6001836020036101000a0380198251168184511680821785525050505050509050019150506040518091039020600019166000191681526020019081526020016000206001015410151515614552576040517f08c379a00000000000000000000000000000000000000000000000000000000081526004018080602001828103825260078152602001807f546f6f206269670000000000000000000000000000000000000000000000000081525060200191505060405180910390fd5b8060036000846040516020018082805190602001908083835b602083101515614590578051825260208201915060208101905060208303925061456b565b6001836020036101000a0380198251168184511680821785525050505050509050019150506040516020818303038152906040526040518082805190602001908083835b6020831015156145f957805182526020820191506020810190506020830392506145d4565b6001836020036101000a038019825116818451168082178552505050505050905001915050604051809103902060001916600019168152602001908152602001600020600101600082825403925050819055508060026000846040516020018082805190602001908083835b60208310151561468a5780518252602082019150602081019050602083039250614665565b6001836020036101000a0380198251168184511680821785525050505050509050019150506040516020818303038152906040526040518082805190602001908083835b6020831015156146f357805182526020820191506020810190506020830392506146ce565b6001836020036101000a03801982511681845116808217855250505050505090500191505060405180910390206000191660001916815260200190815260200160002060008060009054906101000a900473ffffffffffffffffffffffffffffffffffffffff1673ffffffffffffffffffffffffffffffffffffffff1673ffffffffffffffffffffffffffffffffffffffff168152602001908152602001600020600082825403925050819055505050565b6007602052816000526040600020602052806000526040600020600091509150508060000154908060010154908060020160009054906101000a900473ffffffffffffffffffffffffffffffffffffffff16908060030160009054906101000a900473ffffffffffffffffffffffffffffffffffffffff16908060040154908060050154908060060160009054906101000a900460ff16908060070154905088565b6000809054906101000a900473ffffffffffffffffffffffffffffffffffffffff1673ffffffffffffffffffffffffffffffffffffffff163373ffffffffffffffffffffffffffffffffffffffff1614806148f2575060011515600c60003373ffffffffffffffffffffffffffffffffffffffff1673ffffffffffffffffffffffffffffffffffffffff16815260200190815260200160002060009054906101000a900460ff161515145b1515614966576040517f08c379a00000000000000000000000000000000000000000000000000000000081526004018080602001828103825260138152602001807f4f6e6c79204f776e6572206f722041646d696e0000000000000000000000000081525060200191505060405180910390fd5b80601060008473ffffffffffffffffffffffffffffffffffffffff1673ffffffffffffffffffffffffffffffffffffffff16815260200190815260200160002060006101000a81548160ff0219169083151502179055505050565b6000809054906101000a900473ffffffffffffffffffffffffffffffffffffffff1673ffffffffffffffffffffffffffffffffffffffff163373ffffffffffffffffffffffffffffffffffffffff161480614a6c575060011515600c60003373ffffffffffffffffffffffffffffffffffffffff1673ffffffffffffffffffffffffffffffffffffffff16815260200190815260200160002060009054906101000a900460ff161515145b1515614ae0576040517f08c379a00000000000000000000000000000000000000000000000000000000081526004018080602001828103825260138152602001807f4f6e6c79204f776e6572206f722041646d696e0000000000000000000000000081525060200191505060405180910390fd5b80601160008473ffffffffffffffffffffffffffffffffffffffff1673ffffffffffffffffffffffffffffffffffffffff16815260200190815260200160002060006101000a81548160ff0219169083151502179055505050565b600160009054906101000a900473ffffffffffffffffffffffffffffffffffffffff1681565b60008060011515600e60003373ffffffffffffffffffffffffffffffffffffffff1673ffffffffffffffffffffffffffffffffffffffff16815260200190815260200160002060009054906101000a900460ff1615151480614c13575060011515601260003373ffffffffffffffffffffffffffffffffffffffff1673ffffffffffffffffffffffffffffffffffffffff16815260200190815260200160002060009054906101000a900460ff161515145b1515614cad576040517f08c379a00000000000000000000000000000000000000000000000000000000081526004018080602001828103825260258152602001807f4f6e6c7920437573746f6469616e204f722054726164655265706f7274696e6781526020017f506172747900000000000000000000000000000000000000000000000000000081525060400191505060405180910390fd5b826040516020018082805190602001908083835b602083101515614ce65780518252602082019150602081019050602083039250614cc1565b6001836020036101000a0380198251168184511680821785525050505050509050019150506040516020818303038152906040526040518082805190602001908083835b602083101515614d4f5780518252602082019150602081019050602083039250614d2a565b6001836020036101000a0380198251168184511680821785525050505050509050019150506040518091039020915060036000836000191660001916815260200190815260200160002060040160009054906101000a900460ff161515614e1e576040517f08c379a00000000000000000000000000000000000000000000000000000000081526004018080602001828103825260178152602001807f5365637572697479206d7573742062652061637469766500000000000000000081525060200191505060405180910390fd5b600085141561500957600560008360001916600019168152602001908152602001600020600085815260200190815260200160002060030160009054906101000a900473ffffffffffffffffffffffffffffffffffffffff1673ffffffffffffffffffffffffffffffffffffffff163373ffffffffffffffffffffffffffffffffffffffff161480614f2a5750600560008360001916600019168152602001908152602001600020600085815260200190815260200160002060020160009054906101000a900473ffffffffffffffffffffffffffffffffffffffff1673ffffffffffffffffffffffffffffffffffffffff163373ffffffffffffffffffffffffffffffffffffffff16145b1515614f9e576040517f08c379a00000000000000000000000000000000000000000000000000000000081526004018080602001828103825260158152602001807f53656e646572206e6f7420617574686f7269736564000000000000000000000081525060200191505060405180910390fd5b600560008360001916600019168152602001908152602001600020600085815260200190815260200160002060010154905042600960008460001916600019168152602001908152602001600020600083815260200190815260200160002060050181905550615263565b60018514156151f457600760008360001916600019168152602001908152602001600020600085815260200190815260200160002060030160009054906101000a900473ffffffffffffffffffffffffffffffffffffffff1673ffffffffffffffffffffffffffffffffffffffff163373ffffffffffffffffffffffffffffffffffffffff1614806151155750600760008360001916600019168152602001908152602001600020600085815260200190815260200160002060020160009054906101000a900473ffffffffffffffffffffffffffffffffffffffff1673ffffffffffffffffffffffffffffffffffffffff163373ffffffffffffffffffffffffffffffffffffffff16145b1515615189576040517f08c379a00000000000000000000000000000000000000000000000000000000081526004018080602001828103825260198152602001807f53656e646572206d75737420626520617574686572697365640000000000000081525060200191505060405180910390fd5b600760008360001916600019168152602001908152602001600020600085815260200190815260200160002060010154905042600960008460001916600019168152602001908152602001600020600083815260200190815260200160002060060181905550615262565b6040517f08c379a00000000000000000000000000000000000000000000000000000000081526004018080602001828103825260058152602001807f4552524f5200000000000000000000000000000000000000000000000000000081525060200191505060405180910390fd5b5b600060096000846000191660001916815260200190815260200160002060008381526020019081526020016000206006015411156153d057600060096000846000191660001916815260200190815260200160002060008381526020019081526020016000206006015411156153cf57600a6000836000191660001916815260200190815260200160002060006009600085600019166000191681526020019081526020016000206000848152602001908152602001600020600401548152602001908152602001600020600960008460001916600019168152602001908152602001600020600083815260200190815260200160002090806001815401808255809150509060018203906000526020600020906007020160009091929091909150600082015481600001556001820154816001015560028201548160020155600382015481600301556004820154816004015560058201548160050155600682015481600601555050505b5b5050505050565b600080600080600080876040516020018082805190602001908083835b60208310151561541957805182526020820191506020810190506020830392506153f4565b6001836020036101000a0380198251168184511680821785525050505050509050019150506040516020818303038152906040526040518082805190602001908083835b602083101515615482578051825260208201915060208101905060208303925061545d565b6001836020036101000a0380198251168184511680821785525050505050509050019150506040518091039020905060076000826000191660001916815260200190815260200160002060008881526020019081526020016000206004015460076000836000191660001916815260200190815260200160002060008981526020019081526020016000206005015460076000846000191660001916815260200190815260200160002060008a81526020019081526020016000206007015460076000856000191660001916815260200190815260200160002060008b815260200190815260200160002060060160009054906101000a900460ff1660076000866000191660001916815260200190815260200160002060008c81526020019081526020016000206000015495509550955095509550509295509295909350565b600a602052826000526040600020602052816000526040600020818154811015156155ea57fe5b906000526020600020906007020160009250925050508060000154908060010154908060020154908060030154908060040154908060050154908060060154905087565b6002602052816000526040600020602052806000526040600020600091509150505481565b6009602052816000526040600020602052806000526040600020600091509150508060000154908060010154908060020154908060030154908060040154908060050154908060060154905087565b600060011515601160003373ffffffffffffffffffffffffffffffffffffffff1673ffffffffffffffffffffffffffffffffffffffff16815260200190815260200160002060009054906101000a900460ff16151514151561576c576040517f08c379a000000000000000000000000000000000000000000000000000000000815260040180806020018281038252600a8152602001807f4f6e6c792053414d4f530000000000000000000000000000000000000000000081525060200191505060405180910390fd5b600015156003600060405160200180807f655a41520000000000000000000000000000000000000000000000000000000081525060040190506040516020818303038152906040526040518082805190602001908083835b6020831015156157e957805182526020820191506020810190506020830392506157c4565b6001836020036101000a03801982511681845116808217855250505050505090500191505060405180910390206000191660001916815260200190815260200160002060040160009054906101000a900460ff1615151415156158b4576040517f08c379a00000000000000000000000000000000000000000000000000000000081526004018080602001828103825260178152602001807f5365637572697479206d7573742062652061637469766500000000000000000081525060200191505060405180910390fd5b60405160200180807f655a41520000000000000000000000000000000000000000000000000000000081525060040190506040516020818303038152906040526040518082805190602001908083835b6020831015156159295780518252602082019150602081019050602083039250615904565b6001836020036101000a038019825116818451168082178552505050505050905001915050604051809103902090506040805190810160405280600481526020017f655a41520000000000000000000000000000000000000000000000000000000081525060036000836000191660001916815260200190815260200160002060000190805190602001906159bf929190615c86565b5081600360008360001916600019168152602001908152602001600020600101819055506040805190810160405280601481526020017f536f75727468204166726963616e206552616e640000000000000000000000008152506003600083600019166000191681526020019081526020016000206002019080519060200190615a4a929190615c86565b506040805190810160405280600381526020017f5a415200000000000000000000000000000000000000000000000000000000008152506003600083600019166000191681526020019081526020016000206003019080519060200190615ab2929190615c86565b50600160036000836000191660001916815260200190815260200160002060040160006101000a81548160ff021916908315150217905550600b8060018154018082558091505090600182039060005260206000200160006040805190810160405280600481526020017f655a41520000000000000000000000000000000000000000000000000000000081525090919091509080519060200190615b58929190615c86565b5050816002600060405160200180807f655a41520000000000000000000000000000000000000000000000000000000081525060040190506040516020818303038152906040526040518082805190602001908083835b602083101515615bd45780518252602082019150602081019050602083039250615baf565b6001836020036101000a03801982511681845116808217855250505050505090500191505060405180910390206000191660001916815260200190815260200160002060008060009054906101000a900473ffffffffffffffffffffffffffffffffffffffff1673ffffffffffffffffffffffffffffffffffffffff1673ffffffffffffffffffffffffffffffffffffffff168152602001908152602001600020600082825401925050819055505050565b828054600181600116156101000203166002900490600052602060002090601f016020900481019282601f10615cc757805160ff1916838001178555615cf5565b82800160010185558215615cf5579182015b82811115615cf4578251825591602001919060010190615cd9565b5b509050615d029190615d06565b5090565b615d2891905b80821115615d24576000816000905550600101615d0c565b5090565b905600a165627a7a723058204395ef97792c1ab667425f680f421f65c06f1eecb010f42e742b53361f3705150029",
  "source": "pragma solidity ^0.4.23;\n\n/** @title Post Trade Contract. */\n/** @author Johan Pretorius */\n/** startDate 2018-06-06 */\n\ncontract PostTrade {\n\n    // ==========================================================================\n    // Modifiers : Modifiers are only added when used, the rest are commented out\n    // ==========================================================================\n    modifier onlyOwner{\n        require(msg.sender == owner, \"Only Owner\");\n        _;\n    }\n\n    modifier onlyOwnerOrAdmin{\n        require(msg.sender == owner || Admins[msg.sender] == true, \"Only Owner or Admin\");\n        _;\n    }\n\n    // modifier onlyCSD{\n    //     require(CSDs[msg.sender] == true);\n    //     _;\n    // }\n\n    // modifier onlyCustodian{\n    //     require(Custodians[msg.sender] == true);\n    //     _;\n    // }\n\n    modifier onlyCustodianOrTradeReportingParty {\n        require(Custodians[msg.sender] == true || TradeReportingParties[msg.sender] == true, \"Only Custodian Or TradeReportingParty\");\n        _;\n    }\n\n    // modifier onlyETME{\n    //     require(ETMEs[msg.sender] == true);\n    //     _;\n    // }\n\n    modifier onlyExchanges{\n        require(Exchanges[msg.sender] == true, \"Only Owner or Exchange\");\n        _;\n    }\n\n    modifier onlyIsinIssuanceContact {\n        require(msg.sender == isinIssuanceContractAddress, \"Only Isin Issuance\");\n        _;\n    }\n\n    modifier onlySAMOS{\n        require(SAMOSs[msg.sender] == true, \"Only SAMOS\");\n        _;\n    }\n\n    // modifier onlyTradeReportingParty{\n    //     require(TradeReportingParties[msg.sender] == true);\n    //     _;\n    // }\n\n    address private owner;\n    address public isinIssuanceContractAddress;\n\n    // ==========================================================================\n    // Constructor: Prepper for development, will need to be revised for Prod\n    // ==========================================================================\n    constructor () public {\n        owner = msg.sender;\n        Admins[0x51e63a2E221C782Bfc95f42Cd469D3780a479C15] = true;\n        CSDs[0x2AaB2c02Fc5415D23e91CE8Dc230D3A31793CFF8] = true;\n        Custodians[0x1c6B96De685481c2d9915b606D4AB1277949b4Bc] = true;\n        Custodians[0x2d14d5Ae5E54a22043B1eccD420494DAA9513e06] = true;\n        ETMEs[0x0ef2F9c8845da4c9c34BEf02C3213e0Da1306Da0] = true;\n        Exchanges[0x0ef2F9c8845da4c9c34BEf02C3213e0Da1306Da0] = true;\n        SAMOSs[0x3E7Eaa5Bc0ee36b4308B668050535d411a81585D] = true;\n        TradeReportingParties[0xED646f6B0cf23C2bfC0dC4117dA42Eb5CCf15ee4] = true;\n        TradeReportingParties[0xA1Ff8eE897ED92E62aE9F30061Ba5f012e804721] = true;\n    }\n\n    // ==========================================================================\n    // Mapping Table: Addresses <=> Roles\n    // ==========================================================================\n    // 0x51e63a2E221C782Bfc95f42Cd469D3780a479C15 --- Admin / Contract Owner\n    // 0xFb91a2395d9E49b89fcA3dca0959b6eB4Ea08a0B --- BUYER\n    // 0x8eA823e5951243bFA7f1Daad4703396260071fB9 --- SELLER\n    // 0xED646f6B0cf23C2bfC0dC4117dA42Eb5CCf15ee4 --- BUYER TRP\n    // 0xA1Ff8eE897ED92E62aE9F30061Ba5f012e804721 --- SELLER TRP\n    // 0x1c6B96De685481c2d9915b606D4AB1277949b4Bc --- BUYER CUSTODIAN\n    // 0x2d14d5Ae5E54a22043B1eccD420494DAA9513e06 --- SELLER CUSTODIAN\n    // 0x0ef2F9c8845da4c9c34BEf02C3213e0Da1306Da0 --- ETME (Or other matching engine)\n    // 0x3E7Eaa5Bc0ee36b4308B668050535d411a81585D --- SAMOS\n    // 0x2AaB2c02Fc5415D23e91CE8Dc230D3A31793CFF8 --- CSD\n    // ==========================================================================\n    // Ganache Mnemonic: latin bonus invest museum gate buffalo fever demand neglect entire session rail\n    // ==========================================================================\n\n    // ==========================================================================\n    // State transitions ( [Pre-State] => [Post-State] --- [Responsible Party] ):\n    // ==========================================================================\n    // 101 (Accepted) => 201 (Matched) --- N.A.\n    // 201 (Matched) => 201 AFFI (Confirmed) --- TRP\n    // 201 AFFI => 401 (Cancelled) --- TRP\n    // 201 AFFI => 251 (Matched Ready For Settlement) --- N.A.\n    // 251 => 301 (Overdue) --- CSD\n    // 301 => 601 (Settled) --- SAMOS\n    // 301 => 801 (Failed) --- CSD\n    // 251 => 512 (Ready for funding) --- N.A.\n    // 512 => 601 (Settled) --- SAMOS\n    // ==========================================================================\n    enum Statuses {\n        Acceped,                    // 0\n        Matched,                    // 1\n        Confirmed,                  // 2\n        Cancelled,                  // 3\n        MatchedReadyForSettlement,  // 4\n        Overdue,                    // 5\n        Settled,                    // 6\n        Failed,                     // 7\n        ReadyForFunding             // 8\n    }\n\n    // ==========================================================================\n    // Structs\n    // ==========================================================================\n    struct SecurityOld {\n        string isin;\n        uint issuedShareCap;\n        uint issuedDate;\n        address issuerAddress;\n        string issuerName;\n    }\n\n    struct Security {\n        string ISIN;\n        uint totalIssuedShareCap;\n        string longName;\n        string ticker;\n        bool active;\n    }\n\n    struct Trade {\n        uint tradeId;\n        uint buyLegId;\n        uint sellLegId;\n        uint tradeDate;\n        uint settlementDeadlineDate;\n        uint buyConfirmationDateTime;\n        uint saleConfirmationDateTime;\n    }\n\n    struct BuyLeg {\n        uint buyLegId;\n        uint tradeId;\n        // address investorAddress;\n        address tradeReportingPartyAddress;\n        address custodianId;\n        uint amount;\n        uint buyPrice;\n        Statuses status;\n        uint timestamp;\n    }\n\n    struct SaleLeg {\n        uint saleLegId;\n        uint tradeId;\n        // address investorAddress;\n        address tradeReportingPartyAddress;\n        address custodianId;\n        uint amount;\n        uint salePrice;\n        Statuses status;\n        uint timestamp;\n    }\n\n    // ==========================================================================\n    // Variables\n    // ==========================================================================\n\n    mapping(bytes32 => mapping (address => uint)) public balances;\n    mapping(bytes32 => Security) public securities;\n    \n    // Mappings for trades and trade legs\n    mapping(bytes32 => uint[]) public matchedBuysIdListForISIN;\n    mapping(bytes32 => mapping(uint => BuyLeg)) public buyLegForISINAndId;\n\n    mapping(bytes32 => uint[]) public matchedSalesIdListForISIN;\n    mapping(bytes32 => mapping(uint => SaleLeg)) public saleLegForISINAndId;\n\n    mapping(bytes32 => uint[]) public matchedTradesIdListForISIN;\n    mapping(bytes32 => mapping(uint => Trade)) public matchedTradesForISINandId;\n    mapping(bytes32 => mapping(uint => Trade[])) public confirmedTradesForISINandSettlementDate;\n\n    string[] public securitiesList;\n\n    // ==========================================================================\n    // Actors: Trade Reporting Party x2, ETME, SAMOS, CSD\n    // ==========================================================================\n    // Role Management for addresses\n    // ==========================================================================\n    mapping(address => bool) internal Admins;\n    mapping(address => bool) internal CSDs;\n    mapping(address => bool) internal Custodians;\n    mapping(address => bool) internal ETMEs;\n    mapping(address => bool) internal Exchanges;\n    mapping(address => bool) internal SAMOSs;\n    mapping(address => bool) internal TradeReportingParties;\n\n    // ==========================================================================\n    // Date stuff: Taken from Piper's library - https://github.com/pipermerriam/ethereum-datetime\n    // ==========================================================================\n    uint constant DAY_IN_SECONDS = 86400;\n    // uint constant YEAR_IN_SECONDS = 31536000;\n    // uint constant LEAP_YEAR_IN_SECONDS = 31622400;\n\n    // uint constant HOUR_IN_SECONDS = 3600;\n    // uint constant MINUTE_IN_SECONDS = 60;\n\n    // uint16 constant ORIGIN_YEAR = 1970;\n\n    // ==========================================================================\n    // Functions\n    // ==========================================================================\n\n    // TODO: Expand on ISIN issuance as per scrum board: https://trello.com/b/45EzfvGG/scrum-board\n    function issueSecurity (string _ISIN, uint _totalIssuedShareCap, string _longName, string _ticker) public onlyIsinIssuanceContact {\n        require (securities[keccak256(abi.encodePacked(_ISIN))].active == false, \"Security must be active\");\n        bytes32 keccakIsin = keccak256(abi.encodePacked(_ISIN));\n        securities[keccakIsin].ISIN = _ISIN;\n        securities[keccakIsin].totalIssuedShareCap = _totalIssuedShareCap;\n        securities[keccakIsin].longName = _longName;\n        securities[keccakIsin].ticker = _ticker;\n        securities[keccakIsin].active = true;\n\n        securitiesList.push(_ISIN);\n\n        balances[keccak256(abi.encodePacked(_ISIN))][owner] += _totalIssuedShareCap;\n    }\n\n    function issueCash (uint _totalIssuedShareCap) public onlySAMOS {\n        require (securities[keccak256(abi.encodePacked(\"eZAR\"))].active == false, \"Security must be active\");\n        bytes32 keccakIsin = keccak256(abi.encodePacked(\"eZAR\"));\n        securities[keccakIsin].ISIN = \"eZAR\";\n        securities[keccakIsin].totalIssuedShareCap = _totalIssuedShareCap;\n        securities[keccakIsin].longName = \"Sourth African eRand\";\n        securities[keccakIsin].ticker = \"ZAR\";\n        securities[keccakIsin].active = true;\n\n        securitiesList.push(\"eZAR\");\n\n        balances[keccak256(abi.encodePacked(\"eZAR\"))][owner] += _totalIssuedShareCap;\n    }\n\n    function topUp (string _ISIN, uint _amount) public onlyOwner {\n        require (securities[keccak256(abi.encodePacked(_ISIN))].active == true, \"Security must be active\");\n        securities[keccak256(abi.encodePacked(_ISIN))].totalIssuedShareCap += _amount;\n        balances[keccak256(abi.encodePacked(_ISIN))][owner] += _amount;\n    }\n\n    function reduceSecurities (string _ISIN, uint _amount) public onlyOwner {\n        require (securities[keccak256(abi.encodePacked(_ISIN))].active == true, \"Security must be active\");\n        require (securities[keccak256(abi.encodePacked(_ISIN))].totalIssuedShareCap >= _amount, \"Too big\");\n        securities[keccak256(abi.encodePacked(_ISIN))].totalIssuedShareCap -= _amount;\n        balances[keccak256(abi.encodePacked(_ISIN))][owner] -= _amount;\n    }\n\n    function topUpCash (uint _amount) public onlySAMOS {\n        require (securities[keccak256(abi.encodePacked(\"eZAR\"))].active == true, \"Security must be active\");\n        securities[keccak256(abi.encodePacked(\"eZAR\"))].totalIssuedShareCap += _amount;\n        balances[keccak256(abi.encodePacked(\"eZAR\"))][owner] += _amount;\n    }\n\n    function getSecurityDetails (string _ISIN) public view returns (string, uint, string, string, bool) {\n        return (\n            securities[keccak256(abi.encodePacked(_ISIN))].ISIN,\n            securities[keccak256(abi.encodePacked(_ISIN))].totalIssuedShareCap,\n            securities[keccak256(abi.encodePacked(_ISIN))].longName,\n            securities[keccak256(abi.encodePacked(_ISIN))].ticker,\n            securities[keccak256(abi.encodePacked(_ISIN))].active\n        );\n    }\n\n    function getSecuritiesListById (uint _index) public view returns (string, uint) {\n        return (securitiesList[_index], securitiesList.length);\n    }\n\n    function getBalanceOfSecAndAccount (string _ISIN, address _accountHolder) public view returns (uint) {\n        return balances[keccak256(abi.encodePacked(_ISIN))][_accountHolder];\n    }\n\n    function sendSecurity (string _ISIN, uint _amount, address _receiverAddress) public {\n        require (balances[keccak256(abi.encodePacked(_ISIN))][msg.sender] >= _amount, \"Too big\");\n        balances[keccak256(abi.encodePacked(_ISIN))][msg.sender] -= _amount;\n        balances[keccak256(abi.encodePacked(_ISIN))][_receiverAddress] += _amount;\n    }\n\n    // For On Markets the trade will come in already pre matched\n    function addPreMatchedTrade (\n        string _ISIN,\n        uint _buyLegId,\n        uint _saleLegId,\n        uint _tradeId,\n        uint _settlementDate, // Format YYYYMMDD\n        // address _buyerAddress,\n        // address _sellerAddress,\n        address _buyerTradeReportingPartyAddress,\n        address _sellerTradeReportingPartyAddress,\n        address _buyerCustodianId,\n        address _sellerCustodianId,\n        uint _amount,\n        uint _salePrice ) public onlyExchanges {\n\n        bytes32 _hash = keccak256(abi.encodePacked(_ISIN));\n        uint lastMidnightTime;\n\n        // Require that the ISIN is valid on the system\n        require(securities[_hash].active, \"Security must be active\");\n\n        // Find midnigth time from block.timestamp\n        lastMidnightTime = block.timestamp;\n        lastMidnightTime -= (lastMidnightTime % DAY_IN_SECONDS);\n\n        matchedBuysIdListForISIN[_hash].push(_buyLegId);\n        matchedSalesIdListForISIN[_hash].push(_saleLegId);\n        matchedTradesIdListForISIN[_hash].push(_tradeId);\n\n        buyLegForISINAndId[_hash][_buyLegId] = BuyLeg({\n            buyLegId: _buyLegId,\n            tradeId: _tradeId,\n            // investorAddress: _buyerAddress,\n            tradeReportingPartyAddress: _buyerTradeReportingPartyAddress,\n            custodianId: _buyerCustodianId,\n            amount: _amount,\n            buyPrice: _salePrice,\n            status: Statuses.Matched,\n            timestamp: block.timestamp\n        });\n\n        saleLegForISINAndId[_hash][_saleLegId] = SaleLeg({\n            saleLegId: _saleLegId,\n            tradeId: _tradeId,\n            // investorAddress: _sellerAddress,\n            tradeReportingPartyAddress: _sellerTradeReportingPartyAddress,\n            custodianId: _sellerCustodianId,\n            amount: _amount,\n            salePrice: _salePrice,\n            status: Statuses.Matched,\n            timestamp: block.timestamp\n        });\n\n        matchedTradesForISINandId[_hash][_tradeId] = Trade({\n            tradeId: _tradeId,\n            buyLegId: _buyLegId,\n            sellLegId: _saleLegId,\n            tradeDate: lastMidnightTime,\n            settlementDeadlineDate: _settlementDate,\n            buyConfirmationDateTime: 0,\n            saleConfirmationDateTime: 0\n        });\n\n    }\n\n    // Due to stack overflow errors the returns for buys and sales must be split into seperate functions as there are too many fields to return\n    function getBuysPartiesForIsin(string _ISIN, uint _legId) public view returns (uint, address, address) {  \n        bytes32 _hash = keccak256(abi.encodePacked(_ISIN));\n        return (\n            buyLegForISINAndId[_hash][_legId].buyLegId,\n            // buyLegForISINAndId[_hash][_legId].investorAddress,\n            buyLegForISINAndId[_hash][_legId].tradeReportingPartyAddress,\n            buyLegForISINAndId[_hash][_legId].custodianId\n        );\n    }\n\n    function getBuysForIsin(string _ISIN, uint _legId) public view returns (uint, uint, uint, Statuses, uint) {  \n        bytes32 _hash = keccak256(abi.encodePacked(_ISIN));\n        return (\n            buyLegForISINAndId[_hash][_legId].amount,\n            buyLegForISINAndId[_hash][_legId].buyPrice,\n            buyLegForISINAndId[_hash][_legId].timestamp,\n            buyLegForISINAndId[_hash][_legId].status,\n            buyLegForISINAndId[_hash][_legId].buyLegId\n        );\n    }\n\n    function getSalesPartiesForIsin(string _ISIN, uint _legId) public view returns (uint, address, address) {  \n        bytes32 _hash = keccak256(abi.encodePacked(_ISIN));\n        return (\n            saleLegForISINAndId[_hash][_legId].saleLegId,\n            //saleLegForISINAndId[_hash][_legId].investorAddress,\n            saleLegForISINAndId[_hash][_legId].tradeReportingPartyAddress,\n            saleLegForISINAndId[_hash][_legId].custodianId\n        );\n    }\n\n    function getSalesForIsin(string _ISIN, uint _index) public view returns (uint, uint, uint, Statuses, uint) {  \n        bytes32 _hash = keccak256(abi.encodePacked(_ISIN));\n        return (\n            saleLegForISINAndId[_hash][_index].amount,\n            saleLegForISINAndId[_hash][_index].salePrice,\n            saleLegForISINAndId[_hash][_index].timestamp,\n            saleLegForISINAndId[_hash][_index].status,\n            saleLegForISINAndId[_hash][_index].saleLegId\n        );\n    }\n\n    // _buyOrSaleIndicator { 0: BUY Leg, 1: SALE Leg }\n    function confirmTradeLeg (uint _buyOrSaleIndicator, uint _legId, string _ISIN) public onlyCustodianOrTradeReportingParty {\n        \n        bytes32 _hash = keccak256(abi.encodePacked(_ISIN));\n        uint _tradeId;\n        // Require that the ISIN is valid on the system\n        require(securities[_hash].active, \"Security must be active\");\n\n        if (_buyOrSaleIndicator == 0) {\n            // check that sender is authorised       \n            require(\n                msg.sender == buyLegForISINAndId[_hash][_legId].custodianId ||\n                msg.sender == buyLegForISINAndId[_hash][_legId].tradeReportingPartyAddress,\n                \"Sender not authorised\");\n\n            _tradeId = buyLegForISINAndId[_hash][_legId].tradeId;\n            matchedTradesForISINandId[_hash][_tradeId].buyConfirmationDateTime = block.timestamp;\n        } else if (_buyOrSaleIndicator == 1) {\n            // check that sender is authorised       \n            require(\n                msg.sender == saleLegForISINAndId[_hash][_legId].custodianId ||\n                msg.sender == saleLegForISINAndId[_hash][_legId].tradeReportingPartyAddress,\n                \"Sender must be autherised\");\n\n            _tradeId = saleLegForISINAndId[_hash][_legId].tradeId;\n            matchedTradesForISINandId[_hash][_tradeId].saleConfirmationDateTime = block.timestamp;\n        } else {\n            revert(\"ERROR\");\n        }\n\n        if (matchedTradesForISINandId[_hash][_tradeId].saleConfirmationDateTime > 0) {\n            if (matchedTradesForISINandId[_hash][_tradeId].saleConfirmationDateTime > 0) {\n                // Once a perfect match has been made, add the fully confirmed trade to a list of trades to be settled on settlement date.\n                confirmedTradesForISINandSettlementDate[_hash][matchedTradesForISINandId[_hash][_tradeId].settlementDeadlineDate].push(matchedTradesForISINandId[_hash][_tradeId]);\n                \n                //TODO: Add securities netting\n                //  Do reservation for securities \n                //    Decuct securities from seller\n                //    Add securities from buyer\n                //  Check if buyer has enough cash to do real-time settlement ??? <<<< Confirm with Ganesh / Rudi\n                //  Do cash calculation from \n                //    Decuct cash from seller CSDP\n                //    Add cash to buyer CSDP\n            }\n        }\n    }\n\n    function setIsinIssuanceContractAddress (address _isinIssuanceContractAddress) public onlyOwner {\n        isinIssuanceContractAddress = _isinIssuanceContractAddress;\n    }\n\n    // ==========================================================================\n    // Add/Remove Authorised Roles:\n    // ==========================================================================    \n    // Administrators will have elevated contract permissions, at present this \n    // will be crude, but in productionising the contract this will become\n    // a vital role.\n    // ==========================================================================\n    function addRemoveAdmin(address _adminAddress, bool _activeFlag) public onlyOwnerOrAdmin {\n        Admins[_adminAddress] = _activeFlag;\n    }\n\n    // function addRemoveCSD(address _CSDAddress, bool _activeFlag) public onlyOwnerOrAdmin {\n    //     CSDs[_CSDAddress] = _activeFlag;\n    // }\n\n    // function addRemoveCustodian(address _CustodianAddress, bool _activeFlag) public onlyOwnerOrAdmin {\n    //     Custodians[_CustodianAddress] = _activeFlag;\n    // }\n\n    // function addRemoveETME(address _ETMEAddress, bool _activeFlag) public onlyOwnerOrAdmin {\n    //     ETMEs[_ETMEAddress] = _activeFlag;\n    // }\n\n    function addRemoveExchange(address _ExchangeAddress, bool _activeFlag) public onlyOwnerOrAdmin {\n        Exchanges[_ExchangeAddress] = _activeFlag;\n    }\n\n    function addRemoveSAMOS(address _SAMOSAddress, bool _activeFlag) public onlyOwnerOrAdmin {\n        SAMOSs[_SAMOSAddress] = _activeFlag;\n    }\n\n    // function addRemoveTradeReportingParty(address _TradeReportingPartyAddress, bool _activeFlag) public onlyOwnerOrAdmin {\n    //     TradeReportingParties[_TradeReportingPartyAddress] = _activeFlag;\n    // }\n\n    // ==========================================================================\n    // Helper Console Scripts:\n    // ==========================================================================\n/* \n\nPostTrade.deployed().then(function(instance){return instance.issueSecurity(\"ZAE001\",1000,\"Anglo American PLC\",\"ANG\")});\nPostTrade.deployed().then(function(instance){return instance.getBalanceOfSecAndAccount(\"ZAE001\",\"0x51e63a2E221C782Bfc95f42Cd469D3780a479C15\")});\nPostTrade.deployed().then(function(instance){return instance.sendSecurity(\"ZAE001\",600,\"0x2AaB2c02Fc5415D23e91CE8Dc230D3A31793CFF8\")});\nPostTrade.deployed().then(function(instance){return instance.sendSecurity(\"ZAE001\",500,\"0x8ea823e5951243bfa7f1daad4703396260071fb9\", {from: \"0x2AaB2c02Fc5415D23e91CE8Dc230D3A31793CFF8\"})});\nPostTrade.deployed().then(function(instance){return instance.getSecurityDetails(\"ZAE001\")});\nPostTrade.deployed().then(function(instance){return instance.getSecuritiesListById(0)});\nPostTrade.deployed().then(function(instance){return instance.addPreMatchedTrade(\"ZAE001\",1234,4321,11223344,20180720,\"0xED646f6B0cf23C2bfC0dC4117dA42Eb5CCf15ee4\",\"0xA1Ff8eE897ED92E62aE9F30061Ba5f012e804721\",\"0x1c6B96De685481c2d9915b606D4AB1277949b4Bc\",\"0x2d14d5Ae5E54a22043B1eccD420494DAA9513e06\",100,4444,{from:\"0x0ef2F9c8845da4c9c34BEf02C3213e0Da1306Da0\"})});\n\n*/ \n    // ==========================================================================\n    // TRUFFLE MNEMONIC: latin bonus invest museum gate buffalo fever demand neglect entire session rail\n    // [ '0x51e63a2e221c782bfc95f42cd469d3780a479c15',\n    //   '0xfb91a2395d9e49b89fca3dca0959b6eb4ea08a0b',\n    //   '0x8ea823e5951243bfa7f1daad4703396260071fb9',\n    //   '0xed646f6b0cf23c2bfc0dc4117da42eb5ccf15ee4',\n    //   '0xa1ff8ee897ed92e62ae9f30061ba5f012e804721',\n    //   '0x1c6b96de685481c2d9915b606d4ab1277949b4bc',\n    //   '0x2d14d5ae5e54a22043b1eccd420494daa9513e06',\n    //   '0x0ef2f9c8845da4c9c34bef02c3213e0da1306da0',\n    //   '0x3e7eaa5bc0ee36b4308b668050535d411a81585d',\n    //   '0x2aab2c02fc5415d23e91ce8dc230d3a31793cff8' ]\n    // ==========================================================================\n    // *** END TRIAL CODE ***\n    // ==========================================================================\n}",
  "sourcePath": "/Users/johanpretorius/Dev/it_roadmap_2025/contracts/PostTrade.sol",
  "compiler": {
    "name": "solc",
    "version": "0.4.24+commit.e67f0147.Emscripten.clang"
  },
  "schemaVersion": "2.0.1",
  "updatedAt": "2018-08-15T11:24:59.511Z"
}