{
  "contractName": "PostTrade",
  "abi": [
    {
      "constant": true,
      "inputs": [
        {
          "name": "",
          "type": "bytes32"
        }
      ],
      "name": "securities",
      "outputs": [
        {
          "name": "ISIN",
          "type": "string"
        },
        {
          "name": "totalIssuedShareCap",
          "type": "uint256"
        },
        {
          "name": "longName",
          "type": "string"
        },
        {
          "name": "ticker",
          "type": "string"
        },
        {
          "name": "active",
          "type": "bool"
        }
      ],
      "payable": false,
      "stateMutability": "view",
      "type": "function"
    },
    {
      "constant": true,
      "inputs": [
        {
          "name": "",
          "type": "bytes32"
        },
        {
          "name": "",
          "type": "uint256"
        }
      ],
      "name": "matchedBuysIdListForISIN",
      "outputs": [
        {
          "name": "",
          "type": "uint256"
        }
      ],
      "payable": false,
      "stateMutability": "view",
      "type": "function"
    },
    {
      "constant": true,
      "inputs": [
        {
          "name": "",
          "type": "bytes32"
        },
        {
          "name": "",
          "type": "uint256"
        }
      ],
      "name": "buyLegForISINAndId",
      "outputs": [
        {
          "name": "buyLegId",
          "type": "uint256"
        },
        {
          "name": "tradeId",
          "type": "uint256"
        },
        {
          "name": "investorAddress",
          "type": "address"
        },
        {
          "name": "custodianId",
          "type": "address"
        },
        {
          "name": "amount",
          "type": "uint256"
        },
        {
          "name": "buyPrice",
          "type": "uint256"
        },
        {
          "name": "status",
          "type": "uint8"
        },
        {
          "name": "timestamp",
          "type": "uint256"
        }
      ],
      "payable": false,
      "stateMutability": "view",
      "type": "function"
    },
    {
      "constant": true,
      "inputs": [
        {
          "name": "",
          "type": "bytes32"
        },
        {
          "name": "",
          "type": "uint256"
        }
      ],
      "name": "matchedSalesIdListForISIN",
      "outputs": [
        {
          "name": "",
          "type": "uint256"
        }
      ],
      "payable": false,
      "stateMutability": "view",
      "type": "function"
    },
    {
      "constant": true,
      "inputs": [
        {
          "name": "",
          "type": "bytes32"
        },
        {
          "name": "",
          "type": "uint256"
        }
      ],
      "name": "matchedTradesIdListForISIN",
      "outputs": [
        {
          "name": "",
          "type": "uint256"
        }
      ],
      "payable": false,
      "stateMutability": "view",
      "type": "function"
    },
    {
      "constant": true,
      "inputs": [
        {
          "name": "",
          "type": "uint256"
        }
      ],
      "name": "securitiesList",
      "outputs": [
        {
          "name": "",
          "type": "string"
        }
      ],
      "payable": false,
      "stateMutability": "view",
      "type": "function"
    },
    {
      "constant": true,
      "inputs": [
        {
          "name": "",
          "type": "bytes32"
        },
        {
          "name": "",
          "type": "uint256"
        }
      ],
      "name": "saleLegForISINAndId",
      "outputs": [
        {
          "name": "saleLegId",
          "type": "uint256"
        },
        {
          "name": "tradeId",
          "type": "uint256"
        },
        {
          "name": "investorAddress",
          "type": "address"
        },
        {
          "name": "custodianId",
          "type": "address"
        },
        {
          "name": "amount",
          "type": "uint256"
        },
        {
          "name": "salePrice",
          "type": "uint256"
        },
        {
          "name": "status",
          "type": "uint8"
        },
        {
          "name": "timestamp",
          "type": "uint256"
        }
      ],
      "payable": false,
      "stateMutability": "view",
      "type": "function"
    },
    {
      "constant": true,
      "inputs": [
        {
          "name": "",
          "type": "bytes32"
        },
        {
          "name": "",
          "type": "address"
        }
      ],
      "name": "balances",
      "outputs": [
        {
          "name": "",
          "type": "uint256"
        }
      ],
      "payable": false,
      "stateMutability": "view",
      "type": "function"
    },
    {
      "constant": true,
      "inputs": [
        {
          "name": "",
          "type": "bytes32"
        },
        {
          "name": "",
          "type": "uint256"
        }
      ],
      "name": "matchedTradesForISINandId",
      "outputs": [
        {
          "name": "tradeId",
          "type": "uint256"
        },
        {
          "name": "buyLegId",
          "type": "uint256"
        },
        {
          "name": "sellLegId",
          "type": "uint256"
        },
        {
          "name": "tradeDate",
          "type": "uint256"
        },
        {
          "name": "settlementDeadlineDate",
          "type": "uint256"
        },
        {
          "name": "buyConfirmationDateTime",
          "type": "uint256"
        },
        {
          "name": "saleConfirmationDateTime",
          "type": "uint256"
        }
      ],
      "payable": false,
      "stateMutability": "view",
      "type": "function"
    },
    {
      "inputs": [],
      "payable": false,
      "stateMutability": "nonpayable",
      "type": "constructor"
    },
    {
      "constant": false,
      "inputs": [
        {
          "name": "_ISIN",
          "type": "string"
        },
        {
          "name": "_totalIssuedShareCap",
          "type": "uint256"
        },
        {
          "name": "_longName",
          "type": "string"
        },
        {
          "name": "_ticker",
          "type": "string"
        }
      ],
      "name": "issueSecurity",
      "outputs": [],
      "payable": false,
      "stateMutability": "nonpayable",
      "type": "function"
    },
    {
      "constant": false,
      "inputs": [
        {
          "name": "_ISIN",
          "type": "string"
        },
        {
          "name": "_amount",
          "type": "uint256"
        }
      ],
      "name": "topUp",
      "outputs": [],
      "payable": false,
      "stateMutability": "nonpayable",
      "type": "function"
    },
    {
      "constant": false,
      "inputs": [
        {
          "name": "_ISIN",
          "type": "string"
        },
        {
          "name": "_amount",
          "type": "uint256"
        }
      ],
      "name": "reduceSecurities",
      "outputs": [],
      "payable": false,
      "stateMutability": "nonpayable",
      "type": "function"
    },
    {
      "constant": true,
      "inputs": [
        {
          "name": "_ISIN",
          "type": "string"
        }
      ],
      "name": "getSecurityDetails",
      "outputs": [
        {
          "name": "",
          "type": "string"
        },
        {
          "name": "",
          "type": "uint256"
        },
        {
          "name": "",
          "type": "string"
        },
        {
          "name": "",
          "type": "string"
        },
        {
          "name": "",
          "type": "bool"
        }
      ],
      "payable": false,
      "stateMutability": "view",
      "type": "function"
    },
    {
      "constant": true,
      "inputs": [
        {
          "name": "_index",
          "type": "uint256"
        }
      ],
      "name": "getSecuritiesListById",
      "outputs": [
        {
          "name": "",
          "type": "string"
        },
        {
          "name": "",
          "type": "uint256"
        }
      ],
      "payable": false,
      "stateMutability": "view",
      "type": "function"
    },
    {
      "constant": true,
      "inputs": [],
      "name": "getSecuritiesListLength",
      "outputs": [
        {
          "name": "",
          "type": "uint256"
        }
      ],
      "payable": false,
      "stateMutability": "view",
      "type": "function"
    },
    {
      "constant": true,
      "inputs": [
        {
          "name": "_ISIN",
          "type": "string"
        },
        {
          "name": "_accountHolder",
          "type": "address"
        }
      ],
      "name": "getBalanceOfSecAndAccount",
      "outputs": [
        {
          "name": "",
          "type": "uint256"
        }
      ],
      "payable": false,
      "stateMutability": "view",
      "type": "function"
    },
    {
      "constant": false,
      "inputs": [
        {
          "name": "_ISIN",
          "type": "string"
        },
        {
          "name": "_amount",
          "type": "uint256"
        },
        {
          "name": "_receiverAddress",
          "type": "address"
        }
      ],
      "name": "sendSecurity",
      "outputs": [],
      "payable": false,
      "stateMutability": "nonpayable",
      "type": "function"
    },
    {
      "constant": false,
      "inputs": [
        {
          "name": "_ISIN",
          "type": "string"
        },
        {
          "name": "_buyLegId",
          "type": "uint256"
        },
        {
          "name": "_saleLegId",
          "type": "uint256"
        },
        {
          "name": "_tradeId",
          "type": "uint256"
        },
        {
          "name": "_settlementDate",
          "type": "uint256"
        },
        {
          "name": "_buyerAddress",
          "type": "address"
        },
        {
          "name": "_sellerAddress",
          "type": "address"
        },
        {
          "name": "_buyerCustodianId",
          "type": "address"
        },
        {
          "name": "_sellerCustodianId",
          "type": "address"
        },
        {
          "name": "_amount",
          "type": "uint256"
        },
        {
          "name": "_salePrice",
          "type": "uint256"
        }
      ],
      "name": "addPreMatchedTrade",
      "outputs": [],
      "payable": false,
      "stateMutability": "nonpayable",
      "type": "function"
    },
    {
      "constant": true,
      "inputs": [
        {
          "name": "_ISIN",
          "type": "string"
        },
        {
          "name": "_legId",
          "type": "uint256"
        }
      ],
      "name": "getBuysPartiesForIsin",
      "outputs": [
        {
          "name": "",
          "type": "uint256"
        },
        {
          "name": "",
          "type": "address"
        },
        {
          "name": "",
          "type": "address"
        }
      ],
      "payable": false,
      "stateMutability": "view",
      "type": "function"
    },
    {
      "constant": true,
      "inputs": [
        {
          "name": "_ISIN",
          "type": "string"
        },
        {
          "name": "_legId",
          "type": "uint256"
        }
      ],
      "name": "getBuysForIsin",
      "outputs": [
        {
          "name": "",
          "type": "uint256"
        },
        {
          "name": "",
          "type": "uint256"
        },
        {
          "name": "",
          "type": "uint256"
        },
        {
          "name": "",
          "type": "uint8"
        },
        {
          "name": "",
          "type": "uint256"
        }
      ],
      "payable": false,
      "stateMutability": "view",
      "type": "function"
    },
    {
      "constant": true,
      "inputs": [
        {
          "name": "_ISIN",
          "type": "string"
        },
        {
          "name": "_legId",
          "type": "uint256"
        }
      ],
      "name": "getSalesPartiesForIsin",
      "outputs": [
        {
          "name": "",
          "type": "uint256"
        },
        {
          "name": "",
          "type": "address"
        },
        {
          "name": "",
          "type": "address"
        }
      ],
      "payable": false,
      "stateMutability": "view",
      "type": "function"
    },
    {
      "constant": true,
      "inputs": [
        {
          "name": "_ISIN",
          "type": "string"
        },
        {
          "name": "_index",
          "type": "uint256"
        }
      ],
      "name": "getSalesForIsin",
      "outputs": [
        {
          "name": "",
          "type": "uint256"
        },
        {
          "name": "",
          "type": "uint256"
        },
        {
          "name": "",
          "type": "uint256"
        },
        {
          "name": "",
          "type": "uint8"
        },
        {
          "name": "",
          "type": "uint256"
        }
      ],
      "payable": false,
      "stateMutability": "view",
      "type": "function"
    },
    {
      "constant": true,
      "inputs": [
        {
          "name": "_ISIN",
          "type": "string"
        },
        {
          "name": "id",
          "type": "uint256"
        }
      ],
      "name": "getMatchedTrades",
      "outputs": [
        {
          "name": "",
          "type": "uint256"
        },
        {
          "name": "",
          "type": "uint256"
        },
        {
          "name": "",
          "type": "uint256"
        },
        {
          "name": "",
          "type": "uint256"
        },
        {
          "name": "",
          "type": "uint256"
        },
        {
          "name": "",
          "type": "uint256"
        }
      ],
      "payable": false,
      "stateMutability": "view",
      "type": "function"
    },
    {
      "constant": true,
      "inputs": [
        {
          "name": "_ISIN",
          "type": "string"
        }
      ],
      "name": "getMatchedTradesIDs",
      "outputs": [
        {
          "name": "",
          "type": "uint256[]"
        }
      ],
      "payable": false,
      "stateMutability": "view",
      "type": "function"
    },
    {
      "constant": false,
      "inputs": [
        {
          "name": "_buyOrSaleIndicator",
          "type": "uint256"
        },
        {
          "name": "_legId",
          "type": "uint256"
        },
        {
          "name": "_ISIN",
          "type": "string"
        },
        {
          "name": "_party",
          "type": "address"
        }
      ],
      "name": "confirmTradeLeg",
      "outputs": [],
      "payable": false,
      "stateMutability": "nonpayable",
      "type": "function"
    },
    {
      "constant": false,
      "inputs": [
        {
          "name": "_isinIssuanceContractAddress",
          "type": "address"
        }
      ],
      "name": "setIsinIssuanceContractAddress",
      "outputs": [],
      "payable": false,
      "stateMutability": "nonpayable",
      "type": "function"
    },
    {
      "constant": false,
      "inputs": [
        {
          "name": "_adminAddress",
          "type": "address"
        },
        {
          "name": "_activeFlag",
          "type": "bool"
        }
      ],
      "name": "addRemoveAdmin",
      "outputs": [],
      "payable": false,
      "stateMutability": "nonpayable",
      "type": "function"
    }
  ],
  "bytecode": "0x608060405234801561001057600080fd5b50336000806101000a81548173ffffffffffffffffffffffffffffffffffffffff021916908373ffffffffffffffffffffffffffffffffffffffff1602179055506001600b60007351e63a2e221c782bfc95f42cd469d3780a479c1573ffffffffffffffffffffffffffffffffffffffff1673ffffffffffffffffffffffffffffffffffffffff16815260200190815260200160002060006101000a81548160ff0219169083151502179055506151f3806100cc6000396000f30060806040526004361061015f576000357c0100000000000000000000000000000000000000000000000000000000900463ffffffff1680630bbb0dc3146101645780630d56fe571461033057806320ef031314610455578063232db21b14610502578063278325af146105b35780633271fe1d1461065057806336407b7f1461073d5780633e87e4aa1461078c5780634ac52ccb1461088b5780634bf03ba6146108fe5780634cdf22c3146109eb5780634e08b52d14610b7f5780634e1593e214610bce57806350a50cf114610c61578063548861b614610d475780637d60079e14610d7257806383ca719714610dc15780638b6412b114610e1057806390573c6d14610eb65780639fdbbb9c14610ef9578063a76a5fdf14610f6c578063c98fdf2a14611052578063cc1dcb7c14611110578063d021c8af146111ba578063d657145214611257578063d93d736114611308578063f3b879ed1461136d575b600080fd5b34801561017057600080fd5b506101cb600480360381019080803590602001908201803590602001908080601f01602080910402602001604051908101604052809392919081815260200183838082843782019150505050505091929192905050506113e6565b6040518080602001868152602001806020018060200185151515158152602001848103845289818151815260200191508051906020019080838360005b83811015610223578082015181840152602081019050610208565b50505050905090810190601f1680156102505780820380516001836020036101000a031916815260200191505b50848103835287818151815260200191508051906020019080838360005b8381101561028957808201518184015260208101905061026e565b50505050905090810190601f1680156102b65780820380516001836020036101000a031916815260200191505b50848103825286818151815260200191508051906020019080838360005b838110156102ef5780820151818401526020810190506102d4565b50505050905090810190601f16801561031c5780820380516001836020036101000a031916815260200191505b509850505050505050505060405180910390f35b34801561033c57600080fd5b50610453600480360381019080803590602001908201803590602001908080601f016020809104026020016040519081016040528093929190818152602001838380828437820191505050505050919291929080359060200190929190803590602001909291908035906020019092919080359060200190929190803573ffffffffffffffffffffffffffffffffffffffff169060200190929190803573ffffffffffffffffffffffffffffffffffffffff169060200190929190803573ffffffffffffffffffffffffffffffffffffffff169060200190929190803573ffffffffffffffffffffffffffffffffffffffff1690602001909291908035906020019092919080359060200190929190505050611a81565b005b34801561046157600080fd5b5061048060048036038101908080359060200190929190505050612041565b6040518080602001838152602001828103825284818151815260200191508051906020019080838360005b838110156104c65780820151818401526020810190506104ab565b50505050905090810190601f1680156104f35780820380516001836020036101000a031916815260200191505b50935050505060405180910390f35b34801561050e57600080fd5b50610573600480360381019080803590602001908201803590602001908080601f016020809104026020016040519081016040528093929190818152602001838380828437820191505050505050919291929080359060200190929190505050612109565b6040518086815260200185815260200184815260200183600881111561059557fe5b60ff1681526020018281526020019550505050505060405180910390f35b3480156105bf57600080fd5b5061063a600480360381019080803590602001908201803590602001908080601f0160208091040260200160405190810160405280939291908181526020018383808284378201915050505050509192919290803573ffffffffffffffffffffffffffffffffffffffff1690602001909291905050506122f5565b6040518082815260200191505060405180910390f35b34801561065c57600080fd5b506106c1600480360381019080803590602001908201803590602001908080601f016020809104026020016040519081016040528093929190818152602001838380828437820191505050505050919291929080359060200190929190505050612426565b604051808481526020018373ffffffffffffffffffffffffffffffffffffffff1673ffffffffffffffffffffffffffffffffffffffff1681526020018273ffffffffffffffffffffffffffffffffffffffff1673ffffffffffffffffffffffffffffffffffffffff168152602001935050505060405180910390f35b34801561074957600080fd5b5061078a600480360381019080803573ffffffffffffffffffffffffffffffffffffffff1690602001909291908035151590602001909291905050506125db565b005b34801561079857600080fd5b50610889600480360381019080803590602001908201803590602001908080601f016020809104026020016040519081016040528093929190818152602001838380828437820191505050505050919291929080359060200190929190803590602001908201803590602001908080601f0160208091040260200160405190810160405280939291908181526020018383808284378201915050505050509192919290803590602001908201803590602001908080601f01602080910402602001604051908101604052809392919081815260200183838082843782019150505050505091929192905050506126ec565b005b34801561089757600080fd5b506108fc600480360381019080803590602001908201803590602001908080601f016020809104026020016040519081016040528093929190818152602001838380828437820191505050505050919291929080359060200190929190505050612bb5565b005b34801561090a57600080fd5b5061096f600480360381019080803590602001908201803590602001908080601f016020809104026020016040519081016040528093929190818152602001838380828437820191505050505050919291929080359060200190929190505050612f6f565b604051808481526020018373ffffffffffffffffffffffffffffffffffffffff1673ffffffffffffffffffffffffffffffffffffffff1681526020018273ffffffffffffffffffffffffffffffffffffffff1673ffffffffffffffffffffffffffffffffffffffff168152602001935050505060405180910390f35b3480156109f757600080fd5b50610a1a6004803603810190808035600019169060200190929190505050613124565b6040518080602001868152602001806020018060200185151515158152602001848103845289818151815260200191508051906020019080838360005b83811015610a72578082015181840152602081019050610a57565b50505050905090810190601f168015610a9f5780820380516001836020036101000a031916815260200191505b50848103835287818151815260200191508051906020019080838360005b83811015610ad8578082015181840152602081019050610abd565b50505050905090810190601f168015610b055780820380516001836020036101000a031916815260200191505b50848103825286818151815260200191508051906020019080838360005b83811015610b3e578082015181840152602081019050610b23565b50505050905090810190601f168015610b6b5780820380516001836020036101000a031916815260200191505b509850505050505050505060405180910390f35b348015610b8b57600080fd5b50610bb860048036038101908080356000191690602001909291908035906020019092919050505061332f565b6040518082815260200191505060405180910390f35b348015610bda57600080fd5b50610c5f600480360381019080803590602001908201803590602001908080601f016020809104026020016040519081016040528093929190818152602001838380828437820191505050505050919291929080359060200190929190803573ffffffffffffffffffffffffffffffffffffffff16906020019092919050505061335f565b005b348015610c6d57600080fd5b50610c9a600480360381019080803560001916906020019092919080359060200190929190505050613701565b604051808981526020018881526020018773ffffffffffffffffffffffffffffffffffffffff1673ffffffffffffffffffffffffffffffffffffffff1681526020018673ffffffffffffffffffffffffffffffffffffffff1673ffffffffffffffffffffffffffffffffffffffff168152602001858152602001848152602001836008811115610d2657fe5b60ff1681526020018281526020019850505050505050505060405180910390f35b348015610d5357600080fd5b50610d5c6137a3565b6040518082815260200191505060405180910390f35b348015610d7e57600080fd5b50610dab6004803603810190808035600019169060200190929190803590602001909291905050506137b0565b6040518082815260200191505060405180910390f35b348015610dcd57600080fd5b50610dfa6004803603810190808035600019169060200190929190803590602001909291905050506137e0565b6040518082815260200191505060405180910390f35b348015610e1c57600080fd5b50610e3b60048036038101908080359060200190929190505050613810565b6040518080602001828103825283818151815260200191508051906020019080838360005b83811015610e7b578082015181840152602081019050610e60565b50505050905090810190601f168015610ea85780820380516001836020036101000a031916815260200191505b509250505060405180910390f35b348015610ec257600080fd5b50610ef7600480360381019080803573ffffffffffffffffffffffffffffffffffffffff1690602001909291905050506138cb565b005b348015610f0557600080fd5b50610f6a600480360381019080803590602001908201803590602001908080601f01602080910402602001604051908101604052809392919081815260200183838082843782019150505050505091929192908035906020019092919050505061396a565b005b348015610f7857600080fd5b50610fa5600480360381019080803560001916906020019092919080359060200190929190505050613ef1565b604051808981526020018881526020018773ffffffffffffffffffffffffffffffffffffffff1673ffffffffffffffffffffffffffffffffffffffff1681526020018673ffffffffffffffffffffffffffffffffffffffff1673ffffffffffffffffffffffffffffffffffffffff16815260200185815260200184815260200183600881111561103157fe5b60ff1681526020018281526020019850505050505050505060405180910390f35b34801561105e57600080fd5b506110b9600480360381019080803590602001908201803590602001908080601f0160208091040260200160405190810160405280939291908181526020018383808284378201915050505050509192919290505050613f93565b6040518080602001828103825283818151815260200191508051906020019060200280838360005b838110156110fc5780820151818401526020810190506110e1565b505050509050019250505060405180910390f35b34801561111c57600080fd5b50611181600480360381019080803590602001908201803590602001908080601f0160208091040260200160405190810160405280939291908181526020018383808284378201915050505050509192919290803590602001909291905050506140d4565b60405180878152602001868152602001858152602001848152602001838152602001828152602001965050505050505060405180910390f35b3480156111c657600080fd5b506112556004803603810190808035906020019092919080359060200190929190803590602001908201803590602001908080601f0160208091040260200160405190810160405280939291908181526020018383808284378201915050505050509192919290803573ffffffffffffffffffffffffffffffffffffffff1690602001909291905050506142e7565b005b34801561126357600080fd5b506112c8600480360381019080803590602001908201803590602001908080601f016020809104026020016040519081016040528093929190818152602001838380828437820191505050505050919291929080359060200190929190505050614ec2565b604051808681526020018581526020018481526020018360088111156112ea57fe5b60ff1681526020018281526020019550505050505060405180910390f35b34801561131457600080fd5b506113576004803603810190808035600019169060200190929190803573ffffffffffffffffffffffffffffffffffffffff1690602001909291905050506150ae565b6040518082815260200191505060405180910390f35b34801561137957600080fd5b506113a66004803603810190808035600019169060200190929190803590602001909291905050506150d3565b6040518088815260200187815260200186815260200185815260200184815260200183815260200182815260200197505050505050505060405180910390f35b60606000606080600060036000876040516020018082805190602001908083835b60208310151561142c5780518252602082019150602081019050602083039250611407565b6001836020036101000a0380198251168184511680821785525050505050509050019150506040516020818303038152906040526040518082805190602001908083835b6020831015156114955780518252602082019150602081019050602083039250611470565b6001836020036101000a03801982511681845116808217855250505050505090500191505060405180910390206000191660001916815260200190815260200160002060000160036000886040516020018082805190602001908083835b60208310151561151857805182526020820191506020810190506020830392506114f3565b6001836020036101000a0380198251168184511680821785525050505050509050019150506040516020818303038152906040526040518082805190602001908083835b602083101515611581578051825260208201915060208101905060208303925061155c565b6001836020036101000a0380198251168184511680821785525050505050509050019150506040518091039020600019166000191681526020019081526020016000206001015460036000896040516020018082805190602001908083835b60208310151561160557805182526020820191506020810190506020830392506115e0565b6001836020036101000a0380198251168184511680821785525050505050509050019150506040516020818303038152906040526040518082805190602001908083835b60208310151561166e5780518252602082019150602081019050602083039250611649565b6001836020036101000a038019825116818451168082178552505050505050905001915050604051809103902060001916600019168152602001908152602001600020600201600360008a6040516020018082805190602001908083835b6020831015156116f157805182526020820191506020810190506020830392506116cc565b6001836020036101000a0380198251168184511680821785525050505050509050019150506040516020818303038152906040526040518082805190602001908083835b60208310151561175a5780518252602082019150602081019050602083039250611735565b6001836020036101000a038019825116818451168082178552505050505050905001915050604051809103902060001916600019168152602001908152602001600020600301600360008b6040516020018082805190602001908083835b6020831015156117dd57805182526020820191506020810190506020830392506117b8565b6001836020036101000a0380198251168184511680821785525050505050509050019150506040516020818303038152906040526040518082805190602001908083835b6020831015156118465780518252602082019150602081019050602083039250611821565b6001836020036101000a03801982511681845116808217855250505050505090500191505060405180910390206000191660001916815260200190815260200160002060040160009054906101000a900460ff16848054600181600116156101000203166002900480601f01602080910402602001604051908101604052809291908181526020018280546001816001161561010002031660029004801561192f5780601f106119045761010080835404028352916020019161192f565b820191906000526020600020905b81548152906001019060200180831161191257829003601f168201915b50505050509450828054600181600116156101000203166002900480601f0160208091040260200160405190810160405280929190818152602001828054600181600116156101000203166002900480156119cb5780601f106119a0576101008083540402835291602001916119cb565b820191906000526020600020905b8154815290600101906020018083116119ae57829003601f168201915b50505050509250818054600181600116156101000203166002900480601f016020809104026020016040519081016040528092919081815260200182805460018160011615610100020316600290048015611a675780601f10611a3c57610100808354040283529160200191611a67565b820191906000526020600020905b815481529060010190602001808311611a4a57829003601f168201915b505050505091509450945094509450945091939590929450565b6000808c6040516020018082805190602001908083835b602083101515611abd5780518252602082019150602081019050602083039250611a98565b6001836020036101000a0380198251168184511680821785525050505050509050019150506040516020818303038152906040526040518082805190602001908083835b602083101515611b265780518252602082019150602081019050602083039250611b01565b6001836020036101000a0380198251168184511680821785525050505050509050019150506040518091039020915060036000836000191660001916815260200190815260200160002060040160009054906101000a900460ff161515611b8c57600080fd5b4290506201518081811515611b9d57fe5b06810390506004600083600019166000191681526020019081526020016000208c90806001815401808255809150509060018203906000526020600020016000909192909190915055506006600083600019166000191681526020019081526020016000208b90806001815401808255809150509060018203906000526020600020016000909192909190915055506008600083600019166000191681526020019081526020016000208a9080600181540180825580915050906001820390600052602060002001600090919290919091505550610100604051908101604052808d81526020018b81526020018973ffffffffffffffffffffffffffffffffffffffff1681526020018773ffffffffffffffffffffffffffffffffffffffff16815260200185815260200184815260200160016008811115611cdb57fe5b81526020014281525060056000846000191660001916815260200190815260200160002060008e8152602001908152602001600020600082015181600001556020820151816001015560408201518160020160006101000a81548173ffffffffffffffffffffffffffffffffffffffff021916908373ffffffffffffffffffffffffffffffffffffffff16021790555060608201518160030160006101000a81548173ffffffffffffffffffffffffffffffffffffffff021916908373ffffffffffffffffffffffffffffffffffffffff1602179055506080820151816004015560a0820151816005015560c08201518160060160006101000a81548160ff02191690836008811115611dea57fe5b021790555060e08201518160070155905050610100604051908101604052808c81526020018b81526020018873ffffffffffffffffffffffffffffffffffffffff1681526020018673ffffffffffffffffffffffffffffffffffffffff16815260200185815260200184815260200160016008811115611e6657fe5b81526020014281525060076000846000191660001916815260200190815260200160002060008d8152602001908152602001600020600082015181600001556020820151816001015560408201518160020160006101000a81548173ffffffffffffffffffffffffffffffffffffffff021916908373ffffffffffffffffffffffffffffffffffffffff16021790555060608201518160030160006101000a81548173ffffffffffffffffffffffffffffffffffffffff021916908373ffffffffffffffffffffffffffffffffffffffff1602179055506080820151816004015560a0820151816005015560c08201518160060160006101000a81548160ff02191690836008811115611f7557fe5b021790555060e0820151816007015590505060e0604051908101604052808b81526020018d81526020018c81526020018281526020018a815260200160008152602001600081525060096000846000191660001916815260200190815260200160002060008c8152602001908152602001600020600082015181600001556020820151816001015560408201518160020155606082015181600301556080820151816004015560a0820151816005015560c0820151816006015590505050505050505050505050505050565b60606000600a8381548110151561205457fe5b90600052602060002001600a80549050818054600181600116156101000203166002900480601f0160208091040260200160405190810160405280929190818152602001828054600181600116156101000203166002900480156120f95780601f106120ce576101008083540402835291602001916120f9565b820191906000526020600020905b8154815290600101906020018083116120dc57829003601f168201915b5050505050915091509150915091565b600080600080600080876040516020018082805190602001908083835b60208310151561214b5780518252602082019150602081019050602083039250612126565b6001836020036101000a0380198251168184511680821785525050505050509050019150506040516020818303038152906040526040518082805190602001908083835b6020831015156121b4578051825260208201915060208101905060208303925061218f565b6001836020036101000a0380198251168184511680821785525050505050509050019150506040518091039020905060056000826000191660001916815260200190815260200160002060008881526020019081526020016000206004015460056000836000191660001916815260200190815260200160002060008981526020019081526020016000206005015460056000846000191660001916815260200190815260200160002060008a81526020019081526020016000206007015460056000856000191660001916815260200190815260200160002060008b815260200190815260200160002060060160009054906101000a900460ff1660056000866000191660001916815260200190815260200160002060008c81526020019081526020016000206000015495509550955095509550509295509295909350565b600060026000846040516020018082805190602001908083835b602083101515612334578051825260208201915060208101905060208303925061230f565b6001836020036101000a0380198251168184511680821785525050505050509050019150506040516020818303038152906040526040518082805190602001908083835b60208310151561239d5780518252602082019150602081019050602083039250612378565b6001836020036101000a03801982511681845116808217855250505050505090500191505060405180910390206000191660001916815260200190815260200160002060008373ffffffffffffffffffffffffffffffffffffffff1673ffffffffffffffffffffffffffffffffffffffff16815260200190815260200160002054905092915050565b600080600080856040516020018082805190602001908083835b6020831015156124655780518252602082019150602081019050602083039250612440565b6001836020036101000a0380198251168184511680821785525050505050509050019150506040516020818303038152906040526040518082805190602001908083835b6020831015156124ce57805182526020820191506020810190506020830392506124a9565b6001836020036101000a03801982511681845116808217855250505050505090500191505060405180910390209050600560008260001916600019168152602001908152602001600020600086815260200190815260200160002060000154600560008360001916600019168152602001908152602001600020600087815260200190815260200160002060020160009054906101000a900473ffffffffffffffffffffffffffffffffffffffff16600560008460001916600019168152602001908152602001600020600088815260200190815260200160002060030160009054906101000a900473ffffffffffffffffffffffffffffffffffffffff16935093509350509250925092565b6000809054906101000a900473ffffffffffffffffffffffffffffffffffffffff1673ffffffffffffffffffffffffffffffffffffffff163373ffffffffffffffffffffffffffffffffffffffff161480612686575060011515600b60003373ffffffffffffffffffffffffffffffffffffffff1673ffffffffffffffffffffffffffffffffffffffff16815260200190815260200160002060009054906101000a900460ff161515145b151561269157600080fd5b80600b60008473ffffffffffffffffffffffffffffffffffffffff1673ffffffffffffffffffffffffffffffffffffffff16815260200190815260200160002060006101000a81548160ff0219169083151502179055505050565b6000600160009054906101000a900473ffffffffffffffffffffffffffffffffffffffff1673ffffffffffffffffffffffffffffffffffffffff163373ffffffffffffffffffffffffffffffffffffffff1614151561274a57600080fd5b6000151560036000876040516020018082805190602001908083835b60208310151561278b5780518252602082019150602081019050602083039250612766565b6001836020036101000a0380198251168184511680821785525050505050509050019150506040516020818303038152906040526040518082805190602001908083835b6020831015156127f457805182526020820191506020810190506020830392506127cf565b6001836020036101000a03801982511681845116808217855250505050505090500191505060405180910390206000191660001916815260200190815260200160002060040160009054906101000a900460ff16151514151561285657600080fd5b846040516020018082805190602001908083835b60208310151561288f578051825260208201915060208101905060208303925061286a565b6001836020036101000a0380198251168184511680821785525050505050509050019150506040516020818303038152906040526040518082805190602001908083835b6020831015156128f857805182526020820191506020810190506020830392506128d3565b6001836020036101000a03801982511681845116808217855250505050505090500191505060405180910390209050846003600083600019166000191681526020019081526020016000206000019080519060200190612959929190615122565b5083600360008360001916600019168152602001908152602001600020600101819055508260036000836000191660001916815260200190815260200160002060020190805190602001906129af929190615122565b508160036000836000191660001916815260200190815260200160002060030190805190602001906129e2929190615122565b50600160036000836000191660001916815260200190815260200160002060040160006101000a81548160ff021916908315150217905550600a859080600181540180825580915050906001820390600052602060002001600090919290919091509080519060200190612a57929190615122565b50508360026000876040516020018082805190602001908083835b602083101515612a975780518252602082019150602081019050602083039250612a72565b6001836020036101000a0380198251168184511680821785525050505050509050019150506040516020818303038152906040526040518082805190602001908083835b602083101515612b005780518252602082019150602081019050602083039250612adb565b6001836020036101000a03801982511681845116808217855250505050505090500191505060405180910390206000191660001916815260200190815260200160002060008060009054906101000a900473ffffffffffffffffffffffffffffffffffffffff1673ffffffffffffffffffffffffffffffffffffffff1673ffffffffffffffffffffffffffffffffffffffff168152602001908152602001600020600082825401925050819055505050505050565b6000809054906101000a900473ffffffffffffffffffffffffffffffffffffffff1673ffffffffffffffffffffffffffffffffffffffff163373ffffffffffffffffffffffffffffffffffffffff16141515612c1057600080fd5b6001151560036000846040516020018082805190602001908083835b602083101515612c515780518252602082019150602081019050602083039250612c2c565b6001836020036101000a0380198251168184511680821785525050505050509050019150506040516020818303038152906040526040518082805190602001908083835b602083101515612cba5780518252602082019150602081019050602083039250612c95565b6001836020036101000a03801982511681845116808217855250505050505090500191505060405180910390206000191660001916815260200190815260200160002060040160009054906101000a900460ff161515141515612d1c57600080fd5b8060036000846040516020018082805190602001908083835b602083101515612d5a5780518252602082019150602081019050602083039250612d35565b6001836020036101000a0380198251168184511680821785525050505050509050019150506040516020818303038152906040526040518082805190602001908083835b602083101515612dc35780518252602082019150602081019050602083039250612d9e565b6001836020036101000a038019825116818451168082178552505050505050905001915050604051809103902060001916600019168152602001908152602001600020600101600082825401925050819055508060026000846040516020018082805190602001908083835b602083101515612e545780518252602082019150602081019050602083039250612e2f565b6001836020036101000a0380198251168184511680821785525050505050509050019150506040516020818303038152906040526040518082805190602001908083835b602083101515612ebd5780518252602082019150602081019050602083039250612e98565b6001836020036101000a03801982511681845116808217855250505050505090500191505060405180910390206000191660001916815260200190815260200160002060008060009054906101000a900473ffffffffffffffffffffffffffffffffffffffff1673ffffffffffffffffffffffffffffffffffffffff1673ffffffffffffffffffffffffffffffffffffffff168152602001908152602001600020600082825401925050819055505050565b600080600080856040516020018082805190602001908083835b602083101515612fae5780518252602082019150602081019050602083039250612f89565b6001836020036101000a0380198251168184511680821785525050505050509050019150506040516020818303038152906040526040518082805190602001908083835b6020831015156130175780518252602082019150602081019050602083039250612ff2565b6001836020036101000a03801982511681845116808217855250505050505090500191505060405180910390209050600760008260001916600019168152602001908152602001600020600086815260200190815260200160002060000154600760008360001916600019168152602001908152602001600020600087815260200190815260200160002060020160009054906101000a900473ffffffffffffffffffffffffffffffffffffffff16600760008460001916600019168152602001908152602001600020600088815260200190815260200160002060030160009054906101000a900473ffffffffffffffffffffffffffffffffffffffff16935093509350509250925092565b6003602052806000526040600020600091509050806000018054600181600116156101000203166002900480601f0160208091040260200160405190810160405280929190818152602001828054600181600116156101000203166002900480156131d05780601f106131a5576101008083540402835291602001916131d0565b820191906000526020600020905b8154815290600101906020018083116131b357829003601f168201915b505050505090806001015490806002018054600181600116156101000203166002900480601f0160208091040260200160405190810160405280929190818152602001828054600181600116156101000203166002900480156132745780601f1061324957610100808354040283529160200191613274565b820191906000526020600020905b81548152906001019060200180831161325757829003601f168201915b505050505090806003018054600181600116156101000203166002900480601f0160208091040260200160405190810160405280929190818152602001828054600181600116156101000203166002900480156133125780601f106132e757610100808354040283529160200191613312565b820191906000526020600020905b8154815290600101906020018083116132f557829003601f168201915b5050505050908060040160009054906101000a900460ff16905085565b60046020528160005260406000208181548110151561334a57fe5b90600052602060002001600091509150505481565b8160026000856040516020018082805190602001908083835b60208310151561339d5780518252602082019150602081019050602083039250613378565b6001836020036101000a0380198251168184511680821785525050505050509050019150506040516020818303038152906040526040518082805190602001908083835b60208310151561340657805182526020820191506020810190506020830392506133e1565b6001836020036101000a03801982511681845116808217855250505050505090500191505060405180910390206000191660001916815260200190815260200160002060003373ffffffffffffffffffffffffffffffffffffffff1673ffffffffffffffffffffffffffffffffffffffff168152602001908152602001600020541015151561349457600080fd5b8160026000856040516020018082805190602001908083835b6020831015156134d257805182526020820191506020810190506020830392506134ad565b6001836020036101000a0380198251168184511680821785525050505050509050019150506040516020818303038152906040526040518082805190602001908083835b60208310151561353b5780518252602082019150602081019050602083039250613516565b6001836020036101000a03801982511681845116808217855250505050505090500191505060405180910390206000191660001916815260200190815260200160002060003373ffffffffffffffffffffffffffffffffffffffff1673ffffffffffffffffffffffffffffffffffffffff168152602001908152602001600020600082825403925050819055508160026000856040516020018082805190602001908083835b60208310151561360657805182526020820191506020810190506020830392506135e1565b6001836020036101000a0380198251168184511680821785525050505050509050019150506040516020818303038152906040526040518082805190602001908083835b60208310151561366f578051825260208201915060208101905060208303925061364a565b6001836020036101000a03801982511681845116808217855250505050505090500191505060405180910390206000191660001916815260200190815260200160002060008373ffffffffffffffffffffffffffffffffffffffff1673ffffffffffffffffffffffffffffffffffffffff16815260200190815260200160002060008282540192505081905550505050565b6005602052816000526040600020602052806000526040600020600091509150508060000154908060010154908060020160009054906101000a900473ffffffffffffffffffffffffffffffffffffffff16908060030160009054906101000a900473ffffffffffffffffffffffffffffffffffffffff16908060040154908060050154908060060160009054906101000a900460ff16908060070154905088565b6000600a80549050905090565b6006602052816000526040600020818154811015156137cb57fe5b90600052602060002001600091509150505481565b6008602052816000526040600020818154811015156137fb57fe5b90600052602060002001600091509150505481565b600a8181548110151561381f57fe5b906000526020600020016000915090508054600181600116156101000203166002900480601f0160208091040260200160405190810160405280929190818152602001828054600181600116156101000203166002900480156138c35780601f10613898576101008083540402835291602001916138c3565b820191906000526020600020905b8154815290600101906020018083116138a657829003601f168201915b505050505081565b6000809054906101000a900473ffffffffffffffffffffffffffffffffffffffff1673ffffffffffffffffffffffffffffffffffffffff163373ffffffffffffffffffffffffffffffffffffffff1614151561392657600080fd5b80600160006101000a81548173ffffffffffffffffffffffffffffffffffffffff021916908373ffffffffffffffffffffffffffffffffffffffff16021790555050565b6000809054906101000a900473ffffffffffffffffffffffffffffffffffffffff1673ffffffffffffffffffffffffffffffffffffffff163373ffffffffffffffffffffffffffffffffffffffff161415156139c557600080fd5b6001151560036000846040516020018082805190602001908083835b602083101515613a0657805182526020820191506020810190506020830392506139e1565b6001836020036101000a0380198251168184511680821785525050505050509050019150506040516020818303038152906040526040518082805190602001908083835b602083101515613a6f5780518252602082019150602081019050602083039250613a4a565b6001836020036101000a03801982511681845116808217855250505050505090500191505060405180910390206000191660001916815260200190815260200160002060040160009054906101000a900460ff161515141515613b3a576040517f08c379a00000000000000000000000000000000000000000000000000000000081526004018080602001828103825260038152602001807f534d41000000000000000000000000000000000000000000000000000000000081525060200191505060405180910390fd5b8060036000846040516020018082805190602001908083835b602083101515613b785780518252602082019150602081019050602083039250613b53565b6001836020036101000a0380198251168184511680821785525050505050509050019150506040516020818303038152906040526040518082805190602001908083835b602083101515613be15780518252602082019150602081019050602083039250613bbc565b6001836020036101000a0380198251168184511680821785525050505050509050019150506040518091039020600019166000191681526020019081526020016000206001015410151515613c9e576040517f08c379a00000000000000000000000000000000000000000000000000000000081526004018080602001828103825260028152602001807f544200000000000000000000000000000000000000000000000000000000000081525060200191505060405180910390fd5b8060036000846040516020018082805190602001908083835b602083101515613cdc5780518252602082019150602081019050602083039250613cb7565b6001836020036101000a0380198251168184511680821785525050505050509050019150506040516020818303038152906040526040518082805190602001908083835b602083101515613d455780518252602082019150602081019050602083039250613d20565b6001836020036101000a038019825116818451168082178552505050505050905001915050604051809103902060001916600019168152602001908152602001600020600101600082825403925050819055508060026000846040516020018082805190602001908083835b602083101515613dd65780518252602082019150602081019050602083039250613db1565b6001836020036101000a0380198251168184511680821785525050505050509050019150506040516020818303038152906040526040518082805190602001908083835b602083101515613e3f5780518252602082019150602081019050602083039250613e1a565b6001836020036101000a03801982511681845116808217855250505050505090500191505060405180910390206000191660001916815260200190815260200160002060008060009054906101000a900473ffffffffffffffffffffffffffffffffffffffff1673ffffffffffffffffffffffffffffffffffffffff1673ffffffffffffffffffffffffffffffffffffffff168152602001908152602001600020600082825403925050819055505050565b6007602052816000526040600020602052806000526040600020600091509150508060000154908060010154908060020160009054906101000a900473ffffffffffffffffffffffffffffffffffffffff16908060030160009054906101000a900473ffffffffffffffffffffffffffffffffffffffff16908060040154908060050154908060060160009054906101000a900460ff16908060070154905088565b606060086000836040516020018082805190602001908083835b602083101515613fd25780518252602082019150602081019050602083039250613fad565b6001836020036101000a0380198251168184511680821785525050505050509050019150506040516020818303038152906040526040518082805190602001908083835b60208310151561403b5780518252602082019150602081019050602083039250614016565b6001836020036101000a0380198251168184511680821785525050505050509050019150506040518091039020600019166000191681526020019081526020016000208054806020026020016040519081016040528092919081815260200182805480156140c857602002820191906000526020600020905b8154815260200190600101908083116140b4575b50505050509050919050565b6000806000806000806000886040516020018082805190602001908083835b60208310151561411857805182526020820191506020810190506020830392506140f3565b6001836020036101000a0380198251168184511680821785525050505050509050019150506040516020818303038152906040526040518082805190602001908083835b602083101515614181578051825260208201915060208101905060208303925061415c565b6001836020036101000a0380198251168184511680821785525050505050509050019150506040518091039020905060096000826000191660001916815260200190815260200160002060008981526020019081526020016000206000015460096000836000191660001916815260200190815260200160002060008a81526020019081526020016000206001015460096000846000191660001916815260200190815260200160002060008b81526020019081526020016000206002015460096000856000191660001916815260200190815260200160002060008c81526020019081526020016000206003015460096000866000191660001916815260200190815260200160002060008d81526020019081526020016000206005015460096000876000191660001916815260200190815260200160002060008e815260200190815260200160002060060154965096509650965096509650509295509295509295565b600080836040516020018082805190602001908083835b60208310151561432357805182526020820191506020810190506020830392506142fe565b6001836020036101000a0380198251168184511680821785525050505050509050019150506040516020818303038152906040526040518082805190602001908083835b60208310151561438c5780518252602082019150602081019050602083039250614367565b6001836020036101000a0380198251168184511680821785525050505050509050019150506040518091039020915060008614156144b857600560008360001916600019168152602001908152602001600020600086815260200190815260200160002060020160009054906101000a900473ffffffffffffffffffffffffffffffffffffffff1673ffffffffffffffffffffffffffffffffffffffff168373ffffffffffffffffffffffffffffffffffffffff1614151561444d57600080fd5b600560008360001916600019168152602001908152602001600020600086815260200190815260200160002060010154905042600960008460001916600019168152602001908152602001600020600083815260200190815260200160002060050181905550614624565b60018614156145b557600760008360001916600019168152602001908152602001600020600086815260200190815260200160002060020160009054906101000a900473ffffffffffffffffffffffffffffffffffffffff1673ffffffffffffffffffffffffffffffffffffffff168373ffffffffffffffffffffffffffffffffffffffff1614151561454a57600080fd5b600760008360001916600019168152602001908152602001600020600086815260200190815260200160002060010154905042600960008460001916600019168152602001908152602001600020600083815260200190815260200160002060060181905550614623565b6040517f08c379a00000000000000000000000000000000000000000000000000000000081526004018080602001828103825260038152602001807f455252000000000000000000000000000000000000000000000000000000000081525060200191505060405180910390fd5b5b60006009600084600019166000191681526020019081526020016000206000838152602001908152602001600020600601541115614eba5760006009600084600019166000191681526020019081526020016000206000838152602001908152602001600020600601541115614eb95760006009600084600019166000191681526020019081526020016000206000838152602001908152602001600020600401541415614eb75760056000836000191660001916815260200190815260200160002060006009600085600019166000191681526020019081526020016000206000848152602001908152602001600020600101548152602001908152602001600020600501546002600060405160200180807f655a41520000000000000000000000000000000000000000000000000000000081525060040190506040516020818303038152906040526040518082805190602001908083835b6020831015156147a4578051825260208201915060208101905060208303925061477f565b6001836020036101000a03801982511681845116808217855250505050505090500191505060405180910390206000191660001916815260200190815260200160002060006005600086600019166000191681526020019081526020016000206000600960008860001916600019168152602001908152602001600020600087815260200190815260200160002060010154815260200190815260200160002060020160009054906101000a900473ffffffffffffffffffffffffffffffffffffffff1673ffffffffffffffffffffffffffffffffffffffff1673ffffffffffffffffffffffffffffffffffffffff1681526020019081526020016000206000828254039250508190555060076000836000191660001916815260200190815260200160002060006009600085600019166000191681526020019081526020016000206000848152602001908152602001600020600201548152602001908152602001600020600501546002600060405160200180807f655a41520000000000000000000000000000000000000000000000000000000081525060040190506040516020818303038152906040526040518082805190602001908083835b6020831015156149875780518252602082019150602081019050602083039250614962565b6001836020036101000a03801982511681845116808217855250505050505090500191505060405180910390206000191660001916815260200190815260200160002060006007600086600019166000191681526020019081526020016000206000600960008860001916600019168152602001908152602001600020600087815260200190815260200160002060020154815260200190815260200160002060020160009054906101000a900473ffffffffffffffffffffffffffffffffffffffff1673ffffffffffffffffffffffffffffffffffffffff1673ffffffffffffffffffffffffffffffffffffffff16815260200190815260200160002060008282540192505081905550600760008360001916600019168152602001908152602001600020600060096000856000191660001916815260200190815260200160002060008481526020019081526020016000206002015481526020019081526020016000206004015460026000866040516020018082805190602001908083835b602083101515614b2e5780518252602082019150602081019050602083039250614b09565b6001836020036101000a0380198251168184511680821785525050505050509050019150506040516020818303038152906040526040518082805190602001908083835b602083101515614b975780518252602082019150602081019050602083039250614b72565b6001836020036101000a03801982511681845116808217855250505050505090500191505060405180910390206000191660001916815260200190815260200160002060006007600086600019166000191681526020019081526020016000206000600960008860001916600019168152602001908152602001600020600087815260200190815260200160002060020154815260200190815260200160002060020160009054906101000a900473ffffffffffffffffffffffffffffffffffffffff1673ffffffffffffffffffffffffffffffffffffffff1673ffffffffffffffffffffffffffffffffffffffff16815260200190815260200160002060008282540392505081905550600560008360001916600019168152602001908152602001600020600060096000856000191660001916815260200190815260200160002060008481526020019081526020016000206001015481526020019081526020016000206004015460026000866040516020018082805190602001908083835b602083101515614d3e5780518252602082019150602081019050602083039250614d19565b6001836020036101000a0380198251168184511680821785525050505050509050019150506040516020818303038152906040526040518082805190602001908083835b602083101515614da75780518252602082019150602081019050602083039250614d82565b6001836020036101000a03801982511681845116808217855250505050505090500191505060405180910390206000191660001916815260200190815260200160002060006005600086600019166000191681526020019081526020016000206000600960008860001916600019168152602001908152602001600020600087815260200190815260200160002060010154815260200190815260200160002060020160009054906101000a900473ffffffffffffffffffffffffffffffffffffffff1673ffffffffffffffffffffffffffffffffffffffff1673ffffffffffffffffffffffffffffffffffffffff16815260200190815260200160002060008282540192505081905550614eb8565b5b5b5b505050505050565b600080600080600080876040516020018082805190602001908083835b602083101515614f045780518252602082019150602081019050602083039250614edf565b6001836020036101000a0380198251168184511680821785525050505050509050019150506040516020818303038152906040526040518082805190602001908083835b602083101515614f6d5780518252602082019150602081019050602083039250614f48565b6001836020036101000a0380198251168184511680821785525050505050509050019150506040518091039020905060076000826000191660001916815260200190815260200160002060008881526020019081526020016000206004015460076000836000191660001916815260200190815260200160002060008981526020019081526020016000206005015460076000846000191660001916815260200190815260200160002060008a81526020019081526020016000206007015460076000856000191660001916815260200190815260200160002060008b815260200190815260200160002060060160009054906101000a900460ff1660076000866000191660001916815260200190815260200160002060008c81526020019081526020016000206000015495509550955095509550509295509295909350565b6002602052816000526040600020602052806000526040600020600091509150505481565b6009602052816000526040600020602052806000526040600020600091509150508060000154908060010154908060020154908060030154908060040154908060050154908060060154905087565b828054600181600116156101000203166002900490600052602060002090601f016020900481019282601f1061516357805160ff1916838001178555615191565b82800160010185558215615191579182015b82811115615190578251825591602001919060010190615175565b5b50905061519e91906151a2565b5090565b6151c491905b808211156151c05760008160009055506001016151a8565b5090565b905600a165627a7a7230582092be5c4b53b03ea34f46959d93a65999235b636264d3d1c59f0e2aa6ba5396920029",
  "source": "pragma solidity ^0.4.23;\n\n/** @title Post Trade Contract. */\n/** @author Johan Pretorius */\n/** startDate 2018-06-06 */\n\ncontract PostTrade {\n\n    // ==========================================================================\n    // Modifiers : Modifiers are only added when used, the rest are commented out\n    // ==========================================================================\n    modifier onlyOwner {\n        require(msg.sender == owner);\n        _;\n    }\n\n    modifier onlyOwnerOrAdmin {\n        require(msg.sender == owner || Admins[msg.sender] == true);\n        _;\n    }\n\n    // modifier onlyCSD{\n    //     require(CSDs[msg.sender] == true);\n    //     _;\n    // }\n\n    // modifier onlyCustodian{\n    //     require(Custodians[msg.sender] == true);\n    //     _;\n    // }\n\n    // modifier onlyCustodianOrTradeReportingParty {\n    //     require(Custodians[msg.sender] == true || TradeReportingParties[msg.sender] == true, \"OC\");\n    //     _;\n    // }\n\n    // modifier onlyETME{\n    //     require(ETMEs[msg.sender] == true);\n    //     _;\n    // }\n\n    // modifier onlyExchanges{\n    //     require(Exchanges[msg.sender] == true, \"OE\");\n    //     _;\n    // }\n\n    modifier onlyIsinIssuanceContact {\n        require(msg.sender == isinIssuanceContractAddress);\n        _;\n    }\n\n    // modifier onlySAMOS{\n    //     require(SAMOSs[msg.sender] == true);\n    //     _;\n    // }\n\n    // modifier onlyTradeReportingParty{\n    //     require(TradeReportingParties[msg.sender] == true);\n    //     _;\n    // }\n\n    address private owner;\n    address private isinIssuanceContractAddress;\n\n    // ==========================================================================\n    // Constructor: Prepper for development, will need to be revised for Prod\n    // ==========================================================================\n    constructor () public {\n        owner = msg.sender;\n        Admins[0x51e63a2E221C782Bfc95f42Cd469D3780a479C15] = true;\n        // CSDs[0x2AaB2c02Fc5415D23e91CE8Dc230D3A31793CFF8] = true;\n        // Custodians[0x1c6B96De685481c2d9915b606D4AB1277949b4Bc] = true;\n        // Custodians[0x2d14d5Ae5E54a22043B1eccD420494DAA9513e06] = true;\n        // ETMEs[0x0ef2F9c8845da4c9c34BEf02C3213e0Da1306Da0] = true;\n        // Exchanges[0x0ef2F9c8845da4c9c34BEf02C3213e0Da1306Da0] = true;\n        // SAMOSs[0x3E7Eaa5Bc0ee36b4308B668050535d411a81585D] = true;\n        // TradeReportingParties[0xED646f6B0cf23C2bfC0dC4117dA42Eb5CCf15ee4] = true;\n        // TradeReportingParties[0xA1Ff8eE897ED92E62aE9F30061Ba5f012e804721] = true;\n    }\n\n    // ==========================================================================\n    // Mapping Table: Addresses <=> Roles\n    // ==========================================================================\n    // 0x51e63a2E221C782Bfc95f42Cd469D3780a479C15 --- Admin / Contract Owner\n    // 0xFb91a2395d9E49b89fcA3dca0959b6eB4Ea08a0B --- BUYER\n    // 0x8eA823e5951243bFA7f1Daad4703396260071fB9 --- SELLER\n    // 0xED646f6B0cf23C2bfC0dC4117dA42Eb5CCf15ee4 --- BUYER TRP\n    // 0xA1Ff8eE897ED92E62aE9F30061Ba5f012e804721 --- SELLER TRP\n    // 0x1c6B96De685481c2d9915b606D4AB1277949b4Bc --- BUYER CUSTODIAN\n    // 0x2d14d5Ae5E54a22043B1eccD420494DAA9513e06 --- SELLER CUSTODIAN\n    // 0x0ef2F9c8845da4c9c34BEf02C3213e0Da1306Da0 --- ETME (Or other matching engine)\n    // 0x3E7Eaa5Bc0ee36b4308B668050535d411a81585D --- SAMOS\n    // 0x2AaB2c02Fc5415D23e91CE8Dc230D3A31793CFF8 --- CSD\n    // ==========================================================================\n    // Ganache Mnemonic: latin bonus invest museum gate buffalo fever demand neglect entire session rail\n    // ==========================================================================\n\n    // ==========================================================================\n    // State transitions ( [Pre-State] => [Post-State] --- [Responsible Party] ):\n    // ==========================================================================\n    // 101 (Accepted) => 201 (Matched) --- N.A.\n    // 201 (Matched) => 201 AFFI (Confirmed) --- TRP\n    // 201 AFFI => 401 (Cancelled) --- TRP\n    // 201 AFFI => 251 (Matched Ready For Settlement) --- N.A.\n    // 251 => 301 (Overdue) --- CSD\n    // 301 => 601 (Settled) --- SAMOS\n    // 301 => 801 (Failed) --- CSD\n    // 251 => 512 (Ready for funding) --- N.A.\n    // 512 => 601 (Settled) --- SAMOS\n    // ==========================================================================\n    enum Statuses {\n        Acceped,                    // 0\n        Matched,                    // 1\n        Confirmed,                  // 2\n        Cancelled,                  // 3\n        MatchedReadyForSettlement,  // 4\n        Overdue,                    // 5\n        Settled,                    // 6\n        Failed,                     // 7\n        ReadyForFunding             // 8\n    }\n\n    // ==========================================================================\n    // Structs\n    // ==========================================================================\n    // struct SecurityOld {\n    //     string isin;\n    //     uint issuedShareCap;\n    //     uint issuedDate;\n    //     address issuerAddress;\n    //     string issuerName;\n    // }\n\n    struct Security {\n        string ISIN;\n        uint totalIssuedShareCap;\n        string longName;\n        string ticker;\n        bool active;\n    }\n\n    struct Trade {\n        uint tradeId;\n        uint buyLegId;\n        uint sellLegId;\n        uint tradeDate;\n        uint settlementDeadlineDate;\n        uint buyConfirmationDateTime;\n        uint saleConfirmationDateTime;\n    }\n\n    struct BuyLeg {\n        uint buyLegId;\n        uint tradeId;\n        address investorAddress;\n        // address tradeReportingPartyAddress;\n        address custodianId;\n        uint amount;\n        uint buyPrice;\n        Statuses status;\n        uint timestamp;\n    }\n\n    struct SaleLeg {\n        uint saleLegId;\n        uint tradeId;\n        address investorAddress;\n        // address tradeReportingPartyAddress;\n        address custodianId;\n        uint amount;\n        uint salePrice;\n        Statuses status;\n        uint timestamp;\n    }\n\n    // ==========================================================================\n    // Variables\n    // ==========================================================================\n\n    mapping(bytes32 => mapping (address => uint)) public balances;\n    mapping(bytes32 => Security) public securities;\n    \n    // Mappings for trades and trade legs\n    mapping(bytes32 => uint[]) public matchedBuysIdListForISIN;\n    mapping(bytes32 => mapping(uint => BuyLeg)) public buyLegForISINAndId;\n\n    mapping(bytes32 => uint[]) public matchedSalesIdListForISIN;\n    mapping(bytes32 => mapping(uint => SaleLeg)) public saleLegForISINAndId;\n\n    mapping(bytes32 => uint[]) public matchedTradesIdListForISIN;\n    mapping(bytes32 => mapping(uint => Trade)) public matchedTradesForISINandId;\n    //mapping(bytes32 => mapping(uint => Trade[])) public confirmedTradesForISINandSettlementDate;\n\n    string[] public securitiesList;\n\n    // ==========================================================================\n    // Actors: Trade Reporting Party x2, ETME, SAMOS, CSD\n    // ==========================================================================\n    // Role Management for addresses\n    // ==========================================================================\n    mapping(address => bool) internal Admins;\n    // mapping(address => bool) internal CSDs;\n    // mapping(address => bool) internal Custodians;\n    // mapping(address => bool) internal ETMEs;\n    // mapping(address => bool) internal Exchanges;\n    // mapping(address => bool) internal SAMOSs;\n    // mapping(address => bool) internal TradeReportingParties;\n\n    // ==========================================================================\n    // Date stuff: Taken from Piper's library - https://github.com/pipermerriam/ethereum-datetime\n    // ==========================================================================\n    uint constant DAY_IN_SECONDS = 86400;\n    // uint constant YEAR_IN_SECONDS = 31536000;\n    // uint constant LEAP_YEAR_IN_SECONDS = 31622400;\n\n    // uint constant HOUR_IN_SECONDS = 3600;\n    // uint constant MINUTE_IN_SECONDS = 60;\n\n    // uint16 constant ORIGIN_YEAR = 1970;\n\n    // ==========================================================================\n    // Functions\n    // ==========================================================================\n\n    // TODO: Expand on ISIN issuance as per scrum board: https://trello.com/b/45EzfvGG/scrum-board\n    function issueSecurity (string _ISIN, uint _totalIssuedShareCap, string _longName, string _ticker) public onlyIsinIssuanceContact {\n        require (securities[keccak256(abi.encodePacked(_ISIN))].active == false);\n        bytes32 keccakIsin = keccak256(abi.encodePacked(_ISIN));\n        securities[keccakIsin].ISIN = _ISIN;\n        securities[keccakIsin].totalIssuedShareCap = _totalIssuedShareCap;\n        securities[keccakIsin].longName = _longName;\n        securities[keccakIsin].ticker = _ticker;\n        securities[keccakIsin].active = true;\n\n        securitiesList.push(_ISIN);\n\n        balances[keccak256(abi.encodePacked(_ISIN))][owner] += _totalIssuedShareCap;\n    }\n\n    // function issueCash (uint _totalIssuedShareCap) public onlySAMOS {\n    //     require (securities[keccak256(abi.encodePacked(\"eZAR\"))].active == false);\n    //     bytes32 keccakIsin = keccak256(abi.encodePacked(\"eZAR\"));\n    //     securities[keccakIsin].ISIN = \"eZAR\";\n    //     securities[keccakIsin].totalIssuedShareCap = _totalIssuedShareCap;\n    //     securities[keccakIsin].longName = \"Sourth African eRand\";\n    //     securities[keccakIsin].ticker = \"ZAR\";\n    //     securities[keccakIsin].active = true;\n\n    //     securitiesList.push(\"eZAR\");\n\n    //     balances[keccak256(abi.encodePacked(\"eZAR\"))][msg.sender] += _totalIssuedShareCap;\n    // }\n\n    function topUp (string _ISIN, uint _amount) public onlyOwner {\n        require (securities[keccak256(abi.encodePacked(_ISIN))].active == true);\n        securities[keccak256(abi.encodePacked(_ISIN))].totalIssuedShareCap += _amount;\n        balances[keccak256(abi.encodePacked(_ISIN))][owner] += _amount;\n    }\n\n    // to save gas cost, rather send securities to 0x0 to burn them.\n    function reduceSecurities (string _ISIN, uint _amount) public onlyOwner {\n        require (securities[keccak256(abi.encodePacked(_ISIN))].active == true, \"SMA\");\n        require (securities[keccak256(abi.encodePacked(_ISIN))].totalIssuedShareCap >= _amount, \"TB\");\n        securities[keccak256(abi.encodePacked(_ISIN))].totalIssuedShareCap -= _amount;\n        balances[keccak256(abi.encodePacked(_ISIN))][owner] -= _amount;\n    }\n\n    // *** DEPRECATED AS CASH IS TREATED AS A SECURITY *** //\n    // function topUpCash (uint _amount) public onlySAMOS {\n    //     require (securities[keccak256(abi.encodePacked(\"eZAR\"))].active == true);\n    //     securities[keccak256(abi.encodePacked(\"eZAR\"))].totalIssuedShareCap += _amount;\n    //     balances[keccak256(abi.encodePacked(\"eZAR\"))][owner] += _amount;\n    // }\n\n    function getSecurityDetails (string _ISIN) public view returns (string, uint, string, string, bool) {\n        return (\n            securities[keccak256(abi.encodePacked(_ISIN))].ISIN,\n            securities[keccak256(abi.encodePacked(_ISIN))].totalIssuedShareCap,\n            securities[keccak256(abi.encodePacked(_ISIN))].longName,\n            securities[keccak256(abi.encodePacked(_ISIN))].ticker,\n            securities[keccak256(abi.encodePacked(_ISIN))].active\n        );\n    }\n\n    function getSecuritiesListById (uint _index) public view returns (string, uint) {\n        return (securitiesList[_index], securitiesList.length);\n    }\n\n    function getSecuritiesListLength() public view returns (uint) {\n        return (securitiesList.length);\n    }\n\n    function getBalanceOfSecAndAccount (string _ISIN, address _accountHolder) public view returns (uint) {\n        return balances[keccak256(abi.encodePacked(_ISIN))][_accountHolder];\n    }\n\n    function sendSecurity (string _ISIN, uint _amount, address _receiverAddress) public {\n        require (balances[keccak256(abi.encodePacked(_ISIN))][msg.sender] >= _amount);\n        balances[keccak256(abi.encodePacked(_ISIN))][msg.sender] -= _amount;\n        balances[keccak256(abi.encodePacked(_ISIN))][_receiverAddress] += _amount;\n    }\n\n    // For On Markets the trade will come in already pre matched\n    function addPreMatchedTrade (\n        string _ISIN,\n        uint _buyLegId,\n        uint _saleLegId,\n        uint _tradeId,\n        uint _settlementDate, // Format YYYYMMDD or 0 for instant (T+0) settlement\n        address _buyerAddress,\n        address _sellerAddress,\n        address _buyerCustodianId,\n        address _sellerCustodianId,\n        uint _amount,\n        // uint _salePrice ) public onlyExchanges {\n        uint _salePrice ) public {\n\n        bytes32 _hash = keccak256(abi.encodePacked(_ISIN));\n        uint lastMidnightTime;\n\n        // Require that the ISIN is valid on the system\n        require(securities[_hash].active);\n\n        // Find midnigth time from block.timestamp\n        lastMidnightTime = block.timestamp;\n        lastMidnightTime -= (lastMidnightTime % DAY_IN_SECONDS);\n\n        matchedBuysIdListForISIN[_hash].push(_buyLegId);\n        matchedSalesIdListForISIN[_hash].push(_saleLegId);\n        matchedTradesIdListForISIN[_hash].push(_tradeId);\n\n        buyLegForISINAndId[_hash][_buyLegId] = BuyLeg({\n            buyLegId: _buyLegId,\n            tradeId: _tradeId,\n            investorAddress: _buyerAddress,\n            // tradeReportingPartyAddress: _buyerTradeReportingPartyAddress,\n            custodianId: _buyerCustodianId,\n            amount: _amount,\n            buyPrice: _salePrice,\n            status: Statuses.Matched,\n            timestamp: block.timestamp\n        });\n\n        saleLegForISINAndId[_hash][_saleLegId] = SaleLeg({\n            saleLegId: _saleLegId,\n            tradeId: _tradeId,\n            investorAddress: _sellerAddress,\n            // tradeReportingPartyAddress: _sellerTradeReportingPartyAddress,\n            custodianId: _sellerCustodianId,\n            amount: _amount,\n            salePrice: _salePrice,\n            status: Statuses.Matched,\n            timestamp: block.timestamp\n        });\n\n        matchedTradesForISINandId[_hash][_tradeId] = Trade({\n            tradeId: _tradeId,\n            buyLegId: _buyLegId,\n            sellLegId: _saleLegId,\n            tradeDate: lastMidnightTime,\n            settlementDeadlineDate: _settlementDate,\n            buyConfirmationDateTime: 0,\n            saleConfirmationDateTime: 0\n        });\n\n    }\n\n    // Due to stack overflow errors the returns for buys and sales must be split into seperate functions as there are too many fields to return\n    function getBuysPartiesForIsin(string _ISIN, uint _legId) public view returns (uint, address, address) {  \n        bytes32 _hash = keccak256(abi.encodePacked(_ISIN));\n        return (\n            buyLegForISINAndId[_hash][_legId].buyLegId,\n            buyLegForISINAndId[_hash][_legId].investorAddress,\n            // buyLegForISINAndId[_hash][_legId].tradeReportingPartyAddress,\n            buyLegForISINAndId[_hash][_legId].custodianId\n        );\n    }\n\n    function getBuysForIsin(string _ISIN, uint _legId) public view returns (uint, uint, uint, Statuses, uint) {  \n        bytes32 _hash = keccak256(abi.encodePacked(_ISIN));\n        return (\n            buyLegForISINAndId[_hash][_legId].amount,\n            buyLegForISINAndId[_hash][_legId].buyPrice,\n            buyLegForISINAndId[_hash][_legId].timestamp,\n            buyLegForISINAndId[_hash][_legId].status,\n            buyLegForISINAndId[_hash][_legId].buyLegId\n        );\n    }\n\n    function getSalesPartiesForIsin(string _ISIN, uint _legId) public view returns (uint, address, address) {  \n        bytes32 _hash = keccak256(abi.encodePacked(_ISIN));\n        return (\n            saleLegForISINAndId[_hash][_legId].saleLegId,\n            saleLegForISINAndId[_hash][_legId].investorAddress,\n            // saleLegForISINAndId[_hash][_legId].tradeReportingPartyAddress,\n            saleLegForISINAndId[_hash][_legId].custodianId\n        );\n    }\n\n    function getSalesForIsin(string _ISIN, uint _index) public view returns (uint, uint, uint, Statuses, uint) {  \n        bytes32 _hash = keccak256(abi.encodePacked(_ISIN));\n        return (\n            saleLegForISINAndId[_hash][_index].amount,\n            saleLegForISINAndId[_hash][_index].salePrice,\n            saleLegForISINAndId[_hash][_index].timestamp,\n            saleLegForISINAndId[_hash][_index].status,\n            saleLegForISINAndId[_hash][_index].saleLegId\n        );\n    }\n\n    function getMatchedTrades (string _ISIN, uint id) public view returns (uint, uint, uint, uint, uint, uint) {\n        bytes32 _hash = keccak256(abi.encodePacked(_ISIN));\n\n        return (\n            matchedTradesForISINandId[_hash][id].tradeId,\n            matchedTradesForISINandId[_hash][id].buyLegId,\n            matchedTradesForISINandId[_hash][id].sellLegId,\n            matchedTradesForISINandId[_hash][id].tradeDate,\n            matchedTradesForISINandId[_hash][id].buyConfirmationDateTime,\n            matchedTradesForISINandId[_hash][id].saleConfirmationDateTime\n        );\n    }\n\n    // function getMatchedTradesLength (string _ISIN) public view returns (uint) {\n    //     return matchedTradesIdListForISIN[keccak256(abi.encodePacked(_ISIN))].length;\n    // }\n\n    function getMatchedTradesIDs (string _ISIN) public view returns (uint[]) {\n        return matchedTradesIdListForISIN[keccak256(abi.encodePacked(_ISIN))];\n    }\n\n    // _buyOrSaleIndicator { 0: BUY Leg, 1: SALE Leg }\n    // function confirmTradeLeg (uint _buyOrSaleIndicator, uint _legId, string _ISIN) public onlyCustodianOrTradeReportingParty {\n    function confirmTradeLeg (uint _buyOrSaleIndicator, uint _legId, string _ISIN, address _party) public {\n        \n        bytes32 _hash = keccak256(abi.encodePacked(_ISIN));\n        uint _tradeId;\n        // Require that the ISIN is valid on the system\n        // require(securities[_hash].active);\n\n        if (_buyOrSaleIndicator == 0) {\n            // check that sender is authorised  \n\n            // require(\n            //     msg.sender == buyLegForISINAndId[_hash][_legId].custodianId ||\n            //     msg.sender == buyLegForISINAndId[_hash][_legId].investorAddress);\n            require(_party == buyLegForISINAndId[_hash][_legId].investorAddress);\n                \n                // msg.sender == buyLegForISINAndId[_hash][_legId].tradeReportingPartyAddress,\n                // \"Sender not authorised\");\n\n            _tradeId = buyLegForISINAndId[_hash][_legId].tradeId;\n            matchedTradesForISINandId[_hash][_tradeId].buyConfirmationDateTime = block.timestamp;\n        } else if (_buyOrSaleIndicator == 1) {\n            // check that sender is authorised       \n            // require(\n            //     msg.sender == saleLegForISINAndId[_hash][_legId].custodianId ||\n            //     msg.sender == saleLegForISINAndId[_hash][_legId].investorAddress);\n            require(_party == saleLegForISINAndId[_hash][_legId].investorAddress);\n\n                // msg.sender == saleLegForISINAndId[_hash][_legId].tradeReportingPartyAddress,\n                // \"Sender must be autherised\");\n\n            _tradeId = saleLegForISINAndId[_hash][_legId].tradeId;\n            matchedTradesForISINandId[_hash][_tradeId].saleConfirmationDateTime = block.timestamp;\n        } else {\n            revert(\"ERR\");\n        }\n\n        if (matchedTradesForISINandId[_hash][_tradeId].saleConfirmationDateTime > 0) {\n            if (matchedTradesForISINandId[_hash][_tradeId].saleConfirmationDateTime > 0) {\n\n                if (matchedTradesForISINandId[_hash][_tradeId].settlementDeadlineDate == 0) {\n                    balances[keccak256(abi.encodePacked(\"eZAR\"))][buyLegForISINAndId[_hash][matchedTradesForISINandId[_hash][_tradeId].buyLegId].investorAddress] -= buyLegForISINAndId[_hash][matchedTradesForISINandId[_hash][_tradeId].buyLegId].buyPrice;\n                    balances[keccak256(abi.encodePacked(\"eZAR\"))][saleLegForISINAndId[_hash][matchedTradesForISINandId[_hash][_tradeId].sellLegId].investorAddress] += saleLegForISINAndId[_hash][matchedTradesForISINandId[_hash][_tradeId].sellLegId].salePrice;\n                    balances[keccak256(abi.encodePacked(_ISIN))][saleLegForISINAndId[_hash][matchedTradesForISINandId[_hash][_tradeId].sellLegId].investorAddress] -= saleLegForISINAndId[_hash][matchedTradesForISINandId[_hash][_tradeId].sellLegId].amount;\n                    balances[keccak256(abi.encodePacked(_ISIN))][buyLegForISINAndId[_hash][matchedTradesForISINandId[_hash][_tradeId].buyLegId].investorAddress] += buyLegForISINAndId[_hash][matchedTradesForISINandId[_hash][_tradeId].buyLegId].amount;\n                } else {\n                    // Once a perfect match has been made, add the fully confirmed trade to a list of trades to be settled on settlement date.\n                    // confirmedTradesForISINandSettlementDate[_hash][matchedTradesForISINandId[_hash][_tradeId].settlementDeadlineDate].push(matchedTradesForISINandId[_hash][_tradeId]);\n                    //TODO: Add securities netting\n                    //  Do reservation for securities \n                    //    Decuct securities from seller\n                    //    Add securities from buyer\n                    //  Check if buyer has enough cash to do real-time settlement ??? <<<< Confirm with Ganesh / Rudi\n                    //  Do cash calculation from \n                    //    Decuct cash from seller CSDP\n                    //    Add cash to buyer CSDP\n                }\n            }\n        }\n    }\n\n    function setIsinIssuanceContractAddress (address _isinIssuanceContractAddress) public onlyOwner {\n        isinIssuanceContractAddress = _isinIssuanceContractAddress;\n    }\n\n    // ==========================================================================\n    // Add/Remove Authorised Roles:\n    // ==========================================================================    \n    // Administrators will have elevated contract permissions, at present this \n    // will be crude, but in productionising the contract this will become\n    // a vital role.\n    // ==========================================================================\n    function addRemoveAdmin(address _adminAddress, bool _activeFlag) public onlyOwnerOrAdmin {\n        Admins[_adminAddress] = _activeFlag;\n    }\n\n    // function addRemoveCSD(address _CSDAddress, bool _activeFlag) public onlyOwnerOrAdmin {\n    //     CSDs[_CSDAddress] = _activeFlag;\n    // }\n\n    // function addRemoveCustodian(address _CustodianAddress, bool _activeFlag) public onlyOwnerOrAdmin {\n    //     Custodians[_CustodianAddress] = _activeFlag;\n    // }\n\n    // function addRemoveETME(address _ETMEAddress, bool _activeFlag) public onlyOwnerOrAdmin {\n    //     ETMEs[_ETMEAddress] = _activeFlag;\n    // }\n\n    // function addRemoveExchange(address _ExchangeAddress, bool _activeFlag) public onlyOwnerOrAdmin {\n    //     Exchanges[_ExchangeAddress] = _activeFlag;\n    // }\n\n    // function addRemoveSAMOS(address _SAMOSAddress, bool _activeFlag) public onlyOwnerOrAdmin {\n    //     SAMOSs[_SAMOSAddress] = _activeFlag;\n    // }\n\n    // function addRemoveTradeReportingParty(address _TradeReportingPartyAddress, bool _activeFlag) public onlyOwnerOrAdmin {\n    //     TradeReportingParties[_TradeReportingPartyAddress] = _activeFlag;\n    // }\n\n    // ==========================================================================\n    // Helper Console Scripts:\n    // ==========================================================================\n/* \n// Must issue Securities from the IsinIssuance Contract - this will not work\nPostTrade.deployed().then(function(instance){return instance.issueSecurity(\"ZAE001\",1000,\"Anglo American PLC\",\"ANG\")});\n*** ISSUER ***\n// Check Admin balance\nPostTrade.deployed().then(function(instance){return instance.getBalanceOfSecAndAccount(\"ZAE001\",\"0x51e63a2E221C782Bfc95f42Cd469D3780a479C15\")});\n// Send ANG to seller\nPostTrade.deployed().then(function(instance){return instance.sendSecurity(\"ZAE001\",600,\"0x8eA823e5951243bFA7f1Daad4703396260071fB9\")});\n// Check seller balance\nPostTrade.deployed().then(function(instance){return instance.getBalanceOfSecAndAccount(\"ZAE001\",\"0x8eA823e5951243bFA7f1Daad4703396260071fB9\")});\n\n// Optional send security from one account to another\nPostTrade.deployed().then(function(instance){return instance.sendSecurity(\"ZAE001\",500,\"0x8ea823e5951243bfa7f1daad4703396260071fb9\", {from: \"0x2AaB2c02Fc5415D23e91CE8Dc230D3A31793CFF8\"})});\n\n*** BANK ***\n// Check Security details (cash or ISINs)\nPostTrade.deployed().then(function(instance){return instance.getSecurityDetails(\"eZAR\")});\n//// Issue Cash from and into SAMOS account (OLD - Issue Cash from IsinIssue Contract)\n//// PostTrade.deployed().then(function(instance){return instance.issueCash(10000000, {from:\"0x3E7Eaa5Bc0ee36b4308B668050535d411a81585D\"})});\n//// Check new SAMOS cash balance\n//// PostTrade.deployed().then(function(instance){return instance.getBalanceOfSecAndAccount(\"eZAR\",\"0x51e63a2E221C782Bfc95f42Cd469D3780a479C15\")});\n// Check which assets have been issued: 0 => ANG, 1 => eZAR\nPostTrade.deployed().then(function(instance){return instance.getSecuritiesListById(0)});\n// send cash to Buyer\nPostTrade.deployed().then(function(instance){return instance.sendSecurity(\"eZAR\",10000,\"0xFb91a2395d9E49b89fcA3dca0959b6eB4Ea08a0B\", {from: \"0x51e63a2e221c782bfc95f42cd469d3780a479c15\"})});\n\n*** EXCHANGE ***\n// Report Pre-matched trade for T+X settlement (_ISIN, _buyLegId, _saleLegId, _tradeId, _settlementDate, _buyerAddress, _sellerAddress, _buyerCustodianId, _sellerCustodianId, _amount, _salePrice)\nPostTrade.deployed().then(function(instance){return instance.addPreMatchedTrade(\"ZAE001\",1234,4321,11223344,20180720,\"0xFb91a2395d9E49b89fcA3dca0959b6eB4Ea08a0B\",\"0x8eA823e5951243bFA7f1Daad4703396260071fB9\",\"0x1c6B96De685481c2d9915b606D4AB1277949b4Bc\",\"0x2d14d5Ae5E54a22043B1eccD420494DAA9513e06\",100,5000,{from:\"0x0ef2F9c8845da4c9c34BEf02C3213e0Da1306Da0\"})});\n// Report Pre-matched trade for T+0 settlement (_ISIN, _buyLegId, _saleLegId, _tradeId, _settlementDate, _buyerAddress, _sellerAddress, _buyerCustodianId, _sellerCustodianId, _amount, _salePrice)\nPostTrade.deployed().then(function(instance){return instance.addPreMatchedTrade(\"ZAE001\",12345,54321,1122334455,0,\"0xFb91a2395d9E49b89fcA3dca0959b6eB4Ea08a0B\",\"0x8eA823e5951243bFA7f1Daad4703396260071fB9\",\"0x1c6B96De685481c2d9915b606D4AB1277949b4Bc\",\"0x2d14d5Ae5E54a22043B1eccD420494DAA9513e06\",100,5000,{from:\"0x0ef2F9c8845da4c9c34BEf02C3213e0Da1306Da0\"})});\n\n*** CZECH TRADE ***\nPostTrade.deployed().then(function(instance){return instance.getMatchedTradesIDs(\"ZAE001\")});\nPostTrade.deployed().then(function(instance){return instance.getMatchedTrades(\"ZAE001\",1122334455)});\nPostTrade.deployed().then(function(instance){return instance.getBuysPartiesForIsin(\"ZAE001\",12345)});\nPostTrade.deployed().then(function(instance){return instance.getBuysForIsin(\"ZAE001\",12345)});\n\n*** INVESTOR or PROXY\n// Confirm Buy leg:\nPostTrade.deployed().then(function(instance){return instance.confirmTradeLeg(0, 12345, \"ZAE001\", \"0xFb91a2395d9E49b89fcA3dca0959b6eB4Ea08a0B\")});\nConfirmationsAndMandates.deployed().then(function(instance){return instance.confirmTradeLeg(0, 12345, \"ZAE001\", \"0xFb91a2395d9E49b89fcA3dca0959b6eB4Ea08a0B\")});\n// Confirm Sell leg:\nPostTrade.deployed().then(function(instance){return instance.confirmTradeLeg(1, 54321, \"ZAE001\", \"0x8eA823e5951243bFA7f1Daad4703396260071fB9\")});\n\n\n\n// Check Buyer's new ANG balance (100)\nPostTrade.deployed().then(function(instance){return instance.getBalanceOfSecAndAccount(\"ZAE001\",\"0xFb91a2395d9E49b89fcA3dca0959b6eB4Ea08a0B\")});\n// Check Seller's new ANG balance (500)\nPostTrade.deployed().then(function(instance){return instance.getBalanceOfSecAndAccount(\"ZAE001\",\"0x8eA823e5951243bFA7f1Daad4703396260071fB9\")});\n// Check Buyer's new cash balance (5000)\nPostTrade.deployed().then(function(instance){return instance.getBalanceOfSecAndAccount(\"eZAR\",\"0xFb91a2395d9E49b89fcA3dca0959b6eB4Ea08a0B\")});\n*/ \n    // ==========================================================================\n    // TRUFFLE MNEMONIC: latin bonus invest museum gate buffalo fever demand neglect entire session rail\n    // [ '0x51e63a2e221c782bfc95f42cd469d3780a479c15',\n    //   '0xfb91a2395d9e49b89fca3dca0959b6eb4ea08a0b',\n    //   '0x8ea823e5951243bfa7f1daad4703396260071fb9',\n    //   '0xed646f6b0cf23c2bfc0dc4117da42eb5ccf15ee4',\n    //   '0xa1ff8ee897ed92e62ae9f30061ba5f012e804721',\n    //   '0x1c6b96de685481c2d9915b606d4ab1277949b4bc',\n    //   '0x2d14d5ae5e54a22043b1eccd420494daa9513e06',\n    //   '0x0ef2f9c8845da4c9c34bef02c3213e0da1306da0',\n    //   '0x3e7eaa5bc0ee36b4308b668050535d411a81585d',\n    //   '0x2aab2c02fc5415d23e91ce8dc230d3a31793cff8' ]\n    // ==========================================================================\n    // *** END TRIAL CODE ***\n    // ==========================================================================\n}",
  "sourcePath": "/Users/johanpretorius/Dev/it_roadmap_2025/contracts/PostTrade.sol",
  "compiler": {
    "name": "solc",
    "version": "0.4.24+commit.e67f0147.Emscripten.clang"
  },
  "schemaVersion": "2.0.1",
  "updatedAt": "2018-09-17T05:17:38.907Z"
}