{
  "contractName": "PostTrade",
  "abi": [
    {
      "constant": true,
      "inputs": [
        {
          "name": "",
          "type": "bytes32"
        }
      ],
      "name": "securities",
      "outputs": [
        {
          "name": "ISIN",
          "type": "string"
        },
        {
          "name": "totalIssuedShareCap",
          "type": "uint256"
        },
        {
          "name": "longName",
          "type": "string"
        },
        {
          "name": "ticker",
          "type": "string"
        },
        {
          "name": "active",
          "type": "bool"
        }
      ],
      "payable": false,
      "stateMutability": "view",
      "type": "function"
    },
    {
      "constant": true,
      "inputs": [
        {
          "name": "",
          "type": "bytes32"
        },
        {
          "name": "",
          "type": "address"
        }
      ],
      "name": "balances",
      "outputs": [
        {
          "name": "",
          "type": "uint256"
        }
      ],
      "payable": false,
      "stateMutability": "view",
      "type": "function"
    },
    {
      "inputs": [],
      "payable": false,
      "stateMutability": "nonpayable",
      "type": "constructor"
    },
    {
      "constant": false,
      "inputs": [
        {
          "name": "_ISIN",
          "type": "string"
        },
        {
          "name": "_totalIssuedShareCap",
          "type": "uint256"
        },
        {
          "name": "_longName",
          "type": "string"
        },
        {
          "name": "_ticker",
          "type": "string"
        }
      ],
      "name": "issueSecurity",
      "outputs": [],
      "payable": false,
      "stateMutability": "nonpayable",
      "type": "function"
    },
    {
      "constant": false,
      "inputs": [
        {
          "name": "_ISIN",
          "type": "string"
        },
        {
          "name": "_amount",
          "type": "uint256"
        }
      ],
      "name": "topUp",
      "outputs": [],
      "payable": false,
      "stateMutability": "nonpayable",
      "type": "function"
    },
    {
      "constant": true,
      "inputs": [
        {
          "name": "_ISIN",
          "type": "string"
        }
      ],
      "name": "getSecurityDetails",
      "outputs": [
        {
          "name": "",
          "type": "string"
        },
        {
          "name": "",
          "type": "uint256"
        },
        {
          "name": "",
          "type": "string"
        },
        {
          "name": "",
          "type": "string"
        },
        {
          "name": "",
          "type": "bool"
        }
      ],
      "payable": false,
      "stateMutability": "view",
      "type": "function"
    },
    {
      "constant": true,
      "inputs": [
        {
          "name": "_index",
          "type": "uint256"
        }
      ],
      "name": "getSecuritiesListById",
      "outputs": [
        {
          "name": "",
          "type": "string"
        },
        {
          "name": "",
          "type": "uint256"
        }
      ],
      "payable": false,
      "stateMutability": "view",
      "type": "function"
    },
    {
      "constant": true,
      "inputs": [
        {
          "name": "_ISIN",
          "type": "string"
        },
        {
          "name": "_accountHolder",
          "type": "address"
        }
      ],
      "name": "getBalanceOfSecAndAccount",
      "outputs": [
        {
          "name": "",
          "type": "uint256"
        }
      ],
      "payable": false,
      "stateMutability": "view",
      "type": "function"
    },
    {
      "constant": false,
      "inputs": [
        {
          "name": "_ISIN",
          "type": "string"
        },
        {
          "name": "_amount",
          "type": "uint256"
        },
        {
          "name": "_receiverAddress",
          "type": "address"
        }
      ],
      "name": "sendSecurity",
      "outputs": [],
      "payable": false,
      "stateMutability": "nonpayable",
      "type": "function"
    }
  ],
  "bytecode": "0x608060405234801561001057600080fd5b50336000806101000a81548173ffffffffffffffffffffffffffffffffffffffff021916908373ffffffffffffffffffffffffffffffffffffffff16021790555061190c806100606000396000f30060806040526004361061008e576000357c0100000000000000000000000000000000000000000000000000000000900463ffffffff1680630bbb0dc31461009357806320ef03131461025f578063278325af1461030c5780633e87e4aa146103a95780634ac52ccb146104a85780634cdf22c31461051b5780634e1593e2146106af578063d93d736114610742575b600080fd5b34801561009f57600080fd5b506100fa600480360381019080803590602001908201803590602001908080601f01602080910402602001604051908101604052809392919081815260200183838082843782019150505050505091929192905050506107a7565b6040518080602001868152602001806020018060200185151515158152602001848103845289818151815260200191508051906020019080838360005b83811015610152578082015181840152602081019050610137565b50505050905090810190601f16801561017f5780820380516001836020036101000a031916815260200191505b50848103835287818151815260200191508051906020019080838360005b838110156101b857808201518184015260208101905061019d565b50505050905090810190601f1680156101e55780820380516001836020036101000a031916815260200191505b50848103825286818151815260200191508051906020019080838360005b8381101561021e578082015181840152602081019050610203565b50505050905090810190601f16801561024b5780820380516001836020036101000a031916815260200191505b509850505050505050505060405180910390f35b34801561026b57600080fd5b5061028a60048036038101908080359060200190929190505050610c26565b6040518080602001838152602001828103825284818151815260200191508051906020019080838360005b838110156102d05780820151818401526020810190506102b5565b50505050905090810190601f1680156102fd5780820380516001836020036101000a031916815260200191505b50935050505060405180910390f35b34801561031857600080fd5b50610393600480360381019080803590602001908201803590602001908080601f0160208091040260200160405190810160405280939291908181526020018383808284378201915050505050509192919290803573ffffffffffffffffffffffffffffffffffffffff169060200190929190505050610cee565b6040518082815260200191505060405180910390f35b3480156103b557600080fd5b506104a6600480360381019080803590602001908201803590602001908080601f016020809104026020016040519081016040528093929190818152602001838380828437820191505050505050919291929080359060200190929190803590602001908201803590602001908080601f0160208091040260200160405190810160405280939291908181526020018383808284378201915050505050509192919290803590602001908201803590602001908080601f0160208091040260200160405190810160405280939291908181526020018383808284378201915050505050509192919290505050610db3565b005b3480156104b457600080fd5b50610519600480360381019080803590602001908201803590602001908080601f016020809104026020016040519081016040528093929190818152602001838380828437820191505050505050919291929080359060200190929190505050611137565b005b34801561052757600080fd5b5061054a60048036038101908080356000191690602001909291905050506113ad565b6040518080602001868152602001806020018060200185151515158152602001848103845289818151815260200191508051906020019080838360005b838110156105a2578082015181840152602081019050610587565b50505050905090810190601f1680156105cf5780820380516001836020036101000a031916815260200191505b50848103835287818151815260200191508051906020019080838360005b838110156106085780820151818401526020810190506105ed565b50505050905090810190601f1680156106355780820380516001836020036101000a031916815260200191505b50848103825286818151815260200191508051906020019080838360005b8381101561066e578082015181840152602081019050610653565b50505050905090810190601f16801561069b5780820380516001836020036101000a031916815260200191505b509850505050505050505060405180910390f35b3480156106bb57600080fd5b50610740600480360381019080803590602001908201803590602001908080601f016020809104026020016040519081016040528093929190818152602001838380828437820191505050505050919291929080359060200190929190803573ffffffffffffffffffffffffffffffffffffffff1690602001909291905050506115b8565b005b34801561074e57600080fd5b506107916004803603810190808035600019169060200190929190803573ffffffffffffffffffffffffffffffffffffffff169060200190929190505050611816565b6040518082815260200191505060405180910390f35b60606000606080600060026000876040518082805190602001908083835b6020831015156107ea57805182526020820191506020810190506020830392506107c5565b6001836020036101000a03801982511681845116808217855250505050505090500191505060405180910390206000191660001916815260200190815260200160002060000160026000886040518082805190602001908083835b60208310151561086a5780518252602082019150602081019050602083039250610845565b6001836020036101000a0380198251168184511680821785525050505050509050019150506040518091039020600019166000191681526020019081526020016000206001015460026000896040518082805190602001908083835b6020831015156108eb57805182526020820191506020810190506020830392506108c6565b6001836020036101000a038019825116818451168082178552505050505050905001915050604051809103902060001916600019168152602001908152602001600020600201600260008a6040518082805190602001908083835b60208310151561096b5780518252602082019150602081019050602083039250610946565b6001836020036101000a038019825116818451168082178552505050505050905001915050604051809103902060001916600019168152602001908152602001600020600301600260008b6040518082805190602001908083835b6020831015156109eb57805182526020820191506020810190506020830392506109c6565b6001836020036101000a03801982511681845116808217855250505050505090500191505060405180910390206000191660001916815260200190815260200160002060040160009054906101000a900460ff16848054600181600116156101000203166002900480601f016020809104026020016040519081016040528092919081815260200182805460018160011615610100020316600290048015610ad45780601f10610aa957610100808354040283529160200191610ad4565b820191906000526020600020905b815481529060010190602001808311610ab757829003601f168201915b50505050509450828054600181600116156101000203166002900480601f016020809104026020016040519081016040528092919081815260200182805460018160011615610100020316600290048015610b705780601f10610b4557610100808354040283529160200191610b70565b820191906000526020600020905b815481529060010190602001808311610b5357829003601f168201915b50505050509250818054600181600116156101000203166002900480601f016020809104026020016040519081016040528092919081815260200182805460018160011615610100020316600290048015610c0c5780601f10610be157610100808354040283529160200191610c0c565b820191906000526020600020905b815481529060010190602001808311610bef57829003601f168201915b505050505091509450945094509450945091939590929450565b60606000600383815481101515610c3957fe5b90600052602060002001600380549050818054600181600116156101000203166002900480601f016020809104026020016040519081016040528092919081815260200182805460018160011615610100020316600290048015610cde5780601f10610cb357610100808354040283529160200191610cde565b820191906000526020600020905b815481529060010190602001808311610cc157829003601f168201915b5050505050915091509150915091565b600060016000846040518082805190602001908083835b602083101515610d2a5780518252602082019150602081019050602083039250610d05565b6001836020036101000a03801982511681845116808217855250505050505090500191505060405180910390206000191660001916815260200190815260200160002060008373ffffffffffffffffffffffffffffffffffffffff1673ffffffffffffffffffffffffffffffffffffffff16815260200190815260200160002054905092915050565b60008060009054906101000a900473ffffffffffffffffffffffffffffffffffffffff1673ffffffffffffffffffffffffffffffffffffffff163373ffffffffffffffffffffffffffffffffffffffff16141515610e1057600080fd5b6000151560026000876040518082805190602001908083835b602083101515610e4e5780518252602082019150602081019050602083039250610e29565b6001836020036101000a03801982511681845116808217855250505050505090500191505060405180910390206000191660001916815260200190815260200160002060040160009054906101000a900460ff161515141515610eb057600080fd5b846040518082805190602001908083835b602083101515610ee65780518252602082019150602081019050602083039250610ec1565b6001836020036101000a03801982511681845116808217855250505050505090500191505060405180910390209050846002600083600019166000191681526020019081526020016000206000019080519060200190610f4792919061183b565b508360026000836000191660001916815260200190815260200160002060010181905550826002600083600019166000191681526020019081526020016000206002019080519060200190610f9d92919061183b565b50816002600083600019166000191681526020019081526020016000206003019080519060200190610fd092919061183b565b50600160026000836000191660001916815260200190815260200160002060040160006101000a81548160ff021916908315150217905550600385908060018154018082558091505090600182039060005260206000200160009091929091909150908051906020019061104592919061183b565b50508360016000876040518082805190602001908083835b602083101515611082578051825260208201915060208101905060208303925061105d565b6001836020036101000a03801982511681845116808217855250505050505090500191505060405180910390206000191660001916815260200190815260200160002060008060009054906101000a900473ffffffffffffffffffffffffffffffffffffffff1673ffffffffffffffffffffffffffffffffffffffff1673ffffffffffffffffffffffffffffffffffffffff168152602001908152602001600020600082825401925050819055505050505050565b6000809054906101000a900473ffffffffffffffffffffffffffffffffffffffff1673ffffffffffffffffffffffffffffffffffffffff163373ffffffffffffffffffffffffffffffffffffffff1614151561119257600080fd5b6001151560026000846040518082805190602001908083835b6020831015156111d057805182526020820191506020810190506020830392506111ab565b6001836020036101000a03801982511681845116808217855250505050505090500191505060405180910390206000191660001916815260200190815260200160002060040160009054906101000a900460ff16151514151561123257600080fd5b8060026000846040518082805190602001908083835b60208310151561126d5780518252602082019150602081019050602083039250611248565b6001836020036101000a038019825116818451168082178552505050505050905001915050604051809103902060001916600019168152602001908152602001600020600101600082825401925050819055508060016000846040518082805190602001908083835b6020831015156112fb57805182526020820191506020810190506020830392506112d6565b6001836020036101000a03801982511681845116808217855250505050505090500191505060405180910390206000191660001916815260200190815260200160002060008060009054906101000a900473ffffffffffffffffffffffffffffffffffffffff1673ffffffffffffffffffffffffffffffffffffffff1673ffffffffffffffffffffffffffffffffffffffff168152602001908152602001600020600082825401925050819055505050565b6002602052806000526040600020600091509050806000018054600181600116156101000203166002900480601f0160208091040260200160405190810160405280929190818152602001828054600181600116156101000203166002900480156114595780601f1061142e57610100808354040283529160200191611459565b820191906000526020600020905b81548152906001019060200180831161143c57829003601f168201915b505050505090806001015490806002018054600181600116156101000203166002900480601f0160208091040260200160405190810160405280929190818152602001828054600181600116156101000203166002900480156114fd5780601f106114d2576101008083540402835291602001916114fd565b820191906000526020600020905b8154815290600101906020018083116114e057829003601f168201915b505050505090806003018054600181600116156101000203166002900480601f01602080910402602001604051908101604052809291908181526020018280546001816001161561010002031660029004801561159b5780601f106115705761010080835404028352916020019161159b565b820191906000526020600020905b81548152906001019060200180831161157e57829003601f168201915b5050505050908060040160009054906101000a900460ff16905085565b8160016000856040518082805190602001908083835b6020831015156115f357805182526020820191506020810190506020830392506115ce565b6001836020036101000a03801982511681845116808217855250505050505090500191505060405180910390206000191660001916815260200190815260200160002060003373ffffffffffffffffffffffffffffffffffffffff1673ffffffffffffffffffffffffffffffffffffffff168152602001908152602001600020541015151561168157600080fd5b8160016000856040518082805190602001908083835b6020831015156116bc5780518252602082019150602081019050602083039250611697565b6001836020036101000a03801982511681845116808217855250505050505090500191505060405180910390206000191660001916815260200190815260200160002060003373ffffffffffffffffffffffffffffffffffffffff1673ffffffffffffffffffffffffffffffffffffffff168152602001908152602001600020600082825403925050819055508160016000856040518082805190602001908083835b602083101515611784578051825260208201915060208101905060208303925061175f565b6001836020036101000a03801982511681845116808217855250505050505090500191505060405180910390206000191660001916815260200190815260200160002060008373ffffffffffffffffffffffffffffffffffffffff1673ffffffffffffffffffffffffffffffffffffffff16815260200190815260200160002060008282540192505081905550505050565b6001602052816000526040600020602052806000526040600020600091509150505481565b828054600181600116156101000203166002900490600052602060002090601f016020900481019282601f1061187c57805160ff19168380011785556118aa565b828001600101855582156118aa579182015b828111156118a957825182559160200191906001019061188e565b5b5090506118b791906118bb565b5090565b6118dd91905b808211156118d95760008160009055506001016118c1565b5090565b905600a165627a7a72305820481bbfc42c5843c16baa4f315a437a57103c7aed56bfce9227fa5f976a4e91640029",
  "source": "pragma solidity ^0.4.23;\n\ncontract PostTrade {\n\n    modifier onlyOwner{\n        require(msg.sender == owner);\n        _;\n    }\n\n    address owner;\n\n    struct Security {\n        string ISIN;\n        uint totalIssuedShareCap;\n        string longName;\n        string ticker;\n        bool active;\n    }\n\n    constructor () public {\n        owner = msg.sender;\n    }\n\n    mapping(bytes32 => mapping (address => uint)) public balances;\n    mapping(bytes32 => Security) public securities;\n    \n    string[] securitiesList;\n\n    function issueSecurity (string _ISIN, uint _totalIssuedShareCap, string _longName, string _ticker) public onlyOwner {\n        require (securities[keccak256(_ISIN)].active == false);\n        bytes32 keccakIsin = keccak256(_ISIN);\n        securities[keccakIsin].ISIN = _ISIN;\n        securities[keccakIsin].totalIssuedShareCap = _totalIssuedShareCap;\n        securities[keccakIsin].longName = _longName;\n        securities[keccakIsin].ticker = _ticker;\n        securities[keccakIsin].active = true;\n\n        securitiesList.push(_ISIN);\n\n        balances[keccak256(_ISIN)][owner] += _totalIssuedShareCap;\n    }\n\n    function topUp (string _ISIN, uint _amount) public onlyOwner {\n        require (securities[keccak256(_ISIN)].active == true);\n        securities[keccak256(_ISIN)].totalIssuedShareCap += _amount;\n        balances[keccak256(_ISIN)][owner] += _amount;\n    }\n\n    function getSecurityDetails (string _ISIN) public view returns (string, uint, string, string, bool) {\n        return (\n            securities[keccak256(_ISIN)].ISIN,\n            securities[keccak256(_ISIN)].totalIssuedShareCap,\n            securities[keccak256(_ISIN)].longName,\n            securities[keccak256(_ISIN)].ticker,\n            securities[keccak256(_ISIN)].active\n        );\n    }\n\n    function getSecuritiesListById (uint _index) public view returns (string, uint) {\n        return (securitiesList[_index], securitiesList.length);\n    }\n\n    function getBalanceOfSecAndAccount (string _ISIN, address _accountHolder) public view returns (uint) {\n        return balances[keccak256(_ISIN)][_accountHolder];\n    }\n\n    function sendSecurity (string _ISIN, uint _amount, address _receiverAddress) public {\n        require (balances[keccak256(_ISIN)][msg.sender] >= _amount);\n        balances[keccak256(_ISIN)][msg.sender] -= _amount;\n        balances[keccak256(_ISIN)][_receiverAddress] += _amount;\n    }\n\n    // ==========================================================================\n    // Helper Console Scripts:\n    // ==========================================================================\n    //\n    // PostTrade.deployed().then(function(instance){return instance.issueSecurity(\"ZAE001\",1000,\"Anglo American PLC\",\"ANG\")});\n    // PostTrade.deployed().then(function(instance){return instance.getBalanceOfSecAndAccount(\"ZAE001\",\"0x51e63a2E221C782Bfc95f42Cd469D3780a479C15\")});\n    // PostTrade.deployed().then(function(instance){return instance.sendSecurity(\"ZAE001\",600,\"0x2AaB2c02Fc5415D23e91CE8Dc230D3A31793CFF8\")});\n    // PostTrade.deployed().then(function(instance){return instance.sendSecurity(\"ZAE001\",500,\"0x8ea823e5951243bfa7f1daad4703396260071fb9\", {from: \"0x2AaB2c02Fc5415D23e91CE8Dc230D3A31793CFF8\"})});\n    // PostTrade.deployed().then(function(instance){return instance.getSecurityDetails(\"ZAE001\")});\n    // PostTrade.deployed().then(function(instance){return instance.getSecuritiesListById(0)});\n    // \n    // ==========================================================================\n    // TRUFFLE MNEMONIC: latin bonus invest museum gate buffalo fever demand neglect entire session rail\n    // [ '0x51e63a2e221c782bfc95f42cd469d3780a479c15',      <<< OWNER and default recipient of initial issue\n    //   '0xfb91a2395d9e49b89fca3dca0959b6eb4ea08a0b',      <<< Rudi\n    //   '0x8ea823e5951243bfa7f1daad4703396260071fb9',      <<< Ganesh\n    //   '0xed646f6b0cf23c2bfc0dc4117da42eb5ccf15ee4',      <<< Tanya\n    //   '0xa1ff8ee897ed92e62ae9f30061ba5f012e804721',      <<< Johan\n    //   '0x1c6b96de685481c2d9915b606d4ab1277949b4bc',\n    //   '0x2d14d5ae5e54a22043b1eccd420494daa9513e06',\n    //   '0x0ef2f9c8845da4c9c34bef02c3213e0da1306da0',\n    //   '0x3e7eaa5bc0ee36b4308b668050535d411a81585d',\n    //   '0x2aab2c02fc5415d23e91ce8dc230d3a31793cff8' ]\n    // ==========================================================================\n    // *** END TRIAL CODE ***\n    // ==========================================================================\n}",
  "sourcePath": "/Users/johanp/dev/eth/sc_demo/contracts/PostTrade.sol",
  "compiler": {
    "name": "solc",
    "version": "0.4.24+commit.e67f0147.Emscripten.clang"
  },
  "schemaVersion": "2.0.1",
  "updatedAt": "2018-07-04T08:11:23.609Z"
}